{
  "contractName": "RahatRegistry",
  "abi": [
    {
      "inputs": [
        {
          "internalType": "address",
          "name": "_admin",
          "type": "address"
        }
      ],
      "stateMutability": "nonpayable",
      "type": "constructor"
    },
    {
      "inputs": [
        {
          "internalType": "address",
          "name": "_account",
          "type": "address"
        }
      ],
      "name": "addOwner",
      "outputs": [
        {
          "internalType": "bool",
          "name": "",
          "type": "bool"
        }
      ],
      "stateMutability": "nonpayable",
      "type": "function"
    },
    {
      "inputs": [
        {
          "internalType": "bytes32",
          "name": "",
          "type": "bytes32"
        }
      ],
      "name": "id2Address",
      "outputs": [
        {
          "internalType": "address",
          "name": "",
          "type": "address"
        }
      ],
      "stateMutability": "view",
      "type": "function"
    },
    {
      "inputs": [],
      "name": "listAdmins",
      "outputs": [
        {
          "internalType": "address[]",
          "name": "",
          "type": "address[]"
        }
      ],
      "stateMutability": "view",
      "type": "function"
    },
    {
      "inputs": [
        {
          "internalType": "bytes[]",
          "name": "data",
          "type": "bytes[]"
        }
      ],
      "name": "multicall",
      "outputs": [
        {
          "internalType": "bytes[]",
          "name": "results",
          "type": "bytes[]"
        }
      ],
      "stateMutability": "nonpayable",
      "type": "function"
    },
    {
      "inputs": [
        {
          "internalType": "address",
          "name": "",
          "type": "address"
        }
      ],
      "name": "owner",
      "outputs": [
        {
          "internalType": "bool",
          "name": "",
          "type": "bool"
        }
      ],
      "stateMutability": "view",
      "type": "function"
    },
    {
      "inputs": [
        {
          "internalType": "address",
          "name": "_account",
          "type": "address"
        }
      ],
      "name": "removeOwner",
      "outputs": [
        {
          "internalType": "bool",
          "name": "",
          "type": "bool"
        }
      ],
      "stateMutability": "nonpayable",
      "type": "function"
    },
    {
      "inputs": [
        {
          "internalType": "bytes32",
          "name": "_id",
          "type": "bytes32"
        },
        {
          "internalType": "address",
          "name": "_addr",
          "type": "address"
        }
      ],
      "name": "addId2AddressMap",
      "outputs": [
        {
          "internalType": "bool",
          "name": "",
          "type": "bool"
        }
      ],
      "stateMutability": "nonpayable",
      "type": "function"
    },
    {
      "inputs": [
        {
          "internalType": "bytes32",
          "name": "_id",
          "type": "bytes32"
        }
      ],
      "name": "exists",
      "outputs": [
        {
          "internalType": "bool",
          "name": "",
          "type": "bool"
        }
      ],
      "stateMutability": "view",
      "type": "function"
    }
  ],
  "bytecode": "0x608060405234801561001057600080fd5b50604051610af3380380610af383398101604081905261002f91610056565b6001600160a01b03166000908152600260205260409020805460ff19166001179055610086565b60006020828403121561006857600080fd5b81516001600160a01b038116811461007f57600080fd5b9392505050565b610a5e806100956000396000f3fe608060405234801561001057600080fd5b50600436106100785760003560e01c8063173825d91461007d57806338a699a4146100a5578063666e1b39146100d05780637065cb48146100f3578063a591afbe14610106578063ac9650d81461011b578063b3fd13a91461013b578063bde87f2e1461014e575b600080fd5b61009061008b3660046106e5565b61018f565b60405190151581526020015b60405180910390f35b6100906100b3366004610700565b6000908152600360205260409020546001600160a01b0316151590565b6100906100de3660046106e5565b60026020526000908152604090205460ff1681565b6100906101013660046106e5565b6101fc565b61010e610258565b60405161009c9190610719565b61012e610129366004610766565b610269565b60405161009c919061082b565b61009061014936600461088d565b61035f565b61017761015c366004610700565b6003602052600090815260409020546001600160a01b031681565b6040516001600160a01b03909116815260200161009c565b3360009081526002602052604081205460ff166101c75760405162461bcd60e51b81526004016101be906108b9565b60405180910390fd5b6001600160a01b0382166000908152600260205260408120805460ff191690556101f190836103c0565b50600190505b919050565b3360009081526002602052604081205460ff1661022b5760405162461bcd60e51b81526004016101be906108b9565b6001600160a01b0382166000908152600260205260408120805460ff191660011790556101f190836103dc565b606061026460006103f1565b905090565b60608167ffffffffffffffff81111561028457610284610900565b6040519080825280602002602001820160405280156102b757816020015b60608152602001906001900390816102a25790505b50905060005b8281101561035757610327308585848181106102db576102db610916565b90506020028101906102ed919061092c565b8080601f0160208091040260200160405190810160405280939291908181526020018383808284376000920191909152506103fe92505050565b82828151811061033957610339610916565b6020026020010181905250808061034f90610990565b9150506102bd565b505b92915050565b3360009081526002602052604081205460ff1661038e5760405162461bcd60e51b81526004016101be906108b9565b50600082815260036020526040902080546001600160a01b0383166001600160a01b0319909116179055600192915050565b60006103d5836001600160a01b038416610423565b9392505050565b60006103d5836001600160a01b038416610516565b606060006103d583610565565b60606103d58383604051806060016040528060278152602001610a02602791396105c1565b6000818152600183016020526040812054801561050c5760006104476001836109a9565b855490915060009061045b906001906109a9565b90508181146104c057600086600001828154811061047b5761047b610916565b906000526020600020015490508087600001848154811061049e5761049e610916565b6000918252602080832090910192909255918252600188019052604090208390555b85548690806104d1576104d16109bc565b600190038181906000526020600020016000905590558560010160008681526020019081526020016000206000905560019350505050610359565b6000915050610359565b600081815260018301602052604081205461055d57508154600181810184556000848152602080822090930184905584548482528286019093526040902091909155610359565b506000610359565b6060816000018054806020026020016040519081016040528092919081815260200182805480156105b557602002820191906000526020600020905b8154815260200190600101908083116105a1575b50505050509050919050565b6060833b6106205760405162461bcd60e51b815260206004820152602660248201527f416464726573733a2064656c65676174652063616c6c20746f206e6f6e2d636f6044820152651b9d1c9858dd60d21b60648201526084016101be565b600080856001600160a01b03168560405161063b91906109d2565b600060405180830381855af49150503d8060008114610676576040519150601f19603f3d011682016040523d82523d6000602084013e61067b565b606091505b509150915061068b828286610695565b9695505050505050565b606083156106a45750816103d5565b8251156106b45782518084602001fd5b8160405162461bcd60e51b81526004016101be91906109ee565b80356001600160a01b03811681146101f757600080fd5b6000602082840312156106f757600080fd5b6103d5826106ce565b60006020828403121561071257600080fd5b5035919050565b6020808252825182820181905260009190848201906040850190845b8181101561075a5783516001600160a01b031683529284019291840191600101610735565b50909695505050505050565b6000806020838503121561077957600080fd5b823567ffffffffffffffff8082111561079157600080fd5b818501915085601f8301126107a557600080fd5b8135818111156107b457600080fd5b8660208260051b85010111156107c957600080fd5b60209290920196919550909350505050565b60005b838110156107f65781810151838201526020016107de565b50506000910152565b600081518084526108178160208601602086016107db565b601f01601f19169290920160200192915050565b6000602080830181845280855180835260408601915060408160051b870101925083870160005b8281101561088057603f1988860301845261086e8583516107ff565b94509285019290850190600101610852565b5092979650505050505050565b600080604083850312156108a057600080fd5b823591506108b0602084016106ce565b90509250929050565b60208082526027908201527f4f6e6c79206f776e65722063616e20657865637574652074686973207472616e60408201526639b0b1ba34b7b760c91b606082015260800190565b634e487b7160e01b600052604160045260246000fd5b634e487b7160e01b600052603260045260246000fd5b6000808335601e1984360301811261094357600080fd5b83018035915067ffffffffffffffff82111561095e57600080fd5b60200191503681900382131561097357600080fd5b9250929050565b634e487b7160e01b600052601160045260246000fd5b6000600182016109a2576109a261097a565b5060010190565b818103818111156103595761035961097a565b634e487b7160e01b600052603160045260246000fd5b600082516109e48184602087016107db565b9190910192915050565b6020815260006103d560208301846107ff56fe416464726573733a206c6f772d6c6576656c2064656c65676174652063616c6c206661696c6564a26469706673582212205dfefb2d9e889b34e6147fe5eeb8c297d2085874bb7d52f50ab8e2c9a0dfd38764736f6c63430008100033",
  "immutableReferences": {},
  "source": "//SPDX-License-Identifier: LGPL-3.0\r\n\r\npragma solidity ^0.8.16;\r\n\r\nimport \"../libraries/AbstractOwner.sol\";\r\nimport \"@openzeppelin/contracts/utils/Multicall.sol\";\r\n\r\n/// @title Donor contract to create tokens\r\n/// @author Rumsan Associates\r\n/// @notice You can use this contract to manage Rahat tokens and projects\r\n/// @dev All function calls are only executed by contract owner\r\ncontract RahatRegistry is AbstractOwner, Multicall {\r\n\r\n  mapping(bytes32=>address) public id2Address;\r\n\r\n  constructor(\r\n    address _admin\r\n  ) {\r\n    owner[_admin] = true;\r\n  }\r\n\r\n  function addId2AddressMap(bytes32 _id, address _addr) public OnlyOwner returns(bool) {\r\n    id2Address[_id] = _addr;\r\n    return true;\r\n  }\r\n\r\n  function exists(bytes32 _id) public view returns(bool){\r\n    return id2Address[_id]!=address(0);\r\n  }\r\n}\r\n",
  "sourcePath": "S:\\Projects\\rahat\\unicef-np\\rahat-contracts\\src\\contracts\\RahatRegistry.sol",
  "compiler": {
    "name": "solc",
    "version": "0.8.16+commit.07a7930e.Emscripten.clang"
  },
  "schemaVersion": "3.4.10",
  "updatedAt": "2022-12-01T08:31:23.130Z",
  "devdoc": {
    "author": "Rumsan Associates",
    "details": "All function calls are only executed by contract owner",
    "kind": "dev",
    "methods": {
      "addOwner(address)": {
        "params": {
          "_account": "address of new owner"
        }
      },
      "multicall(bytes[])": {
        "details": "Receives and executes a batch of function calls on this contract."
      },
      "removeOwner(address)": {
        "params": {
          "_account": "address of existing owner"
        }
      }
    },
    "title": "Donor contract to create tokens",
    "version": 1
  },
  "userdoc": {
    "kind": "user",
    "methods": {
      "addOwner(address)": {
        "notice": "Add an account to the owner role"
      },
      "removeOwner(address)": {
        "notice": "Remove an account from the owner role"
      }
    },
    "notice": "You can use this contract to manage Rahat tokens and projects",
    "version": 1
  }
}