{
  "contractName": "RahatAdmin",
  "abi": [
    {
      "inputs": [
        {
          "internalType": "contract RahatERC20",
          "name": "_erc20",
          "type": "address"
        },
        {
          "internalType": "address",
          "name": "_admin",
          "type": "address"
        }
      ],
      "stateMutability": "nonpayable",
      "type": "constructor"
    },
    {
      "anonymous": false,
      "inputs": [
        {
          "indexed": false,
          "internalType": "bool",
          "name": "success",
          "type": "bool"
        }
      ],
      "name": "Minted",
      "type": "event"
    },
    {
      "anonymous": false,
      "inputs": [
        {
          "indexed": true,
          "internalType": "bytes32",
          "name": "projectId",
          "type": "bytes32"
        },
        {
          "indexed": false,
          "internalType": "uint256",
          "name": "projectCapital",
          "type": "uint256"
        },
        {
          "indexed": false,
          "internalType": "string",
          "name": "tag",
          "type": "string"
        }
      ],
      "name": "ProjectERC20BudgetUpdated",
      "type": "event"
    },
    {
      "inputs": [
        {
          "internalType": "address",
          "name": "_account",
          "type": "address"
        }
      ],
      "name": "addOwner",
      "outputs": [
        {
          "internalType": "bool",
          "name": "",
          "type": "bool"
        }
      ],
      "stateMutability": "nonpayable",
      "type": "function"
    },
    {
      "inputs": [
        {
          "internalType": "address",
          "name": "_token",
          "type": "address"
        },
        {
          "internalType": "address",
          "name": "_spender",
          "type": "address"
        },
        {
          "internalType": "uint256",
          "name": "_amount",
          "type": "uint256"
        }
      ],
      "name": "approveToken",
      "outputs": [],
      "stateMutability": "nonpayable",
      "type": "function"
    },
    {
      "inputs": [],
      "name": "cashToken",
      "outputs": [
        {
          "internalType": "contract RahatERC20",
          "name": "",
          "type": "address"
        }
      ],
      "stateMutability": "view",
      "type": "function"
    },
    {
      "inputs": [],
      "name": "erc20",
      "outputs": [
        {
          "internalType": "contract RahatERC20",
          "name": "",
          "type": "address"
        }
      ],
      "stateMutability": "view",
      "type": "function"
    },
    {
      "inputs": [
        {
          "internalType": "address",
          "name": "_token",
          "type": "address"
        },
        {
          "internalType": "address",
          "name": "_from",
          "type": "address"
        }
      ],
      "name": "getAllowanceAndBalance",
      "outputs": [
        {
          "internalType": "uint256",
          "name": "allowance",
          "type": "uint256"
        },
        {
          "internalType": "uint256",
          "name": "balance",
          "type": "uint256"
        }
      ],
      "stateMutability": "view",
      "type": "function"
    },
    {
      "inputs": [],
      "name": "listAdmins",
      "outputs": [
        {
          "internalType": "address[]",
          "name": "",
          "type": "address[]"
        }
      ],
      "stateMutability": "view",
      "type": "function"
    },
    {
      "inputs": [
        {
          "internalType": "bytes[]",
          "name": "data",
          "type": "bytes[]"
        }
      ],
      "name": "multicall",
      "outputs": [
        {
          "internalType": "bytes[]",
          "name": "results",
          "type": "bytes[]"
        }
      ],
      "stateMutability": "nonpayable",
      "type": "function"
    },
    {
      "inputs": [
        {
          "internalType": "address",
          "name": "",
          "type": "address"
        }
      ],
      "name": "owner",
      "outputs": [
        {
          "internalType": "bool",
          "name": "",
          "type": "bool"
        }
      ],
      "stateMutability": "view",
      "type": "function"
    },
    {
      "inputs": [
        {
          "internalType": "bytes32",
          "name": "",
          "type": "bytes32"
        }
      ],
      "name": "projectERC20Capital",
      "outputs": [
        {
          "internalType": "uint256",
          "name": "",
          "type": "uint256"
        }
      ],
      "stateMutability": "view",
      "type": "function"
    },
    {
      "inputs": [
        {
          "internalType": "bytes32",
          "name": "",
          "type": "bytes32"
        }
      ],
      "name": "projectExists",
      "outputs": [
        {
          "internalType": "bool",
          "name": "",
          "type": "bool"
        }
      ],
      "stateMutability": "view",
      "type": "function"
    },
    {
      "inputs": [
        {
          "internalType": "uint256",
          "name": "",
          "type": "uint256"
        }
      ],
      "name": "projectId",
      "outputs": [
        {
          "internalType": "bytes32",
          "name": "",
          "type": "bytes32"
        }
      ],
      "stateMutability": "view",
      "type": "function"
    },
    {
      "inputs": [
        {
          "internalType": "address",
          "name": "_account",
          "type": "address"
        }
      ],
      "name": "removeOwner",
      "outputs": [
        {
          "internalType": "bool",
          "name": "",
          "type": "bool"
        }
      ],
      "stateMutability": "nonpayable",
      "type": "function"
    },
    {
      "inputs": [
        {
          "internalType": "address",
          "name": "_token",
          "type": "address"
        },
        {
          "internalType": "address",
          "name": "_from",
          "type": "address"
        },
        {
          "internalType": "address",
          "name": "_to",
          "type": "address"
        },
        {
          "internalType": "uint256",
          "name": "_amount",
          "type": "uint256"
        }
      ],
      "name": "transferFromToken",
      "outputs": [],
      "stateMutability": "nonpayable",
      "type": "function"
    },
    {
      "inputs": [
        {
          "internalType": "address",
          "name": "_token",
          "type": "address"
        },
        {
          "internalType": "address",
          "name": "_to",
          "type": "address"
        },
        {
          "internalType": "uint256",
          "name": "_amount",
          "type": "uint256"
        }
      ],
      "name": "transferToken",
      "outputs": [],
      "stateMutability": "nonpayable",
      "type": "function"
    },
    {
      "inputs": [
        {
          "internalType": "address",
          "name": "rahatContract",
          "type": "address"
        },
        {
          "internalType": "string",
          "name": "_projectId",
          "type": "string"
        },
        {
          "internalType": "uint256",
          "name": "_projectCapital",
          "type": "uint256"
        }
      ],
      "name": "setProjectBudget_ERC20",
      "outputs": [],
      "stateMutability": "nonpayable",
      "type": "function"
    },
    {
      "inputs": [
        {
          "internalType": "address",
          "name": "_token",
          "type": "address"
        },
        {
          "internalType": "address",
          "name": "_from",
          "type": "address"
        },
        {
          "internalType": "uint256",
          "name": "_amount",
          "type": "uint256"
        }
      ],
      "name": "claimToken",
      "outputs": [],
      "stateMutability": "nonpayable",
      "type": "function"
    },
    {
      "inputs": [
        {
          "internalType": "address",
          "name": "_address",
          "type": "address"
        },
        {
          "internalType": "uint256",
          "name": "_amount",
          "type": "uint256"
        }
      ],
      "name": "mintERC20",
      "outputs": [],
      "stateMutability": "nonpayable",
      "type": "function"
    }
  ],
  "bytecode": "0x608060405234801561001057600080fd5b506040516115d73803806115d783398101604081905261002f91610082565b600380546001600160a01b0319166001600160a01b03938416179055166000908152600260205260409020805460ff191660011790556100bc565b6001600160a01b038116811461007f57600080fd5b50565b6000806040838503121561009557600080fd5b82516100a08161006a565b60208401519092506100b18161006a565b809150509250929050565b61150c806100cb6000396000f3fe608060405234801561001057600080fd5b50600436106100eb5760003560e01c8063785e9e8611610092578063785e9e86146101e25780637c4ca9cc14610202578063a591afbe14610215578063a72246871461022a578063ac9650d81461023d578063da3e33971461025d578063f5537ede14610270578063f7597a4f14610283578063fb3c0d70146102a357600080fd5b8063125bfb66146100f0578063173825d914610105578063389758951461012d5780634937b174146101505780634dd1f8161461017857806350ae05b614610199578063666e1b39146101ac5780637065cb48146101cf575b600080fd5b6101036100fe366004610f59565b6102b6565b005b610118610113366004610f95565b61032a565b60405190151581526020015b60405180910390f35b61011861013b366004610fb0565b60066020526000908152604090205460ff1681565b61016361015e366004610fc9565b61038e565b60408051928352602083019190915201610124565b61018b610186366004610fb0565b61047c565b604051908152602001610124565b6101036101a7366004611009565b61049d565b6101186101ba366004610f95565b60026020526000908152604090205460ff1681565b6101186101dd366004610f95565b6107fa565b6003546101f5906001600160a01b031681565b60405161012491906110d3565b6101036102103660046110e7565b610856565b61021d6108fa565b6040516101249190611111565b6004546101f5906001600160a01b031681565b61025061024b36600461115e565b61090b565b6040516101249190611222565b61010361026b366004610f59565b610a00565b61010361027e366004610f59565b610aa6565b61018b610291366004610fb0565b60076020526000908152604090205481565b6101036102b1366004611284565b610b03565b3360009081526002602052604090205460ff166102ee5760405162461bcd60e51b81526004016102e5906112cf565b60405180910390fd5b6004546001600160a01b031661031a57600480546001600160a01b0319166001600160a01b0385161790555b610325838383610ba5565b505050565b3360009081526002602052604081205460ff166103595760405162461bcd60e51b81526004016102e5906112cf565b6001600160a01b0382166000908152600260205260408120805460ff191690556103839083610c04565b50600190505b919050565b604051636eb1769f60e11b81526001600160a01b038281166004830152306024830152600091829185169063dd62ed3e90604401602060405180830381865afa1580156103df573d6000803e3d6000fd5b505050506040513d601f19601f820116820180604052508101906104039190611316565b6040516370a0823160e01b81529092506001600160a01b038516906370a08231906104329030906004016110d3565b602060405180830381865afa15801561044f573d6000803e3d6000fd5b505050506040513d601f19601f820116820180604052508101906104739190611316565b90509250929050565b6005818154811061048c57600080fd5b600091825260209091200154905081565b3360009081526002602052604090205460ff166104cc5760405162461bcd60e51b81526004016102e5906112cf565b8160006104d882610c20565b60008181526006602052604090205490915060ff16156106505760006104fd85610c20565b9050836007600083815260200190815260200160002060008282546105229190611345565b90915550506003546040516340c10f1960e01b81526001600160a01b03909116906340c10f19906105599089908890600401611358565b6020604051808303816000875af1158015610578573d6000803e3d6000fd5b505050506040513d601f19601f8201168201806040525081019061059c9190611316565b506004805460405163095ea7b360e01b81526001600160a01b039091169163095ea7b3916105ce918a91899101611358565b6020604051808303816000875af11580156105ed573d6000803e3d6000fd5b505050506040513d601f19601f820116820180604052508101906106119190611371565b50807ffb81835777f5c1e6fd7d6eb84fa729934ae66884bf599bb714743f575ec7b577856040516106429190611393565b60405180910390a2506107f3565b6005805460018181019092557f036b6384b5eca791c62761152d0c79bb0604c104a5fb6f4eb0703f3154bb3db0018290556000828152600660205260408120805460ff19169092179091556106a485610c20565b9050836007600083815260200190815260200160002060008282546106c99190611345565b90915550506003546040516340c10f1960e01b81526001600160a01b03909116906340c10f19906107009089908890600401611358565b6020604051808303816000875af115801561071f573d6000803e3d6000fd5b505050506040513d601f19601f820116820180604052508101906107439190611316565b506004805460405163095ea7b360e01b81526001600160a01b039091169163095ea7b391610775918a91899101611358565b6020604051808303816000875af1158015610794573d6000803e3d6000fd5b505050506040513d601f19601f820116820180604052508101906107b89190611371565b50807ffb81835777f5c1e6fd7d6eb84fa729934ae66884bf599bb714743f575ec7b577856040516107e99190611393565b60405180910390a2505b5050505050565b3360009081526002602052604081205460ff166108295760405162461bcd60e51b81526004016102e5906112cf565b6001600160a01b0382166000908152600260205260408120805460ff191660011790556103839083610c50565b3360009081526002602052604090205460ff166108855760405162461bcd60e51b81526004016102e5906112cf565b6003546040516340c10f1960e01b81526001600160a01b03909116906340c10f19906108b79085908590600401611358565b6020604051808303816000875af11580156108d6573d6000803e3d6000fd5b505050506040513d601f19601f820116820180604052508101906103259190611316565b60606109066000610c65565b905090565b6060816001600160401b0381111561092557610925610ff3565b60405190808252806020026020018201604052801561095857816020015b60608152602001906001900390816109435790505b50905060005b828110156109f8576109c83085858481811061097c5761097c6113b7565b905060200281019061098e91906113cd565b8080601f016020809104026020016040519081016040528093929190818152602001838380828437600092019190915250610c7292505050565b8282815181106109da576109da6113b7565b602002602001018190525080806109f09061141a565b91505061095e565b505b92915050565b3360009081526002602052604090205460ff16610a2f5760405162461bcd60e51b81526004016102e5906112cf565b60405163095ea7b360e01b81526001600160a01b0384169063095ea7b390610a5d9085908590600401611358565b6020604051808303816000875af1158015610a7c573d6000803e3d6000fd5b505050506040513d601f19601f82011682018060405250810190610aa09190611371565b50505050565b3360009081526002602052604090205460ff16610ad55760405162461bcd60e51b81526004016102e5906112cf565b60405163a9059cbb60e01b81526001600160a01b0384169063a9059cbb90610a5d9085908590600401611358565b3360009081526002602052604090205460ff16610b325760405162461bcd60e51b81526004016102e5906112cf565b6040516323b872dd60e01b81526001600160a01b038516906323b872dd90610b6290869086908690600401611433565b6020604051808303816000875af1158015610b81573d6000803e3d6000fd5b505050506040513d601f19601f820116820180604052508101906107f39190611371565b3360009081526002602052604090205460ff16610bd45760405162461bcd60e51b81526004016102e5906112cf565b6040516323b872dd60e01b81526001600160a01b038416906323b872dd90610a5d90859030908690600401611433565b6000610c19836001600160a01b038416610c97565b9392505050565b600081604051602001610c339190611457565b604051602081830303815290604052805190602001209050919050565b6000610c19836001600160a01b038416610d8a565b60606000610c1983610dd9565b6060610c1983836040518060600160405280602781526020016114b060279139610e35565b60008181526001830160205260408120548015610d80576000610cbb600183611473565b8554909150600090610ccf90600190611473565b9050818114610d34576000866000018281548110610cef57610cef6113b7565b9060005260206000200154905080876000018481548110610d1257610d126113b7565b6000918252602080832090910192909255918252600188019052604090208390555b8554869080610d4557610d45611486565b6001900381819060005260206000200160009055905585600101600086815260200190815260200160002060009055600193505050506109fa565b60009150506109fa565b6000818152600183016020526040812054610dd1575081546001818101845560008481526020808220909301849055845484825282860190935260409020919091556109fa565b5060006109fa565b606081600001805480602002602001604051908101604052809291908181526020018280548015610e2957602002820191906000526020600020905b815481526020019060010190808311610e15575b50505050509050919050565b6060833b610e945760405162461bcd60e51b815260206004820152602660248201527f416464726573733a2064656c65676174652063616c6c20746f206e6f6e2d636f6044820152651b9d1c9858dd60d21b60648201526084016102e5565b600080856001600160a01b031685604051610eaf9190611457565b600060405180830381855af49150503d8060008114610eea576040519150601f19603f3d011682016040523d82523d6000602084013e610eef565b606091505b5091509150610eff828286610f09565b9695505050505050565b60608315610f18575081610c19565b825115610f285782518084602001fd5b8160405162461bcd60e51b81526004016102e5919061149c565b80356001600160a01b038116811461038957600080fd5b600080600060608486031215610f6e57600080fd5b610f7784610f42565b9250610f8560208501610f42565b9150604084013590509250925092565b600060208284031215610fa757600080fd5b610c1982610f42565b600060208284031215610fc257600080fd5b5035919050565b60008060408385031215610fdc57600080fd5b610fe583610f42565b915061047360208401610f42565b634e487b7160e01b600052604160045260246000fd5b60008060006060848603121561101e57600080fd5b61102784610f42565b925060208401356001600160401b038082111561104357600080fd5b818601915086601f83011261105757600080fd5b81358181111561106957611069610ff3565b604051601f8201601f19908116603f0116810190838211818310171561109157611091610ff3565b816040528281528960208487010111156110aa57600080fd5b826020860160208301376000602084830101528096505050505050604084013590509250925092565b6001600160a01b0391909116815260200190565b600080604083850312156110fa57600080fd5b61110383610f42565b946020939093013593505050565b6020808252825182820181905260009190848201906040850190845b818110156111525783516001600160a01b03168352928401929184019160010161112d565b50909695505050505050565b6000806020838503121561117157600080fd5b82356001600160401b038082111561118857600080fd5b818501915085601f83011261119c57600080fd5b8135818111156111ab57600080fd5b8660208260051b85010111156111c057600080fd5b60209290920196919550909350505050565b60005b838110156111ed5781810151838201526020016111d5565b50506000910152565b6000815180845261120e8160208601602086016111d2565b601f01601f19169290920160200192915050565b6000602080830181845280855180835260408601915060408160051b870101925083870160005b8281101561127757603f198886030184526112658583516111f6565b94509285019290850190600101611249565b5092979650505050505050565b6000806000806080858703121561129a57600080fd5b6112a385610f42565b93506112b160208601610f42565b92506112bf60408601610f42565b9396929550929360600135925050565b60208082526027908201527f4f6e6c79206f776e65722063616e20657865637574652074686973207472616e60408201526639b0b1ba34b7b760c91b606082015260800190565b60006020828403121561132857600080fd5b5051919050565b634e487b7160e01b600052601160045260246000fd5b808201808211156109fa576109fa61132f565b6001600160a01b03929092168252602082015260400190565b60006020828403121561138357600080fd5b81518015158114610c1957600080fd5b9081526040602082018190526003908201526218591960ea1b606082015260800190565b634e487b7160e01b600052603260045260246000fd5b6000808335601e198436030181126113e457600080fd5b8301803591506001600160401b038211156113fe57600080fd5b60200191503681900382131561141357600080fd5b9250929050565b60006001820161142c5761142c61132f565b5060010190565b6001600160a01b039384168152919092166020820152604081019190915260600190565b600082516114698184602087016111d2565b9190910192915050565b818103818111156109fa576109fa61132f565b634e487b7160e01b600052603160045260246000fd5b602081526000610c1960208301846111f656fe416464726573733a206c6f772d6c6576656c2064656c65676174652063616c6c206661696c6564a2646970667358221220414ad610d8719d41b0f2d02151210717e88308264d9b1dc7c73f28437b2a50a264736f6c63430008100033",
  "immutableReferences": {},
  "source": "//SPDX-License-Identifier: LGPL-3.0\r\n\r\npragma solidity ^0.8.16;\r\n\r\nimport \"./RahatERC20.sol\";\r\nimport \"./Rahat.sol\";\r\nimport \"../libraries/AbstractERC20Func.sol\";\r\n\r\n/// @title Rahat Admin contract - owns all the tokens initially minted\r\n/// @author Rumsan Associates\r\n/// @notice You can use this contract to manage Rahat tokens and projects\r\n/// @dev All function calls are only executed by contract owner\r\ncontract RahatAdmin is AbstractERC20Func {\r\n  using EnumerableSet for EnumerableSet.UintSet;\r\n\r\n  event ProjectERC20BudgetUpdated(\r\n    bytes32 indexed projectId,\r\n    uint256 projectCapital,\r\n    string tag\r\n  );\r\n\r\n  event Minted(bool success);\r\n\r\n  // uint256 public mintData ;\r\n  // bool public mintSuccess =false;\r\n\r\n  RahatERC20 public erc20;\r\n  RahatERC20 public cashToken;\r\n\r\n  /// @notice list of projects\r\n  bytes32[] public projectId;\r\n\r\n  /// @notice check if projectId exists or not;\r\n  mapping(bytes32 => bool) public projectExists;\r\n\r\n  /// @notice assign budgets to project\r\n  mapping(bytes32 => uint256) public projectERC20Capital;\r\n\r\n  modifier CheckProject(string memory _projectId) {\r\n    bytes32 _id = findHash(_projectId);\r\n    if (projectExists[_id]) {\r\n      _;\r\n    } else {\r\n      projectId.push(_id);\r\n      projectExists[_id] = true;\r\n      _;\r\n    }\r\n  }\r\n\r\n  /// @notice All the supply is allocated to this contract\r\n  /// @dev deploys AidToken and Rahat contract by sending supply to this contract\r\n  constructor(\r\n    RahatERC20 _erc20,\r\n    address _admin\r\n  ) {\r\n    erc20 = _erc20;\r\n    owner[_admin] = true;\r\n  }\r\n\r\n  /// @notice allocate token to projects\r\n  /// @dev Allocates token to the given projectId, Creates project and transfer tokens to Rahat contract.\r\n  /// @param _projectId Unique Id of Project\r\n  /// @param _projectCapital Budget Allocated to project\r\n  function setProjectBudget_ERC20(\r\n    address rahatContract,\r\n    string memory _projectId,\r\n    uint256 _projectCapital\r\n  ) public OnlyOwner CheckProject(_projectId) {\r\n    bytes32 _id = findHash(_projectId);\r\n    projectERC20Capital[_id] += _projectCapital;\r\n    erc20.mint(rahatContract, _projectCapital);\r\n    cashToken.approve(rahatContract, _projectCapital);\r\n    emit ProjectERC20BudgetUpdated(_id, _projectCapital, \"add\");\r\n  }\r\n\r\n\r\n  function claimToken(address _token, address _from, uint256 _amount) public override OnlyOwner {\r\n    if(address(cashToken) == address(0)) cashToken = RahatERC20(_token);\r\n    super.claimToken(_token, _from, _amount);\r\n  }\r\n\r\n  /// @notice mint new tokens\r\n  /// @param _address address to send the minted tokens\r\n  /// @param _amount Amount of token to Mint\r\n  function mintERC20(address _address, uint256 _amount) public OnlyOwner {\r\n    erc20.mint(_address, _amount);\r\n  }\r\n\r\n  /// @notice generates the hash of the given string\r\n  /// @param _data String of which hash is to be generated\r\n  function findHash(string memory _data) private pure returns (bytes32) {\r\n    return keccak256(abi.encodePacked(_data));\r\n  }\r\n}\r\n",
  "sourcePath": "S:\\Projects\\rahat\\unicef-np\\rahat-contracts\\src\\contracts\\RahatAdmin.sol",
  "compiler": {
    "name": "solc",
    "version": "0.8.16+commit.07a7930e.Emscripten.clang"
  },
  "schemaVersion": "3.4.10",
  "updatedAt": "2022-12-04T18:00:15.219Z",
  "devdoc": {
    "author": "Rumsan Associates",
    "details": "All function calls are only executed by contract owner",
    "kind": "dev",
    "methods": {
      "addOwner(address)": {
        "params": {
          "_account": "address of new owner"
        }
      },
      "constructor": {
        "details": "deploys AidToken and Rahat contract by sending supply to this contract"
      },
      "mintERC20(address,uint256)": {
        "params": {
          "_address": "address to send the minted tokens",
          "_amount": "Amount of token to Mint"
        }
      },
      "multicall(bytes[])": {
        "details": "Receives and executes a batch of function calls on this contract."
      },
      "removeOwner(address)": {
        "params": {
          "_account": "address of existing owner"
        }
      },
      "setProjectBudget_ERC20(address,string,uint256)": {
        "details": "Allocates token to the given projectId, Creates project and transfer tokens to Rahat contract.",
        "params": {
          "_projectCapital": "Budget Allocated to project",
          "_projectId": "Unique Id of Project"
        }
      }
    },
    "title": "Rahat Admin contract - owns all the tokens initially minted",
    "version": 1
  },
  "userdoc": {
    "kind": "user",
    "methods": {
      "addOwner(address)": {
        "notice": "Add an account to the owner role"
      },
      "constructor": {
        "notice": "All the supply is allocated to this contract"
      },
      "mintERC20(address,uint256)": {
        "notice": "mint new tokens"
      },
      "projectERC20Capital(bytes32)": {
        "notice": "assign budgets to project"
      },
      "projectExists(bytes32)": {
        "notice": "check if projectId exists or not;"
      },
      "projectId(uint256)": {
        "notice": "list of projects"
      },
      "removeOwner(address)": {
        "notice": "Remove an account from the owner role"
      },
      "setProjectBudget_ERC20(address,string,uint256)": {
        "notice": "allocate token to projects"
      }
    },
    "notice": "You can use this contract to manage Rahat tokens and projects",
    "version": 1
  }
}