{
  "contractName": "Rahat",
  "abi": [
    {
      "inputs": [
        {
          "internalType": "contract RahatERC20",
          "name": "_erc20",
          "type": "address"
        },
        {
          "internalType": "contract RahatRegistry",
          "name": "_registry",
          "type": "address"
        },
        {
          "internalType": "contract RahatTriggerResponse",
          "name": "_triggerResponse",
          "type": "address"
        },
        {
          "internalType": "address",
          "name": "_admin",
          "type": "address"
        }
      ],
      "stateMutability": "nonpayable",
      "type": "constructor"
    },
    {
      "anonymous": false,
      "inputs": [
        {
          "indexed": true,
          "internalType": "address",
          "name": "vendor",
          "type": "address"
        },
        {
          "indexed": true,
          "internalType": "uint256",
          "name": "beneficiary",
          "type": "uint256"
        },
        {
          "indexed": false,
          "internalType": "uint256",
          "name": "amount",
          "type": "uint256"
        }
      ],
      "name": "ClaimAcquiredERC20",
      "type": "event"
    },
    {
      "anonymous": false,
      "inputs": [
        {
          "indexed": true,
          "internalType": "address",
          "name": "vendor",
          "type": "address"
        },
        {
          "indexed": true,
          "internalType": "uint256",
          "name": "phone",
          "type": "uint256"
        },
        {
          "indexed": false,
          "internalType": "uint256",
          "name": "amount",
          "type": "uint256"
        }
      ],
      "name": "ClaimApproved",
      "type": "event"
    },
    {
      "anonymous": false,
      "inputs": [
        {
          "indexed": true,
          "internalType": "address",
          "name": "vendor",
          "type": "address"
        },
        {
          "indexed": true,
          "internalType": "uint256",
          "name": "beneficiary",
          "type": "uint256"
        },
        {
          "indexed": false,
          "internalType": "uint256",
          "name": "amount",
          "type": "uint256"
        }
      ],
      "name": "ClaimedERC20",
      "type": "event"
    },
    {
      "anonymous": false,
      "inputs": [
        {
          "indexed": false,
          "internalType": "bytes",
          "name": "signature",
          "type": "bytes"
        },
        {
          "indexed": false,
          "internalType": "bytes32",
          "name": "digest",
          "type": "bytes32"
        },
        {
          "indexed": false,
          "internalType": "address",
          "name": "expectedSigner",
          "type": "address"
        },
        {
          "indexed": false,
          "internalType": "address",
          "name": "recoveredSigner",
          "type": "address"
        }
      ],
      "name": "InvalidSignature",
      "type": "event"
    },
    {
      "anonymous": false,
      "inputs": [
        {
          "indexed": true,
          "internalType": "bytes32",
          "name": "projectId",
          "type": "bytes32"
        },
        {
          "indexed": true,
          "internalType": "uint256",
          "name": "phone",
          "type": "uint256"
        },
        {
          "indexed": false,
          "internalType": "uint256",
          "name": "amount",
          "type": "uint256"
        }
      ],
      "name": "IssuedERC20",
      "type": "event"
    },
    {
      "anonymous": false,
      "inputs": [
        {
          "indexed": false,
          "internalType": "address",
          "name": "",
          "type": "address"
        },
        {
          "indexed": false,
          "internalType": "uint256",
          "name": "",
          "type": "uint256"
        }
      ],
      "name": "Received",
      "type": "event"
    },
    {
      "anonymous": false,
      "inputs": [
        {
          "indexed": true,
          "internalType": "bytes32",
          "name": "role",
          "type": "bytes32"
        },
        {
          "indexed": true,
          "internalType": "bytes32",
          "name": "previousAdminRole",
          "type": "bytes32"
        },
        {
          "indexed": true,
          "internalType": "bytes32",
          "name": "newAdminRole",
          "type": "bytes32"
        }
      ],
      "name": "RoleAdminChanged",
      "type": "event"
    },
    {
      "anonymous": false,
      "inputs": [
        {
          "indexed": true,
          "internalType": "bytes32",
          "name": "role",
          "type": "bytes32"
        },
        {
          "indexed": true,
          "internalType": "address",
          "name": "account",
          "type": "address"
        },
        {
          "indexed": true,
          "internalType": "address",
          "name": "sender",
          "type": "address"
        }
      ],
      "name": "RoleGranted",
      "type": "event"
    },
    {
      "anonymous": false,
      "inputs": [
        {
          "indexed": true,
          "internalType": "bytes32",
          "name": "role",
          "type": "bytes32"
        },
        {
          "indexed": true,
          "internalType": "address",
          "name": "account",
          "type": "address"
        },
        {
          "indexed": true,
          "internalType": "address",
          "name": "sender",
          "type": "address"
        }
      ],
      "name": "RoleRevoked",
      "type": "event"
    },
    {
      "inputs": [],
      "name": "CREATE_CLAIM",
      "outputs": [
        {
          "internalType": "bytes32",
          "name": "",
          "type": "bytes32"
        }
      ],
      "stateMutability": "view",
      "type": "function"
    },
    {
      "inputs": [],
      "name": "DEFAULT_ADMIN_ROLE",
      "outputs": [
        {
          "internalType": "bytes32",
          "name": "",
          "type": "bytes32"
        }
      ],
      "stateMutability": "view",
      "type": "function"
    },
    {
      "inputs": [],
      "name": "GET_TOKENS_FROM_CLAIM",
      "outputs": [
        {
          "internalType": "bytes32",
          "name": "",
          "type": "bytes32"
        }
      ],
      "stateMutability": "view",
      "type": "function"
    },
    {
      "inputs": [],
      "name": "ISSUE_TOKEN",
      "outputs": [
        {
          "internalType": "bytes32",
          "name": "",
          "type": "bytes32"
        }
      ],
      "stateMutability": "view",
      "type": "function"
    },
    {
      "inputs": [],
      "name": "MANAGER_ROLE",
      "outputs": [
        {
          "internalType": "bytes32",
          "name": "",
          "type": "bytes32"
        }
      ],
      "stateMutability": "view",
      "type": "function"
    },
    {
      "inputs": [],
      "name": "MOBILIZER_ROLE",
      "outputs": [
        {
          "internalType": "bytes32",
          "name": "",
          "type": "bytes32"
        }
      ],
      "stateMutability": "view",
      "type": "function"
    },
    {
      "inputs": [],
      "name": "SERVER_ROLE",
      "outputs": [
        {
          "internalType": "bytes32",
          "name": "",
          "type": "bytes32"
        }
      ],
      "stateMutability": "view",
      "type": "function"
    },
    {
      "inputs": [],
      "name": "VENDOR_ROLE",
      "outputs": [
        {
          "internalType": "bytes32",
          "name": "",
          "type": "bytes32"
        }
      ],
      "stateMutability": "view",
      "type": "function"
    },
    {
      "inputs": [
        {
          "internalType": "address",
          "name": "_account",
          "type": "address"
        }
      ],
      "name": "addOwner",
      "outputs": [
        {
          "internalType": "bool",
          "name": "",
          "type": "bool"
        }
      ],
      "stateMutability": "nonpayable",
      "type": "function"
    },
    {
      "inputs": [
        {
          "internalType": "address",
          "name": "_token",
          "type": "address"
        },
        {
          "internalType": "address",
          "name": "_spender",
          "type": "address"
        },
        {
          "internalType": "uint256",
          "name": "_amount",
          "type": "uint256"
        }
      ],
      "name": "approveToken",
      "outputs": [],
      "stateMutability": "nonpayable",
      "type": "function"
    },
    {
      "inputs": [],
      "name": "cashToken",
      "outputs": [
        {
          "internalType": "contract RahatERC20",
          "name": "",
          "type": "address"
        }
      ],
      "stateMutability": "view",
      "type": "function"
    },
    {
      "inputs": [
        {
          "internalType": "address",
          "name": "_token",
          "type": "address"
        },
        {
          "internalType": "address",
          "name": "_from",
          "type": "address"
        },
        {
          "internalType": "uint256",
          "name": "_amount",
          "type": "uint256"
        }
      ],
      "name": "claimToken",
      "outputs": [],
      "stateMutability": "nonpayable",
      "type": "function"
    },
    {
      "inputs": [],
      "name": "erc20",
      "outputs": [
        {
          "internalType": "contract RahatERC20",
          "name": "",
          "type": "address"
        }
      ],
      "stateMutability": "view",
      "type": "function"
    },
    {
      "inputs": [
        {
          "internalType": "uint256",
          "name": "",
          "type": "uint256"
        }
      ],
      "name": "erc20Balance",
      "outputs": [
        {
          "internalType": "uint256",
          "name": "",
          "type": "uint256"
        }
      ],
      "stateMutability": "view",
      "type": "function"
    },
    {
      "inputs": [
        {
          "internalType": "uint256",
          "name": "",
          "type": "uint256"
        }
      ],
      "name": "erc20Issued",
      "outputs": [
        {
          "internalType": "uint256",
          "name": "",
          "type": "uint256"
        }
      ],
      "stateMutability": "view",
      "type": "function"
    },
    {
      "inputs": [
        {
          "internalType": "address",
          "name": "",
          "type": "address"
        }
      ],
      "name": "erc20IssuedBy",
      "outputs": [
        {
          "internalType": "uint256",
          "name": "",
          "type": "uint256"
        }
      ],
      "stateMutability": "view",
      "type": "function"
    },
    {
      "inputs": [
        {
          "internalType": "address",
          "name": "_token",
          "type": "address"
        },
        {
          "internalType": "address",
          "name": "_from",
          "type": "address"
        }
      ],
      "name": "getAllowanceAndBalance",
      "outputs": [
        {
          "internalType": "uint256",
          "name": "allowance",
          "type": "uint256"
        },
        {
          "internalType": "uint256",
          "name": "balance",
          "type": "uint256"
        }
      ],
      "stateMutability": "view",
      "type": "function"
    },
    {
      "inputs": [
        {
          "internalType": "bytes32",
          "name": "role",
          "type": "bytes32"
        }
      ],
      "name": "getRoleAdmin",
      "outputs": [
        {
          "internalType": "bytes32",
          "name": "",
          "type": "bytes32"
        }
      ],
      "stateMutability": "view",
      "type": "function"
    },
    {
      "inputs": [
        {
          "internalType": "bytes32",
          "name": "role",
          "type": "bytes32"
        },
        {
          "internalType": "address",
          "name": "account",
          "type": "address"
        }
      ],
      "name": "grantRole",
      "outputs": [],
      "stateMutability": "nonpayable",
      "type": "function"
    },
    {
      "inputs": [
        {
          "internalType": "bytes32",
          "name": "role",
          "type": "bytes32"
        },
        {
          "internalType": "address",
          "name": "account",
          "type": "address"
        }
      ],
      "name": "hasRole",
      "outputs": [
        {
          "internalType": "bool",
          "name": "",
          "type": "bool"
        }
      ],
      "stateMutability": "view",
      "type": "function"
    },
    {
      "inputs": [
        {
          "internalType": "uint256",
          "name": "",
          "type": "uint256"
        }
      ],
      "name": "isBanked",
      "outputs": [
        {
          "internalType": "bool",
          "name": "",
          "type": "bool"
        }
      ],
      "stateMutability": "view",
      "type": "function"
    },
    {
      "inputs": [],
      "name": "listAdmins",
      "outputs": [
        {
          "internalType": "address[]",
          "name": "",
          "type": "address[]"
        }
      ],
      "stateMutability": "view",
      "type": "function"
    },
    {
      "inputs": [
        {
          "internalType": "bytes[]",
          "name": "data",
          "type": "bytes[]"
        }
      ],
      "name": "multicall",
      "outputs": [
        {
          "internalType": "bytes[]",
          "name": "results",
          "type": "bytes[]"
        }
      ],
      "stateMutability": "nonpayable",
      "type": "function"
    },
    {
      "inputs": [
        {
          "internalType": "address",
          "name": "",
          "type": "address"
        }
      ],
      "name": "nonces",
      "outputs": [
        {
          "internalType": "uint256",
          "name": "",
          "type": "uint256"
        }
      ],
      "stateMutability": "view",
      "type": "function"
    },
    {
      "inputs": [
        {
          "internalType": "address",
          "name": "",
          "type": "address"
        }
      ],
      "name": "owner",
      "outputs": [
        {
          "internalType": "bool",
          "name": "",
          "type": "bool"
        }
      ],
      "stateMutability": "view",
      "type": "function"
    },
    {
      "inputs": [
        {
          "internalType": "address",
          "name": "",
          "type": "address"
        },
        {
          "internalType": "bytes32",
          "name": "",
          "type": "bytes32"
        }
      ],
      "name": "recentERC20Claims",
      "outputs": [
        {
          "internalType": "uint256",
          "name": "amount",
          "type": "uint256"
        },
        {
          "internalType": "bytes32",
          "name": "otpHash",
          "type": "bytes32"
        },
        {
          "internalType": "bool",
          "name": "isReleased",
          "type": "bool"
        },
        {
          "internalType": "uint256",
          "name": "date",
          "type": "uint256"
        }
      ],
      "stateMutability": "view",
      "type": "function"
    },
    {
      "inputs": [],
      "name": "registry",
      "outputs": [
        {
          "internalType": "contract RahatRegistry",
          "name": "",
          "type": "address"
        }
      ],
      "stateMutability": "view",
      "type": "function"
    },
    {
      "inputs": [
        {
          "internalType": "bytes32",
          "name": "",
          "type": "bytes32"
        }
      ],
      "name": "remainingProjectErc20Balances",
      "outputs": [
        {
          "internalType": "uint256",
          "name": "",
          "type": "uint256"
        }
      ],
      "stateMutability": "view",
      "type": "function"
    },
    {
      "inputs": [
        {
          "internalType": "address",
          "name": "_account",
          "type": "address"
        }
      ],
      "name": "removeOwner",
      "outputs": [
        {
          "internalType": "bool",
          "name": "",
          "type": "bool"
        }
      ],
      "stateMutability": "nonpayable",
      "type": "function"
    },
    {
      "inputs": [
        {
          "internalType": "bytes32",
          "name": "role",
          "type": "bytes32"
        },
        {
          "internalType": "address",
          "name": "account",
          "type": "address"
        }
      ],
      "name": "renounceRole",
      "outputs": [],
      "stateMutability": "nonpayable",
      "type": "function"
    },
    {
      "inputs": [
        {
          "internalType": "bytes32",
          "name": "role",
          "type": "bytes32"
        },
        {
          "internalType": "address",
          "name": "account",
          "type": "address"
        }
      ],
      "name": "revokeRole",
      "outputs": [],
      "stateMutability": "nonpayable",
      "type": "function"
    },
    {
      "inputs": [
        {
          "internalType": "bytes32",
          "name": "",
          "type": "bytes32"
        }
      ],
      "name": "totalProjectErc20Issued",
      "outputs": [
        {
          "internalType": "uint256",
          "name": "",
          "type": "uint256"
        }
      ],
      "stateMutability": "view",
      "type": "function"
    },
    {
      "inputs": [
        {
          "internalType": "address",
          "name": "_token",
          "type": "address"
        },
        {
          "internalType": "address",
          "name": "_from",
          "type": "address"
        },
        {
          "internalType": "address",
          "name": "_to",
          "type": "address"
        },
        {
          "internalType": "uint256",
          "name": "_amount",
          "type": "uint256"
        }
      ],
      "name": "transferFromToken",
      "outputs": [],
      "stateMutability": "nonpayable",
      "type": "function"
    },
    {
      "inputs": [
        {
          "internalType": "address",
          "name": "_token",
          "type": "address"
        },
        {
          "internalType": "address",
          "name": "_to",
          "type": "address"
        },
        {
          "internalType": "uint256",
          "name": "_amount",
          "type": "uint256"
        }
      ],
      "name": "transferToken",
      "outputs": [],
      "stateMutability": "nonpayable",
      "type": "function"
    },
    {
      "inputs": [],
      "name": "triggerResponse",
      "outputs": [
        {
          "internalType": "contract RahatTriggerResponse",
          "name": "",
          "type": "address"
        }
      ],
      "stateMutability": "view",
      "type": "function"
    },
    {
      "stateMutability": "payable",
      "type": "receive"
    },
    {
      "inputs": [
        {
          "internalType": "bytes4",
          "name": "interfaceId",
          "type": "bytes4"
        }
      ],
      "name": "supportsInterface",
      "outputs": [
        {
          "internalType": "bool",
          "name": "",
          "type": "bool"
        }
      ],
      "stateMutability": "view",
      "type": "function"
    },
    {
      "inputs": [
        {
          "internalType": "address",
          "name": "_account",
          "type": "address"
        }
      ],
      "name": "addAdmin",
      "outputs": [],
      "stateMutability": "nonpayable",
      "type": "function"
    },
    {
      "inputs": [
        {
          "internalType": "address",
          "name": "_account",
          "type": "address"
        }
      ],
      "name": "isAdmin",
      "outputs": [
        {
          "internalType": "bool",
          "name": "",
          "type": "bool"
        }
      ],
      "stateMutability": "view",
      "type": "function"
    },
    {
      "inputs": [
        {
          "internalType": "address",
          "name": "_account",
          "type": "address"
        }
      ],
      "name": "addServer",
      "outputs": [],
      "stateMutability": "nonpayable",
      "type": "function"
    },
    {
      "inputs": [
        {
          "internalType": "address payable",
          "name": "_account",
          "type": "address"
        }
      ],
      "name": "addVendor",
      "outputs": [
        {
          "internalType": "address",
          "name": "",
          "type": "address"
        }
      ],
      "stateMutability": "nonpayable",
      "type": "function"
    },
    {
      "inputs": [
        {
          "internalType": "address",
          "name": "_account",
          "type": "address"
        }
      ],
      "name": "isVendor",
      "outputs": [
        {
          "internalType": "bool",
          "name": "",
          "type": "bool"
        }
      ],
      "stateMutability": "view",
      "type": "function"
    },
    {
      "inputs": [],
      "name": "listVendors",
      "outputs": [
        {
          "internalType": "address[]",
          "name": "",
          "type": "address[]"
        }
      ],
      "stateMutability": "view",
      "type": "function"
    },
    {
      "inputs": [
        {
          "internalType": "address",
          "name": "_account",
          "type": "address"
        },
        {
          "internalType": "string",
          "name": "_projectId",
          "type": "string"
        }
      ],
      "name": "addMobilizer",
      "outputs": [],
      "stateMutability": "nonpayable",
      "type": "function"
    },
    {
      "inputs": [
        {
          "internalType": "uint256",
          "name": "_phone",
          "type": "uint256"
        },
        {
          "internalType": "bool",
          "name": "_isBanked",
          "type": "bool"
        }
      ],
      "name": "setAsBankedBeneficiary",
      "outputs": [],
      "stateMutability": "nonpayable",
      "type": "function"
    },
    {
      "inputs": [
        {
          "internalType": "uint256",
          "name": "_phone",
          "type": "uint256"
        },
        {
          "internalType": "bytes32",
          "name": "_projectId",
          "type": "bytes32"
        }
      ],
      "name": "suspendBeneficiary",
      "outputs": [],
      "stateMutability": "nonpayable",
      "type": "function"
    },
    {
      "inputs": [
        {
          "internalType": "bytes32",
          "name": "_projectId",
          "type": "bytes32"
        },
        {
          "internalType": "uint256",
          "name": "_projectCapital",
          "type": "uint256"
        }
      ],
      "name": "updateProjectBudget",
      "outputs": [],
      "stateMutability": "nonpayable",
      "type": "function"
    },
    {
      "inputs": [
        {
          "internalType": "bytes32",
          "name": "_projectId",
          "type": "bytes32"
        }
      ],
      "name": "getProjectBalance",
      "outputs": [
        {
          "internalType": "uint256",
          "name": "_balance",
          "type": "uint256"
        }
      ],
      "stateMutability": "view",
      "type": "function"
    },
    {
      "inputs": [
        {
          "internalType": "string",
          "name": "_projectId",
          "type": "string"
        },
        {
          "internalType": "uint256",
          "name": "_phone",
          "type": "uint256"
        },
        {
          "internalType": "uint256",
          "name": "_amount",
          "type": "uint256"
        }
      ],
      "name": "issueERC20ToBeneficiary",
      "outputs": [],
      "stateMutability": "nonpayable",
      "type": "function"
    },
    {
      "inputs": [
        {
          "internalType": "uint256",
          "name": "_phone",
          "type": "uint256"
        },
        {
          "internalType": "uint256",
          "name": "_tokens",
          "type": "uint256"
        }
      ],
      "name": "createERC20Claim",
      "outputs": [],
      "stateMutability": "nonpayable",
      "type": "function"
    },
    {
      "inputs": [
        {
          "internalType": "address",
          "name": "_vendor",
          "type": "address"
        },
        {
          "internalType": "uint256",
          "name": "_phone",
          "type": "uint256"
        },
        {
          "internalType": "bytes32",
          "name": "_otpHash",
          "type": "bytes32"
        },
        {
          "internalType": "uint256",
          "name": "_timeToLive",
          "type": "uint256"
        }
      ],
      "name": "approveERC20Claim",
      "outputs": [],
      "stateMutability": "nonpayable",
      "type": "function"
    },
    {
      "inputs": [
        {
          "internalType": "uint256",
          "name": "_phone",
          "type": "uint256"
        },
        {
          "internalType": "string",
          "name": "_otp",
          "type": "string"
        }
      ],
      "name": "getERC20FromClaim",
      "outputs": [],
      "stateMutability": "nonpayable",
      "type": "function"
    },
    {
      "inputs": [
        {
          "internalType": "uint256",
          "name": "_phone",
          "type": "uint256"
        },
        {
          "internalType": "address",
          "name": "_vendorAddress",
          "type": "address"
        },
        {
          "internalType": "uint256",
          "name": "_amount",
          "type": "uint256"
        }
      ],
      "name": "transferTokenToVendorByAdmin",
      "outputs": [],
      "stateMutability": "nonpayable",
      "type": "function"
    },
    {
      "inputs": [
        {
          "internalType": "address",
          "name": "_vendorAddress",
          "type": "address"
        },
        {
          "internalType": "uint256",
          "name": "_amount",
          "type": "uint256"
        }
      ],
      "name": "transferCashToVendor",
      "outputs": [],
      "stateMutability": "nonpayable",
      "type": "function"
    },
    {
      "inputs": [
        {
          "internalType": "address",
          "name": "_token",
          "type": "address"
        },
        {
          "internalType": "address",
          "name": "_from",
          "type": "address"
        },
        {
          "internalType": "bytes32",
          "name": "_projectId",
          "type": "bytes32"
        },
        {
          "internalType": "uint256",
          "name": "_amount",
          "type": "uint256"
        }
      ],
      "name": "claimTokenForProject",
      "outputs": [],
      "stateMutability": "nonpayable",
      "type": "function"
    },
    {
      "inputs": [
        {
          "internalType": "bytes32",
          "name": "_projectId",
          "type": "bytes32"
        },
        {
          "internalType": "address",
          "name": "_allowanceFrom",
          "type": "address"
        }
      ],
      "name": "projectBalance",
      "outputs": [
        {
          "internalType": "uint256",
          "name": "totalBudget",
          "type": "uint256"
        },
        {
          "internalType": "uint256",
          "name": "cashAllowance",
          "type": "uint256"
        },
        {
          "internalType": "uint256",
          "name": "cashBalance",
          "type": "uint256"
        },
        {
          "internalType": "uint256",
          "name": "tokenBalance",
          "type": "uint256"
        }
      ],
      "stateMutability": "view",
      "type": "function"
    },
    {
      "inputs": [
        {
          "internalType": "address",
          "name": "_vendorAddress",
          "type": "address"
        }
      ],
      "name": "vendorBalance",
      "outputs": [
        {
          "internalType": "address",
          "name": "walletAddress",
          "type": "address"
        },
        {
          "internalType": "uint256",
          "name": "cashAllowance",
          "type": "uint256"
        },
        {
          "internalType": "uint256",
          "name": "cashBalance",
          "type": "uint256"
        },
        {
          "internalType": "uint256",
          "name": "tokenBalance",
          "type": "uint256"
        }
      ],
      "stateMutability": "view",
      "type": "function"
    },
    {
      "inputs": [
        {
          "internalType": "uint256",
          "name": "_phone",
          "type": "uint256"
        }
      ],
      "name": "beneficiaryBalance",
      "outputs": [
        {
          "internalType": "address",
          "name": "walletAddress",
          "type": "address"
        },
        {
          "internalType": "uint256",
          "name": "cashBalance",
          "type": "uint256"
        },
        {
          "internalType": "uint256",
          "name": "tokenBalance",
          "type": "uint256"
        }
      ],
      "stateMutability": "view",
      "type": "function"
    },
    {
      "inputs": [
        {
          "internalType": "uint256",
          "name": "_data",
          "type": "uint256"
        }
      ],
      "name": "findHash",
      "outputs": [
        {
          "internalType": "bytes32",
          "name": "",
          "type": "bytes32"
        }
      ],
      "stateMutability": "pure",
      "type": "function"
    },
    {
      "inputs": [
        {
          "internalType": "string",
          "name": "_data",
          "type": "string"
        }
      ],
      "name": "findHash",
      "outputs": [
        {
          "internalType": "bytes32",
          "name": "",
          "type": "bytes32"
        }
      ],
      "stateMutability": "pure",
      "type": "function"
    },
    {
      "inputs": [
        {
          "internalType": "address",
          "name": "_data",
          "type": "address"
        }
      ],
      "name": "findHash",
      "outputs": [
        {
          "internalType": "bytes32",
          "name": "",
          "type": "bytes32"
        }
      ],
      "stateMutability": "pure",
      "type": "function"
    },
    {
      "inputs": [
        {
          "internalType": "uint256[]",
          "name": "_array",
          "type": "uint256[]"
        }
      ],
      "name": "getArraySum",
      "outputs": [
        {
          "internalType": "uint256",
          "name": "sum",
          "type": "uint256"
        }
      ],
      "stateMutability": "pure",
      "type": "function"
    },
    {
      "inputs": [
        {
          "internalType": "address payable",
          "name": "_to",
          "type": "address"
        }
      ],
      "name": "withdraw",
      "outputs": [],
      "stateMutability": "payable",
      "type": "function"
    }
  ],
  "bytecode": "0x60806040523480156200001157600080fd5b506040516200578a3803806200578a833981016040819052620000349162000270565b620000416000826200015c565b6001600160a01b0381166000908152600360205260408120805460ff1916600117905562000091907fcaa7f6290f33308266ee2988386694ac9bc3612b5df272e3502129925a64f997906200016c565b620000be7f0aaf57387812c7f832412470a57567b5648a930069be49aa9c98d04f88520d3460006200016c565b620000eb7faf290d8680820aad922855f39b306097b20e28774d6c1ad35a20325630c3a02c60006200016c565b620001187fbe9e90431f28bd12a87a51b26b014cab620a8a4819bf73d87369ccbe6800a76c60006200016c565b50600580546001600160a01b039485166001600160a01b031991821617909155600780549385169382169390931790925560088054919093169116179055620002d8565b620001688282620001b7565b5050565b600082815260208190526040808220600101805490849055905190918391839186917fbd79b86ffe0ab8e8776151514217cd7cacd52c909f66475c3af44e129f0b00ff9190a4505050565b6000828152602081815260408083206001600160a01b038516845290915290205460ff1662000168576000828152602081815260408083206001600160a01b03851684529091529020805460ff19166001179055620002133390565b6001600160a01b0316816001600160a01b0316837f2f8788117e7eff1d82e926ec794901d17c78024a50270940304540a733656f0d60405160405180910390a45050565b6001600160a01b03811681146200026d57600080fd5b50565b600080600080608085870312156200028757600080fd5b8451620002948162000257565b6020860151909450620002a78162000257565b6040860151909350620002ba8162000257565b6060860151909250620002cd8162000257565b939692955090935050565b6154a280620002e86000396000f3fe608060405260043610620003555760003560e01c80636e90549611620001ba578063a217fddf1162000101578063d547741f116200009c578063d547741f1462000cfc578063da3e33971462000d21578063e18007621462000d46578063eaad46f51462000d91578063ec87621c1462000db6578063ee54d54f1462000dec578063f5537ede1462000e11578063fb3c0d701462000e3657600080fd5b8063a217fddf1462000b7e578063a591afbe1462000b95578063a6d63e591462000bad578063a72246871462000bd2578063ac9650d81462000bf4578063c0d955d61462000c28578063cf784eda1462000c4d578063d1e671671462000c7e57600080fd5b80636e90549614620009135780637048027514620009445780637065cb48146200096957806370c75107146200098e578063785e9e8614620009b35780637b10399914620009d55780637ecebe0014620009f7578063882575671462000a285780638bbab5c71462000a4d5780638d846f2c1462000a8357806391d148541462000ab4578063920fd1781462000ad9578063926a694d1462000afe57806394343cd21462000b235780639ea693501462000b5957600080fd5b806330772c10116200029c578063494101ff1162000237578063494101ff14620007c85780634c91b44e14620007ed57806351cff8d91462000823578063546fcaa4146200083a5780635cbd99d4146200085f5780635d755542146200088457806364a2f7d914620008ab578063666e1b3914620008df57600080fd5b806330772c1014620006475780633098b74b1462000697578063351c3d0b14620006bc57806336568abe14620006ed57806337d027b814620007125780633fc16810146200074357806345e0f75314620007685780634937b174146200078d57600080fd5b806301ffc9a7146200039d578063055ee07014620003d7578063101b84801462000417578063125bfb66146200045d578063173825d9146200048457806318cf283414620004a9578063237c9db314620004ce5780632384e10514620004ff578063248a9ca3146200053557806324d7806c146200056957806327fa7a20146200058e57806329312a9c14620005b35780632aef0c3014620005d85780632d41d55914620005fd5780632f2ff15d146200062257600080fd5b3662000398577f88a5966d370b9919b20f3e2c13ff65706f196a4e32cc2c12bf57088f8852587433346040516200038e92919062003af7565b60405180910390a1005b600080fd5b348015620003aa57600080fd5b50620003c2620003bc36600462003b10565b62000e5b565b60405190151581526020015b60405180910390f35b348015620003e457600080fd5b5062000408620003f636600462003b3c565b60096020526000908152604090205481565b604051908152602001620003ce565b3480156200042457600080fd5b506200043c6200043636600462003b6c565b62000e6e565b604080519485526020850193909352918301526060820152608001620003ce565b3480156200046a57600080fd5b50620004826200047c36600462003b9f565b62000fae565b005b3480156200049157600080fd5b50620003c2620004a336600462003be5565b62001067565b348015620004b657600080fd5b50620004086000805160206200542683398151915281565b348015620004db57600080fd5b5062000408620004ed36600462003be5565b60136020526000908152604090205481565b3480156200050c57600080fd5b50620004087fcfa8166f1bb1b8818c3767a9ffd776afbbe3409a468070bb860831e01b56549981565b3480156200054257600080fd5b50620004086200055436600462003b3c565b60009081526020819052604090206001015490565b3480156200057657600080fd5b50620003c26200058836600462003be5565b620010cf565b3480156200059b57600080fd5b5062000482620005ad36600462003cc4565b620010dd565b348015620005c057600080fd5b5062000482620005d236600462003d0e565b620013b0565b348015620005e557600080fd5b5062000482620005f736600462003d3d565b620015a0565b3480156200060a57600080fd5b50620004826200061c36600462003d60565b62001682565b3480156200062f57600080fd5b50620004826200064136600462003b6c565b62001982565b3480156200065457600080fd5b506200066c6200066636600462003be5565b620019ac565b604080516001600160a01b0390951685526020850193909352918301526060820152608001620003ce565b348015620006a457600080fd5b5062000408620006b636600462003d9e565b62001bc7565b348015620006c957600080fd5b5062000408620006db36600462003b3c565b600a6020526000908152604090205481565b348015620006fa57600080fd5b50620004826200070c36600462003b6c565b62001c1c565b3480156200071f57600080fd5b5060085462000734906001600160a01b031681565b604051620003ce919062003e4e565b3480156200075057600080fd5b50620004826200076236600462003e71565b62001c9e565b3480156200077557600080fd5b50620007346200078736600462003be5565b62001cea565b3480156200079a57600080fd5b50620007b2620007ac36600462003e99565b62001ff1565b60408051928352602083019190915201620003ce565b348015620007d557600080fd5b5062000408620007e736600462003b3c565b620020e6565b348015620007fa57600080fd5b50620004087fbe9e90431f28bd12a87a51b26b014cab620a8a4819bf73d87369ccbe6800a76c81565b620004826200083436600462003be5565b62002122565b3480156200084757600080fd5b50620004826200085936600462003ecc565b620021ec565b3480156200086c57600080fd5b50620004826200087e36600462003be5565b6200239c565b3480156200089157600080fd5b506200089c620023e6565b604051620003ce919062003ef6565b348015620008b857600080fd5b50620003c2620008ca36600462003b3c565b600b6020526000908152604090205460ff1681565b348015620008ec57600080fd5b50620003c2620008fe36600462003be5565b60036020526000908152604090205460ff1681565b3480156200092057600080fd5b50620004086200093236600462003b3c565b600e6020526000908152604090205481565b3480156200095157600080fd5b50620004826200096336600462003be5565b620023f9565b3480156200097657600080fd5b50620003c26200098836600462003be5565b62002456565b3480156200099b57600080fd5b5062000408620009ad36600462003f45565b620024ba565b348015620009c057600080fd5b5060055462000734906001600160a01b031681565b348015620009e257600080fd5b5060075462000734906001600160a01b031681565b34801562000a0457600080fd5b506200040862000a1636600462003be5565b60046020526000908152604090205481565b34801562000a3557600080fd5b506200048262000a4736600462003d3d565b620024cf565b34801562000a5a57600080fd5b50620004087f043620c1e1c33ecf60d9dadc62571b96554338b68ef3636e715e52a286bea92e81565b34801562000a9057600080fd5b506200040862000aa236600462003b3c565b600f6020526000908152604090205481565b34801562000ac157600080fd5b50620003c262000ad336600462003b6c565b6200251d565b34801562000ae657600080fd5b506200040862000af836600462003be5565b62002546565b34801562000b0b57600080fd5b50620004086000805160206200540683398151915281565b34801562000b3057600080fd5b50620004087f8ff5d84bbad5f252f2ee1916646e221e55645205d2f803ebe6a7d6ba8fa4185d81565b34801562000b6657600080fd5b506200048262000b7836600462003d3d565b62002569565b34801562000b8b57600080fd5b5062000408600081565b34801562000ba257600080fd5b506200089c6200284c565b34801562000bba57600080fd5b506200048262000bcc36600462003f7d565b6200285a565b34801562000bdf57600080fd5b5060065462000734906001600160a01b031681565b34801562000c0157600080fd5b5062000c1962000c1336600462003fc8565b62002916565b604051620003ce919062004095565b34801562000c3557600080fd5b506200048262000c47366004620040fb565b62002a1d565b34801562000c5a57600080fd5b506200040862000c6c36600462003b3c565b6000908152600f602052604090205490565b34801562000c8b57600080fd5b5062000cd562000c9d36600462003d0e565b601460209081526000928352604080842090915290825290208054600182015460028301546003909301549192909160ff9091169084565b604080519485526020850193909352901515918301919091526060820152608001620003ce565b34801562000d0957600080fd5b506200048262000d1b36600462003b6c565b62002c3d565b34801562000d2e57600080fd5b506200048262000d4036600462003b9f565b62002c67565b34801562000d5357600080fd5b5062000d6b62000d6536600462003b3c565b62002cc9565b604080516001600160a01b039094168452602084019290925290820152606001620003ce565b34801562000d9e57600080fd5b506200048262000db03660046200414c565b62002dfb565b34801562000dc357600080fd5b50620004087faf290d8680820aad922855f39b306097b20e28774d6c1ad35a20325630c3a02c81565b34801562000df957600080fd5b50620003c262000e0b36600462003be5565b62002e7c565b34801562000e1e57600080fd5b506200048262000e3036600462003b9f565b62002e99565b34801562000e4357600080fd5b506200048262000e5536600462004189565b62002efb565b600062000e688262002fac565b92915050565b6006546000908190819081906001600160a01b031662000e9657600092506000915062000f88565b600654604051636eb1769f60e11b81526001600160a01b039091169063dd62ed3e9062000eca9088903090600401620041e1565b602060405180830381865afa15801562000ee8573d6000803e3d6000fd5b505050506040513d601f19601f8201168201806040525081019062000f0e9190620041fb565b6006546040516370a0823160e01b81529194506001600160a01b0316906370a082319062000f4190309060040162003e4e565b602060405180830381865afa15801562000f5f573d6000803e3d6000fd5b505050506040513d601f19601f8201168201806040525081019062000f859190620041fb565b91505b506000948552600f6020908152604080872054600e909252909520549591949093509150565b3360009081526003602052604090205460ff1662000fe95760405162461bcd60e51b815260040162000fe09062004215565b60405180910390fd5b6040516323b872dd60e01b81526001600160a01b038416906323b872dd906200101b908590309086906004016200425c565b6020604051808303816000875af11580156200103b573d6000803e3d6000fd5b505050506040513d601f19601f8201168201806040525081019062001061919062004280565b50505050565b3360009081526003602052604081205460ff16620010995760405162461bcd60e51b815260040162000fe09062004215565b6001600160a01b0382166000908152600360205260409020805460ff19169055620010c660018362002fe3565b50600192915050565b600062000e6881836200251d565b816000620010eb82620020e6565b6000838152600a6020526040812054919250036200111d5760405162461bcd60e51b815260040162000fe090620042a0565b6200113860008051602062005406833981519152336200251d565b620011575760405162461bcd60e51b815260040162000fe090620042ed565b60006200116485620020e6565b336000908152601460209081526040808320848452909152902060028101549192509060ff16620011e45760405162461bcd60e51b815260206004820152602360248201527f52414841543a20436c61696d20686173206e6f74206265656e2072656c65617360448201526232b21760e91b606482015260840162000fe0565b4281600301541015620012445760405162461bcd60e51b815260206004820152602160248201527f52414841543a20436c61696d2068617320616c726561647920657870697265646044820152601760f91b606482015260840162000fe0565b60006200125186620024ba565b3360009081526014602090815260408083208784529091529020600101549091508114620012be5760405162461bcd60e51b81526020600482015260196024820152782920a420aa1d1027aa28103234b2103737ba1036b0ba31b41760391b604482015260640162000fe0565b620012ce87836000015462003001565b815460028301805460ff191690556000808455600384015560055460405163a9059cbb60e01b81526001600160a01b039091169063a9059cbb906200131a903390859060040162003af7565b6020604051808303816000875af11580156200133a573d6000803e3d6000fd5b505050506040513d601f19601f8201168201806040525081019062001360919062004280565b506200136e33898362003075565b604051818152889033907fe4de809bf00bba73c562150b76ba81e5af05183458342bfdb09a7c9e303813e5906020015b60405180910390a35050505050505050565b620013bd6000336200251d565b620013dc5760405162461bcd60e51b815260040162000fe09062004337565b6007546001600160a01b03166338a699a4620013f88462002546565b6040518263ffffffff1660e01b81526004016200141791815260200190565b602060405180830381865afa15801562001435573d6000803e3d6000fd5b505050506040513d601f19601f820116820180604052508101906200145b919062004280565b620014a95760405162461bcd60e51b815260206004820152601d60248201527f76656e646f722077616c6c6574206e6f7420726567697374657265642e000000604482015260640162000fe0565b6006546007546001600160a01b039182169163095ea7b3911663bde87f2e620014d28662002546565b6040518263ffffffff1660e01b8152600401620014f191815260200190565b602060405180830381865afa1580156200150f573d6000803e3d6000fd5b505050506040513d601f19601f820116820180604052508101906200153591906200436e565b836040518363ffffffff1660e01b81526004016200155592919062003af7565b6020604051808303816000875af115801562001575573d6000803e3d6000fd5b505050506040513d601f19601f820116820180604052508101906200159b919062004280565b505050565b620015ad6000336200251d565b620015cc5760405162461bcd60e51b815260040162000fe09062004337565b816000620015da82620020e6565b6000838152600a6020526040812054919250036200160c5760405162461bcd60e51b815260040162000fe090620042a0565b6000848152600a6020908152604080832054868452600f90925282208054919283926200163b908490620043a4565b90915550506000858152600a60209081526040808320839055600990915290205462001669908290620043ba565b6000958652600960205260409095209490945550505050565b8260006200169082620020e6565b6000838152600a602052604081205491925003620016c25760405162461bcd60e51b815260040162000fe090620042a0565b620016dd60008051602062005426833981519152336200251d565b6200173e5760405162461bcd60e51b815260206004820152602a60248201527f52414841543a2053656e646572206d75737420626520616e20617574686f72696044820152693d32b21039b2b93b32b960b11b606482015260840162000fe0565b60006200174b86620020e6565b6001600160a01b038816600090815260146020908152604080832084845290915281206003810154929350919003620017d55760405162461bcd60e51b815260206004820152602560248201527f52414841543a20436c61696d20686173206e6f74206265656e2063726561746560448201526419081e595d60da1b606482015260840162000fe0565b62015180851115620018425760405162461bcd60e51b815260206004820152602f60248201527f52414841543a54696d6520546f204c6976652073686f756c64206265206c657360448201526e73207468616e20323420686f75727360881b606482015260840162000fe0565b6003810154620018569062015180620043a4565b421115620018b35760405162461bcd60e51b815260206004820152602360248201527f52414841543a20436c61696d206973206f6c646572207468616e20323420686f60448201526275727360e81b606482015260840162000fe0565b600281015460ff16156200191a5760405162461bcd60e51b815260206004820152602760248201527f52414841543a20436c61696d2068617320616c7265616479206265656e2072656044820152663632b0b9b2b21760c91b606482015260840162000fe0565b600180820187905560028201805460ff191690911790556200193d8542620043a4565b6003820155805460405190815287906001600160a01b038a16907f05ca75b0d90f1dd046ad3b8c1ec4a461042c3d33518b9b67d9feafc7d8d3c6cf906020016200139e565b600082815260208190526040902060010154620019a08133620031e4565b6200159b838362003253565b6007546000908190819081906001600160a01b031663bde87f2e620019d18762002546565b6040518263ffffffff1660e01b8152600401620019f091815260200190565b602060405180830381865afa15801562001a0e573d6000803e3d6000fd5b505050506040513d601f19601f8201168201806040525081019062001a3491906200436e565b6006549094506001600160a01b031662001a5657600092506000915062001b48565b600654604051636eb1769f60e11b81526001600160a01b039091169063dd62ed3e9062001a8a9030908890600401620041e1565b602060405180830381865afa15801562001aa8573d6000803e3d6000fd5b505050506040513d601f19601f8201168201806040525081019062001ace9190620041fb565b6006546040516370a0823160e01b81529194506001600160a01b0316906370a082319062001b0190879060040162003e4e565b602060405180830381865afa15801562001b1f573d6000803e3d6000fd5b505050506040513d601f19601f8201168201806040525081019062001b459190620041fb565b91505b6005546040516370a0823160e01b81526001600160a01b03909116906370a082319062001b7a90889060040162003e4e565b602060405180830381865afa15801562001b98573d6000803e3d6000fd5b505050506040513d601f19601f8201168201806040525081019062001bbe9190620041fb565b90509193509193565b6000805b825181101562001c165782818151811062001bea5762001bea620043d0565b60200260200101518262001bff9190620043a4565b91508062001c0d81620043e6565b91505062001bcb565b50919050565b6001600160a01b038116331462001c8e5760405162461bcd60e51b815260206004820152602f60248201527f416363657373436f6e74726f6c3a2063616e206f6e6c792072656e6f756e636560448201526e103937b632b9903337b91039b2b63360891b606482015260840162000fe0565b62001c9a8282620032db565b5050565b62001cab6000336200251d565b62001cca5760405162461bcd60e51b815260040162000fe09062004337565b6000918252600b6020526040909120805460ff1916911515919091179055565b600062001cf881336200251d565b62001d175760405162461bcd60e51b815260040162000fe09062004337565b60008062001d258462002546565b600754604051635ef43f9760e11b8152600481018390529192506000916001600160a01b039091169063bde87f2e90602401602060405180830381865afa15801562001d75573d6000803e3d6000fd5b505050506040513d601f19601f8201168201806040525081019062001d9b91906200436e565b90506001600160a01b0381161562001db65780925062001e84565b3060405162001dc59062003ae9565b62001dd1919062003e4e565b604051809103906000f08015801562001dee573d6000803e3d6000fd5b506007549093506001600160a01b031663b3fd13a962001e0e8762002546565b6040516001600160e01b031960e084901b16815260048101919091526001600160a01b03861660248201526044016020604051808303816000875af115801562001e5c573d6000803e3d6000fd5b505050506040513d601f19601f8201168201806040525081019062001e82919062004280565b505b604051630e0cb96960e31b81526001600160a01b03841690637065cb489062001eb290889060040162003e4e565b6020604051808303816000875af115801562001ed2573d6000803e3d6000fd5b505050506040513d601f19601f8201168201806040525081019062001ef8919062004280565b5062001f14600080516020620054068339815191528662001982565b62001f2160118662003343565b5067016345785d8a0000856001600160a01b031631101562001fe8576000856001600160a01b03166702c68af0bb14000060405160006040518083038185875af1925050503d806000811462001f94576040519150601f19603f3d011682016040523d82523d6000602084013e62001f99565b606091505b505090508062001fe65760405162461bcd60e51b81526020600482015260176024820152762930b430ba103732b2b2399036b7b9329032ba3432b91760491b604482015260640162000fe0565b505b50909392505050565b600080836001600160a01b031663dd62ed3e84306040518363ffffffff1660e01b815260040162002024929190620041e1565b602060405180830381865afa15801562002042573d6000803e3d6000fd5b505050506040513d601f19601f82011682018060405250810190620020689190620041fb565b6040516370a0823160e01b81529092506001600160a01b038516906370a08231906200209990309060040162003e4e565b602060405180830381865afa158015620020b7573d6000803e3d6000fd5b505050506040513d601f19601f82011682018060405250810190620020dd9190620041fb565b90509250929050565b6000620020f3826200335a565b60405160200162002105919062004402565b604051602081830303815290604052805190602001209050919050565b6200212f6000336200251d565b6200214e5760405162461bcd60e51b815260040162000fe09062004337565b6000816001600160a01b03164760405160006040518083038185875af1925050503d80600081146200219d576040519150601f19603f3d011682016040523d82523d6000602084013e620021a2565b606091505b505090508062001c9a5760405162461bcd60e51b81526020600482015260146024820152732330b4b632b2103a379039b2b7321022ba3432b960611b604482015260640162000fe0565b826000620021fa82620020e6565b6000838152600a6020526040812054919250036200222c5760405162461bcd60e51b815260040162000fe090620042a0565b620022396000336200251d565b620022585760405162461bcd60e51b815260040162000fe09062004337565b620022638462002e7c565b620022bc5760405162461bcd60e51b815260206004820152602260248201527f5472616e7366657220746f206d7573742062652076656e646f72206164647265604482015261737360f01b606482015260840162000fe0565b620022c8858462003001565b620022d584868562003075565b60055460405163a9059cbb60e01b81526001600160a01b039091169063a9059cbb9062002309908790879060040162003af7565b6020604051808303816000875af115801562002329573d6000803e3d6000fd5b505050506040513d601f19601f820116820180604052508101906200234f919062004280565b5084846001600160a01b03167fe4de809bf00bba73c562150b76ba81e5af05183458342bfdb09a7c9e303813e5856040516200238d91815260200190565b60405180910390a35050505050565b620023a96000336200251d565b620023c85760405162461bcd60e51b815260040162000fe09062004337565b620023e3600080516020620054268339815191528262001982565b50565b6060620023f460116200347a565b905090565b620024066000336200251d565b620024255760405162461bcd60e51b815260040162000fe09062004337565b6200243260008262001982565b6001600160a01b03166000908152600360205260409020805460ff19166001179055565b3360009081526003602052604081205460ff16620024885760405162461bcd60e51b815260040162000fe09062004215565b6001600160a01b0382166000908152600360205260409020805460ff19166001908117909155620010c6908362003343565b60008160405160200162002105919062004402565b6000828152600f602052604081208054839290620024ef908490620043a4565b90915550506000828152600e60205260408120805483929062002514908490620043a4565b90915550505050565b6000918252602082815260408084206001600160a01b0393909316845291905290205460ff1690565b6040516001600160601b0319606083901b16602082015260009060340162002105565b8160006200257782620020e6565b6000838152600a602052604081205491925003620025a95760405162461bcd60e51b815260040162000fe090620042a0565b620025c460008051602062005406833981519152336200251d565b620025e35760405162461bcd60e51b815260040162000fe090620042ed565b600860009054906101000a90046001600160a01b03166001600160a01b031663b8f7a6656040518163ffffffff1660e01b8152600401602060405180830381865afa15801562002637573d6000803e3d6000fd5b505050506040513d601f19601f820116820180604052508101906200265d919062004280565b620026d15760405162461bcd60e51b815260206004820152603f60248201527f5468697320726573706f6e736520686173206e6f74206265656e20616374697660448201527f61746564207965742c20706c6561736520636f6e746163742061646d696e2e00606482015260840162000fe0565b6000848152600b602052604090205460ff16156200273e5760405162461bcd60e51b8152602060048201526024808201527f43616e6e6f7420636c61696d2066726f6d2062616e6b65642062656e656669636044820152636961727960e01b606482015260840162000fe0565b6200274a338462003489565b60006200275785620020e6565b6000868152600a6020526040902054909150841115620027e05760405162461bcd60e51b815260206004820152603c60248201527f52414841543a20416d6f756e742072657175657374656420697320677265617460448201527f6572207468616e2062656e65666963696172792062616c616e63652e00000000606482015260840162000fe0565b33600090815260146020908152604080832084845282529182902060028101805460ff191690558681554260038201559151868152879132917f79ef0b2282f5e45718748b37d5a89727c1544ad2f78b126efa97c32ac1f1d232910160405180910390a3505050505050565b6060620023f460016200347a565b3360009081526003602052604090205460ff166200288c5760405162461bcd60e51b815260040162000fe09062004215565b6006546001600160a01b0316620028b957600680546001600160a01b0319166001600160a01b0386161790555b620028c684848362000fae565b6000828152600f602052604081208054839290620028e6908490620043a4565b90915550506000828152600e6020526040812080548392906200290b908490620043a4565b909155505050505050565b6060816001600160401b0381111562002933576200293362003c05565b6040519080825280602002602001820160405280156200296857816020015b6060815260200190600190039081620029525790505b50905060005b8281101562002a1657620029e030858584818110620029915762002991620043d0565b9050602002810190620029a5919062004420565b8080601f016020809104026020016040519081016040528093929190818152602001838380828437600092019190915250620035e092505050565b828281518110620029f557620029f5620043d0565b6020026020010181905250808062002a0d90620043e6565b9150506200296e565b5092915050565b62002a2a6000336200251d565b62002a495760405162461bcd60e51b815260040162000fe09062004337565b600062002a5684620024ba565b6007549091506001600160a01b03166338a699a462002a7585620020e6565b6040518263ffffffff1660e01b815260040162002a9491815260200190565b602060405180830381865afa15801562002ab2573d6000803e3d6000fd5b505050506040513d601f19601f8201168201806040525081019062002ad8919062004280565b62002b245760405162461bcd60e51b815260206004820152601b60248201527a2132b732b334b1b4b0b93c903737ba103932b3b4b9ba32b932b21760291b604482015260640162000fe0565b336000908152601360205260408120805484929062002b45908490620043a4565b90915550506000818152600f602052604090205482111562002bc95760405162461bcd60e51b815260206004820152603660248201527f52414841543a20416d6f756e742069732067726561746572207468616e2072656044820152751b585a5b9a5b99c8141c9bda9958dd08109d5919d95d60521b606482015260840162000fe0565b6000818152600f60205260408120805484929062002be9908490620043ba565b9091555062002bfb9050838362003608565b82817f707197b34e0edb88707154f8a8ea9f3c8d891eb60a28dac25cc79bf23c3aa5c18460405162002c2f91815260200190565b60405180910390a350505050565b60008281526020819052604090206001015462002c5b8133620031e4565b6200159b8383620032db565b3360009081526003602052604090205460ff1662002c995760405162461bcd60e51b815260040162000fe09062004215565b60405163095ea7b360e01b81526001600160a01b0384169063095ea7b3906200101b908590859060040162003af7565b600754600090819081906001600160a01b031663bde87f2e62002cec86620020e6565b6040518263ffffffff1660e01b815260040162002d0b91815260200190565b602060405180830381865afa15801562002d29573d6000803e3d6000fd5b505050506040513d601f19601f8201168201806040525081019062002d4f91906200436e565b6006549093506001600160a01b031662002d6d576000915062002de6565b6006546040516370a0823160e01b81526001600160a01b03909116906370a082319062002d9f90869060040162003e4e565b602060405180830381865afa15801562002dbd573d6000803e3d6000fd5b505050506040513d601f19601f8201168201806040525081019062002de39190620041fb565b91505b506000928352600a6020526040909220549092565b62002e086000336200251d565b62002e275760405162461bcd60e51b815260040162000fe09062004337565b600062002e3482620024ba565b905062002e627fbe9e90431f28bd12a87a51b26b014cab620a8a4819bf73d87369ccbe6800a76c8462001982565b600081815260106020526040902062001061908462003343565b600062000e6860008051602062005406833981519152836200251d565b3360009081526003602052604090205460ff1662002ecb5760405162461bcd60e51b815260040162000fe09062004215565b60405163a9059cbb60e01b81526001600160a01b0384169063a9059cbb906200101b908590859060040162003af7565b3360009081526003602052604090205460ff1662002f2d5760405162461bcd60e51b815260040162000fe09062004215565b6040516323b872dd60e01b81526001600160a01b038516906323b872dd9062002f5f908690869086906004016200425c565b6020604051808303816000875af115801562002f7f573d6000803e3d6000fd5b505050506040513d601f19601f8201168201806040525081019062002fa5919062004280565b5050505050565b60006001600160e01b03198216637965db0b60e01b148062000e6857506301ffc9a760e01b6001600160e01b031983161462000e68565b600062002ffa836001600160a01b03841662003662565b9392505050565b8160006200300f82620020e6565b6000838152600a602052604081205491925003620030415760405162461bcd60e51b815260040162000fe090620042a0565b6000848152600a60205260409020546200305d908490620043ba565b6000948552600a602052604090942093909355505050565b6007546000906001600160a01b031663bde87f2e620030948662002546565b6040518263ffffffff1660e01b8152600401620030b391815260200190565b602060405180830381865afa158015620030d1573d6000803e3d6000fd5b505050506040513d601f19601f82011682018060405250810190620030f791906200436e565b6006546007549192506001600160a01b038084169263f5537ede928216911663bde87f2e6200312688620020e6565b6040518263ffffffff1660e01b81526004016200314591815260200190565b602060405180830381865afa15801562003163573d6000803e3d6000fd5b505050506040513d601f19601f820116820180604052508101906200318991906200436e565b856040518463ffffffff1660e01b8152600401620031aa939291906200425c565b600060405180830381600087803b158015620031c557600080fd5b505af1158015620031da573d6000803e3d6000fd5b5050505050505050565b620031f082826200251d565b62001c9a576200320b816001600160a01b0316601462003766565b6200321883602062003766565b6040516020016200322b92919062004470565b60408051601f198184030181529082905262461bcd60e51b825262000fe091600401620044e3565b6200325f82826200251d565b62001c9a576000828152602081815260408083206001600160a01b03851684529091529020805460ff19166001179055620032973390565b6001600160a01b0316816001600160a01b0316837f2f8788117e7eff1d82e926ec794901d17c78024a50270940304540a733656f0d60405160405180910390a45050565b620032e782826200251d565b1562001c9a576000828152602081815260408083206001600160a01b0385168085529252808320805460ff1916905551339285917ff6391f5c32d9c69d2a47ea670b442974b53935d1edc7fd64eb21e047a839171b9190a45050565b600062002ffa836001600160a01b0384166200391f565b606081600003620033825750506040805180820190915260018152600360fc1b602082015290565b8160005b8115620033b257806200339981620043e6565b9150620033aa9050600a836200450e565b915062003386565b6000816001600160401b03811115620033cf57620033cf62003c05565b6040519080825280601f01601f191660200182016040528015620033fa576020820181803683370190505b5090505b8415620034725762003412600183620043ba565b915062003421600a8662004525565b6200342e906030620043a4565b60f81b818381518110620034465762003446620043d0565b60200101906001600160f81b031916908160001a9053506200346a600a866200450e565b9450620033fe565b949350505050565b6060600062002ffa8362003971565b6006546007546000916001600160a01b03908116916370a08231911663bde87f2e620034b58762002546565b6040518263ffffffff1660e01b8152600401620034d491815260200190565b602060405180830381865afa158015620034f2573d6000803e3d6000fd5b505050506040513d601f19601f820116820180604052508101906200351891906200436e565b6040518263ffffffff1660e01b815260040162003536919062003e4e565b602060405180830381865afa15801562003554573d6000803e3d6000fd5b505050506040513d601f19601f820116820180604052508101906200357a9190620041fb565b9050818110156200159b5760405162461bcd60e51b815260206004820152602960248201527f56656e646f7220646f6573206e6f74206861766520656e6f7567682063617368604482015268103130b630b731b29760b91b606482015260840162000fe0565b606062002ffa83836040518060600160405280602781526020016200544660279139620039cf565b6000828152600a602052604090205462003624908290620043a4565b6000838152600a60209081526040808320939093556009905220546200364c908290620043a4565b6000928352600960205260409092209190915550565b600081815260018301602052604081205480156200375b57600062003689600183620043ba565b85549091506000906200369f90600190620043ba565b90508181146200370b576000866000018281548110620036c357620036c3620043d0565b9060005260206000200154905080876000018481548110620036e957620036e9620043d0565b6000918252602080832090910192909255918252600188019052604090208390555b85548690806200371f576200371f6200453c565b60019003818190600052602060002001600090559055856001016000868152602001908152602001600020600090556001935050505062000e68565b600091505062000e68565b606060006200377783600262004552565b62003784906002620043a4565b6001600160401b038111156200379e576200379e62003c05565b6040519080825280601f01601f191660200182016040528015620037c9576020820181803683370190505b509050600360fc1b81600081518110620037e757620037e7620043d0565b60200101906001600160f81b031916908160001a905350600f60fb1b81600181518110620038195762003819620043d0565b60200101906001600160f81b031916908160001a90535060006200383f84600262004552565b6200384c906001620043a4565b90505b6001811115620038ce576f181899199a1a9b1b9c1cb0b131b232b360811b85600f1660108110620038845762003884620043d0565b1a60f81b8282815181106200389d576200389d620043d0565b60200101906001600160f81b031916908160001a90535060049490941c93620038c68162004574565b90506200384f565b50831562002ffa5760405162461bcd60e51b815260206004820181905260248201527f537472696e67733a20686578206c656e67746820696e73756666696369656e74604482015260640162000fe0565b6000818152600183016020526040812054620039685750815460018181018455600084815260208082209093018490558454848252828601909352604090209190915562000e68565b50600062000e68565b606081600001805480602002602001604051908101604052809291908181526020018280548015620039c357602002820191906000526020600020905b815481526020019060010190808311620039ae575b50505050509050919050565b6060833b62003a305760405162461bcd60e51b815260206004820152602660248201527f416464726573733a2064656c65676174652063616c6c20746f206e6f6e2d636f6044820152651b9d1c9858dd60d21b606482015260840162000fe0565b600080856001600160a01b03168560405162003a4d919062004402565b600060405180830381855af49150503d806000811462003a8a576040519150601f19603f3d011682016040523d82523d6000602084013e62003a8f565b606091505b509150915062003aa182828662003aab565b9695505050505050565b6060831562003abc57508162002ffa565b82511562003acd5782518084602001fd5b8160405162461bcd60e51b815260040162000fe09190620044e3565b610e77806200458f83390190565b6001600160a01b03929092168252602082015260400190565b60006020828403121562003b2357600080fd5b81356001600160e01b03198116811462002ffa57600080fd5b60006020828403121562003b4f57600080fd5b5035919050565b6001600160a01b0381168114620023e357600080fd5b6000806040838503121562003b8057600080fd5b82359150602083013562003b948162003b56565b809150509250929050565b60008060006060848603121562003bb557600080fd5b833562003bc28162003b56565b9250602084013562003bd48162003b56565b929592945050506040919091013590565b60006020828403121562003bf857600080fd5b813562002ffa8162003b56565b634e487b7160e01b600052604160045260246000fd5b604051601f8201601f191681016001600160401b038111828210171562003c465762003c4662003c05565b604052919050565b600082601f83011262003c6057600080fd5b81356001600160401b0381111562003c7c5762003c7c62003c05565b62003c91601f8201601f191660200162003c1b565b81815284602083860101111562003ca757600080fd5b816020850160208301376000918101602001919091529392505050565b6000806040838503121562003cd857600080fd5b8235915060208301356001600160401b0381111562003cf657600080fd5b62003d048582860162003c4e565b9150509250929050565b6000806040838503121562003d2257600080fd5b823562003d2f8162003b56565b946020939093013593505050565b6000806040838503121562003d5157600080fd5b50508035926020909101359150565b6000806000806080858703121562003d7757600080fd5b843562003d848162003b56565b966020860135965060408601359560600135945092505050565b6000602080838503121562003db257600080fd5b82356001600160401b038082111562003dca57600080fd5b818501915085601f83011262003ddf57600080fd5b81358181111562003df45762003df462003c05565b8060051b915062003e0784830162003c1b565b818152918301840191848101908884111562003e2257600080fd5b938501935b8385101562003e425784358252938501939085019062003e27565b98975050505050505050565b6001600160a01b0391909116815260200190565b8015158114620023e357600080fd5b6000806040838503121562003e8557600080fd5b82359150602083013562003b948162003e62565b6000806040838503121562003ead57600080fd5b823562003eba8162003b56565b9150602083013562003b948162003b56565b60008060006060848603121562003ee257600080fd5b83359250602084013562003bd48162003b56565b6020808252825182820181905260009190848201906040850190845b8181101562003f395783516001600160a01b03168352928401929184019160010162003f12565b50909695505050505050565b60006020828403121562003f5857600080fd5b81356001600160401b0381111562003f6f57600080fd5b620034728482850162003c4e565b6000806000806080858703121562003f9457600080fd5b843562003fa18162003b56565b9350602085013562003fb38162003b56565b93969395505050506040820135916060013590565b6000806020838503121562003fdc57600080fd5b82356001600160401b038082111562003ff457600080fd5b818501915085601f8301126200400957600080fd5b8135818111156200401957600080fd5b8660208260051b85010111156200402f57600080fd5b60209290920196919550909350505050565b60005b838110156200405e57818101518382015260200162004044565b50506000910152565b600081518084526200408181602086016020860162004041565b601f01601f19169290920160200192915050565b6000602080830181845280855180835260408601915060408160051b870101925083870160005b82811015620040ee57603f19888603018452620040db85835162004067565b94509285019290850190600101620040bc565b5092979650505050505050565b6000806000606084860312156200411157600080fd5b83356001600160401b038111156200412857600080fd5b620041368682870162003c4e565b9660208601359650604090950135949350505050565b600080604083850312156200416057600080fd5b82356200416d8162003b56565b915060208301356001600160401b0381111562003cf657600080fd5b60008060008060808587031215620041a057600080fd5b8435620041ad8162003b56565b93506020850135620041bf8162003b56565b92506040850135620041d18162003b56565b9396929550929360600135925050565b6001600160a01b0392831681529116602082015260400190565b6000602082840312156200420e57600080fd5b5051919050565b60208082526027908201527f4f6e6c79206f776e65722063616e20657865637574652074686973207472616e60408201526639b0b1ba34b7b760c91b606082015260800190565b6001600160a01b039384168152919092166020820152604081019190915260600190565b6000602082840312156200429357600080fd5b815162002ffa8162003e62565b6020808252602d908201527f52414841543a204e6f20616e7920746f6b656e2077617320697373756564207460408201526c37903a3434b990373ab6b132b960991b606082015260800190565b6020808252602a908201527f52414841543a2053656e646572204d757374206265206120726567697374657260408201526932b2103b32b73237b91760b11b606082015260800190565b6020808252601f908201527f52414841543a2053656e646572206d75737420626520616e2061646d696e2e00604082015260600190565b6000602082840312156200438157600080fd5b815162002ffa8162003b56565b634e487b7160e01b600052601160045260246000fd5b8082018082111562000e685762000e686200438e565b8181038181111562000e685762000e686200438e565b634e487b7160e01b600052603260045260246000fd5b600060018201620043fb57620043fb6200438e565b5060010190565b600082516200441681846020870162004041565b9190910192915050565b6000808335601e198436030181126200443857600080fd5b8301803591506001600160401b038211156200445357600080fd5b6020019150368190038213156200446957600080fd5b9250929050565b76020b1b1b2b9b9a1b7b73a3937b61d1030b1b1b7bab73a1604d1b815260008351620044a481601785016020880162004041565b7001034b99036b4b9b9b4b733903937b6329607d1b6017918401918201528351620044d781602884016020880162004041565b01602801949350505050565b60208152600062002ffa602083018462004067565b634e487b7160e01b600052601260045260246000fd5b600082620045205762004520620044f8565b500490565b600082620045375762004537620044f8565b500690565b634e487b7160e01b600052603160045260246000fd5b60008160001904831182151516156200456f576200456f6200438e565b500290565b6000816200458657620045866200438e565b50600019019056fe608060405234801561001057600080fd5b50604051610e77380380610e7783398101604081905261002f91610056565b6001600160a01b03166000908152600260205260409020805460ff19166001179055610086565b60006020828403121561006857600080fd5b81516001600160a01b038116811461007f57600080fd5b9392505050565b610de2806100956000396000f3fe608060405234801561001057600080fd5b506004361061008e5760003560e01c8063125bfb6614610093578063173825d9146100a85780634937b174146100d0578063666e1b39146100f85780637065cb481461011b578063a591afbe1461012e578063ac9650d814610143578063da3e339714610163578063f5537ede14610176578063fb3c0d7014610189575b600080fd5b6100a66100a1366004610985565b61019c565b005b6100bb6100b63660046109c1565b61024d565b60405190151581526020015b60405180910390f35b6100e36100de3660046109dc565b6102b1565b604080519283526020830191909152016100c7565b6100bb6101063660046109c1565b60026020526000908152604090205460ff1681565b6100bb6101293660046109c1565b61039a565b6101366103f6565b6040516100c79190610a06565b610156610151366004610a53565b610407565b6040516100c79190610b18565b6100a6610171366004610985565b6104fd565b6100a6610184366004610985565b61055a565b6100a6610197366004610b7a565b6105b7565b3360009081526002602052604090205460ff166101d45760405162461bcd60e51b81526004016101cb90610bc5565b60405180910390fd5b6040516323b872dd60e01b81526001600160a01b038416906323b872dd9061020490859030908690600401610c0c565b6020604051808303816000875af1158015610223573d6000803e3d6000fd5b505050506040513d601f19601f820116820180604052508101906102479190610c30565b50505050565b3360009081526002602052604081205460ff1661027c5760405162461bcd60e51b81526004016101cb90610bc5565b6001600160a01b0382166000908152600260205260408120805460ff191690556102a69083610660565b50600190505b919050565b604051636eb1769f60e11b81526001600160a01b038281166004830152306024830152600091829185169063dd62ed3e90604401602060405180830381865afa158015610302573d6000803e3d6000fd5b505050506040513d601f19601f820116820180604052508101906103269190610c52565b6040516370a0823160e01b81523060048201529092506001600160a01b038516906370a0823190602401602060405180830381865afa15801561036d573d6000803e3d6000fd5b505050506040513d601f19601f820116820180604052508101906103919190610c52565b90509250929050565b3360009081526002602052604081205460ff166103c95760405162461bcd60e51b81526004016101cb90610bc5565b6001600160a01b0382166000908152600260205260408120805460ff191660011790556102a6908361067c565b60606104026000610691565b905090565b60608167ffffffffffffffff81111561042257610422610c6b565b60405190808252806020026020018201604052801561045557816020015b60608152602001906001900390816104405790505b50905060005b828110156104f5576104c53085858481811061047957610479610c81565b905060200281019061048b9190610c97565b8080601f01602080910402602001604051908101604052809392919081815260200183838082843760009201919091525061069e92505050565b8282815181106104d7576104d7610c81565b602002602001018190525080806104ed90610cfb565b91505061045b565b505b92915050565b3360009081526002602052604090205460ff1661052c5760405162461bcd60e51b81526004016101cb90610bc5565b60405163095ea7b360e01b81526001600160a01b0384169063095ea7b3906102049085908590600401610d14565b3360009081526002602052604090205460ff166105895760405162461bcd60e51b81526004016101cb90610bc5565b60405163a9059cbb60e01b81526001600160a01b0384169063a9059cbb906102049085908590600401610d14565b3360009081526002602052604090205460ff166105e65760405162461bcd60e51b81526004016101cb90610bc5565b6040516323b872dd60e01b81526001600160a01b038516906323b872dd9061061690869086908690600401610c0c565b6020604051808303816000875af1158015610635573d6000803e3d6000fd5b505050506040513d601f19601f820116820180604052508101906106599190610c30565b5050505050565b6000610675836001600160a01b0384166106c3565b9392505050565b6000610675836001600160a01b0384166107b6565b6060600061067583610805565b60606106758383604051806060016040528060278152602001610d8660279139610861565b600081815260018301602052604081205480156107ac5760006106e7600183610d2d565b85549091506000906106fb90600190610d2d565b905081811461076057600086600001828154811061071b5761071b610c81565b906000526020600020015490508087600001848154811061073e5761073e610c81565b6000918252602080832090910192909255918252600188019052604090208390555b855486908061077157610771610d40565b6001900381819060005260206000200160009055905585600101600086815260200190815260200160002060009055600193505050506104f7565b60009150506104f7565b60008181526001830160205260408120546107fd575081546001818101845560008481526020808220909301849055845484825282860190935260409020919091556104f7565b5060006104f7565b60608160000180548060200260200160405190810160405280929190818152602001828054801561085557602002820191906000526020600020905b815481526020019060010190808311610841575b50505050509050919050565b6060833b6108c05760405162461bcd60e51b815260206004820152602660248201527f416464726573733a2064656c65676174652063616c6c20746f206e6f6e2d636f6044820152651b9d1c9858dd60d21b60648201526084016101cb565b600080856001600160a01b0316856040516108db9190610d56565b600060405180830381855af49150503d8060008114610916576040519150601f19603f3d011682016040523d82523d6000602084013e61091b565b606091505b509150915061092b828286610935565b9695505050505050565b60608315610944575081610675565b8251156109545782518084602001fd5b8160405162461bcd60e51b81526004016101cb9190610d72565b80356001600160a01b03811681146102ac57600080fd5b60008060006060848603121561099a57600080fd5b6109a38461096e565b92506109b16020850161096e565b9150604084013590509250925092565b6000602082840312156109d357600080fd5b6106758261096e565b600080604083850312156109ef57600080fd5b6109f88361096e565b91506103916020840161096e565b6020808252825182820181905260009190848201906040850190845b81811015610a475783516001600160a01b031683529284019291840191600101610a22565b50909695505050505050565b60008060208385031215610a6657600080fd5b823567ffffffffffffffff80821115610a7e57600080fd5b818501915085601f830112610a9257600080fd5b813581811115610aa157600080fd5b8660208260051b8501011115610ab657600080fd5b60209290920196919550909350505050565b60005b83811015610ae3578181015183820152602001610acb565b50506000910152565b60008151808452610b04816020860160208601610ac8565b601f01601f19169290920160200192915050565b6000602080830181845280855180835260408601915060408160051b870101925083870160005b82811015610b6d57603f19888603018452610b5b858351610aec565b94509285019290850190600101610b3f565b5092979650505050505050565b60008060008060808587031215610b9057600080fd5b610b998561096e565b9350610ba76020860161096e565b9250610bb56040860161096e565b9396929550929360600135925050565b60208082526027908201527f4f6e6c79206f776e65722063616e20657865637574652074686973207472616e60408201526639b0b1ba34b7b760c91b606082015260800190565b6001600160a01b039384168152919092166020820152604081019190915260600190565b600060208284031215610c4257600080fd5b8151801515811461067557600080fd5b600060208284031215610c6457600080fd5b5051919050565b634e487b7160e01b600052604160045260246000fd5b634e487b7160e01b600052603260045260246000fd5b6000808335601e19843603018112610cae57600080fd5b83018035915067ffffffffffffffff821115610cc957600080fd5b602001915036819003821315610cde57600080fd5b9250929050565b634e487b7160e01b600052601160045260246000fd5b600060018201610d0d57610d0d610ce5565b5060010190565b6001600160a01b03929092168252602082015260400190565b818103818111156104f7576104f7610ce5565b634e487b7160e01b600052603160045260246000fd5b60008251610d68818460208701610ac8565b9190910192915050565b6020815260006106756020830184610aec56fe416464726573733a206c6f772d6c6576656c2064656c65676174652063616c6c206661696c6564a26469706673582212207dbbe24f763d11398b882f2b39051d99ae0dcd6f4c79a1c0213341d98ff8ff3764736f6c634300081000330aaf57387812c7f832412470a57567b5648a930069be49aa9c98d04f88520d34caa7f6290f33308266ee2988386694ac9bc3612b5df272e3502129925a64f997416464726573733a206c6f772d6c6576656c2064656c65676174652063616c6c206661696c6564a2646970667358221220194c9e6b4e5028bdb3aa9b996edb2326c3cee5dccc07a837d5f79061a42397d364736f6c63430008100033",
  "immutableReferences": {},
  "source": "//SPDX-License-Identifier: LGPL-3.0\r\n//TODO add balance of beneficiary per project\r\n//TODO suspend mobilizer and vendor\r\n//TODO test tokenissue by mobilizer\r\n//TODO test otp set by server account and otp submission by vendor account\r\n//TODO revole roles\r\n\r\npragma solidity ^0.8.16;\r\nimport \"./RahatERC20.sol\";\r\nimport \"./RahatRegistry.sol\";\r\nimport \"./RahatWallet.sol\";\r\nimport \"./RahatTriggerResponse.sol\";\r\nimport \"../libraries/AbstractERC20Func.sol\";\r\n\r\nimport \"@openzeppelin/contracts/access/AccessControl.sol\";\r\nimport \"@openzeppelin/contracts/utils/structs/EnumerableSet.sol\";\r\nimport \"@openzeppelin/contracts/utils/cryptography/ECDSA.sol\";\r\n\r\ncontract Rahat is AccessControl, AbstractERC20Func {\r\n    using Strings for uint256;\r\n    using EnumerableSet for EnumerableSet.Bytes32Set;\r\n    using EnumerableSet for EnumerableSet.AddressSet;\r\n    using EnumerableSet for EnumerableSet.UintSet;\r\n    using ECDSA for bytes32;\r\n\r\n    //***** Events *********//\r\n    event ClaimedERC20(\r\n        address indexed vendor,\r\n        uint256 indexed beneficiary,\r\n        uint256 amount\r\n    );\r\n    event ClaimApproved(\r\n        address indexed vendor,\r\n        uint256 indexed phone,\r\n        uint256 amount\r\n    );\r\n    event IssuedERC20(\r\n        bytes32 indexed projectId,\r\n        uint256 indexed phone,\r\n        uint256 amount\r\n    );\r\n    event ClaimAcquiredERC20(\r\n        address indexed vendor,\r\n        uint256 indexed beneficiary,\r\n        uint256 amount\r\n    );\r\n    event InvalidSignature(\r\n        bytes signature,\r\n        bytes32 digest,\r\n        address expectedSigner,\r\n        address recoveredSigner\r\n    );\r\n    event Received(address, uint);\r\n\r\n    //event BalanceAdjusted(uint256 indexed phone, uint256 amount, string reason);\r\n\r\n    //***** Constant Variables (Roles) *********//\r\n    bytes32 public constant SERVER_ROLE = keccak256(\"SERVER\");\r\n    bytes32 public constant VENDOR_ROLE = keccak256(\"VENDOR\");\r\n    bytes32 public constant MANAGER_ROLE = keccak256(\"MANAGER\");\r\n    bytes32 public constant MOBILIZER_ROLE = keccak256(\"MOBILIZER\");\r\n    bytes32 public constant ISSUE_TOKEN = keccak256(\"issueToken\");\r\n    bytes32 public constant CREATE_CLAIM = keccak256(\"createClaim\");\r\n    bytes32 public constant GET_TOKENS_FROM_CLAIM =\r\n        keccak256(\"getTokensFromClaim\");\r\n\r\n    mapping(address => uint256) public nonces; //delegated users nonces\r\n\r\n    //***** Variables (State) *********//\r\n    //AidToken public tokenContract;\r\n    RahatERC20 public erc20;\r\n    RahatERC20 public cashToken;\r\n    RahatRegistry public registry;\r\n    RahatTriggerResponse public triggerResponse;\r\n\r\n    ///@notice track total issued tokens of each benefiicary phone\r\n    mapping(uint256 => uint256) public erc20Issued; //phone=>balance\r\n\r\n    /// @notice track balances of each beneficiary phone\r\n    mapping(uint256 => uint256) public erc20Balance; //phone=>balance\r\n\r\n    mapping(uint256 => bool) public isBanked;\r\n\r\n    /// @notice track projectBalances\r\n    //bytes32[] public projectId;\r\n    EnumerableSet.Bytes32Set private projectId;\r\n    mapping(bytes32 => uint256) public totalProjectErc20Issued;\r\n    mapping(bytes32 => uint256) public remainingProjectErc20Balances;\r\n    mapping(bytes32 => EnumerableSet.AddressSet) projectMobilizers;\r\n    EnumerableSet.AddressSet private projectVendors;\r\n\r\n    mapping(address => uint256) public erc20IssuedBy;\r\n\r\n    struct claim {\r\n        uint256 amount;\r\n        bytes32 otpHash;\r\n        bool isReleased;\r\n        uint256 date;\r\n    }\r\n    /// @dev vendorAddress => phone => claim\r\n    mapping(address => mapping(bytes32 => claim)) public recentERC20Claims;\r\n\r\n    //***** Constructor *********//\r\n    constructor(\r\n        RahatERC20 _erc20,\r\n        RahatRegistry _registry,\r\n        RahatTriggerResponse _triggerResponse,\r\n        address _admin\r\n    ) {\r\n        _setupRole(DEFAULT_ADMIN_ROLE, _admin);\r\n        owner[_admin] = true;\r\n        _setRoleAdmin(SERVER_ROLE, DEFAULT_ADMIN_ROLE);\r\n        _setRoleAdmin(VENDOR_ROLE, DEFAULT_ADMIN_ROLE);\r\n        _setRoleAdmin(MANAGER_ROLE, DEFAULT_ADMIN_ROLE);\r\n        _setRoleAdmin(MOBILIZER_ROLE, DEFAULT_ADMIN_ROLE);\r\n        erc20 = _erc20;\r\n        registry = _registry;\r\n        triggerResponse = _triggerResponse;\r\n    }\r\n\r\n    function supportsInterface(\r\n        bytes4 interfaceId\r\n    ) public view virtual override(AccessControl) returns (bool) {\r\n        return super.supportsInterface(interfaceId);\r\n    }\r\n\r\n    //***** Modifiers *********//\r\n    modifier OnlyServer() {\r\n        require(\r\n            hasRole(SERVER_ROLE, msg.sender),\r\n            \"RAHAT: Sender must be an authorized server\"\r\n        );\r\n        _;\r\n    }\r\n    modifier OnlyAdmin() {\r\n        require(\r\n            hasRole(DEFAULT_ADMIN_ROLE, msg.sender),\r\n            \"RAHAT: Sender must be an admin.\"\r\n        );\r\n        _;\r\n    }\r\n    modifier IsBeneficiary(uint256 _phone) {\r\n        bytes32 _benId = findHash(_phone);\r\n        require(\r\n            erc20Balance[_phone] != 0,\r\n            \"RAHAT: No any token was issued to this number\"\r\n        );\r\n        _;\r\n    }\r\n    modifier OnlyVendor() {\r\n        require(\r\n            hasRole(VENDOR_ROLE, msg.sender),\r\n            \"RAHAT: Sender Must be a registered vendor.\"\r\n        );\r\n        _;\r\n    }\r\n    modifier OnlyAdminOrMobilizer() {\r\n        require(\r\n            (hasRole(DEFAULT_ADMIN_ROLE, msg.sender) ||\r\n                hasRole(MOBILIZER_ROLE, msg.sender)),\r\n            \"RAHAT: Sender Must be a registered Admin Or Mobilizer.\"\r\n        );\r\n        _;\r\n    }\r\n\r\n    //***** Methods *********//\r\n    //Access Control Management\r\n    /// @notice add admin of the this contract\r\n    /// @param _account address of the new admin\r\n    function addAdmin(address _account) external OnlyAdmin {\r\n        grantRole(DEFAULT_ADMIN_ROLE, _account);\r\n        owner[_account] = true;\r\n    }\r\n\r\n    function isAdmin(address _account) external view returns (bool) {\r\n        return hasRole(DEFAULT_ADMIN_ROLE, _account);\r\n    }\r\n\r\n    /// @notice add server account for this contract\r\n    /// @param _account address of the new server account\r\n    function addServer(address _account) external OnlyAdmin {\r\n        grantRole(SERVER_ROLE, _account);\r\n    }\r\n\r\n    /// @notice add vendors\r\n    /// @param _account address of the new vendor\r\n    function addVendor(\r\n        address payable _account\r\n    ) external OnlyAdmin returns (address) {\r\n        RahatWallet vWallet;\r\n        bytes32 idHash = findHash(_account);\r\n        address vWalletAddress = registry.id2Address(idHash);\r\n        if (vWalletAddress != address(0)) {\r\n            vWallet = RahatWallet(vWalletAddress);\r\n        } else {\r\n            vWallet = new RahatWallet(address(this));\r\n            registry.addId2AddressMap(findHash(_account), address(vWallet));\r\n        }\r\n        vWallet.addOwner(_account);\r\n        grantRole(VENDOR_ROLE, _account);\r\n        projectVendors.add(_account);\r\n        if (_account.balance < 0.1 ether) {\r\n            (bool success, ) = _account.call{value: 0.2 ether}(\"\");\r\n            require(success, \"Rahat needs more ether.\");\r\n        }\r\n        return address(vWallet);\r\n    }\r\n\r\n    function isVendor(address _account) public view returns (bool) {\r\n        return hasRole(VENDOR_ROLE, _account);\r\n    }\r\n\r\n    function listVendors() public view returns (address[] memory) {\r\n        return projectVendors.values();\r\n    }\r\n\r\n    /// @notice add vendors\r\n    /// @param _account address of the new vendor\r\n    /// @param _projectId projectId\r\n    function addMobilizer(\r\n        address _account,\r\n        string memory _projectId\r\n    ) external OnlyAdmin {\r\n        bytes32 _id = findHash(_projectId);\r\n        grantRole(MOBILIZER_ROLE, _account);\r\n        projectMobilizers[_id].add(_account);\r\n    }\r\n\r\n    /// @notice set IsBanked Beneficiary\r\n    /// @param _phone beneficiary phone number\r\n    /// @param _isBanked true/false\r\n    function setAsBankedBeneficiary(\r\n        uint256 _phone,\r\n        bool _isBanked\r\n    ) external OnlyAdmin {\r\n        isBanked[_phone] = _isBanked;\r\n    }\r\n\r\n    // function suspendMobilizer() public {}\r\n\r\n    // function suspendVendor() public {}\r\n\r\n    //Beneficiary Management\r\n    /// @notice suspend the benficiary by deducting all the balance beneficiary owns\r\n    /// @param _phone phone number of the Beneficiary\r\n    /// @param _projectId projectId beneficiary is involved in\r\n    function suspendBeneficiary(\r\n        uint256 _phone,\r\n        bytes32 _projectId\r\n    ) public OnlyAdmin IsBeneficiary(_phone) {\r\n        //  bytes32 _benId = findHash(_phone);\r\n\r\n        uint256 _balance = erc20Balance[_phone];\r\n        remainingProjectErc20Balances[_projectId] += _balance;\r\n        erc20Balance[_phone] = 0;\r\n        erc20Issued[_phone] = erc20Issued[_phone] - _balance;\r\n    }\r\n\r\n    /// @notice adds the token from beneficiary\r\n    function adjustTokenAdd(uint256 _phone, uint256 _amount) private {\r\n        // bytes32 _benId = findHash(_phone);\r\n        erc20Balance[_phone] = erc20Balance[_phone] + _amount;\r\n        erc20Issued[_phone] = erc20Issued[_phone] + _amount;\r\n        //emit BalanceAdjusted(_phone, _amount, _reason);\r\n    }\r\n\r\n    /// @notice deducts the token from beneficiary\r\n    function adjustTokenDeduct(\r\n        uint256 _phone,\r\n        uint256 _amount\r\n    ) private IsBeneficiary(_phone) {\r\n        //bytes32 _benId = findHash(_phone);\r\n        erc20Balance[_phone] = erc20Balance[_phone] - _amount;\r\n        //emit BalanceAdjusted(_phone, _amount, _reason);\r\n    }\r\n\r\n    /// @notice update a project balance.\r\n    /// @notice called by rahatdmin contract\r\n    /// @param _projectId Id of the project to assign budget\r\n    /// @param _projectCapital amount of budget to be added to project\r\n    function updateProjectBudget(\r\n        bytes32 _projectId,\r\n        uint256 _projectCapital\r\n    ) external {\r\n        remainingProjectErc20Balances[_projectId] += _projectCapital;\r\n        totalProjectErc20Issued[_projectId] += _projectCapital;\r\n    }\r\n\r\n    /// @notice get the current balance of project\r\n    function getProjectBalance(\r\n        bytes32 _projectId\r\n    ) external view returns (uint256 _balance) {\r\n        return remainingProjectErc20Balances[_projectId];\r\n    }\r\n\r\n    function verifyVendor(\r\n        bytes32 _hash,\r\n        bytes memory _signature\r\n    ) internal view returns (address) {\r\n        address _signer = _hash.recover(_signature);\r\n        require(hasRole(VENDOR_ROLE, _signer), \"Signer should be Mobilizer\");\r\n        return _signer;\r\n    }\r\n\r\n    function verifyMobilizer(\r\n        bytes32 _hash,\r\n        bytes memory _signature\r\n    ) internal view returns (address) {\r\n        address _signer = _hash.recover(_signature);\r\n        require(hasRole(MOBILIZER_ROLE, _signer), \"Signer should be Mobilizer\");\r\n        return _signer;\r\n    }\r\n\r\n    /// @notice Issue tokens to beneficiary\r\n    /// @param _projectId Id of the project beneficiary is involved in\r\n    /// @param _phone phone number of the beneficiary\r\n    /// @param _amount Amount of token to be assigned to beneficiary\r\n    function issueERC20ToBeneficiary(\r\n        string memory _projectId,\r\n        uint256 _phone,\r\n        uint256 _amount\r\n    ) public OnlyAdmin {\r\n        bytes32 _id = findHash(_projectId);\r\n\r\n        //check beneficiary in registry;\r\n        require(\r\n            registry.exists(findHash(_phone)),\r\n            \"Beneficiary not registered.\"\r\n        );\r\n        erc20IssuedBy[msg.sender] += _amount;\r\n        require(\r\n            remainingProjectErc20Balances[_id] >= _amount,\r\n            \"RAHAT: Amount is greater than remaining Project Budget\"\r\n        );\r\n        remainingProjectErc20Balances[_id] -= _amount;\r\n        adjustTokenAdd(_phone, _amount);\r\n\r\n        emit IssuedERC20(_id, _phone, _amount);\r\n    }\r\n\r\n    /// @notice request a token to beneficiary by vendor\r\n    /// @param _phone Phone number of beneficiary to whom token is requested\r\n    /// @param _tokens Number of tokens to request\r\n    function createERC20Claim(\r\n        uint256 _phone,\r\n        uint256 _tokens\r\n    ) public IsBeneficiary(_phone) OnlyVendor {\r\n        require(\r\n            triggerResponse.isLive(),\r\n            \"This response has not been activated yet, please contact admin.\"\r\n        );\r\n        require(!isBanked[_phone], \"Cannot claim from banked beneficiary\");\r\n\r\n        _verifyVendorCashBalance(msg.sender, _tokens);\r\n\r\n        bytes32 _benId = findHash(_phone);\r\n        require(\r\n            erc20Balance[_phone] >= _tokens,\r\n            \"RAHAT: Amount requested is greater than beneficiary balance.\"\r\n        );\r\n\r\n        claim storage ac = recentERC20Claims[msg.sender][_benId];\r\n        ac.isReleased = false;\r\n        ac.amount = _tokens;\r\n        ac.date = block.timestamp;\r\n        emit ClaimedERC20(tx.origin, _phone, _tokens);\r\n    }\r\n\r\n    /// @notice Approve the requested claim from serverside and set the otp hash\r\n    /// @param _vendor Address of the vendor who requested the token from beneficiary\r\n    /// @param _phone Phone number of the beneficiary, to whom token request was sent\r\n    /// @param _otpHash Hash of OTP sent to beneficiary by server\r\n    /// @param _timeToLive Validity of OTP in seconds\r\n    function approveERC20Claim(\r\n        address _vendor,\r\n        uint256 _phone,\r\n        bytes32 _otpHash,\r\n        uint256 _timeToLive\r\n    ) public IsBeneficiary(_phone) OnlyServer {\r\n        bytes32 _benId = findHash(_phone);\r\n        claim storage ac = recentERC20Claims[_vendor][_benId];\r\n        require(ac.date != 0, \"RAHAT: Claim has not been created yet\");\r\n        require(\r\n            _timeToLive <= 86400,\r\n            \"RAHAT:Time To Live should be less than 24 hours\"\r\n        );\r\n        require(\r\n            block.timestamp <= ac.date + 86400,\r\n            \"RAHAT: Claim is older than 24 hours\"\r\n        );\r\n        require(!ac.isReleased, \"RAHAT: Claim has already been released.\");\r\n        ac.otpHash = _otpHash;\r\n        ac.isReleased = true;\r\n        ac.date = block.timestamp + _timeToLive;\r\n        emit ClaimApproved(_vendor, _phone, ac.amount);\r\n    }\r\n\r\n    /// @notice Retrieve tokens that was requested to beneficiary by entering OTP\r\n    /// @param _phone Phone Number of the beneficiary, to whom token request was sent\r\n    /// @param _otp OTP sent by the server\r\n    function getERC20FromClaim(\r\n        uint256 _phone,\r\n        string memory _otp\r\n    ) public IsBeneficiary(_phone) OnlyVendor {\r\n        bytes32 _benId = findHash(_phone);\r\n        claim storage ac = recentERC20Claims[msg.sender][_benId];\r\n        require(ac.isReleased, \"RAHAT: Claim has not been released.\");\r\n        require(\r\n            ac.date >= block.timestamp,\r\n            \"RAHAT: Claim has already expired.\"\r\n        );\r\n        bytes32 otpHash = findHash(_otp);\r\n        require(\r\n            recentERC20Claims[msg.sender][_benId].otpHash == otpHash,\r\n            \"RAHAT: OTP did not match.\"\r\n        );\r\n        adjustTokenDeduct(_phone, ac.amount);\r\n        uint256 amt = ac.amount;\r\n        ac.isReleased = false;\r\n        ac.amount = 0;\r\n        ac.date = 0;\r\n        erc20.transfer(msg.sender, amt);\r\n        _transferCashFromVendor(msg.sender, _phone, amt);\r\n        emit ClaimAcquiredERC20(msg.sender, _phone, amt);\r\n    }\r\n\r\n    /// @notice Admin function to transfer beneficiary token to vendor\r\n    /// @param _phone Phone number of beneficiary to whom token is requested\r\n    /// @param _vendorAddress vendor's address\r\n    /// @param _amount Number of tokens to request\r\n    function transferTokenToVendorByAdmin(\r\n        uint256 _phone,\r\n        address _vendorAddress,\r\n        uint256 _amount\r\n    ) public IsBeneficiary(_phone) OnlyAdmin {\r\n        require(isVendor(_vendorAddress), \"Transfer to must be vendor address\");\r\n        adjustTokenDeduct(_phone, _amount);\r\n        _transferCashFromVendor(_vendorAddress, _phone, _amount);\r\n        erc20.transfer(_vendorAddress, _amount);\r\n        emit ClaimAcquiredERC20(_vendorAddress, _phone, _amount);\r\n    }\r\n\r\n    function transferCashToVendor(\r\n        address _vendorAddress,\r\n        uint _amount\r\n    ) public OnlyAdmin {\r\n        require(\r\n            registry.exists(findHash(_vendorAddress)),\r\n            \"vendor wallet not registered.\"\r\n        );\r\n        cashToken.approve(\r\n            registry.id2Address(findHash(_vendorAddress)),\r\n            _amount\r\n        );\r\n    }\r\n\r\n    function _transferCashFromVendor(\r\n        address _vendorAddress,\r\n        uint256 _phone,\r\n        uint _amount\r\n    ) private {\r\n        RahatWallet vendorWallet = RahatWallet(\r\n            registry.id2Address(findHash(_vendorAddress))\r\n        );\r\n        vendorWallet.transferToken(\r\n            address(cashToken),\r\n            registry.id2Address(findHash(_phone)),\r\n            _amount\r\n        );\r\n    }\r\n\r\n    function _verifyVendorCashBalance(\r\n        address _vendorAddress,\r\n        uint256 _amount\r\n    ) private view {\r\n        uint balance = cashToken.balanceOf(\r\n            registry.id2Address(findHash(_vendorAddress))\r\n        );\r\n        require(\r\n            balance >= _amount,\r\n            \"Vendor does not have enough cash balance.\"\r\n        );\r\n    }\r\n\r\n    function claimTokenForProject(\r\n        address _token,\r\n        address _from,\r\n        bytes32 _projectId,\r\n        uint256 _amount\r\n    ) public OnlyOwner {\r\n        if (address(cashToken) == address(0)) cashToken = RahatERC20(_token);\r\n        claimToken(_token, _from, _amount);\r\n        remainingProjectErc20Balances[_projectId] += _amount;\r\n        totalProjectErc20Issued[_projectId] += _amount;\r\n    }\r\n\r\n    function projectBalance(\r\n        bytes32 _projectId,\r\n        address _allowanceFrom\r\n    )\r\n        public\r\n        view\r\n        returns (\r\n            uint totalBudget,\r\n            uint cashAllowance,\r\n            uint cashBalance,\r\n            uint tokenBalance\r\n        )\r\n    {\r\n        if (address(cashToken) == address(0)) {\r\n            cashAllowance = 0;\r\n            cashBalance = 0;\r\n        } else {\r\n            cashAllowance = cashToken.allowance(\r\n                address(_allowanceFrom),\r\n                address(this)\r\n            );\r\n            cashBalance = cashToken.balanceOf(address(this));\r\n        }\r\n        tokenBalance = remainingProjectErc20Balances[_projectId];\r\n        totalBudget = totalProjectErc20Issued[_projectId];\r\n    }\r\n\r\n    function vendorBalance(\r\n        address _vendorAddress\r\n    )\r\n        public\r\n        view\r\n        returns (\r\n            address walletAddress,\r\n            uint cashAllowance,\r\n            uint cashBalance,\r\n            uint tokenBalance\r\n        )\r\n    {\r\n        walletAddress = registry.id2Address(findHash(_vendorAddress));\r\n        if (address(cashToken) == address(0)) {\r\n            cashAllowance = 0;\r\n            cashBalance = 0;\r\n        } else {\r\n            cashAllowance = cashToken.allowance(address(this), walletAddress);\r\n            cashBalance = cashToken.balanceOf(walletAddress);\r\n        }\r\n        tokenBalance = erc20.balanceOf(_vendorAddress);\r\n    }\r\n\r\n    function beneficiaryBalance(\r\n        uint _phone\r\n    )\r\n        public\r\n        view\r\n        returns (address walletAddress, uint cashBalance, uint tokenBalance)\r\n    {\r\n        walletAddress = registry.id2Address(findHash(_phone));\r\n        if (address(cashToken) == address(0)) {\r\n            cashBalance = 0;\r\n        } else {\r\n            cashBalance = cashToken.balanceOf(walletAddress);\r\n        }\r\n        tokenBalance = erc20Balance[_phone];\r\n    }\r\n\r\n    /// @notice generates the hash of the given string\r\n    /// @param _data String of which hash is to be generated\r\n    function findHash(string memory _data) public pure returns (bytes32) {\r\n        return keccak256(abi.encodePacked(_data));\r\n    }\r\n\r\n    /// @notice generates the hash of the given string\r\n    function findHash(uint256 _data) public pure returns (bytes32) {\r\n        return keccak256(abi.encodePacked(_data.toString()));\r\n    }\r\n\r\n    function findHash(address _data) public pure returns (bytes32) {\r\n        return keccak256(abi.encodePacked(_data));\r\n    }\r\n\r\n    /// @notice Generates the sum of all the integers in array\r\n    /// @param _array Array of uint\r\n    function getArraySum(\r\n        uint256[] memory _array\r\n    ) public pure returns (uint256 sum) {\r\n        sum = 0;\r\n        for (uint256 i = 0; i < _array.length; i++) {\r\n            sum += _array[i];\r\n        }\r\n        return sum;\r\n    }\r\n\r\n    receive() external payable {\r\n        emit Received(msg.sender, msg.value);\r\n    }\r\n\r\n    function withdraw(address payable _to) public payable OnlyAdmin {\r\n        (bool sent, ) = _to.call{value: address(this).balance}(\"\");\r\n        require(sent, \"Failed to send Ether\");\r\n    }\r\n}\r\n",
  "sourcePath": "S:\\Projects\\rahat\\unicef-np\\rahat-contracts\\src\\contracts\\Rahat.sol",
  "compiler": {
    "name": "solc",
    "version": "0.8.16+commit.07a7930e.Emscripten.clang"
  },
  "schemaVersion": "3.4.10",
  "updatedAt": "2022-12-02T08:26:28.877Z",
  "devdoc": {
    "kind": "dev",
    "methods": {
      "addAdmin(address)": {
        "params": {
          "_account": "address of the new admin"
        }
      },
      "addMobilizer(address,string)": {
        "params": {
          "_account": "address of the new vendor",
          "_projectId": "projectId"
        }
      },
      "addOwner(address)": {
        "params": {
          "_account": "address of new owner"
        }
      },
      "addServer(address)": {
        "params": {
          "_account": "address of the new server account"
        }
      },
      "addVendor(address)": {
        "params": {
          "_account": "address of the new vendor"
        }
      },
      "approveERC20Claim(address,uint256,bytes32,uint256)": {
        "params": {
          "_otpHash": "Hash of OTP sent to beneficiary by server",
          "_phone": "Phone number of the beneficiary, to whom token request was sent",
          "_timeToLive": "Validity of OTP in seconds",
          "_vendor": "Address of the vendor who requested the token from beneficiary"
        }
      },
      "createERC20Claim(uint256,uint256)": {
        "params": {
          "_phone": "Phone number of beneficiary to whom token is requested",
          "_tokens": "Number of tokens to request"
        }
      },
      "findHash(string)": {
        "params": {
          "_data": "String of which hash is to be generated"
        }
      },
      "getArraySum(uint256[])": {
        "params": {
          "_array": "Array of uint"
        }
      },
      "getERC20FromClaim(uint256,string)": {
        "params": {
          "_otp": "OTP sent by the server",
          "_phone": "Phone Number of the beneficiary, to whom token request was sent"
        }
      },
      "getRoleAdmin(bytes32)": {
        "details": "Returns the admin role that controls `role`. See {grantRole} and {revokeRole}. To change a role's admin, use {_setRoleAdmin}."
      },
      "grantRole(bytes32,address)": {
        "details": "Grants `role` to `account`. If `account` had not been already granted `role`, emits a {RoleGranted} event. Requirements: - the caller must have ``role``'s admin role."
      },
      "hasRole(bytes32,address)": {
        "details": "Returns `true` if `account` has been granted `role`."
      },
      "issueERC20ToBeneficiary(string,uint256,uint256)": {
        "params": {
          "_amount": "Amount of token to be assigned to beneficiary",
          "_phone": "phone number of the beneficiary",
          "_projectId": "Id of the project beneficiary is involved in"
        }
      },
      "multicall(bytes[])": {
        "details": "Receives and executes a batch of function calls on this contract."
      },
      "removeOwner(address)": {
        "params": {
          "_account": "address of existing owner"
        }
      },
      "renounceRole(bytes32,address)": {
        "details": "Revokes `role` from the calling account. Roles are often managed via {grantRole} and {revokeRole}: this function's purpose is to provide a mechanism for accounts to lose their privileges if they are compromised (such as when a trusted device is misplaced). If the calling account had been revoked `role`, emits a {RoleRevoked} event. Requirements: - the caller must be `account`."
      },
      "revokeRole(bytes32,address)": {
        "details": "Revokes `role` from `account`. If `account` had been granted `role`, emits a {RoleRevoked} event. Requirements: - the caller must have ``role``'s admin role."
      },
      "setAsBankedBeneficiary(uint256,bool)": {
        "params": {
          "_isBanked": "true/false",
          "_phone": "beneficiary phone number"
        }
      },
      "supportsInterface(bytes4)": {
        "details": "See {IERC165-supportsInterface}."
      },
      "suspendBeneficiary(uint256,bytes32)": {
        "params": {
          "_phone": "phone number of the Beneficiary",
          "_projectId": "projectId beneficiary is involved in"
        }
      },
      "transferTokenToVendorByAdmin(uint256,address,uint256)": {
        "params": {
          "_amount": "Number of tokens to request",
          "_phone": "Phone number of beneficiary to whom token is requested",
          "_vendorAddress": "vendor's address"
        }
      },
      "updateProjectBudget(bytes32,uint256)": {
        "params": {
          "_projectCapital": "amount of budget to be added to project",
          "_projectId": "Id of the project to assign budget"
        }
      }
    },
    "stateVariables": {
      "recentERC20Claims": {
        "details": "vendorAddress => phone => claim"
      }
    },
    "version": 1
  },
  "userdoc": {
    "kind": "user",
    "methods": {
      "addAdmin(address)": {
        "notice": "add admin of the this contract"
      },
      "addMobilizer(address,string)": {
        "notice": "add vendors"
      },
      "addOwner(address)": {
        "notice": "Add an account to the owner role"
      },
      "addServer(address)": {
        "notice": "add server account for this contract"
      },
      "addVendor(address)": {
        "notice": "add vendors"
      },
      "approveERC20Claim(address,uint256,bytes32,uint256)": {
        "notice": "Approve the requested claim from serverside and set the otp hash"
      },
      "createERC20Claim(uint256,uint256)": {
        "notice": "request a token to beneficiary by vendor"
      },
      "erc20Balance(uint256)": {
        "notice": "track balances of each beneficiary phone"
      },
      "erc20Issued(uint256)": {
        "notice": "track total issued tokens of each benefiicary phone"
      },
      "findHash(string)": {
        "notice": "generates the hash of the given string"
      },
      "findHash(uint256)": {
        "notice": "generates the hash of the given string"
      },
      "getArraySum(uint256[])": {
        "notice": "Generates the sum of all the integers in array"
      },
      "getERC20FromClaim(uint256,string)": {
        "notice": "Retrieve tokens that was requested to beneficiary by entering OTP"
      },
      "getProjectBalance(bytes32)": {
        "notice": "get the current balance of project"
      },
      "issueERC20ToBeneficiary(string,uint256,uint256)": {
        "notice": "Issue tokens to beneficiary"
      },
      "removeOwner(address)": {
        "notice": "Remove an account from the owner role"
      },
      "setAsBankedBeneficiary(uint256,bool)": {
        "notice": "set IsBanked Beneficiary"
      },
      "suspendBeneficiary(uint256,bytes32)": {
        "notice": "suspend the benficiary by deducting all the balance beneficiary owns"
      },
      "transferTokenToVendorByAdmin(uint256,address,uint256)": {
        "notice": "Admin function to transfer beneficiary token to vendor"
      },
      "updateProjectBudget(bytes32,uint256)": {
        "notice": "update a project balance.called by rahatdmin contract"
      }
    },
    "version": 1
  }
}