{
  "contractName": "RahatAdmin",
  "abi": [
    {
      "inputs": [
        {
          "internalType": "contract RahatERC20",
          "name": "_erc20",
          "type": "address"
        },
        {
          "internalType": "address",
          "name": "_admin",
          "type": "address"
        }
      ],
      "stateMutability": "nonpayable",
      "type": "constructor"
    },
    {
      "anonymous": false,
      "inputs": [
        {
          "indexed": false,
          "internalType": "bool",
          "name": "success",
          "type": "bool"
        }
      ],
      "name": "Minted",
      "type": "event"
    },
    {
      "anonymous": false,
      "inputs": [
        {
          "indexed": true,
          "internalType": "bytes32",
          "name": "projectId",
          "type": "bytes32"
        },
        {
          "indexed": false,
          "internalType": "uint256",
          "name": "projectCapital",
          "type": "uint256"
        },
        {
          "indexed": false,
          "internalType": "string",
          "name": "tag",
          "type": "string"
        }
      ],
      "name": "ProjectERC20BudgetUpdated",
      "type": "event"
    },
    {
      "inputs": [
        {
          "internalType": "address",
          "name": "_account",
          "type": "address"
        }
      ],
      "name": "addOwner",
      "outputs": [
        {
          "internalType": "bool",
          "name": "",
          "type": "bool"
        }
      ],
      "stateMutability": "nonpayable",
      "type": "function"
    },
    {
      "inputs": [
        {
          "internalType": "address",
          "name": "_token",
          "type": "address"
        },
        {
          "internalType": "address",
          "name": "_spender",
          "type": "address"
        },
        {
          "internalType": "uint256",
          "name": "_amount",
          "type": "uint256"
        }
      ],
      "name": "approveToken",
      "outputs": [],
      "stateMutability": "nonpayable",
      "type": "function"
    },
    {
      "inputs": [],
      "name": "cashToken",
      "outputs": [
        {
          "internalType": "contract RahatERC20",
          "name": "",
          "type": "address"
        }
      ],
      "stateMutability": "view",
      "type": "function"
    },
    {
      "inputs": [],
      "name": "erc20",
      "outputs": [
        {
          "internalType": "contract RahatERC20",
          "name": "",
          "type": "address"
        }
      ],
      "stateMutability": "view",
      "type": "function"
    },
    {
      "inputs": [],
      "name": "listAdmins",
      "outputs": [
        {
          "internalType": "address[]",
          "name": "",
          "type": "address[]"
        }
      ],
      "stateMutability": "view",
      "type": "function"
    },
    {
      "inputs": [
        {
          "internalType": "address",
          "name": "",
          "type": "address"
        }
      ],
      "name": "owner",
      "outputs": [
        {
          "internalType": "bool",
          "name": "",
          "type": "bool"
        }
      ],
      "stateMutability": "view",
      "type": "function"
    },
    {
      "inputs": [
        {
          "internalType": "bytes32",
          "name": "",
          "type": "bytes32"
        }
      ],
      "name": "projectERC20Capital",
      "outputs": [
        {
          "internalType": "uint256",
          "name": "",
          "type": "uint256"
        }
      ],
      "stateMutability": "view",
      "type": "function"
    },
    {
      "inputs": [
        {
          "internalType": "bytes32",
          "name": "",
          "type": "bytes32"
        }
      ],
      "name": "projectExists",
      "outputs": [
        {
          "internalType": "bool",
          "name": "",
          "type": "bool"
        }
      ],
      "stateMutability": "view",
      "type": "function"
    },
    {
      "inputs": [
        {
          "internalType": "uint256",
          "name": "",
          "type": "uint256"
        }
      ],
      "name": "projectId",
      "outputs": [
        {
          "internalType": "bytes32",
          "name": "",
          "type": "bytes32"
        }
      ],
      "stateMutability": "view",
      "type": "function"
    },
    {
      "inputs": [
        {
          "internalType": "address",
          "name": "_account",
          "type": "address"
        }
      ],
      "name": "removeOwner",
      "outputs": [
        {
          "internalType": "bool",
          "name": "",
          "type": "bool"
        }
      ],
      "stateMutability": "nonpayable",
      "type": "function"
    },
    {
      "inputs": [
        {
          "internalType": "address",
          "name": "_token",
          "type": "address"
        },
        {
          "internalType": "address",
          "name": "_from",
          "type": "address"
        },
        {
          "internalType": "address",
          "name": "_to",
          "type": "address"
        },
        {
          "internalType": "uint256",
          "name": "_amount",
          "type": "uint256"
        }
      ],
      "name": "transferFromToken",
      "outputs": [],
      "stateMutability": "nonpayable",
      "type": "function"
    },
    {
      "inputs": [
        {
          "internalType": "address",
          "name": "_token",
          "type": "address"
        },
        {
          "internalType": "address",
          "name": "_to",
          "type": "address"
        },
        {
          "internalType": "uint256",
          "name": "_amount",
          "type": "uint256"
        }
      ],
      "name": "transferToken",
      "outputs": [],
      "stateMutability": "nonpayable",
      "type": "function"
    },
    {
      "inputs": [
        {
          "internalType": "address",
          "name": "rahatContract",
          "type": "address"
        },
        {
          "internalType": "string",
          "name": "_projectId",
          "type": "string"
        },
        {
          "internalType": "uint256",
          "name": "_projectCapital",
          "type": "uint256"
        }
      ],
      "name": "setProjectBudget_ERC20",
      "outputs": [],
      "stateMutability": "nonpayable",
      "type": "function"
    },
    {
      "inputs": [
        {
          "internalType": "address",
          "name": "_token",
          "type": "address"
        },
        {
          "internalType": "address",
          "name": "_from",
          "type": "address"
        },
        {
          "internalType": "uint256",
          "name": "_amount",
          "type": "uint256"
        }
      ],
      "name": "claimToken",
      "outputs": [],
      "stateMutability": "nonpayable",
      "type": "function"
    },
    {
      "inputs": [
        {
          "internalType": "address",
          "name": "_address",
          "type": "address"
        },
        {
          "internalType": "uint256",
          "name": "_amount",
          "type": "uint256"
        }
      ],
      "name": "mintERC20",
      "outputs": [],
      "stateMutability": "nonpayable",
      "type": "function"
    }
  ],
  "bytecode": "0x608060405234801561001057600080fd5b5060405161107838038061107883398101604081905261002f91610082565b600380546001600160a01b0319166001600160a01b03938416179055166000908152600260205260409020805460ff191660011790556100bc565b6001600160a01b038116811461007f57600080fd5b50565b6000806040838503121561009557600080fd5b82516100a08161006a565b60208401519092506100b18161006a565b809150509250929050565b610fad806100cb6000396000f3fe608060405234801561001057600080fd5b50600436106100c55760003560e01c8063125bfb66146100ca578063173825d9146100df57806338975895146101075780634dd1f8161461012a57806350ae05b61461014b578063666e1b391461015e5780637065cb4814610181578063785e9e86146101945780637c4ca9cc146101bf578063a591afbe146101d2578063a7224687146101e7578063da3e3397146101fa578063f5537ede1461020d578063f7597a4f14610220578063fb3c0d7014610240575b600080fd5b6100dd6100d8366004610bea565b610253565b005b6100f26100ed366004610c26565b6102c7565b60405190151581526020015b60405180910390f35b6100f2610115366004610c41565b60066020526000908152604090205460ff1681565b61013d610138366004610c41565b61032b565b6040519081526020016100fe565b6100dd610159366004610c70565b61034c565b6100f261016c366004610c26565b60026020526000908152604090205460ff1681565b6100f261018f366004610c26565b6106a9565b6003546101a7906001600160a01b031681565b6040516001600160a01b0390911681526020016100fe565b6100dd6101cd366004610d3b565b610705565b6101da6107a9565b6040516100fe9190610d65565b6004546101a7906001600160a01b031681565b6100dd610208366004610bea565b6107ba565b6100dd61021b366004610bea565b610860565b61013d61022e366004610c41565b60076020526000908152604090205481565b6100dd61024e366004610db2565b6108bd565b3360009081526002602052604090205460ff1661028b5760405162461bcd60e51b815260040161028290610dfd565b60405180910390fd5b6004546001600160a01b03166102b757600480546001600160a01b0319166001600160a01b0385161790555b6102c283838361095f565b505050565b3360009081526002602052604081205460ff166102f65760405162461bcd60e51b815260040161028290610dfd565b6001600160a01b0382166000908152600260205260408120805460ff1916905561032090836109be565b50600190505b919050565b6005818154811061033b57600080fd5b600091825260209091200154905081565b3360009081526002602052604090205460ff1661037b5760405162461bcd60e51b815260040161028290610dfd565b816000610387826109dc565b60008181526006602052604090205490915060ff16156104ff5760006103ac856109dc565b9050836007600083815260200190815260200160002060008282546103d19190610e5a565b90915550506003546040516340c10f1960e01b81526001600160a01b03909116906340c10f19906104089089908890600401610e6d565b6020604051808303816000875af1158015610427573d6000803e3d6000fd5b505050506040513d601f19601f8201168201806040525081019061044b9190610e86565b506004805460405163095ea7b360e01b81526001600160a01b039091169163095ea7b39161047d918a91899101610e6d565b6020604051808303816000875af115801561049c573d6000803e3d6000fd5b505050506040513d601f19601f820116820180604052508101906104c09190610e9f565b50807ffb81835777f5c1e6fd7d6eb84fa729934ae66884bf599bb714743f575ec7b577856040516104f19190610ec1565b60405180910390a2506106a2565b6005805460018181019092557f036b6384b5eca791c62761152d0c79bb0604c104a5fb6f4eb0703f3154bb3db0018290556000828152600660205260408120805460ff1916909217909155610553856109dc565b9050836007600083815260200190815260200160002060008282546105789190610e5a565b90915550506003546040516340c10f1960e01b81526001600160a01b03909116906340c10f19906105af9089908890600401610e6d565b6020604051808303816000875af11580156105ce573d6000803e3d6000fd5b505050506040513d601f19601f820116820180604052508101906105f29190610e86565b506004805460405163095ea7b360e01b81526001600160a01b039091169163095ea7b391610624918a91899101610e6d565b6020604051808303816000875af1158015610643573d6000803e3d6000fd5b505050506040513d601f19601f820116820180604052508101906106679190610e9f565b50807ffb81835777f5c1e6fd7d6eb84fa729934ae66884bf599bb714743f575ec7b577856040516106989190610ec1565b60405180910390a2505b5050505050565b3360009081526002602052604081205460ff166106d85760405162461bcd60e51b815260040161028290610dfd565b6001600160a01b0382166000908152600260205260408120805460ff191660011790556103209083610a0c565b3360009081526002602052604090205460ff166107345760405162461bcd60e51b815260040161028290610dfd565b6003546040516340c10f1960e01b81526001600160a01b03909116906340c10f19906107669085908590600401610e6d565b6020604051808303816000875af1158015610785573d6000803e3d6000fd5b505050506040513d601f19601f820116820180604052508101906102c29190610e86565b60606107b56000610a21565b905090565b3360009081526002602052604090205460ff166107e95760405162461bcd60e51b815260040161028290610dfd565b60405163095ea7b360e01b81526001600160a01b0384169063095ea7b3906108179085908590600401610e6d565b6020604051808303816000875af1158015610836573d6000803e3d6000fd5b505050506040513d601f19601f8201168201806040525081019061085a9190610e9f565b50505050565b3360009081526002602052604090205460ff1661088f5760405162461bcd60e51b815260040161028290610dfd565b60405163a9059cbb60e01b81526001600160a01b0384169063a9059cbb906108179085908590600401610e6d565b3360009081526002602052604090205460ff166108ec5760405162461bcd60e51b815260040161028290610dfd565b6040516323b872dd60e01b81526001600160a01b038516906323b872dd9061091c90869086908690600401610ee5565b6020604051808303816000875af115801561093b573d6000803e3d6000fd5b505050506040513d601f19601f820116820180604052508101906106a29190610e9f565b3360009081526002602052604090205460ff1661098e5760405162461bcd60e51b815260040161028290610dfd565b6040516323b872dd60e01b81526001600160a01b038416906323b872dd9061081790859030908690600401610ee5565b60006109d3836001600160a01b038416610a35565b90505b92915050565b6000816040516020016109ef9190610f09565b604051602081830303815290604052805190602001209050919050565b60006109d3836001600160a01b038416610b28565b60606000610a2e83610b77565b9392505050565b60008181526001830160205260408120548015610b1e576000610a59600183610f38565b8554909150600090610a6d90600190610f38565b9050818114610ad2576000866000018281548110610a8d57610a8d610f4b565b9060005260206000200154905080876000018481548110610ab057610ab0610f4b565b6000918252602080832090910192909255918252600188019052604090208390555b8554869080610ae357610ae3610f61565b6001900381819060005260206000200160009055905585600101600086815260200190815260200160002060009055600193505050506109d6565b60009150506109d6565b6000818152600183016020526040812054610b6f575081546001818101845560008481526020808220909301849055845484825282860190935260409020919091556109d6565b5060006109d6565b606081600001805480602002602001604051908101604052809291908181526020018280548015610bc757602002820191906000526020600020905b815481526020019060010190808311610bb3575b50505050509050919050565b80356001600160a01b038116811461032657600080fd5b600080600060608486031215610bff57600080fd5b610c0884610bd3565b9250610c1660208501610bd3565b9150604084013590509250925092565b600060208284031215610c3857600080fd5b6109d382610bd3565b600060208284031215610c5357600080fd5b5035919050565b634e487b7160e01b600052604160045260246000fd5b600080600060608486031215610c8557600080fd5b610c8e84610bd3565b9250602084013567ffffffffffffffff80821115610cab57600080fd5b818601915086601f830112610cbf57600080fd5b813581811115610cd157610cd1610c5a565b604051601f8201601f19908116603f01168101908382118183101715610cf957610cf9610c5a565b81604052828152896020848701011115610d1257600080fd5b826020860160208301376000602084830101528096505050505050604084013590509250925092565b60008060408385031215610d4e57600080fd5b610d5783610bd3565b946020939093013593505050565b6020808252825182820181905260009190848201906040850190845b81811015610da65783516001600160a01b031683529284019291840191600101610d81565b50909695505050505050565b60008060008060808587031215610dc857600080fd5b610dd185610bd3565b9350610ddf60208601610bd3565b9250610ded60408601610bd3565b9396929550929360600135925050565b60208082526027908201527f4f6e6c79206f776e65722063616e20657865637574652074686973207472616e60408201526639b0b1ba34b7b760c91b606082015260800190565b634e487b7160e01b600052601160045260246000fd5b808201808211156109d6576109d6610e44565b6001600160a01b03929092168252602082015260400190565b600060208284031215610e9857600080fd5b5051919050565b600060208284031215610eb157600080fd5b81518015158114610a2e57600080fd5b9081526040602082018190526003908201526218591960ea1b606082015260800190565b6001600160a01b039384168152919092166020820152604081019190915260600190565b6000825160005b81811015610f2a5760208186018101518583015201610f10565b506000920191825250919050565b818103818111156109d6576109d6610e44565b634e487b7160e01b600052603260045260246000fd5b634e487b7160e01b600052603160045260246000fdfea26469706673582212202deb07a26d0a23a2476495c169e5115ca8165d0374366b63fbed395655bc64aa64736f6c63430008100033",
  "immutableReferences": {},
  "source": "//SPDX-License-Identifier: LGPL-3.0\r\n\r\npragma solidity ^0.8.16;\r\n\r\nimport \"./RahatERC20.sol\";\r\nimport \"./Rahat.sol\";\r\nimport \"../libraries/AbstractERC20Func.sol\";\r\n\r\n/// @title Rahat Admin contract - owns all the tokens initially minted\r\n/// @author Rumsan Associates\r\n/// @notice You can use this contract to manage Rahat tokens and projects\r\n/// @dev All function calls are only executed by contract owner\r\ncontract RahatAdmin is AbstractERC20Func {\r\n  using EnumerableSet for EnumerableSet.UintSet;\r\n\r\n  event ProjectERC20BudgetUpdated(\r\n    bytes32 indexed projectId,\r\n    uint256 projectCapital,\r\n    string tag\r\n  );\r\n\r\n  event Minted(bool success);\r\n\r\n  // uint256 public mintData ;\r\n  // bool public mintSuccess =false;\r\n\r\n  RahatERC20 public erc20;\r\n  RahatERC20 public cashToken;\r\n\r\n  /// @notice list of projects\r\n  bytes32[] public projectId;\r\n\r\n  /// @notice check if projectId exists or not;\r\n  mapping(bytes32 => bool) public projectExists;\r\n\r\n  /// @notice assign budgets to project\r\n  mapping(bytes32 => uint256) public projectERC20Capital;\r\n\r\n  modifier CheckProject(string memory _projectId) {\r\n    bytes32 _id = findHash(_projectId);\r\n    if (projectExists[_id]) {\r\n      _;\r\n    } else {\r\n      projectId.push(_id);\r\n      projectExists[_id] = true;\r\n      _;\r\n    }\r\n  }\r\n\r\n  /// @notice All the supply is allocated to this contract\r\n  /// @dev deploys AidToken and Rahat contract by sending supply to this contract\r\n  constructor(\r\n    RahatERC20 _erc20,\r\n    address _admin\r\n  ) {\r\n    erc20 = _erc20;\r\n    owner[_admin] = true;\r\n  }\r\n\r\n  /// @notice allocate token to projects\r\n  /// @dev Allocates token to the given projectId, Creates project and transfer tokens to Rahat contract.\r\n  /// @param _projectId Unique Id of Project\r\n  /// @param _projectCapital Budget Allocated to project\r\n  function setProjectBudget_ERC20(\r\n    address rahatContract,\r\n    string memory _projectId,\r\n    uint256 _projectCapital\r\n  ) public OnlyOwner CheckProject(_projectId) {\r\n    bytes32 _id = findHash(_projectId);\r\n    projectERC20Capital[_id] += _projectCapital;\r\n    erc20.mint(rahatContract, _projectCapital);\r\n    cashToken.approve(rahatContract, _projectCapital);\r\n    emit ProjectERC20BudgetUpdated(_id, _projectCapital, \"add\");\r\n  }\r\n\r\n\r\n  function claimToken(address _token, address _from, uint256 _amount) public override OnlyOwner {\r\n    if(address(cashToken) == address(0)) cashToken = RahatERC20(_token);\r\n    super.claimToken(_token, _from, _amount);\r\n  }\r\n\r\n  /// @notice mint new tokens\r\n  /// @param _address address to send the minted tokens\r\n  /// @param _amount Amount of token to Mint\r\n  function mintERC20(address _address, uint256 _amount) public OnlyOwner {\r\n    erc20.mint(_address, _amount);\r\n  }\r\n\r\n  /// @notice generates the hash of the given string\r\n  /// @param _data String of which hash is to be generated\r\n  function findHash(string memory _data) private pure returns (bytes32) {\r\n    return keccak256(abi.encodePacked(_data));\r\n  }\r\n}\r\n",
  "sourcePath": "S:\\Projects\\rahat\\unicef-np\\rahat-contracts\\src\\contracts\\RahatAdmin.sol",
  "compiler": {
    "name": "solc",
    "version": "0.8.16+commit.07a7930e.Emscripten.clang"
  },
  "schemaVersion": "3.4.10",
  "updatedAt": "2022-12-01T08:31:23.059Z",
  "devdoc": {
    "author": "Rumsan Associates",
    "details": "All function calls are only executed by contract owner",
    "kind": "dev",
    "methods": {
      "addOwner(address)": {
        "params": {
          "_account": "address of new owner"
        }
      },
      "constructor": {
        "details": "deploys AidToken and Rahat contract by sending supply to this contract"
      },
      "mintERC20(address,uint256)": {
        "params": {
          "_address": "address to send the minted tokens",
          "_amount": "Amount of token to Mint"
        }
      },
      "removeOwner(address)": {
        "params": {
          "_account": "address of existing owner"
        }
      },
      "setProjectBudget_ERC20(address,string,uint256)": {
        "details": "Allocates token to the given projectId, Creates project and transfer tokens to Rahat contract.",
        "params": {
          "_projectCapital": "Budget Allocated to project",
          "_projectId": "Unique Id of Project"
        }
      }
    },
    "title": "Rahat Admin contract - owns all the tokens initially minted",
    "version": 1
  },
  "userdoc": {
    "kind": "user",
    "methods": {
      "addOwner(address)": {
        "notice": "Add an account to the owner role"
      },
      "constructor": {
        "notice": "All the supply is allocated to this contract"
      },
      "mintERC20(address,uint256)": {
        "notice": "mint new tokens"
      },
      "projectERC20Capital(bytes32)": {
        "notice": "assign budgets to project"
      },
      "projectExists(bytes32)": {
        "notice": "check if projectId exists or not;"
      },
      "projectId(uint256)": {
        "notice": "list of projects"
      },
      "removeOwner(address)": {
        "notice": "Remove an account from the owner role"
      },
      "setProjectBudget_ERC20(address,string,uint256)": {
        "notice": "allocate token to projects"
      }
    },
    "notice": "You can use this contract to manage Rahat tokens and projects",
    "version": 1
  }
}