{
  "contractName": "RahatDonor",
  "abi": [
    {
      "inputs": [
        {
          "internalType": "address",
          "name": "_admin",
          "type": "address"
        }
      ],
      "stateMutability": "nonpayable",
      "type": "constructor"
    },
    {
      "anonymous": false,
      "inputs": [
        {
          "indexed": true,
          "internalType": "address",
          "name": "tokenAddress",
          "type": "address"
        }
      ],
      "name": "TokenCreated",
      "type": "event"
    },
    {
      "inputs": [
        {
          "internalType": "address",
          "name": "_account",
          "type": "address"
        }
      ],
      "name": "addOwner",
      "outputs": [
        {
          "internalType": "bool",
          "name": "",
          "type": "bool"
        }
      ],
      "stateMutability": "nonpayable",
      "type": "function"
    },
    {
      "inputs": [
        {
          "internalType": "address",
          "name": "_token",
          "type": "address"
        },
        {
          "internalType": "address",
          "name": "_spender",
          "type": "address"
        },
        {
          "internalType": "uint256",
          "name": "_amount",
          "type": "uint256"
        }
      ],
      "name": "approveToken",
      "outputs": [],
      "stateMutability": "nonpayable",
      "type": "function"
    },
    {
      "inputs": [
        {
          "internalType": "address",
          "name": "_token",
          "type": "address"
        },
        {
          "internalType": "address",
          "name": "_from",
          "type": "address"
        },
        {
          "internalType": "uint256",
          "name": "_amount",
          "type": "uint256"
        }
      ],
      "name": "claimToken",
      "outputs": [],
      "stateMutability": "nonpayable",
      "type": "function"
    },
    {
      "inputs": [
        {
          "internalType": "address",
          "name": "_token",
          "type": "address"
        },
        {
          "internalType": "address",
          "name": "_from",
          "type": "address"
        }
      ],
      "name": "getAllowanceAndBalance",
      "outputs": [
        {
          "internalType": "uint256",
          "name": "allowance",
          "type": "uint256"
        },
        {
          "internalType": "uint256",
          "name": "balance",
          "type": "uint256"
        }
      ],
      "stateMutability": "view",
      "type": "function"
    },
    {
      "inputs": [],
      "name": "listAdmins",
      "outputs": [
        {
          "internalType": "address[]",
          "name": "",
          "type": "address[]"
        }
      ],
      "stateMutability": "view",
      "type": "function"
    },
    {
      "inputs": [
        {
          "internalType": "bytes[]",
          "name": "data",
          "type": "bytes[]"
        }
      ],
      "name": "multicall",
      "outputs": [
        {
          "internalType": "bytes[]",
          "name": "results",
          "type": "bytes[]"
        }
      ],
      "stateMutability": "nonpayable",
      "type": "function"
    },
    {
      "inputs": [
        {
          "internalType": "address",
          "name": "",
          "type": "address"
        }
      ],
      "name": "owner",
      "outputs": [
        {
          "internalType": "bool",
          "name": "",
          "type": "bool"
        }
      ],
      "stateMutability": "view",
      "type": "function"
    },
    {
      "inputs": [
        {
          "internalType": "address",
          "name": "_account",
          "type": "address"
        }
      ],
      "name": "removeOwner",
      "outputs": [
        {
          "internalType": "bool",
          "name": "",
          "type": "bool"
        }
      ],
      "stateMutability": "nonpayable",
      "type": "function"
    },
    {
      "inputs": [
        {
          "internalType": "address",
          "name": "_token",
          "type": "address"
        },
        {
          "internalType": "address",
          "name": "_from",
          "type": "address"
        },
        {
          "internalType": "address",
          "name": "_to",
          "type": "address"
        },
        {
          "internalType": "uint256",
          "name": "_amount",
          "type": "uint256"
        }
      ],
      "name": "transferFromToken",
      "outputs": [],
      "stateMutability": "nonpayable",
      "type": "function"
    },
    {
      "inputs": [
        {
          "internalType": "address",
          "name": "_token",
          "type": "address"
        },
        {
          "internalType": "address",
          "name": "_to",
          "type": "address"
        },
        {
          "internalType": "uint256",
          "name": "_amount",
          "type": "uint256"
        }
      ],
      "name": "transferToken",
      "outputs": [],
      "stateMutability": "nonpayable",
      "type": "function"
    },
    {
      "inputs": [
        {
          "internalType": "string",
          "name": "_name",
          "type": "string"
        },
        {
          "internalType": "string",
          "name": "_symbol",
          "type": "string"
        },
        {
          "internalType": "uint8",
          "name": "decimals",
          "type": "uint8"
        }
      ],
      "name": "createToken",
      "outputs": [
        {
          "internalType": "address",
          "name": "",
          "type": "address"
        }
      ],
      "stateMutability": "nonpayable",
      "type": "function"
    },
    {
      "inputs": [
        {
          "internalType": "address",
          "name": "_token",
          "type": "address"
        },
        {
          "internalType": "uint256",
          "name": "_amount",
          "type": "uint256"
        }
      ],
      "name": "mintToken",
      "outputs": [],
      "stateMutability": "nonpayable",
      "type": "function"
    },
    {
      "inputs": [
        {
          "internalType": "address",
          "name": "_token",
          "type": "address"
        },
        {
          "internalType": "address",
          "name": "_approveAddress",
          "type": "address"
        },
        {
          "internalType": "uint256",
          "name": "_amount",
          "type": "uint256"
        }
      ],
      "name": "mintTokenAndApprove",
      "outputs": [],
      "stateMutability": "nonpayable",
      "type": "function"
    },
    {
      "inputs": [
        {
          "internalType": "address",
          "name": "_token",
          "type": "address"
        },
        {
          "internalType": "address",
          "name": "_ownerAddress",
          "type": "address"
        }
      ],
      "name": "addTokenOwner",
      "outputs": [],
      "stateMutability": "nonpayable",
      "type": "function"
    },
    {
      "inputs": [],
      "name": "listTokens",
      "outputs": [
        {
          "internalType": "address[]",
          "name": "",
          "type": "address[]"
        }
      ],
      "stateMutability": "view",
      "type": "function"
    }
  ],
  "bytecode": "0x608060405234801561001057600080fd5b5060405161302738038061302783398101604081905261002f91610056565b6001600160a01b03166000908152600260205260409020805460ff19166001179055610086565b60006020828403121561006857600080fd5b81516001600160a01b038116811461007f57600080fd5b9392505050565b612f92806100956000396000f3fe60806040523480156200001157600080fd5b5060043610620000d65760003560e01c8063125bfb6614620000db578063173825d914620000f45780632cb5568e14620001205780634937b1741462000137578063666e1b3914620001645780637065cb48146200018a5780637488ff7614620001a157806379c6506814620001ba5780637f89328f14620001d1578063a591afbe14620001e8578063ac9650d814620001f2578063da3e33971462000218578063e8a0aed3146200022f578063f5537ede1462000255578063fb3c0d70146200026c575b600080fd5b620000f2620000ec36600462000de4565b62000283565b005b6200010b6200010536600462000e25565b6200033c565b60405190151581526020015b60405180910390f35b620000f26200013136600462000e43565b620003a5565b6200014e6200014836600462000e43565b62000450565b6040805192835260208301919091520162000117565b6200010b6200017536600462000e25565b60026020526000908152604090205460ff1681565b6200010b6200019b36600462000e25565b62000546565b620001ab620005a7565b60405162000117919062000e72565b620000f2620001cb36600462000ec1565b620005ba565b620000f2620001e236600462000de4565b62000662565b620001ab6200078a565b620002096200020336600462000eee565b62000798565b60405162000117919062000fbb565b620000f26200022936600462000de4565b620008a0565b6200024662000240366004620010cb565b62000902565b60405162000117919062001150565b620000f26200026636600462000de4565b620009c5565b620000f26200027d36600462001164565b62000a27565b3360009081526002602052604090205460ff16620002be5760405162461bcd60e51b8152600401620002b590620011b6565b60405180910390fd5b6040516323b872dd60e01b81526001600160a01b038416906323b872dd90620002f090859030908690600401620011fd565b6020604051808303816000875af115801562000310573d6000803e3d6000fd5b505050506040513d601f19601f8201168201806040525081019062000336919062001221565b50505050565b3360009081526002602052604081205460ff166200036e5760405162461bcd60e51b8152600401620002b590620011b6565b6001600160a01b0382166000908152600260205260408120805460ff191690556200039a908362000a8b565b50600190505b919050565b3360009081526002602052604090205460ff16620003d75760405162461bcd60e51b8152600401620002b590620011b6565b604051630e0cb96960e31b81526001600160a01b03831690637065cb48906200040590849060040162001150565b6020604051808303816000875af115801562000425573d6000803e3d6000fd5b505050506040513d601f19601f820116820180604052508101906200044b919062001221565b505050565b604051636eb1769f60e11b81526001600160a01b038281166004830152306024830152600091829185169063dd62ed3e90604401602060405180830381865afa158015620004a2573d6000803e3d6000fd5b505050506040513d601f19601f82011682018060405250810190620004c8919062001245565b6040516370a0823160e01b81529092506001600160a01b038516906370a0823190620004f990309060040162001150565b602060405180830381865afa15801562000517573d6000803e3d6000fd5b505050506040513d601f19601f820116820180604052508101906200053d919062001245565b90509250929050565b3360009081526002602052604081205460ff16620005785760405162461bcd60e51b8152600401620002b590620011b6565b6001600160a01b0382166000908152600260205260408120805460ff191660011790556200039a908362000aa2565b6060620005b5600362000ab9565b905090565b3360009081526002602052604090205460ff16620005ec5760405162461bcd60e51b8152600401620002b590620011b6565b6040516340c10f1960e01b81526001600160a01b038316906340c10f19906200061c90309085906004016200125f565b6020604051808303816000875af11580156200063c573d6000803e3d6000fd5b505050506040513d601f19601f820116820180604052508101906200044b919062001245565b3360009081526002602052604090205460ff16620006945760405162461bcd60e51b8152600401620002b590620011b6565b6040516340c10f1960e01b815283906001600160a01b038216906340c10f1990620006c690309086906004016200125f565b6020604051808303816000875af1158015620006e6573d6000803e3d6000fd5b505050506040513d601f19601f820116820180604052508101906200070c919062001245565b5060405163095ea7b360e01b81526001600160a01b0382169063095ea7b3906200073d90869086906004016200125f565b6020604051808303816000875af11580156200075d573d6000803e3d6000fd5b505050506040513d601f19601f8201168201806040525081019062000783919062001221565b5050505050565b6060620005b5600062000ab9565b6060816001600160401b03811115620007b557620007b562001021565b604051908082528060200260200182016040528015620007ea57816020015b6060815260200190600190039081620007d45790505b50905060005b828110156200089857620008623085858481811062000813576200081362001278565b90506020028101906200082791906200128e565b8080601f01602080910402602001604051908101604052809392919081815260200183838082843760009201919091525062000ac892505050565b82828151811062000877576200087762001278565b602002602001018190525080806200088f90620012f4565b915050620007f0565b505b92915050565b3360009081526002602052604090205460ff16620008d25760405162461bcd60e51b8152600401620002b590620011b6565b60405163095ea7b360e01b81526001600160a01b0384169063095ea7b390620002f090859085906004016200125f565b3360009081526002602052604081205460ff16620009345760405162461bcd60e51b8152600401620002b590620011b6565b600084843085604051620009489062000dbe565b62000957949392919062001310565b604051809103906000f08015801562000974573d6000803e3d6000fd5b509050806200098560038262000aa2565b506040516001600160a01b038216907f2e2b3f61b70d2d131b2a807371103cc98d51adcaa5e9a8f9c32658ad8426e74e90600090a29150505b9392505050565b3360009081526002602052604090205460ff16620009f75760405162461bcd60e51b8152600401620002b590620011b6565b60405163a9059cbb60e01b81526001600160a01b0384169063a9059cbb90620002f090859085906004016200125f565b3360009081526002602052604090205460ff1662000a595760405162461bcd60e51b8152600401620002b590620011b6565b6040516323b872dd60e01b81526001600160a01b038516906323b872dd906200073d90869086908690600401620011fd565b6000620009be836001600160a01b03841662000af0565b6000620009be836001600160a01b03841662000bf4565b60606000620009be8362000c46565b6060620009be838360405180606001604052806027815260200162002f366027913962000ca4565b6000818152600183016020526040812054801562000be957600062000b176001836200135e565b855490915060009062000b2d906001906200135e565b905081811462000b9957600086600001828154811062000b515762000b5162001278565b906000526020600020015490508087600001848154811062000b775762000b7762001278565b6000918252602080832090910192909255918252600188019052604090208390555b855486908062000bad5762000bad62001374565b6001900381819060005260206000200160009055905585600101600086815260200190815260200160002060009055600193505050506200089a565b60009150506200089a565b600081815260018301602052604081205462000c3d575081546001818101845560008481526020808220909301849055845484825282860190935260409020919091556200089a565b5060006200089a565b60608160000180548060200260200160405190810160405280929190818152602001828054801562000c9857602002820191906000526020600020905b81548152602001906001019080831162000c83575b50505050509050919050565b6060833b62000d055760405162461bcd60e51b815260206004820152602660248201527f416464726573733a2064656c65676174652063616c6c20746f206e6f6e2d636f6044820152651b9d1c9858dd60d21b6064820152608401620002b5565b600080856001600160a01b03168560405162000d2291906200138a565b600060405180830381855af49150503d806000811462000d5f576040519150601f19603f3d011682016040523d82523d6000602084013e62000d64565b606091505b509150915062000d7682828662000d80565b9695505050505050565b6060831562000d91575081620009be565b82511562000da25782518084602001fd5b8160405162461bcd60e51b8152600401620002b59190620013a8565b611b7880620013be83390190565b80356001600160a01b0381168114620003a057600080fd5b60008060006060848603121562000dfa57600080fd5b62000e058462000dcc565b925062000e156020850162000dcc565b9150604084013590509250925092565b60006020828403121562000e3857600080fd5b620009be8262000dcc565b6000806040838503121562000e5757600080fd5b62000e628362000dcc565b91506200053d6020840162000dcc565b6020808252825182820181905260009190848201906040850190845b8181101562000eb55783516001600160a01b03168352928401929184019160010162000e8e565b50909695505050505050565b6000806040838503121562000ed557600080fd5b62000ee08362000dcc565b946020939093013593505050565b6000806020838503121562000f0257600080fd5b82356001600160401b038082111562000f1a57600080fd5b818501915085601f83011262000f2f57600080fd5b81358181111562000f3f57600080fd5b8660208260051b850101111562000f5557600080fd5b60209290920196919550909350505050565b60005b8381101562000f8457818101518382015260200162000f6a565b50506000910152565b6000815180845262000fa781602086016020860162000f67565b601f01601f19169290920160200192915050565b6000602080830181845280855180835260408601915060408160051b870101925083870160005b828110156200101457603f198886030184526200100185835162000f8d565b9450928501929085019060010162000fe2565b5092979650505050505050565b634e487b7160e01b600052604160045260246000fd5b600082601f8301126200104957600080fd5b81356001600160401b038082111562001066576200106662001021565b604051601f8301601f19908116603f0116810190828211818310171562001091576200109162001021565b81604052838152866020858801011115620010ab57600080fd5b836020870160208301376000602085830101528094505050505092915050565b600080600060608486031215620010e157600080fd5b83356001600160401b0380821115620010f957600080fd5b620011078783880162001037565b945060208601359150808211156200111e57600080fd5b506200112d8682870162001037565b925050604084013560ff811681146200114557600080fd5b809150509250925092565b6001600160a01b0391909116815260200190565b600080600080608085870312156200117b57600080fd5b620011868562000dcc565b9350620011966020860162000dcc565b9250620011a66040860162000dcc565b9396929550929360600135925050565b60208082526027908201527f4f6e6c79206f776e65722063616e20657865637574652074686973207472616e60408201526639b0b1ba34b7b760c91b606082015260800190565b6001600160a01b039384168152919092166020820152604081019190915260600190565b6000602082840312156200123457600080fd5b81518015158114620009be57600080fd5b6000602082840312156200125857600080fd5b5051919050565b6001600160a01b03929092168252602082015260400190565b634e487b7160e01b600052603260045260246000fd5b6000808335601e19843603018112620012a657600080fd5b8301803591506001600160401b03821115620012c157600080fd5b602001915036819003821315620012d757600080fd5b9250929050565b634e487b7160e01b600052601160045260246000fd5b600060018201620013095762001309620012de565b5060010190565b60808152600062001325608083018762000f8d565b828103602084015262001339818762000f8d565b6001600160a01b03959095166040840152505060ff9190911660609091015292915050565b818103818111156200089a576200089a620012de565b634e487b7160e01b600052603160045260246000fd5b600082516200139e81846020870162000f67565b9190910192915050565b602081526000620009be602083018462000f8d56fe60806040523480156200001157600080fd5b5060405162001b7838038062001b7883398101604081905262000034916200015e565b8383600662000044838262000293565b50600762000053828262000293565b5050506001600160a01b039190911660009081526002602052604090208054600160ff1991821617909155600c805490911660ff909216919091179055506200035f9050565b634e487b7160e01b600052604160045260246000fd5b600082601f830112620000c157600080fd5b81516001600160401b0380821115620000de57620000de62000099565b604051601f8301601f19908116603f0116810190828211818310171562000109576200010962000099565b816040528381526020925086838588010111156200012657600080fd5b600091505b838210156200014a57858201830151818301840152908201906200012b565b600093810190920192909252949350505050565b600080600080608085870312156200017557600080fd5b84516001600160401b03808211156200018d57600080fd5b6200019b88838901620000af565b95506020870151915080821115620001b257600080fd5b50620001c187828801620000af565b604087015190945090506001600160a01b0381168114620001e157600080fd5b606086015190925060ff81168114620001f957600080fd5b939692955090935050565b600181811c908216806200021957607f821691505b6020821081036200023a57634e487b7160e01b600052602260045260246000fd5b50919050565b601f8211156200028e57600081815260208120601f850160051c81016020861015620002695750805b601f850160051c820191505b818110156200028a5782815560010162000275565b5050505b505050565b81516001600160401b03811115620002af57620002af62000099565b620002c781620002c0845462000204565b8462000240565b602080601f831160018114620002ff5760008415620002e65750858301515b600019600386901b1c1916600185901b1785556200028a565b600085815260208120601f198616915b8281101562000330578886015182559484019460019091019084016200030f565b50858210156200034f5787850151600019600388901b60f8161c191681555b5050505050600190811b01905550565b611809806200036f6000396000f3fe608060405234801561001057600080fd5b50600436106101175760003560e01c8063666e1b39116100a8578063666e1b39146101f85780637065cb481461021b57806370a082311461022e57806379cc67901461024157806395d89b4114610254578063981b24d01461025c578063a457c2d71461026f578063a591afbe14610282578063a9059cbb14610297578063ac9650d8146102aa578063dd62ed3e146102ca57600080fd5b806306fdde031461011c578063095ea7b31461013a578063173825d91461015d57806318160ddd1461017057806323b872dd14610182578063313ce5671461019557806339509351146101aa57806340c10f19146101bd57806342966c68146101d05780634ee2cd7e146101e5575b600080fd5b610124610303565b60405161013191906113da565b60405180910390f35b61014d610148366004611404565b610395565b6040519015158152602001610131565b61014d61016b36600461142e565b6103ac565b6005545b604051908152602001610131565b61014d610190366004611449565b610419565b600c5460405160ff9091168152602001610131565b61014d6101b8366004611404565b6104c5565b6101746101cb366004611404565b610501565b6101e36101de366004611485565b610540565b005b6101746101f3366004611404565b61054d565b61014d61020636600461142e565b60026020526000908152604090205460ff1681565b61014d61022936600461142e565b610596565b61017461023c36600461142e565b6105f2565b6101e361024f366004611404565b61060d565b610124610693565b61017461026a366004611485565b6106a2565b61014d61027d366004611404565b6106cd565b61028a610766565b604051610131919061149e565b61014d6102a5366004611404565b610777565b6102bd6102b83660046114eb565b610784565b6040516101319190611560565b6101746102d83660046115c2565b6001600160a01b03918216600090815260046020908152604080832093909416825291909152205490565b606060068054610312906115f5565b80601f016020809104026020016040519081016040528092919081815260200182805461033e906115f5565b801561038b5780601f106103605761010080835404028352916020019161038b565b820191906000526020600020905b81548152906001019060200180831161036e57829003601f168201915b5050505050905090565b60006103a2338484610879565b5060015b92915050565b3360009081526002602052604081205460ff166103e45760405162461bcd60e51b81526004016103db90611629565b60405180910390fd5b6001600160a01b0382166000908152600260205260408120805460ff1916905561040e908361099d565b50600190505b919050565b60006104268484846109b2565b6001600160a01b0384166000908152600460209081526040808320338452909152902054828110156104ab5760405162461bcd60e51b815260206004820152602860248201527f45524332303a207472616e7366657220616d6f756e74206578636565647320616044820152676c6c6f77616e636560c01b60648201526084016103db565b6104b88533858403610879565b60019150505b9392505050565b3360008181526004602090815260408083206001600160a01b038716845290915281205490916103a29185906104fc908690611686565b610879565b3360009081526002602052604081205460ff166105305760405162461bcd60e51b81526004016103db90611629565b61053a8383610b7a565b50919050565b61054a3382610c53565b50565b6001600160a01b038216600090815260086020526040812081908190610574908590610d9b565b915091508161058b57610586856105f2565b61058d565b805b95945050505050565b3360009081526002602052604081205460ff166105c55760405162461bcd60e51b81526004016103db90611629565b6001600160a01b0382166000908152600260205260408120805460ff1916600117905561040e9083610e91565b6001600160a01b031660009081526003602052604090205490565b600061061983336102d8565b9050818110156106775760405162461bcd60e51b8152602060048201526024808201527f45524332303a206275726e20616d6f756e74206578636565647320616c6c6f77604482015263616e636560e01b60648201526084016103db565b6106848333848403610879565b61068e8383610c53565b505050565b606060078054610312906115f5565b60008060006106b2846009610d9b565b91509150816106c3576005546106c5565b805b949350505050565b3360009081526004602090815260408083206001600160a01b03861684529091528120548281101561074f5760405162461bcd60e51b815260206004820152602560248201527f45524332303a2064656372656173656420616c6c6f77616e63652062656c6f77604482015264207a65726f60d81b60648201526084016103db565b61075c3385858403610879565b5060019392505050565b60606107726000610ea6565b905090565b60006103a23384846109b2565b60608167ffffffffffffffff81111561079f5761079f611699565b6040519080825280602002602001820160405280156107d257816020015b60608152602001906001900390816107bd5790505b50905060005b8281101561087257610842308585848181106107f6576107f66116af565b905060200281019061080891906116c5565b8080601f016020809104026020016040519081016040528093929190818152602001838380828437600092019190915250610eb392505050565b828281518110610854576108546116af565b6020026020010181905250808061086a9061170c565b9150506107d8565b5092915050565b6001600160a01b0383166108db5760405162461bcd60e51b8152602060048201526024808201527f45524332303a20617070726f76652066726f6d20746865207a65726f206164646044820152637265737360e01b60648201526084016103db565b6001600160a01b03821661093c5760405162461bcd60e51b815260206004820152602260248201527f45524332303a20617070726f766520746f20746865207a65726f206164647265604482015261737360f01b60648201526084016103db565b6001600160a01b0383811660008181526004602090815260408083209487168084529482529182902085905590518481527f8c5be1e5ebec7d5bd14f71427d1e84f3dd0314c0f7b2291e5b200ac8c7c3b925910160405180910390a3505050565b60006104be836001600160a01b038416610ed8565b6001600160a01b038316610a165760405162461bcd60e51b815260206004820152602560248201527f45524332303a207472616e736665722066726f6d20746865207a65726f206164604482015264647265737360d81b60648201526084016103db565b6001600160a01b038216610a785760405162461bcd60e51b815260206004820152602360248201527f45524332303a207472616e7366657220746f20746865207a65726f206164647260448201526265737360e81b60648201526084016103db565b610a83838383610fcb565b6001600160a01b03831660009081526003602052604090205481811015610afb5760405162461bcd60e51b815260206004820152602660248201527f45524332303a207472616e7366657220616d6f756e7420657863656564732062604482015265616c616e636560d01b60648201526084016103db565b6001600160a01b03808516600090815260036020526040808220858503905591851681529081208054849290610b32908490611686565b92505081905550826001600160a01b0316846001600160a01b03166000805160206117b483398151915284604051610b6c91815260200190565b60405180910390a350505050565b6001600160a01b038216610bd05760405162461bcd60e51b815260206004820152601f60248201527f45524332303a206d696e7420746f20746865207a65726f20616464726573730060448201526064016103db565b610bdc60008383610fcb565b8060056000828254610bee9190611686565b90915550506001600160a01b03821660009081526003602052604081208054839290610c1b908490611686565b90915550506040518181526001600160a01b038316906000906000805160206117b48339815191529060200160405180910390a35050565b6001600160a01b038216610cb35760405162461bcd60e51b815260206004820152602160248201527f45524332303a206275726e2066726f6d20746865207a65726f206164647265736044820152607360f81b60648201526084016103db565b610cbf82600083610fcb565b6001600160a01b03821660009081526003602052604090205481811015610d335760405162461bcd60e51b815260206004820152602260248201527f45524332303a206275726e20616d6f756e7420657863656564732062616c616e604482015261636560f01b60648201526084016103db565b6001600160a01b0383166000908152600360205260408120838303905560058054849290610d62908490611725565b90915550506040518281526000906001600160a01b038516906000805160206117b48339815191529060200160405180910390a3505050565b60008060008411610de75760405162461bcd60e51b815260206004820152601660248201527504552433230536e617073686f743a20696420697320360541b60448201526064016103db565b610def610fd6565b841115610e3e5760405162461bcd60e51b815260206004820152601d60248201527f4552433230536e617073686f743a206e6f6e6578697374656e7420696400000060448201526064016103db565b6000610e4a8486610fe1565b84549091508103610e62576000809250925050610e8a565b6001846001018281548110610e7957610e796116af565b906000526020600020015492509250505b9250929050565b60006104be836001600160a01b0384166110a6565b606060006104be836110f5565b60606104be838360405180606001604052806027815260200161178d60279139611151565b60008181526001830160205260408120548015610fc1576000610efc600183611725565b8554909150600090610f1090600190611725565b9050818114610f75576000866000018281548110610f3057610f306116af565b9060005260206000200154905080876000018481548110610f5357610f536116af565b6000918252602080832090910192909255918252600188019052604090208390555b8554869080610f8657610f86611738565b6001900381819060005260206000200160009055905585600101600086815260200190815260200160002060009055600193505050506103a6565b60009150506103a6565b61068e838383611225565b6000610772600b5490565b81546000908103610ff4575060006103a6565b82546000905b8082101561105057600061100e838361126d565b905084868281548110611023576110236116af565b9060005260206000200154111561103c5780915061104a565b611047816001611686565b92505b50610ffa565b60008211801561108557508385611068600185611725565b81548110611078576110786116af565b9060005260206000200154145b1561109e57611095600183611725565b925050506103a6565b5090506103a6565b60008181526001830160205260408120546110ed575081546001818101845560008481526020808220909301849055845484825282860190935260409020919091556103a6565b5060006103a6565b60608160000180548060200260200160405190810160405280929190818152602001828054801561114557602002820191906000526020600020905b815481526020019060010190808311611131575b50505050509050919050565b6060833b6111b05760405162461bcd60e51b815260206004820152602660248201527f416464726573733a2064656c65676174652063616c6c20746f206e6f6e2d636f6044820152651b9d1c9858dd60d21b60648201526084016103db565b600080856001600160a01b0316856040516111cb919061174e565b600060405180830381855af49150503d8060008114611206576040519150601f19603f3d011682016040523d82523d6000602084013e61120b565b606091505b509150915061121b828286611288565b9695505050505050565b6001600160a01b0383166112445761123c826112c1565b61068e6112eb565b6001600160a01b03821661125b5761123c836112c1565b611264836112c1565b61068e826112c1565b600061127c600284841861176a565b6104be90848416611686565b606083156112975750816104be565b8251156112a75782518084602001fd5b8160405162461bcd60e51b81526004016103db91906113da565b6001600160a01b038116600090815260086020526040902061054a906112e6836105f2565b6112fb565b6112f960096112e660055490565b565b6000611305610fd6565b90508061131184611345565b101561068e578254600180820185556000858152602080822090930193909355938401805494850181558252902090910155565b8054600090810361135857506000919050565b8154829061136890600190611725565b81548110611378576113786116af565b90600052602060002001549050919050565b60005b838110156113a557818101518382015260200161138d565b50506000910152565b600081518084526113c681602086016020860161138a565b601f01601f19169290920160200192915050565b6020815260006104be60208301846113ae565b80356001600160a01b038116811461041457600080fd5b6000806040838503121561141757600080fd5b611420836113ed565b946020939093013593505050565b60006020828403121561144057600080fd5b6104be826113ed565b60008060006060848603121561145e57600080fd5b611467846113ed565b9250611475602085016113ed565b9150604084013590509250925092565b60006020828403121561149757600080fd5b5035919050565b6020808252825182820181905260009190848201906040850190845b818110156114df5783516001600160a01b0316835292840192918401916001016114ba565b50909695505050505050565b600080602083850312156114fe57600080fd5b823567ffffffffffffffff8082111561151657600080fd5b818501915085601f83011261152a57600080fd5b81358181111561153957600080fd5b8660208260051b850101111561154e57600080fd5b60209290920196919550909350505050565b6000602080830181845280855180835260408601915060408160051b870101925083870160005b828110156115b557603f198886030184526115a38583516113ae565b94509285019290850190600101611587565b5092979650505050505050565b600080604083850312156115d557600080fd5b6115de836113ed565b91506115ec602084016113ed565b90509250929050565b600181811c9082168061160957607f821691505b60208210810361053a57634e487b7160e01b600052602260045260246000fd5b60208082526027908201527f4f6e6c79206f776e65722063616e20657865637574652074686973207472616e60408201526639b0b1ba34b7b760c91b606082015260800190565b634e487b7160e01b600052601160045260246000fd5b808201808211156103a6576103a6611670565b634e487b7160e01b600052604160045260246000fd5b634e487b7160e01b600052603260045260246000fd5b6000808335601e198436030181126116dc57600080fd5b83018035915067ffffffffffffffff8211156116f757600080fd5b602001915036819003821315610e8a57600080fd5b60006001820161171e5761171e611670565b5060010190565b818103818111156103a6576103a6611670565b634e487b7160e01b600052603160045260246000fd5b6000825161176081846020870161138a565b9190910192915050565b60008261178757634e487b7160e01b600052601260045260246000fd5b50049056fe416464726573733a206c6f772d6c6576656c2064656c65676174652063616c6c206661696c6564ddf252ad1be2c89b69c2b068fc378daa952ba7f163c4a11628f55a4df523b3efa2646970667358221220636b93805fda291dfb09a784e986918ba3b49f7fbb0d3d5900a24ef71558635964736f6c63430008100033416464726573733a206c6f772d6c6576656c2064656c65676174652063616c6c206661696c6564a2646970667358221220ac4983d3aaf8bc1a56f42e821f3e06a422d40eae31fa99c539b971d15addcbac64736f6c63430008100033",
  "immutableReferences": {},
  "source": "//SPDX-License-Identifier: LGPL-3.0\r\n\r\npragma solidity ^0.8.16;\r\n\r\nimport \"./RahatERC20.sol\";\r\nimport \"../libraries/AbstractERC20Func.sol\";\r\n\r\nimport \"@openzeppelin/contracts/utils/structs/EnumerableSet.sol\";\r\n\r\n/// @title Donor contract to create tokens\r\n/// @author Rumsan Associates\r\n/// @notice You can use this contract to manage Rahat tokens and projects\r\n/// @dev All function calls are only executed by contract owner\r\ncontract RahatDonor is AbstractERC20Func {\r\n  using EnumerableSet for EnumerableSet.AddressSet;\r\n \r\n event TokenCreated(\r\n    address indexed tokenAddress\r\n  );\r\n\r\n  EnumerableSet.AddressSet private tokens;\r\n\r\n  /// @notice All the supply is allocated to this contract\r\n  /// @dev deploys AidToken and Rahat contract by sending supply to this contract\r\n  constructor(\r\n    address _admin\r\n  ) {\r\n    owner[_admin] = true;\r\n  }\r\n\r\n  //#region Token function\r\n  function createToken(string memory _name, string memory _symbol, uint8 decimals) public OnlyOwner returns(address) {\r\n    RahatERC20 _token = new RahatERC20(_name, _symbol, address(this), decimals);\r\n    address _tokenAddress = address(_token);\r\n    tokens.add(_tokenAddress);\r\n    emit TokenCreated(_tokenAddress);\r\n    return _tokenAddress;\r\n  }\r\n\r\n  function mintToken(address _token, uint256 _amount) public OnlyOwner {\r\n    RahatERC20(_token).mint(address(this), _amount);\r\n  }\r\n\r\n  function mintTokenAndApprove(address _token, address _approveAddress, uint256 _amount) public OnlyOwner {\r\n    RahatERC20 token = RahatERC20(_token);\r\n    token.mint(address(this), _amount);\r\n    token.approve(_approveAddress, _amount);\r\n  }\r\n\r\n  function addTokenOwner(address _token, address _ownerAddress) public OnlyOwner {\r\n    RahatERC20(_token).addOwner(_ownerAddress);\r\n  }\r\n\r\n  //#endregion\r\n\r\n  function listTokens() public view returns(address[] memory){\r\n    return tokens.values();\r\n  }\r\n}\r\n",
  "sourcePath": "S:\\Projects\\rahat\\unicef-np\\rahat-contracts\\src\\contracts\\RahatDonor.sol",
  "compiler": {
    "name": "solc",
    "version": "0.8.16+commit.07a7930e.Emscripten.clang"
  },
  "schemaVersion": "3.4.10",
  "updatedAt": "2022-12-02T08:26:28.921Z",
  "devdoc": {
    "author": "Rumsan Associates",
    "details": "All function calls are only executed by contract owner",
    "kind": "dev",
    "methods": {
      "addOwner(address)": {
        "params": {
          "_account": "address of new owner"
        }
      },
      "constructor": {
        "details": "deploys AidToken and Rahat contract by sending supply to this contract"
      },
      "multicall(bytes[])": {
        "details": "Receives and executes a batch of function calls on this contract."
      },
      "removeOwner(address)": {
        "params": {
          "_account": "address of existing owner"
        }
      }
    },
    "title": "Donor contract to create tokens",
    "version": 1
  },
  "userdoc": {
    "kind": "user",
    "methods": {
      "addOwner(address)": {
        "notice": "Add an account to the owner role"
      },
      "constructor": {
        "notice": "All the supply is allocated to this contract"
      },
      "removeOwner(address)": {
        "notice": "Remove an account from the owner role"
      }
    },
    "notice": "You can use this contract to manage Rahat tokens and projects",
    "version": 1
  }
}