{
  "contractName": "RahatWallet",
  "abi": [
    {
      "inputs": [
        {
          "internalType": "address",
          "name": "_admin",
          "type": "address"
        }
      ],
      "stateMutability": "nonpayable",
      "type": "constructor"
    },
    {
      "inputs": [
        {
          "internalType": "address",
          "name": "_account",
          "type": "address"
        }
      ],
      "name": "addOwner",
      "outputs": [
        {
          "internalType": "bool",
          "name": "",
          "type": "bool"
        }
      ],
      "stateMutability": "nonpayable",
      "type": "function"
    },
    {
      "inputs": [
        {
          "internalType": "address",
          "name": "_token",
          "type": "address"
        },
        {
          "internalType": "address",
          "name": "_spender",
          "type": "address"
        },
        {
          "internalType": "uint256",
          "name": "_amount",
          "type": "uint256"
        }
      ],
      "name": "approveToken",
      "outputs": [],
      "stateMutability": "nonpayable",
      "type": "function"
    },
    {
      "inputs": [
        {
          "internalType": "address",
          "name": "_token",
          "type": "address"
        },
        {
          "internalType": "address",
          "name": "_from",
          "type": "address"
        },
        {
          "internalType": "uint256",
          "name": "_amount",
          "type": "uint256"
        }
      ],
      "name": "claimToken",
      "outputs": [],
      "stateMutability": "nonpayable",
      "type": "function"
    },
    {
      "inputs": [],
      "name": "listAdmins",
      "outputs": [
        {
          "internalType": "address[]",
          "name": "",
          "type": "address[]"
        }
      ],
      "stateMutability": "view",
      "type": "function"
    },
    {
      "inputs": [
        {
          "internalType": "address",
          "name": "",
          "type": "address"
        }
      ],
      "name": "owner",
      "outputs": [
        {
          "internalType": "bool",
          "name": "",
          "type": "bool"
        }
      ],
      "stateMutability": "view",
      "type": "function"
    },
    {
      "inputs": [
        {
          "internalType": "address",
          "name": "_account",
          "type": "address"
        }
      ],
      "name": "removeOwner",
      "outputs": [
        {
          "internalType": "bool",
          "name": "",
          "type": "bool"
        }
      ],
      "stateMutability": "nonpayable",
      "type": "function"
    },
    {
      "inputs": [
        {
          "internalType": "address",
          "name": "_token",
          "type": "address"
        },
        {
          "internalType": "address",
          "name": "_from",
          "type": "address"
        },
        {
          "internalType": "address",
          "name": "_to",
          "type": "address"
        },
        {
          "internalType": "uint256",
          "name": "_amount",
          "type": "uint256"
        }
      ],
      "name": "transferFromToken",
      "outputs": [],
      "stateMutability": "nonpayable",
      "type": "function"
    },
    {
      "inputs": [
        {
          "internalType": "address",
          "name": "_token",
          "type": "address"
        },
        {
          "internalType": "address",
          "name": "_to",
          "type": "address"
        },
        {
          "internalType": "uint256",
          "name": "_amount",
          "type": "uint256"
        }
      ],
      "name": "transferToken",
      "outputs": [],
      "stateMutability": "nonpayable",
      "type": "function"
    }
  ],
  "bytecode": "0x608060405234801561001057600080fd5b506040516108cc3803806108cc83398101604081905261002f91610056565b6001600160a01b03166000908152600260205260409020805460ff19166001179055610086565b60006020828403121561006857600080fd5b81516001600160a01b038116811461007f57600080fd5b9392505050565b610837806100956000396000f3fe608060405234801561001057600080fd5b50600436106100785760003560e01c8063125bfb661461007d578063173825d914610092578063666e1b39146100ba5780637065cb48146100dd578063a591afbe146100f0578063da3e339714610105578063f5537ede14610118578063fb3c0d701461012b575b600080fd5b61009061008b36600461061f565b61013e565b005b6100a56100a036600461065b565b6101ef565b60405190151581526020015b60405180910390f35b6100a56100c836600461065b565b60026020526000908152604090205460ff1681565b6100a56100eb36600461065b565b610253565b6100f86102af565b6040516100b19190610676565b61009061011336600461061f565b6102c0565b61009061012636600461061f565b61031d565b6100906101393660046106c3565b61037a565b3360009081526002602052604090205460ff166101765760405162461bcd60e51b815260040161016d9061070e565b60405180910390fd5b6040516323b872dd60e01b81526001600160a01b038416906323b872dd906101a690859030908690600401610755565b6020604051808303816000875af11580156101c5573d6000803e3d6000fd5b505050506040513d601f19601f820116820180604052508101906101e99190610779565b50505050565b3360009081526002602052604081205460ff1661021e5760405162461bcd60e51b815260040161016d9061070e565b6001600160a01b0382166000908152600260205260408120805460ff191690556102489083610423565b50600190505b919050565b3360009081526002602052604081205460ff166102825760405162461bcd60e51b815260040161016d9061070e565b6001600160a01b0382166000908152600260205260408120805460ff191660011790556102489083610441565b60606102bb6000610456565b905090565b3360009081526002602052604090205460ff166102ef5760405162461bcd60e51b815260040161016d9061070e565b60405163095ea7b360e01b81526001600160a01b0384169063095ea7b3906101a6908590859060040161079b565b3360009081526002602052604090205460ff1661034c5760405162461bcd60e51b815260040161016d9061070e565b60405163a9059cbb60e01b81526001600160a01b0384169063a9059cbb906101a6908590859060040161079b565b3360009081526002602052604090205460ff166103a95760405162461bcd60e51b815260040161016d9061070e565b6040516323b872dd60e01b81526001600160a01b038516906323b872dd906103d990869086908690600401610755565b6020604051808303816000875af11580156103f8573d6000803e3d6000fd5b505050506040513d601f19601f8201168201806040525081019061041c9190610779565b5050505050565b6000610438836001600160a01b03841661046a565b90505b92915050565b6000610438836001600160a01b03841661055d565b60606000610463836105ac565b9392505050565b6000818152600183016020526040812054801561055357600061048e6001836107b4565b85549091506000906104a2906001906107b4565b90508181146105075760008660000182815481106104c2576104c26107d5565b90600052602060002001549050808760000184815481106104e5576104e56107d5565b6000918252602080832090910192909255918252600188019052604090208390555b8554869080610518576105186107eb565b60019003818190600052602060002001600090559055856001016000868152602001908152602001600020600090556001935050505061043b565b600091505061043b565b60008181526001830160205260408120546105a45750815460018181018455600084815260208082209093018490558454848252828601909352604090209190915561043b565b50600061043b565b6060816000018054806020026020016040519081016040528092919081815260200182805480156105fc57602002820191906000526020600020905b8154815260200190600101908083116105e8575b50505050509050919050565b80356001600160a01b038116811461024e57600080fd5b60008060006060848603121561063457600080fd5b61063d84610608565b925061064b60208501610608565b9150604084013590509250925092565b60006020828403121561066d57600080fd5b61043882610608565b6020808252825182820181905260009190848201906040850190845b818110156106b75783516001600160a01b031683529284019291840191600101610692565b50909695505050505050565b600080600080608085870312156106d957600080fd5b6106e285610608565b93506106f060208601610608565b92506106fe60408601610608565b9396929550929360600135925050565b60208082526027908201527f4f6e6c79206f776e65722063616e20657865637574652074686973207472616e60408201526639b0b1ba34b7b760c91b606082015260800190565b6001600160a01b039384168152919092166020820152604081019190915260600190565b60006020828403121561078b57600080fd5b8151801515811461046357600080fd5b6001600160a01b03929092168252602082015260400190565b8181038181111561043b57634e487b7160e01b600052601160045260246000fd5b634e487b7160e01b600052603260045260246000fd5b634e487b7160e01b600052603160045260246000fdfea2646970667358221220904a99079b1f655c867f9a9730dd42d34d04d7666bcea7dce847d3be6c11fc5764736f6c63430008100033",
  "immutableReferences": {},
  "source": "//SPDX-License-Identifier: LGPL-3.0\r\n\r\npragma solidity ^0.8.16;\r\n\r\nimport \"../libraries/AbstractERC20Func.sol\";\r\n\r\n/// @title Donor contract to create tokens\r\n/// @author Rumsan Associates\r\n/// @notice You can use this contract to manage Rahat tokens and projects\r\n/// @dev All function calls are only executed by contract owner\r\n\r\ncontract RahatWallet is AbstractERC20Func {\r\n  constructor(\r\n    address _admin\r\n  ) {\r\n    owner[_admin] = true;\r\n  }\r\n}\r\n",
  "sourcePath": "S:\\Projects\\rahat\\unicef-np\\rahat-contracts\\src\\contracts\\RahatWallet.sol",
  "compiler": {
    "name": "solc",
    "version": "0.8.16+commit.07a7930e.Emscripten.clang"
  },
  "schemaVersion": "3.4.10",
  "updatedAt": "2022-12-01T08:31:23.153Z",
  "devdoc": {
    "author": "Rumsan Associates",
    "details": "All function calls are only executed by contract owner",
    "kind": "dev",
    "methods": {
      "addOwner(address)": {
        "params": {
          "_account": "address of new owner"
        }
      },
      "removeOwner(address)": {
        "params": {
          "_account": "address of existing owner"
        }
      }
    },
    "title": "Donor contract to create tokens",
    "version": 1
  },
  "userdoc": {
    "kind": "user",
    "methods": {
      "addOwner(address)": {
        "notice": "Add an account to the owner role"
      },
      "removeOwner(address)": {
        "notice": "Remove an account from the owner role"
      }
    },
    "notice": "You can use this contract to manage Rahat tokens and projects",
    "version": 1
  }
}