{
  "contractName": "Rahat",
  "abi": [
    {
      "inputs": [
        {
          "internalType": "contract RahatERC20",
          "name": "_erc20",
          "type": "address"
        },
        {
          "internalType": "contract RahatRegistry",
          "name": "_registry",
          "type": "address"
        },
        {
          "internalType": "contract RahatTriggerResponse",
          "name": "_triggerResponse",
          "type": "address"
        },
        {
          "internalType": "address",
          "name": "_admin",
          "type": "address"
        }
      ],
      "stateMutability": "nonpayable",
      "type": "constructor"
    },
    {
      "anonymous": false,
      "inputs": [
        {
          "indexed": true,
          "internalType": "address",
          "name": "vendor",
          "type": "address"
        },
        {
          "indexed": true,
          "internalType": "uint256",
          "name": "beneficiary",
          "type": "uint256"
        },
        {
          "indexed": false,
          "internalType": "uint256",
          "name": "amount",
          "type": "uint256"
        }
      ],
      "name": "ClaimAcquiredERC20",
      "type": "event"
    },
    {
      "anonymous": false,
      "inputs": [
        {
          "indexed": true,
          "internalType": "address",
          "name": "vendor",
          "type": "address"
        },
        {
          "indexed": true,
          "internalType": "uint256",
          "name": "phone",
          "type": "uint256"
        },
        {
          "indexed": false,
          "internalType": "uint256",
          "name": "amount",
          "type": "uint256"
        }
      ],
      "name": "ClaimApproved",
      "type": "event"
    },
    {
      "anonymous": false,
      "inputs": [
        {
          "indexed": true,
          "internalType": "address",
          "name": "vendor",
          "type": "address"
        },
        {
          "indexed": true,
          "internalType": "uint256",
          "name": "beneficiary",
          "type": "uint256"
        },
        {
          "indexed": false,
          "internalType": "uint256",
          "name": "amount",
          "type": "uint256"
        }
      ],
      "name": "ClaimedERC20",
      "type": "event"
    },
    {
      "anonymous": false,
      "inputs": [
        {
          "indexed": false,
          "internalType": "bytes",
          "name": "signature",
          "type": "bytes"
        },
        {
          "indexed": false,
          "internalType": "bytes32",
          "name": "digest",
          "type": "bytes32"
        },
        {
          "indexed": false,
          "internalType": "address",
          "name": "expectedSigner",
          "type": "address"
        },
        {
          "indexed": false,
          "internalType": "address",
          "name": "recoveredSigner",
          "type": "address"
        }
      ],
      "name": "InvalidSignature",
      "type": "event"
    },
    {
      "anonymous": false,
      "inputs": [
        {
          "indexed": true,
          "internalType": "bytes32",
          "name": "projectId",
          "type": "bytes32"
        },
        {
          "indexed": true,
          "internalType": "uint256",
          "name": "phone",
          "type": "uint256"
        },
        {
          "indexed": false,
          "internalType": "uint256",
          "name": "amount",
          "type": "uint256"
        }
      ],
      "name": "IssuedERC20",
      "type": "event"
    },
    {
      "anonymous": false,
      "inputs": [
        {
          "indexed": false,
          "internalType": "address",
          "name": "",
          "type": "address"
        },
        {
          "indexed": false,
          "internalType": "uint256",
          "name": "",
          "type": "uint256"
        }
      ],
      "name": "Received",
      "type": "event"
    },
    {
      "anonymous": false,
      "inputs": [
        {
          "indexed": true,
          "internalType": "bytes32",
          "name": "role",
          "type": "bytes32"
        },
        {
          "indexed": true,
          "internalType": "bytes32",
          "name": "previousAdminRole",
          "type": "bytes32"
        },
        {
          "indexed": true,
          "internalType": "bytes32",
          "name": "newAdminRole",
          "type": "bytes32"
        }
      ],
      "name": "RoleAdminChanged",
      "type": "event"
    },
    {
      "anonymous": false,
      "inputs": [
        {
          "indexed": true,
          "internalType": "bytes32",
          "name": "role",
          "type": "bytes32"
        },
        {
          "indexed": true,
          "internalType": "address",
          "name": "account",
          "type": "address"
        },
        {
          "indexed": true,
          "internalType": "address",
          "name": "sender",
          "type": "address"
        }
      ],
      "name": "RoleGranted",
      "type": "event"
    },
    {
      "anonymous": false,
      "inputs": [
        {
          "indexed": true,
          "internalType": "bytes32",
          "name": "role",
          "type": "bytes32"
        },
        {
          "indexed": true,
          "internalType": "address",
          "name": "account",
          "type": "address"
        },
        {
          "indexed": true,
          "internalType": "address",
          "name": "sender",
          "type": "address"
        }
      ],
      "name": "RoleRevoked",
      "type": "event"
    },
    {
      "inputs": [],
      "name": "CREATE_CLAIM",
      "outputs": [
        {
          "internalType": "bytes32",
          "name": "",
          "type": "bytes32"
        }
      ],
      "stateMutability": "view",
      "type": "function"
    },
    {
      "inputs": [],
      "name": "DEFAULT_ADMIN_ROLE",
      "outputs": [
        {
          "internalType": "bytes32",
          "name": "",
          "type": "bytes32"
        }
      ],
      "stateMutability": "view",
      "type": "function"
    },
    {
      "inputs": [],
      "name": "GET_TOKENS_FROM_CLAIM",
      "outputs": [
        {
          "internalType": "bytes32",
          "name": "",
          "type": "bytes32"
        }
      ],
      "stateMutability": "view",
      "type": "function"
    },
    {
      "inputs": [],
      "name": "ISSUE_TOKEN",
      "outputs": [
        {
          "internalType": "bytes32",
          "name": "",
          "type": "bytes32"
        }
      ],
      "stateMutability": "view",
      "type": "function"
    },
    {
      "inputs": [],
      "name": "MANAGER_ROLE",
      "outputs": [
        {
          "internalType": "bytes32",
          "name": "",
          "type": "bytes32"
        }
      ],
      "stateMutability": "view",
      "type": "function"
    },
    {
      "inputs": [],
      "name": "MOBILIZER_ROLE",
      "outputs": [
        {
          "internalType": "bytes32",
          "name": "",
          "type": "bytes32"
        }
      ],
      "stateMutability": "view",
      "type": "function"
    },
    {
      "inputs": [],
      "name": "SERVER_ROLE",
      "outputs": [
        {
          "internalType": "bytes32",
          "name": "",
          "type": "bytes32"
        }
      ],
      "stateMutability": "view",
      "type": "function"
    },
    {
      "inputs": [],
      "name": "VENDOR_ROLE",
      "outputs": [
        {
          "internalType": "bytes32",
          "name": "",
          "type": "bytes32"
        }
      ],
      "stateMutability": "view",
      "type": "function"
    },
    {
      "inputs": [
        {
          "internalType": "address",
          "name": "_account",
          "type": "address"
        }
      ],
      "name": "addOwner",
      "outputs": [
        {
          "internalType": "bool",
          "name": "",
          "type": "bool"
        }
      ],
      "stateMutability": "nonpayable",
      "type": "function"
    },
    {
      "inputs": [
        {
          "internalType": "address",
          "name": "_token",
          "type": "address"
        },
        {
          "internalType": "address",
          "name": "_spender",
          "type": "address"
        },
        {
          "internalType": "uint256",
          "name": "_amount",
          "type": "uint256"
        }
      ],
      "name": "approveToken",
      "outputs": [],
      "stateMutability": "nonpayable",
      "type": "function"
    },
    {
      "inputs": [],
      "name": "cashToken",
      "outputs": [
        {
          "internalType": "contract RahatERC20",
          "name": "",
          "type": "address"
        }
      ],
      "stateMutability": "view",
      "type": "function"
    },
    {
      "inputs": [
        {
          "internalType": "address",
          "name": "_token",
          "type": "address"
        },
        {
          "internalType": "address",
          "name": "_from",
          "type": "address"
        },
        {
          "internalType": "uint256",
          "name": "_amount",
          "type": "uint256"
        }
      ],
      "name": "claimToken",
      "outputs": [],
      "stateMutability": "nonpayable",
      "type": "function"
    },
    {
      "inputs": [],
      "name": "erc20",
      "outputs": [
        {
          "internalType": "contract RahatERC20",
          "name": "",
          "type": "address"
        }
      ],
      "stateMutability": "view",
      "type": "function"
    },
    {
      "inputs": [
        {
          "internalType": "uint256",
          "name": "",
          "type": "uint256"
        }
      ],
      "name": "erc20Balance",
      "outputs": [
        {
          "internalType": "uint256",
          "name": "",
          "type": "uint256"
        }
      ],
      "stateMutability": "view",
      "type": "function"
    },
    {
      "inputs": [
        {
          "internalType": "uint256",
          "name": "",
          "type": "uint256"
        }
      ],
      "name": "erc20Issued",
      "outputs": [
        {
          "internalType": "uint256",
          "name": "",
          "type": "uint256"
        }
      ],
      "stateMutability": "view",
      "type": "function"
    },
    {
      "inputs": [
        {
          "internalType": "address",
          "name": "",
          "type": "address"
        }
      ],
      "name": "erc20IssuedBy",
      "outputs": [
        {
          "internalType": "uint256",
          "name": "",
          "type": "uint256"
        }
      ],
      "stateMutability": "view",
      "type": "function"
    },
    {
      "inputs": [
        {
          "internalType": "bytes32",
          "name": "role",
          "type": "bytes32"
        }
      ],
      "name": "getRoleAdmin",
      "outputs": [
        {
          "internalType": "bytes32",
          "name": "",
          "type": "bytes32"
        }
      ],
      "stateMutability": "view",
      "type": "function"
    },
    {
      "inputs": [
        {
          "internalType": "bytes32",
          "name": "role",
          "type": "bytes32"
        },
        {
          "internalType": "address",
          "name": "account",
          "type": "address"
        }
      ],
      "name": "grantRole",
      "outputs": [],
      "stateMutability": "nonpayable",
      "type": "function"
    },
    {
      "inputs": [
        {
          "internalType": "bytes32",
          "name": "role",
          "type": "bytes32"
        },
        {
          "internalType": "address",
          "name": "account",
          "type": "address"
        }
      ],
      "name": "hasRole",
      "outputs": [
        {
          "internalType": "bool",
          "name": "",
          "type": "bool"
        }
      ],
      "stateMutability": "view",
      "type": "function"
    },
    {
      "inputs": [
        {
          "internalType": "uint256",
          "name": "",
          "type": "uint256"
        }
      ],
      "name": "isBanked",
      "outputs": [
        {
          "internalType": "bool",
          "name": "",
          "type": "bool"
        }
      ],
      "stateMutability": "view",
      "type": "function"
    },
    {
      "inputs": [],
      "name": "listAdmins",
      "outputs": [
        {
          "internalType": "address[]",
          "name": "",
          "type": "address[]"
        }
      ],
      "stateMutability": "view",
      "type": "function"
    },
    {
      "inputs": [
        {
          "internalType": "bytes[]",
          "name": "data",
          "type": "bytes[]"
        }
      ],
      "name": "multicall",
      "outputs": [
        {
          "internalType": "bytes[]",
          "name": "results",
          "type": "bytes[]"
        }
      ],
      "stateMutability": "nonpayable",
      "type": "function"
    },
    {
      "inputs": [
        {
          "internalType": "address",
          "name": "",
          "type": "address"
        }
      ],
      "name": "nonces",
      "outputs": [
        {
          "internalType": "uint256",
          "name": "",
          "type": "uint256"
        }
      ],
      "stateMutability": "view",
      "type": "function"
    },
    {
      "inputs": [
        {
          "internalType": "address",
          "name": "",
          "type": "address"
        }
      ],
      "name": "owner",
      "outputs": [
        {
          "internalType": "bool",
          "name": "",
          "type": "bool"
        }
      ],
      "stateMutability": "view",
      "type": "function"
    },
    {
      "inputs": [
        {
          "internalType": "address",
          "name": "",
          "type": "address"
        },
        {
          "internalType": "bytes32",
          "name": "",
          "type": "bytes32"
        }
      ],
      "name": "recentERC20Claims",
      "outputs": [
        {
          "internalType": "uint256",
          "name": "amount",
          "type": "uint256"
        },
        {
          "internalType": "bytes32",
          "name": "otpHash",
          "type": "bytes32"
        },
        {
          "internalType": "bool",
          "name": "isReleased",
          "type": "bool"
        },
        {
          "internalType": "uint256",
          "name": "date",
          "type": "uint256"
        }
      ],
      "stateMutability": "view",
      "type": "function"
    },
    {
      "inputs": [],
      "name": "registry",
      "outputs": [
        {
          "internalType": "contract RahatRegistry",
          "name": "",
          "type": "address"
        }
      ],
      "stateMutability": "view",
      "type": "function"
    },
    {
      "inputs": [
        {
          "internalType": "bytes32",
          "name": "",
          "type": "bytes32"
        }
      ],
      "name": "remainingProjectErc20Balances",
      "outputs": [
        {
          "internalType": "uint256",
          "name": "",
          "type": "uint256"
        }
      ],
      "stateMutability": "view",
      "type": "function"
    },
    {
      "inputs": [
        {
          "internalType": "address",
          "name": "_account",
          "type": "address"
        }
      ],
      "name": "removeOwner",
      "outputs": [
        {
          "internalType": "bool",
          "name": "",
          "type": "bool"
        }
      ],
      "stateMutability": "nonpayable",
      "type": "function"
    },
    {
      "inputs": [
        {
          "internalType": "bytes32",
          "name": "role",
          "type": "bytes32"
        },
        {
          "internalType": "address",
          "name": "account",
          "type": "address"
        }
      ],
      "name": "renounceRole",
      "outputs": [],
      "stateMutability": "nonpayable",
      "type": "function"
    },
    {
      "inputs": [
        {
          "internalType": "bytes32",
          "name": "role",
          "type": "bytes32"
        },
        {
          "internalType": "address",
          "name": "account",
          "type": "address"
        }
      ],
      "name": "revokeRole",
      "outputs": [],
      "stateMutability": "nonpayable",
      "type": "function"
    },
    {
      "inputs": [
        {
          "internalType": "bytes32",
          "name": "",
          "type": "bytes32"
        }
      ],
      "name": "totalProjectErc20Issued",
      "outputs": [
        {
          "internalType": "uint256",
          "name": "",
          "type": "uint256"
        }
      ],
      "stateMutability": "view",
      "type": "function"
    },
    {
      "inputs": [
        {
          "internalType": "address",
          "name": "_token",
          "type": "address"
        },
        {
          "internalType": "address",
          "name": "_from",
          "type": "address"
        },
        {
          "internalType": "address",
          "name": "_to",
          "type": "address"
        },
        {
          "internalType": "uint256",
          "name": "_amount",
          "type": "uint256"
        }
      ],
      "name": "transferFromToken",
      "outputs": [],
      "stateMutability": "nonpayable",
      "type": "function"
    },
    {
      "inputs": [
        {
          "internalType": "address",
          "name": "_token",
          "type": "address"
        },
        {
          "internalType": "address",
          "name": "_to",
          "type": "address"
        },
        {
          "internalType": "uint256",
          "name": "_amount",
          "type": "uint256"
        }
      ],
      "name": "transferToken",
      "outputs": [],
      "stateMutability": "nonpayable",
      "type": "function"
    },
    {
      "inputs": [],
      "name": "triggerResponse",
      "outputs": [
        {
          "internalType": "contract RahatTriggerResponse",
          "name": "",
          "type": "address"
        }
      ],
      "stateMutability": "view",
      "type": "function"
    },
    {
      "stateMutability": "payable",
      "type": "receive"
    },
    {
      "inputs": [
        {
          "internalType": "bytes4",
          "name": "interfaceId",
          "type": "bytes4"
        }
      ],
      "name": "supportsInterface",
      "outputs": [
        {
          "internalType": "bool",
          "name": "",
          "type": "bool"
        }
      ],
      "stateMutability": "view",
      "type": "function"
    },
    {
      "inputs": [
        {
          "internalType": "address",
          "name": "_account",
          "type": "address"
        }
      ],
      "name": "addAdmin",
      "outputs": [],
      "stateMutability": "nonpayable",
      "type": "function"
    },
    {
      "inputs": [
        {
          "internalType": "address",
          "name": "_account",
          "type": "address"
        }
      ],
      "name": "isAdmin",
      "outputs": [
        {
          "internalType": "bool",
          "name": "",
          "type": "bool"
        }
      ],
      "stateMutability": "view",
      "type": "function"
    },
    {
      "inputs": [
        {
          "internalType": "address",
          "name": "_account",
          "type": "address"
        }
      ],
      "name": "addServer",
      "outputs": [],
      "stateMutability": "nonpayable",
      "type": "function"
    },
    {
      "inputs": [
        {
          "internalType": "address payable",
          "name": "_account",
          "type": "address"
        }
      ],
      "name": "addVendor",
      "outputs": [
        {
          "internalType": "address",
          "name": "",
          "type": "address"
        }
      ],
      "stateMutability": "nonpayable",
      "type": "function"
    },
    {
      "inputs": [
        {
          "internalType": "address",
          "name": "_account",
          "type": "address"
        }
      ],
      "name": "isVendor",
      "outputs": [
        {
          "internalType": "bool",
          "name": "",
          "type": "bool"
        }
      ],
      "stateMutability": "view",
      "type": "function"
    },
    {
      "inputs": [
        {
          "internalType": "address",
          "name": "_account",
          "type": "address"
        },
        {
          "internalType": "string",
          "name": "_projectId",
          "type": "string"
        }
      ],
      "name": "addMobilizer",
      "outputs": [],
      "stateMutability": "nonpayable",
      "type": "function"
    },
    {
      "inputs": [
        {
          "internalType": "uint256",
          "name": "_phone",
          "type": "uint256"
        },
        {
          "internalType": "bool",
          "name": "_isBanked",
          "type": "bool"
        }
      ],
      "name": "setAsBankedBeneficiary",
      "outputs": [],
      "stateMutability": "nonpayable",
      "type": "function"
    },
    {
      "inputs": [
        {
          "internalType": "uint256",
          "name": "_phone",
          "type": "uint256"
        },
        {
          "internalType": "bytes32",
          "name": "_projectId",
          "type": "bytes32"
        }
      ],
      "name": "suspendBeneficiary",
      "outputs": [],
      "stateMutability": "nonpayable",
      "type": "function"
    },
    {
      "inputs": [
        {
          "internalType": "bytes32",
          "name": "_projectId",
          "type": "bytes32"
        },
        {
          "internalType": "uint256",
          "name": "_projectCapital",
          "type": "uint256"
        }
      ],
      "name": "updateProjectBudget",
      "outputs": [],
      "stateMutability": "nonpayable",
      "type": "function"
    },
    {
      "inputs": [
        {
          "internalType": "bytes32",
          "name": "_projectId",
          "type": "bytes32"
        }
      ],
      "name": "getProjectBalance",
      "outputs": [
        {
          "internalType": "uint256",
          "name": "_balance",
          "type": "uint256"
        }
      ],
      "stateMutability": "view",
      "type": "function"
    },
    {
      "inputs": [
        {
          "internalType": "string",
          "name": "_projectId",
          "type": "string"
        },
        {
          "internalType": "uint256",
          "name": "_phone",
          "type": "uint256"
        },
        {
          "internalType": "uint256",
          "name": "_amount",
          "type": "uint256"
        }
      ],
      "name": "issueERC20ToBeneficiary",
      "outputs": [],
      "stateMutability": "nonpayable",
      "type": "function"
    },
    {
      "inputs": [
        {
          "internalType": "uint256",
          "name": "_phone",
          "type": "uint256"
        },
        {
          "internalType": "uint256",
          "name": "_tokens",
          "type": "uint256"
        }
      ],
      "name": "createERC20Claim",
      "outputs": [],
      "stateMutability": "nonpayable",
      "type": "function"
    },
    {
      "inputs": [
        {
          "internalType": "address",
          "name": "_vendor",
          "type": "address"
        },
        {
          "internalType": "uint256",
          "name": "_phone",
          "type": "uint256"
        },
        {
          "internalType": "bytes32",
          "name": "_otpHash",
          "type": "bytes32"
        },
        {
          "internalType": "uint256",
          "name": "_timeToLive",
          "type": "uint256"
        }
      ],
      "name": "approveERC20Claim",
      "outputs": [],
      "stateMutability": "nonpayable",
      "type": "function"
    },
    {
      "inputs": [
        {
          "internalType": "uint256",
          "name": "_phone",
          "type": "uint256"
        },
        {
          "internalType": "string",
          "name": "_otp",
          "type": "string"
        }
      ],
      "name": "getERC20FromClaim",
      "outputs": [],
      "stateMutability": "nonpayable",
      "type": "function"
    },
    {
      "inputs": [
        {
          "internalType": "uint256",
          "name": "_phone",
          "type": "uint256"
        },
        {
          "internalType": "address",
          "name": "_vendorAddress",
          "type": "address"
        },
        {
          "internalType": "uint256",
          "name": "_amount",
          "type": "uint256"
        }
      ],
      "name": "transferTokenToVendorByAdmin",
      "outputs": [],
      "stateMutability": "nonpayable",
      "type": "function"
    },
    {
      "inputs": [
        {
          "internalType": "address",
          "name": "_vendorAddress",
          "type": "address"
        },
        {
          "internalType": "uint256",
          "name": "_amount",
          "type": "uint256"
        }
      ],
      "name": "transferCashToVendor",
      "outputs": [],
      "stateMutability": "nonpayable",
      "type": "function"
    },
    {
      "inputs": [
        {
          "internalType": "address",
          "name": "_token",
          "type": "address"
        },
        {
          "internalType": "address",
          "name": "_from",
          "type": "address"
        },
        {
          "internalType": "bytes32",
          "name": "_projectId",
          "type": "bytes32"
        },
        {
          "internalType": "uint256",
          "name": "_amount",
          "type": "uint256"
        }
      ],
      "name": "claimTokenForProject",
      "outputs": [],
      "stateMutability": "nonpayable",
      "type": "function"
    },
    {
      "inputs": [
        {
          "internalType": "address",
          "name": "_vendorAddress",
          "type": "address"
        }
      ],
      "name": "vendorBalance",
      "outputs": [
        {
          "internalType": "address",
          "name": "walletAddress",
          "type": "address"
        },
        {
          "internalType": "uint256",
          "name": "cashAllowance",
          "type": "uint256"
        },
        {
          "internalType": "uint256",
          "name": "cashBalance",
          "type": "uint256"
        },
        {
          "internalType": "uint256",
          "name": "tokenBalance",
          "type": "uint256"
        }
      ],
      "stateMutability": "view",
      "type": "function"
    },
    {
      "inputs": [
        {
          "internalType": "uint256",
          "name": "_phone",
          "type": "uint256"
        }
      ],
      "name": "beneficiaryBalance",
      "outputs": [
        {
          "internalType": "address",
          "name": "walletAddress",
          "type": "address"
        },
        {
          "internalType": "uint256",
          "name": "cashBalance",
          "type": "uint256"
        },
        {
          "internalType": "uint256",
          "name": "tokenBalance",
          "type": "uint256"
        }
      ],
      "stateMutability": "view",
      "type": "function"
    },
    {
      "inputs": [
        {
          "internalType": "uint256",
          "name": "_data",
          "type": "uint256"
        }
      ],
      "name": "findHash",
      "outputs": [
        {
          "internalType": "bytes32",
          "name": "",
          "type": "bytes32"
        }
      ],
      "stateMutability": "pure",
      "type": "function"
    },
    {
      "inputs": [
        {
          "internalType": "string",
          "name": "_data",
          "type": "string"
        }
      ],
      "name": "findHash",
      "outputs": [
        {
          "internalType": "bytes32",
          "name": "",
          "type": "bytes32"
        }
      ],
      "stateMutability": "pure",
      "type": "function"
    },
    {
      "inputs": [
        {
          "internalType": "address",
          "name": "_data",
          "type": "address"
        }
      ],
      "name": "findHash",
      "outputs": [
        {
          "internalType": "bytes32",
          "name": "",
          "type": "bytes32"
        }
      ],
      "stateMutability": "pure",
      "type": "function"
    },
    {
      "inputs": [
        {
          "internalType": "uint256[]",
          "name": "_array",
          "type": "uint256[]"
        }
      ],
      "name": "getArraySum",
      "outputs": [
        {
          "internalType": "uint256",
          "name": "sum",
          "type": "uint256"
        }
      ],
      "stateMutability": "pure",
      "type": "function"
    },
    {
      "inputs": [
        {
          "internalType": "address payable",
          "name": "_to",
          "type": "address"
        }
      ],
      "name": "withdraw",
      "outputs": [],
      "stateMutability": "payable",
      "type": "function"
    }
  ],
  "bytecode": "0x60806040523480156200001157600080fd5b5060405162004e2138038062004e21833981016040819052620000349162000270565b620000416000826200015c565b6001600160a01b0381166000908152600360205260408120805460ff1916600117905562000091907fcaa7f6290f33308266ee2988386694ac9bc3612b5df272e3502129925a64f997906200016c565b620000be7f0aaf57387812c7f832412470a57567b5648a930069be49aa9c98d04f88520d3460006200016c565b620000eb7faf290d8680820aad922855f39b306097b20e28774d6c1ad35a20325630c3a02c60006200016c565b620001187fbe9e90431f28bd12a87a51b26b014cab620a8a4819bf73d87369ccbe6800a76c60006200016c565b50600580546001600160a01b039485166001600160a01b031991821617909155600780549385169382169390931790925560088054919093169116179055620002d8565b620001688282620001b7565b5050565b600082815260208190526040808220600101805490849055905190918391839186917fbd79b86ffe0ab8e8776151514217cd7cacd52c909f66475c3af44e129f0b00ff9190a4505050565b6000828152602081815260408083206001600160a01b038516845290915290205460ff1662000168576000828152602081815260408083206001600160a01b03851684529091529020805460ff19166001179055620002133390565b6001600160a01b0316816001600160a01b0316837f2f8788117e7eff1d82e926ec794901d17c78024a50270940304540a733656f0d60405160405180910390a45050565b6001600160a01b03811681146200026d57600080fd5b50565b600080600080608085870312156200028757600080fd5b8451620002948162000257565b6020860151909450620002a78162000257565b6040860151909350620002ba8162000257565b6060860151909250620002cd8162000257565b939692955090935050565b614b3980620002e86000396000f3fe6080604052600436106200030f5760003560e01c806370480275116200019d578063a591afbe11620000e4578063a591afbe1462000aa7578063a6d63e591462000ace578063a72246871462000af3578063ac9650d81462000b15578063c0d955d61462000b49578063cf784eda1462000b6e578063d1e671671462000b9f578063d547741f1462000c1d578063da3e33971462000c42578063e18007621462000c67578063eaad46f51462000cb2578063ec87621c1462000cd7578063ee54d54f1462000d0d578063f5537ede1462000d32578063fb3c0d701462000d5757600080fd5b80637048027514620008565780637065cb48146200087b57806370c7510714620008a0578063785e9e8614620008c55780637b10399914620008e75780637ecebe00146200090957806388257567146200093a5780638bbab5c7146200095f5780638d846f2c146200099557806391d1485414620009c6578063920fd17814620009eb578063926a694d1462000a1057806394343cd21462000a355780639ea693501462000a6b578063a217fddf1462000a9057600080fd5b806330772c10116200026257806330772c1014620005bb5780633098b74b146200060b578063351c3d0b146200063057806336568abe146200066157806337d027b814620006865780633fc1681014620006b757806345e0f75314620006dc578063494101ff14620007015780634c91b44e146200072657806351cff8d9146200075c578063546fcaa414620007735780635cbd99d4146200079857806364a2f7d914620007bd578063666e1b3914620007f15780636e905496146200082557600080fd5b806301ffc9a71462000357578063055ee0701462000391578063125bfb6614620003d1578063173825d914620003f857806318cf2834146200041d578063237c9db314620004425780632384e1051462000473578063248a9ca314620004a957806324d7806c14620004dd57806327fa7a20146200050257806329312a9c14620005275780632aef0c30146200054c5780632d41d55914620005715780632f2ff15d146200059657600080fd5b3662000352577f88a5966d370b9919b20f3e2c13ff65706f196a4e32cc2c12bf57088f8852587433346040516200034892919062003786565b60405180910390a1005b600080fd5b3480156200036457600080fd5b506200037c620003763660046200379f565b62000d7c565b60405190151581526020015b60405180910390f35b3480156200039e57600080fd5b50620003c2620003b0366004620037cb565b60096020526000908152604090205481565b60405190815260200162000388565b348015620003de57600080fd5b50620003f6620003f0366004620037fb565b62000d8f565b005b3480156200040557600080fd5b506200037c6200041736600462003841565b62000e48565b3480156200042a57600080fd5b50620003c260008051602062004abd83398151915281565b3480156200044f57600080fd5b50620003c26200046136600462003841565b60126020526000908152604090205481565b3480156200048057600080fd5b50620003c27fcfa8166f1bb1b8818c3767a9ffd776afbbe3409a468070bb860831e01b56549981565b348015620004b657600080fd5b50620003c2620004c8366004620037cb565b60009081526020819052604090206001015490565b348015620004ea57600080fd5b506200037c620004fc36600462003841565b62000eb0565b3480156200050f57600080fd5b50620003f66200052136600462003920565b62000ebe565b3480156200053457600080fd5b50620003f6620005463660046200396a565b62001191565b3480156200055957600080fd5b50620003f66200056b36600462003999565b62001381565b3480156200057e57600080fd5b50620003f662000590366004620039bc565b62001463565b348015620005a357600080fd5b50620003f6620005b5366004620039fa565b62001763565b348015620005c857600080fd5b50620005e0620005da36600462003841565b6200178d565b604080516001600160a01b039095168552602085019390935291830152606082015260800162000388565b3480156200061857600080fd5b50620003c26200062a36600462003a2d565b62001985565b3480156200063d57600080fd5b50620003c26200064f366004620037cb565b600a6020526000908152604090205481565b3480156200066e57600080fd5b50620003f662000680366004620039fa565b620019da565b3480156200069357600080fd5b50600854620006a8906001600160a01b031681565b60405162000388919062003add565b348015620006c457600080fd5b50620003f6620006d636600462003b00565b62001a5c565b348015620006e957600080fd5b50620006a8620006fb36600462003841565b62001aa8565b3480156200070e57600080fd5b50620003c262000720366004620037cb565b62001da1565b3480156200073357600080fd5b50620003c27fbe9e90431f28bd12a87a51b26b014cab620a8a4819bf73d87369ccbe6800a76c81565b620003f66200076d36600462003841565b62001ddd565b3480156200078057600080fd5b50620003f66200079236600462003b28565b62001ea7565b348015620007a557600080fd5b50620003f6620007b736600462003841565b62002057565b348015620007ca57600080fd5b506200037c620007dc366004620037cb565b600b6020526000908152604090205460ff1681565b348015620007fe57600080fd5b506200037c6200081036600462003841565b60036020526000908152604090205460ff1681565b3480156200083257600080fd5b50620003c262000844366004620037cb565b600e6020526000908152604090205481565b3480156200086357600080fd5b50620003f66200087536600462003841565b620020a1565b3480156200088857600080fd5b506200037c6200089a36600462003841565b620020fe565b348015620008ad57600080fd5b50620003c2620008bf36600462003b52565b62002162565b348015620008d257600080fd5b50600554620006a8906001600160a01b031681565b348015620008f457600080fd5b50600754620006a8906001600160a01b031681565b3480156200091657600080fd5b50620003c26200092836600462003841565b60046020526000908152604090205481565b3480156200094757600080fd5b50620003f66200095936600462003999565b62002177565b3480156200096c57600080fd5b50620003c27f043620c1e1c33ecf60d9dadc62571b96554338b68ef3636e715e52a286bea92e81565b348015620009a257600080fd5b50620003c2620009b4366004620037cb565b600f6020526000908152604090205481565b348015620009d357600080fd5b506200037c620009e5366004620039fa565b620021c5565b348015620009f857600080fd5b50620003c262000a0a36600462003841565b620021ee565b34801562000a1d57600080fd5b50620003c260008051602062004a9d83398151915281565b34801562000a4257600080fd5b50620003c27f8ff5d84bbad5f252f2ee1916646e221e55645205d2f803ebe6a7d6ba8fa4185d81565b34801562000a7857600080fd5b50620003f662000a8a36600462003999565b62002211565b34801562000a9d57600080fd5b50620003c2600081565b34801562000ab457600080fd5b5062000abf620024f4565b60405162000388919062003b8a565b34801562000adb57600080fd5b50620003f662000aed36600462003bd9565b62002507565b34801562000b0057600080fd5b50600654620006a8906001600160a01b031681565b34801562000b2257600080fd5b5062000b3a62000b3436600462003c24565b620025c3565b60405162000388919062003cf1565b34801562000b5657600080fd5b50620003f662000b6836600462003d57565b620026ca565b34801562000b7b57600080fd5b50620003c262000b8d366004620037cb565b6000908152600f602052604090205490565b34801562000bac57600080fd5b5062000bf662000bbe3660046200396a565b601360209081526000928352604080842090915290825290208054600182015460028301546003909301549192909160ff9091169084565b60408051948552602085019390935290151591830191909152606082015260800162000388565b34801562000c2a57600080fd5b50620003f662000c3c366004620039fa565b620028ea565b34801562000c4f57600080fd5b50620003f662000c61366004620037fb565b62002914565b34801562000c7457600080fd5b5062000c8c62000c86366004620037cb565b62002976565b604080516001600160a01b03909416845260208401929092529082015260600162000388565b34801562000cbf57600080fd5b50620003f662000cd136600462003da8565b62002a8a565b34801562000ce457600080fd5b50620003c27faf290d8680820aad922855f39b306097b20e28774d6c1ad35a20325630c3a02c81565b34801562000d1a57600080fd5b506200037c62000d2c36600462003841565b62002b0b565b34801562000d3f57600080fd5b50620003f662000d51366004620037fb565b62002b28565b34801562000d6457600080fd5b50620003f662000d7636600462003de5565b62002b8a565b600062000d898262002c3b565b92915050565b3360009081526003602052604090205460ff1662000dca5760405162461bcd60e51b815260040162000dc19062003e3d565b60405180910390fd5b6040516323b872dd60e01b81526001600160a01b038416906323b872dd9062000dfc9085903090869060040162003e84565b6020604051808303816000875af115801562000e1c573d6000803e3d6000fd5b505050506040513d601f19601f8201168201806040525081019062000e42919062003ea8565b50505050565b3360009081526003602052604081205460ff1662000e7a5760405162461bcd60e51b815260040162000dc19062003e3d565b6001600160a01b0382166000908152600360205260409020805460ff1916905562000ea760018362002c72565b50600192915050565b600062000d898183620021c5565b81600062000ecc8262001da1565b6000838152600a60205260408120549192500362000efe5760405162461bcd60e51b815260040162000dc19062003ec8565b62000f1960008051602062004a9d83398151915233620021c5565b62000f385760405162461bcd60e51b815260040162000dc19062003f15565b600062000f458562001da1565b336000908152601360209081526040808320848452909152902060028101549192509060ff1662000fc55760405162461bcd60e51b815260206004820152602360248201527f52414841543a20436c61696d20686173206e6f74206265656e2072656c65617360448201526232b21760e91b606482015260840162000dc1565b4281600301541015620010255760405162461bcd60e51b815260206004820152602160248201527f52414841543a20436c61696d2068617320616c726561647920657870697265646044820152601760f91b606482015260840162000dc1565b6000620010328662002162565b33600090815260136020908152604080832087845290915290206001015490915081146200109f5760405162461bcd60e51b81526020600482015260196024820152782920a420aa1d1027aa28103234b2103737ba1036b0ba31b41760391b604482015260640162000dc1565b620010af87836000015462002c90565b815460028301805460ff191690556000808455600384015560055460405163a9059cbb60e01b81526001600160a01b039091169063a9059cbb90620010fb903390859060040162003786565b6020604051808303816000875af11580156200111b573d6000803e3d6000fd5b505050506040513d601f19601f8201168201806040525081019062001141919062003ea8565b506200114f33898362002d04565b604051818152889033907fe4de809bf00bba73c562150b76ba81e5af05183458342bfdb09a7c9e303813e5906020015b60405180910390a35050505050505050565b6200119e600033620021c5565b620011bd5760405162461bcd60e51b815260040162000dc19062003f5f565b6007546001600160a01b03166338a699a4620011d984620021ee565b6040518263ffffffff1660e01b8152600401620011f891815260200190565b602060405180830381865afa15801562001216573d6000803e3d6000fd5b505050506040513d601f19601f820116820180604052508101906200123c919062003ea8565b6200128a5760405162461bcd60e51b815260206004820152601d60248201527f76656e646f722077616c6c6574206e6f7420726567697374657265642e000000604482015260640162000dc1565b6006546007546001600160a01b039182169163095ea7b3911663bde87f2e620012b386620021ee565b6040518263ffffffff1660e01b8152600401620012d291815260200190565b602060405180830381865afa158015620012f0573d6000803e3d6000fd5b505050506040513d601f19601f8201168201806040525081019062001316919062003f96565b836040518363ffffffff1660e01b81526004016200133692919062003786565b6020604051808303816000875af115801562001356573d6000803e3d6000fd5b505050506040513d601f19601f820116820180604052508101906200137c919062003ea8565b505050565b6200138e600033620021c5565b620013ad5760405162461bcd60e51b815260040162000dc19062003f5f565b816000620013bb8262001da1565b6000838152600a602052604081205491925003620013ed5760405162461bcd60e51b815260040162000dc19062003ec8565b6000848152600a6020908152604080832054868452600f90925282208054919283926200141c90849062003fcc565b90915550506000858152600a6020908152604080832083905560099091529020546200144a90829062003fe2565b6000958652600960205260409095209490945550505050565b826000620014718262001da1565b6000838152600a602052604081205491925003620014a35760405162461bcd60e51b815260040162000dc19062003ec8565b620014be60008051602062004abd83398151915233620021c5565b6200151f5760405162461bcd60e51b815260206004820152602a60248201527f52414841543a2053656e646572206d75737420626520616e20617574686f72696044820152693d32b21039b2b93b32b960b11b606482015260840162000dc1565b60006200152c8662001da1565b6001600160a01b038816600090815260136020908152604080832084845290915281206003810154929350919003620015b65760405162461bcd60e51b815260206004820152602560248201527f52414841543a20436c61696d20686173206e6f74206265656e2063726561746560448201526419081e595d60da1b606482015260840162000dc1565b62015180851115620016235760405162461bcd60e51b815260206004820152602f60248201527f52414841543a54696d6520546f204c6976652073686f756c64206265206c657360448201526e73207468616e20323420686f75727360881b606482015260840162000dc1565b600381015462001637906201518062003fcc565b421115620016945760405162461bcd60e51b815260206004820152602360248201527f52414841543a20436c61696d206973206f6c646572207468616e20323420686f60448201526275727360e81b606482015260840162000dc1565b600281015460ff1615620016fb5760405162461bcd60e51b815260206004820152602760248201527f52414841543a20436c61696d2068617320616c7265616479206265656e2072656044820152663632b0b9b2b21760c91b606482015260840162000dc1565b600180820187905560028201805460ff191690911790556200171e854262003fcc565b6003820155805460405190815287906001600160a01b038a16907f05ca75b0d90f1dd046ad3b8c1ec4a461042c3d33518b9b67d9feafc7d8d3c6cf906020016200117f565b60008281526020819052604090206001015462001781813362002e73565b6200137c838362002ee2565b6007546000908190819081906001600160a01b031663bde87f2e620017b287620021ee565b6040518263ffffffff1660e01b8152600401620017d191815260200190565b602060405180830381865afa158015620017ef573d6000803e3d6000fd5b505050506040513d601f19601f8201168201806040525081019062001815919062003f96565b600654604051636eb1769f60e11b81523060048201526001600160a01b03808416602483015292965091169063dd62ed3e90604401602060405180830381865afa15801562001868573d6000803e3d6000fd5b505050506040513d601f19601f820116820180604052508101906200188e919062003ff8565b6006546040516370a0823160e01b81529194506001600160a01b0316906370a0823190620018c190879060040162003add565b602060405180830381865afa158015620018df573d6000803e3d6000fd5b505050506040513d601f19601f8201168201806040525081019062001905919062003ff8565b6005546040516370a0823160e01b81529193506001600160a01b0316906370a08231906200193890889060040162003add565b602060405180830381865afa15801562001956573d6000803e3d6000fd5b505050506040513d601f19601f820116820180604052508101906200197c919062003ff8565b90509193509193565b6000805b8251811015620019d457828181518110620019a857620019a862004012565b602002602001015182620019bd919062003fcc565b915080620019cb8162004028565b91505062001989565b50919050565b6001600160a01b038116331462001a4c5760405162461bcd60e51b815260206004820152602f60248201527f416363657373436f6e74726f6c3a2063616e206f6e6c792072656e6f756e636560448201526e103937b632b9903337b91039b2b63360891b606482015260840162000dc1565b62001a58828262002f6a565b5050565b62001a69600033620021c5565b62001a885760405162461bcd60e51b815260040162000dc19062003f5f565b6000918252600b6020526040909120805460ff1916911515919091179055565b600062001ab68133620021c5565b62001ad55760405162461bcd60e51b815260040162000dc19062003f5f565b60008062001ae384620021ee565b600754604051635ef43f9760e11b8152600481018390529192506000916001600160a01b039091169063bde87f2e90602401602060405180830381865afa15801562001b33573d6000803e3d6000fd5b505050506040513d601f19601f8201168201806040525081019062001b59919062003f96565b90506001600160a01b0381161562001b745780925062001c42565b3060405162001b839062003778565b62001b8f919062003add565b604051809103906000f08015801562001bac573d6000803e3d6000fd5b506007549093506001600160a01b031663b3fd13a962001bcc87620021ee565b6040516001600160e01b031960e084901b16815260048101919091526001600160a01b03861660248201526044016020604051808303816000875af115801562001c1a573d6000803e3d6000fd5b505050506040513d601f19601f8201168201806040525081019062001c40919062003ea8565b505b604051630e0cb96960e31b81526001600160a01b03841690637065cb489062001c7090889060040162003add565b6020604051808303816000875af115801562001c90573d6000803e3d6000fd5b505050506040513d601f19601f8201168201806040525081019062001cb6919062003ea8565b5062001cd260008051602062004a9d8339815191528662001763565b67016345785d8a0000856001600160a01b031631101562001d98576000856001600160a01b03166702c68af0bb14000060405160006040518083038185875af1925050503d806000811462001d44576040519150601f19603f3d011682016040523d82523d6000602084013e62001d49565b606091505b505090508062001d965760405162461bcd60e51b81526020600482015260176024820152762930b430ba103732b2b2399036b7b9329032ba3432b91760491b604482015260640162000dc1565b505b50909392505050565b600062001dae8262002fd2565b60405160200162001dc0919062004044565b604051602081830303815290604052805190602001209050919050565b62001dea600033620021c5565b62001e095760405162461bcd60e51b815260040162000dc19062003f5f565b6000816001600160a01b03164760405160006040518083038185875af1925050503d806000811462001e58576040519150601f19603f3d011682016040523d82523d6000602084013e62001e5d565b606091505b505090508062001a585760405162461bcd60e51b81526020600482015260146024820152732330b4b632b2103a379039b2b7321022ba3432b960611b604482015260640162000dc1565b82600062001eb58262001da1565b6000838152600a60205260408120549192500362001ee75760405162461bcd60e51b815260040162000dc19062003ec8565b62001ef4600033620021c5565b62001f135760405162461bcd60e51b815260040162000dc19062003f5f565b62001f1e8462002b0b565b62001f775760405162461bcd60e51b815260206004820152602260248201527f5472616e7366657220746f206d7573742062652076656e646f72206164647265604482015261737360f01b606482015260840162000dc1565b62001f83858462002c90565b62001f9084868562002d04565b60055460405163a9059cbb60e01b81526001600160a01b039091169063a9059cbb9062001fc4908790879060040162003786565b6020604051808303816000875af115801562001fe4573d6000803e3d6000fd5b505050506040513d601f19601f820116820180604052508101906200200a919062003ea8565b5084846001600160a01b03167fe4de809bf00bba73c562150b76ba81e5af05183458342bfdb09a7c9e303813e5856040516200204891815260200190565b60405180910390a35050505050565b62002064600033620021c5565b620020835760405162461bcd60e51b815260040162000dc19062003f5f565b6200209e60008051602062004abd8339815191528262001763565b50565b620020ae600033620021c5565b620020cd5760405162461bcd60e51b815260040162000dc19062003f5f565b620020da60008262001763565b6001600160a01b03166000908152600360205260409020805460ff19166001179055565b3360009081526003602052604081205460ff16620021305760405162461bcd60e51b815260040162000dc19062003e3d565b6001600160a01b0382166000908152600360205260409020805460ff1916600190811790915562000ea79083620030f2565b60008160405160200162001dc0919062004044565b6000828152600f6020526040812080548392906200219790849062003fcc565b90915550506000828152600e602052604081208054839290620021bc90849062003fcc565b90915550505050565b6000918252602082815260408084206001600160a01b0393909316845291905290205460ff1690565b6040516001600160601b0319606083901b16602082015260009060340162001dc0565b8160006200221f8262001da1565b6000838152600a602052604081205491925003620022515760405162461bcd60e51b815260040162000dc19062003ec8565b6200226c60008051602062004a9d83398151915233620021c5565b6200228b5760405162461bcd60e51b815260040162000dc19062003f15565b600860009054906101000a90046001600160a01b03166001600160a01b031663b8f7a6656040518163ffffffff1660e01b8152600401602060405180830381865afa158015620022df573d6000803e3d6000fd5b505050506040513d601f19601f8201168201806040525081019062002305919062003ea8565b620023795760405162461bcd60e51b815260206004820152603f60248201527f5468697320726573706f6e736520686173206e6f74206265656e20616374697660448201527f61746564207965742c20706c6561736520636f6e746163742061646d696e2e00606482015260840162000dc1565b6000848152600b602052604090205460ff1615620023e65760405162461bcd60e51b8152602060048201526024808201527f43616e6e6f7420636c61696d2066726f6d2062616e6b65642062656e656669636044820152636961727960e01b606482015260840162000dc1565b620023f2338462003109565b6000620023ff8562001da1565b6000868152600a6020526040902054909150841115620024885760405162461bcd60e51b815260206004820152603c60248201527f52414841543a20416d6f756e742072657175657374656420697320677265617460448201527f6572207468616e2062656e65666963696172792062616c616e63652e00000000606482015260840162000dc1565b33600090815260136020908152604080832084845282529182902060028101805460ff191690558681554260038201559151868152879132917f79ef0b2282f5e45718748b37d5a89727c1544ad2f78b126efa97c32ac1f1d232910160405180910390a3505050505050565b606062002502600162003260565b905090565b3360009081526003602052604090205460ff16620025395760405162461bcd60e51b815260040162000dc19062003e3d565b6006546001600160a01b03166200256657600680546001600160a01b0319166001600160a01b0386161790555b6200257384848362000d8f565b6000828152600f6020526040812080548392906200259390849062003fcc565b90915550506000828152600e602052604081208054839290620025b890849062003fcc565b909155505050505050565b6060816001600160401b03811115620025e057620025e062003861565b6040519080825280602002602001820160405280156200261557816020015b6060815260200190600190039081620025ff5790505b50905060005b82811015620026c3576200268d308585848181106200263e576200263e62004012565b905060200281019062002652919062004062565b8080601f0160208091040260200160405190810160405280939291908181526020018383808284376000920191909152506200326f92505050565b828281518110620026a257620026a262004012565b60200260200101819052508080620026ba9062004028565b9150506200261b565b5092915050565b620026d7600033620021c5565b620026f65760405162461bcd60e51b815260040162000dc19062003f5f565b6000620027038462002162565b6007549091506001600160a01b03166338a699a4620027228562001da1565b6040518263ffffffff1660e01b81526004016200274191815260200190565b602060405180830381865afa1580156200275f573d6000803e3d6000fd5b505050506040513d601f19601f8201168201806040525081019062002785919062003ea8565b620027d15760405162461bcd60e51b815260206004820152601b60248201527a2132b732b334b1b4b0b93c903737ba103932b3b4b9ba32b932b21760291b604482015260640162000dc1565b3360009081526012602052604081208054849290620027f290849062003fcc565b90915550506000818152600f6020526040902054821115620028765760405162461bcd60e51b815260206004820152603660248201527f52414841543a20416d6f756e742069732067726561746572207468616e2072656044820152751b585a5b9a5b99c8141c9bda9958dd08109d5919d95d60521b606482015260840162000dc1565b6000818152600f6020526040812080548492906200289690849062003fe2565b90915550620028a89050838362003297565b82817f707197b34e0edb88707154f8a8ea9f3c8d891eb60a28dac25cc79bf23c3aa5c184604051620028dc91815260200190565b60405180910390a350505050565b60008281526020819052604090206001015462002908813362002e73565b6200137c838362002f6a565b3360009081526003602052604090205460ff16620029465760405162461bcd60e51b815260040162000dc19062003e3d565b60405163095ea7b360e01b81526001600160a01b0384169063095ea7b39062000dfc908590859060040162003786565b600754600090819081906001600160a01b031663bde87f2e620029998662001da1565b6040518263ffffffff1660e01b8152600401620029b891815260200190565b602060405180830381865afa158015620029d6573d6000803e3d6000fd5b505050506040513d601f19601f82011682018060405250810190620029fc919062003f96565b6006546040516370a0823160e01b81529194506001600160a01b0316906370a082319062002a2f90869060040162003add565b602060405180830381865afa15801562002a4d573d6000803e3d6000fd5b505050506040513d601f19601f8201168201806040525081019062002a73919062003ff8565b6000948552600a6020526040909420549294915050565b62002a97600033620021c5565b62002ab65760405162461bcd60e51b815260040162000dc19062003f5f565b600062002ac38262002162565b905062002af17fbe9e90431f28bd12a87a51b26b014cab620a8a4819bf73d87369ccbe6800a76c8462001763565b600081815260106020526040902062000e429084620030f2565b600062000d8960008051602062004a9d83398151915283620021c5565b3360009081526003602052604090205460ff1662002b5a5760405162461bcd60e51b815260040162000dc19062003e3d565b60405163a9059cbb60e01b81526001600160a01b0384169063a9059cbb9062000dfc908590859060040162003786565b3360009081526003602052604090205460ff1662002bbc5760405162461bcd60e51b815260040162000dc19062003e3d565b6040516323b872dd60e01b81526001600160a01b038516906323b872dd9062002bee9086908690869060040162003e84565b6020604051808303816000875af115801562002c0e573d6000803e3d6000fd5b505050506040513d601f19601f8201168201806040525081019062002c34919062003ea8565b5050505050565b60006001600160e01b03198216637965db0b60e01b148062000d8957506301ffc9a760e01b6001600160e01b031983161462000d89565b600062002c89836001600160a01b038416620032f1565b9392505050565b81600062002c9e8262001da1565b6000838152600a60205260408120549192500362002cd05760405162461bcd60e51b815260040162000dc19062003ec8565b6000848152600a602052604090205462002cec90849062003fe2565b6000948552600a602052604090942093909355505050565b6007546000906001600160a01b031663bde87f2e62002d2386620021ee565b6040518263ffffffff1660e01b815260040162002d4291815260200190565b602060405180830381865afa15801562002d60573d6000803e3d6000fd5b505050506040513d601f19601f8201168201806040525081019062002d86919062003f96565b6006546007549192506001600160a01b038084169263f5537ede928216911663bde87f2e62002db58862001da1565b6040518263ffffffff1660e01b815260040162002dd491815260200190565b602060405180830381865afa15801562002df2573d6000803e3d6000fd5b505050506040513d601f19601f8201168201806040525081019062002e18919062003f96565b856040518463ffffffff1660e01b815260040162002e399392919062003e84565b600060405180830381600087803b15801562002e5457600080fd5b505af115801562002e69573d6000803e3d6000fd5b5050505050505050565b62002e7f8282620021c5565b62001a585762002e9a816001600160a01b03166014620033f5565b62002ea7836020620033f5565b60405160200162002eba929190620040b2565b60408051601f198184030181529082905262461bcd60e51b825262000dc19160040162004125565b62002eee8282620021c5565b62001a58576000828152602081815260408083206001600160a01b03851684529091529020805460ff1916600117905562002f263390565b6001600160a01b0316816001600160a01b0316837f2f8788117e7eff1d82e926ec794901d17c78024a50270940304540a733656f0d60405160405180910390a45050565b62002f768282620021c5565b1562001a58576000828152602081815260408083206001600160a01b0385168085529252808320805460ff1916905551339285917ff6391f5c32d9c69d2a47ea670b442974b53935d1edc7fd64eb21e047a839171b9190a45050565b60608160000362002ffa5750506040805180820190915260018152600360fc1b602082015290565b8160005b81156200302a5780620030118162004028565b9150620030229050600a8362004150565b915062002ffe565b6000816001600160401b0381111562003047576200304762003861565b6040519080825280601f01601f19166020018201604052801562003072576020820181803683370190505b5090505b8415620030ea576200308a60018362003fe2565b915062003099600a8662004167565b620030a690603062003fcc565b60f81b818381518110620030be57620030be62004012565b60200101906001600160f81b031916908160001a905350620030e2600a8662004150565b945062003076565b949350505050565b600062002c89836001600160a01b038416620035ae565b6006546007546000916001600160a01b03908116916370a08231911663bde87f2e6200313587620021ee565b6040518263ffffffff1660e01b81526004016200315491815260200190565b602060405180830381865afa15801562003172573d6000803e3d6000fd5b505050506040513d601f19601f8201168201806040525081019062003198919062003f96565b6040518263ffffffff1660e01b8152600401620031b6919062003add565b602060405180830381865afa158015620031d4573d6000803e3d6000fd5b505050506040513d601f19601f82011682018060405250810190620031fa919062003ff8565b9050818110156200137c5760405162461bcd60e51b815260206004820152602960248201527f56656e646f7220646f6573206e6f74206861766520656e6f7567682063617368604482015268103130b630b731b29760b91b606482015260840162000dc1565b6060600062002c898362003600565b606062002c89838360405180606001604052806027815260200162004add602791396200365e565b6000828152600a6020526040902054620032b390829062003fcc565b6000838152600a6020908152604080832093909355600990522054620032db90829062003fcc565b6000928352600960205260409092209190915550565b60008181526001830160205260408120548015620033ea5760006200331860018362003fe2565b85549091506000906200332e9060019062003fe2565b90508181146200339a57600086600001828154811062003352576200335262004012565b906000526020600020015490508087600001848154811062003378576200337862004012565b6000918252602080832090910192909255918252600188019052604090208390555b8554869080620033ae57620033ae6200417e565b60019003818190600052602060002001600090559055856001016000868152602001908152602001600020600090556001935050505062000d89565b600091505062000d89565b606060006200340683600262004194565b6200341390600262003fcc565b6001600160401b038111156200342d576200342d62003861565b6040519080825280601f01601f19166020018201604052801562003458576020820181803683370190505b509050600360fc1b8160008151811062003476576200347662004012565b60200101906001600160f81b031916908160001a905350600f60fb1b81600181518110620034a857620034a862004012565b60200101906001600160f81b031916908160001a9053506000620034ce84600262004194565b620034db90600162003fcc565b90505b60018111156200355d576f181899199a1a9b1b9c1cb0b131b232b360811b85600f166010811062003513576200351362004012565b1a60f81b8282815181106200352c576200352c62004012565b60200101906001600160f81b031916908160001a90535060049490941c936200355581620041b6565b9050620034de565b50831562002c895760405162461bcd60e51b815260206004820181905260248201527f537472696e67733a20686578206c656e67746820696e73756666696369656e74604482015260640162000dc1565b6000818152600183016020526040812054620035f75750815460018181018455600084815260208082209093018490558454848252828601909352604090209190915562000d89565b50600062000d89565b6060816000018054806020026020016040519081016040528092919081815260200182805480156200365257602002820191906000526020600020905b8154815260200190600101908083116200363d575b50505050509050919050565b6060833b620036bf5760405162461bcd60e51b815260206004820152602660248201527f416464726573733a2064656c65676174652063616c6c20746f206e6f6e2d636f6044820152651b9d1c9858dd60d21b606482015260840162000dc1565b600080856001600160a01b031685604051620036dc919062004044565b600060405180830381855af49150503d806000811462003719576040519150601f19603f3d011682016040523d82523d6000602084013e6200371e565b606091505b5091509150620037308282866200373a565b9695505050505050565b606083156200374b57508162002c89565b8251156200375c5782518084602001fd5b8160405162461bcd60e51b815260040162000dc1919062004125565b6108cc80620041d183390190565b6001600160a01b03929092168252602082015260400190565b600060208284031215620037b257600080fd5b81356001600160e01b03198116811462002c8957600080fd5b600060208284031215620037de57600080fd5b5035919050565b6001600160a01b03811681146200209e57600080fd5b6000806000606084860312156200381157600080fd5b83356200381e81620037e5565b925060208401356200383081620037e5565b929592945050506040919091013590565b6000602082840312156200385457600080fd5b813562002c8981620037e5565b634e487b7160e01b600052604160045260246000fd5b604051601f8201601f191681016001600160401b0381118282101715620038a257620038a262003861565b604052919050565b600082601f830112620038bc57600080fd5b81356001600160401b03811115620038d857620038d862003861565b620038ed601f8201601f191660200162003877565b8181528460208386010111156200390357600080fd5b816020850160208301376000918101602001919091529392505050565b600080604083850312156200393457600080fd5b8235915060208301356001600160401b038111156200395257600080fd5b6200396085828601620038aa565b9150509250929050565b600080604083850312156200397e57600080fd5b82356200398b81620037e5565b946020939093013593505050565b60008060408385031215620039ad57600080fd5b50508035926020909101359150565b60008060008060808587031215620039d357600080fd5b8435620039e081620037e5565b966020860135965060408601359560600135945092505050565b6000806040838503121562003a0e57600080fd5b82359150602083013562003a2281620037e5565b809150509250929050565b6000602080838503121562003a4157600080fd5b82356001600160401b038082111562003a5957600080fd5b818501915085601f83011262003a6e57600080fd5b81358181111562003a835762003a8362003861565b8060051b915062003a9684830162003877565b818152918301840191848101908884111562003ab157600080fd5b938501935b8385101562003ad15784358252938501939085019062003ab6565b98975050505050505050565b6001600160a01b0391909116815260200190565b80151581146200209e57600080fd5b6000806040838503121562003b1457600080fd5b82359150602083013562003a228162003af1565b60008060006060848603121562003b3e57600080fd5b8335925060208401356200383081620037e5565b60006020828403121562003b6557600080fd5b81356001600160401b0381111562003b7c57600080fd5b620030ea84828501620038aa565b6020808252825182820181905260009190848201906040850190845b8181101562003bcd5783516001600160a01b03168352928401929184019160010162003ba6565b50909695505050505050565b6000806000806080858703121562003bf057600080fd5b843562003bfd81620037e5565b9350602085013562003c0f81620037e5565b93969395505050506040820135916060013590565b6000806020838503121562003c3857600080fd5b82356001600160401b038082111562003c5057600080fd5b818501915085601f83011262003c6557600080fd5b81358181111562003c7557600080fd5b8660208260051b850101111562003c8b57600080fd5b60209290920196919550909350505050565b60005b8381101562003cba57818101518382015260200162003ca0565b50506000910152565b6000815180845262003cdd81602086016020860162003c9d565b601f01601f19169290920160200192915050565b6000602080830181845280855180835260408601915060408160051b870101925083870160005b8281101562003d4a57603f1988860301845262003d3785835162003cc3565b9450928501929085019060010162003d18565b5092979650505050505050565b60008060006060848603121562003d6d57600080fd5b83356001600160401b0381111562003d8457600080fd5b62003d9286828701620038aa565b9660208601359650604090950135949350505050565b6000806040838503121562003dbc57600080fd5b823562003dc981620037e5565b915060208301356001600160401b038111156200395257600080fd5b6000806000806080858703121562003dfc57600080fd5b843562003e0981620037e5565b9350602085013562003e1b81620037e5565b9250604085013562003e2d81620037e5565b9396929550929360600135925050565b60208082526027908201527f4f6e6c79206f776e65722063616e20657865637574652074686973207472616e60408201526639b0b1ba34b7b760c91b606082015260800190565b6001600160a01b039384168152919092166020820152604081019190915260600190565b60006020828403121562003ebb57600080fd5b815162002c898162003af1565b6020808252602d908201527f52414841543a204e6f20616e7920746f6b656e2077617320697373756564207460408201526c37903a3434b990373ab6b132b960991b606082015260800190565b6020808252602a908201527f52414841543a2053656e646572204d757374206265206120726567697374657260408201526932b2103b32b73237b91760b11b606082015260800190565b6020808252601f908201527f52414841543a2053656e646572206d75737420626520616e2061646d696e2e00604082015260600190565b60006020828403121562003fa957600080fd5b815162002c8981620037e5565b634e487b7160e01b600052601160045260246000fd5b8082018082111562000d895762000d8962003fb6565b8181038181111562000d895762000d8962003fb6565b6000602082840312156200400b57600080fd5b5051919050565b634e487b7160e01b600052603260045260246000fd5b6000600182016200403d576200403d62003fb6565b5060010190565b600082516200405881846020870162003c9d565b9190910192915050565b6000808335601e198436030181126200407a57600080fd5b8301803591506001600160401b038211156200409557600080fd5b602001915036819003821315620040ab57600080fd5b9250929050565b76020b1b1b2b9b9a1b7b73a3937b61d1030b1b1b7bab73a1604d1b815260008351620040e681601785016020880162003c9d565b7001034b99036b4b9b9b4b733903937b6329607d1b60179184019182015283516200411981602884016020880162003c9d565b01602801949350505050565b60208152600062002c89602083018462003cc3565b634e487b7160e01b600052601260045260246000fd5b6000826200416257620041626200413a565b500490565b6000826200417957620041796200413a565b500690565b634e487b7160e01b600052603160045260246000fd5b6000816000190483118215151615620041b157620041b162003fb6565b500290565b600081620041c857620041c862003fb6565b50600019019056fe608060405234801561001057600080fd5b506040516108cc3803806108cc83398101604081905261002f91610056565b6001600160a01b03166000908152600260205260409020805460ff19166001179055610086565b60006020828403121561006857600080fd5b81516001600160a01b038116811461007f57600080fd5b9392505050565b610837806100956000396000f3fe608060405234801561001057600080fd5b50600436106100785760003560e01c8063125bfb661461007d578063173825d914610092578063666e1b39146100ba5780637065cb48146100dd578063a591afbe146100f0578063da3e339714610105578063f5537ede14610118578063fb3c0d701461012b575b600080fd5b61009061008b36600461061f565b61013e565b005b6100a56100a036600461065b565b6101ef565b60405190151581526020015b60405180910390f35b6100a56100c836600461065b565b60026020526000908152604090205460ff1681565b6100a56100eb36600461065b565b610253565b6100f86102af565b6040516100b19190610676565b61009061011336600461061f565b6102c0565b61009061012636600461061f565b61031d565b6100906101393660046106c3565b61037a565b3360009081526002602052604090205460ff166101765760405162461bcd60e51b815260040161016d9061070e565b60405180910390fd5b6040516323b872dd60e01b81526001600160a01b038416906323b872dd906101a690859030908690600401610755565b6020604051808303816000875af11580156101c5573d6000803e3d6000fd5b505050506040513d601f19601f820116820180604052508101906101e99190610779565b50505050565b3360009081526002602052604081205460ff1661021e5760405162461bcd60e51b815260040161016d9061070e565b6001600160a01b0382166000908152600260205260408120805460ff191690556102489083610423565b50600190505b919050565b3360009081526002602052604081205460ff166102825760405162461bcd60e51b815260040161016d9061070e565b6001600160a01b0382166000908152600260205260408120805460ff191660011790556102489083610441565b60606102bb6000610456565b905090565b3360009081526002602052604090205460ff166102ef5760405162461bcd60e51b815260040161016d9061070e565b60405163095ea7b360e01b81526001600160a01b0384169063095ea7b3906101a6908590859060040161079b565b3360009081526002602052604090205460ff1661034c5760405162461bcd60e51b815260040161016d9061070e565b60405163a9059cbb60e01b81526001600160a01b0384169063a9059cbb906101a6908590859060040161079b565b3360009081526002602052604090205460ff166103a95760405162461bcd60e51b815260040161016d9061070e565b6040516323b872dd60e01b81526001600160a01b038516906323b872dd906103d990869086908690600401610755565b6020604051808303816000875af11580156103f8573d6000803e3d6000fd5b505050506040513d601f19601f8201168201806040525081019061041c9190610779565b5050505050565b6000610438836001600160a01b03841661046a565b90505b92915050565b6000610438836001600160a01b03841661055d565b60606000610463836105ac565b9392505050565b6000818152600183016020526040812054801561055357600061048e6001836107b4565b85549091506000906104a2906001906107b4565b90508181146105075760008660000182815481106104c2576104c26107d5565b90600052602060002001549050808760000184815481106104e5576104e56107d5565b6000918252602080832090910192909255918252600188019052604090208390555b8554869080610518576105186107eb565b60019003818190600052602060002001600090559055856001016000868152602001908152602001600020600090556001935050505061043b565b600091505061043b565b60008181526001830160205260408120546105a45750815460018181018455600084815260208082209093018490558454848252828601909352604090209190915561043b565b50600061043b565b6060816000018054806020026020016040519081016040528092919081815260200182805480156105fc57602002820191906000526020600020905b8154815260200190600101908083116105e8575b50505050509050919050565b80356001600160a01b038116811461024e57600080fd5b60008060006060848603121561063457600080fd5b61063d84610608565b925061064b60208501610608565b9150604084013590509250925092565b60006020828403121561066d57600080fd5b61043882610608565b6020808252825182820181905260009190848201906040850190845b818110156106b75783516001600160a01b031683529284019291840191600101610692565b50909695505050505050565b600080600080608085870312156106d957600080fd5b6106e285610608565b93506106f060208601610608565b92506106fe60408601610608565b9396929550929360600135925050565b60208082526027908201527f4f6e6c79206f776e65722063616e20657865637574652074686973207472616e60408201526639b0b1ba34b7b760c91b606082015260800190565b6001600160a01b039384168152919092166020820152604081019190915260600190565b60006020828403121561078b57600080fd5b8151801515811461046357600080fd5b6001600160a01b03929092168252602082015260400190565b8181038181111561043b57634e487b7160e01b600052601160045260246000fd5b634e487b7160e01b600052603260045260246000fd5b634e487b7160e01b600052603160045260246000fdfea2646970667358221220904a99079b1f655c867f9a9730dd42d34d04d7666bcea7dce847d3be6c11fc5764736f6c634300081000330aaf57387812c7f832412470a57567b5648a930069be49aa9c98d04f88520d34caa7f6290f33308266ee2988386694ac9bc3612b5df272e3502129925a64f997416464726573733a206c6f772d6c6576656c2064656c65676174652063616c6c206661696c6564a2646970667358221220e8d060b962c14e63571b7267d1bd705b13f09cffc5408c7838c2c03b9fbc0c7264736f6c63430008100033",
  "immutableReferences": {},
  "source": "//SPDX-License-Identifier: LGPL-3.0\r\n//TODO add balance of beneficiary per project\r\n//TODO suspend mobilizer and vendor\r\n//TODO test tokenissue by mobilizer\r\n//TODO test otp set by server account and otp submission by vendor account\r\n//TODO revole roles\r\n\r\npragma solidity ^0.8.16;\r\nimport \"./RahatERC20.sol\";\r\nimport \"./RahatRegistry.sol\";\r\nimport \"./RahatWallet.sol\";\r\nimport \"./RahatTriggerResponse.sol\";\r\nimport \"../libraries/AbstractERC20Func.sol\";\r\n\r\nimport \"@openzeppelin/contracts/access/AccessControl.sol\";\r\nimport \"@openzeppelin/contracts/utils/structs/EnumerableSet.sol\";\r\nimport \"@openzeppelin/contracts/utils/cryptography/ECDSA.sol\";\r\nimport \"@openzeppelin/contracts/utils/Multicall.sol\";\r\n\r\ncontract Rahat is AccessControl, AbstractERC20Func, Multicall {\r\n  using Strings for uint256;\r\n  using EnumerableSet for EnumerableSet.Bytes32Set;\r\n  using EnumerableSet for EnumerableSet.AddressSet;\r\n  using EnumerableSet for EnumerableSet.UintSet;\r\n  using ECDSA for bytes32;\r\n\r\n  //***** Events *********//\r\n  event ClaimedERC20(\r\n    address indexed vendor,\r\n    uint256 indexed beneficiary,\r\n    uint256 amount\r\n  );\r\n  event ClaimApproved(\r\n    address indexed vendor,\r\n    uint256 indexed phone,\r\n    uint256 amount\r\n  );\r\n  event IssuedERC20(\r\n    bytes32 indexed projectId,\r\n    uint256 indexed phone,\r\n    uint256 amount\r\n  );\r\n  event ClaimAcquiredERC20(\r\n    address indexed vendor,\r\n    uint256 indexed beneficiary,\r\n    uint256 amount\r\n  );\r\n  event InvalidSignature(\r\n    bytes signature,\r\n    bytes32 digest,\r\n    address expectedSigner,\r\n    address recoveredSigner\r\n  );\r\n  event Received(address, uint);\r\n\r\n  //event BalanceAdjusted(uint256 indexed phone, uint256 amount, string reason);\r\n\r\n  //***** Constant Variables (Roles) *********//\r\n  bytes32 public constant SERVER_ROLE = keccak256(\"SERVER\");\r\n  bytes32 public constant VENDOR_ROLE = keccak256(\"VENDOR\");\r\n  bytes32 public constant MANAGER_ROLE = keccak256(\"MANAGER\");\r\n  bytes32 public constant MOBILIZER_ROLE = keccak256(\"MOBILIZER\");\r\n  bytes32 public constant ISSUE_TOKEN = keccak256(\"issueToken\");\r\n  bytes32 public constant CREATE_CLAIM = keccak256(\"createClaim\");\r\n  bytes32 public constant GET_TOKENS_FROM_CLAIM = keccak256(\r\n    \"getTokensFromClaim\"\r\n  );\r\n\r\n  mapping(address => uint256) public nonces; //delegated users nonces\r\n\r\n  //***** Variables (State) *********//\r\n  //AidToken public tokenContract;\r\n  RahatERC20 public erc20;\r\n  RahatERC20 public cashToken;\r\n  RahatRegistry public registry;\r\n  RahatTriggerResponse public triggerResponse;\r\n\r\n  ///@notice track total issued tokens of each benefiicary phone\r\n  mapping(uint256 => uint256) public erc20Issued; //phone=>balance\r\n\r\n  /// @notice track balances of each beneficiary phone\r\n  mapping(uint256 => uint256) public erc20Balance; //phone=>balance\r\n\r\n  mapping(uint256 => bool) public isBanked;\r\n\r\n  /// @notice track projectBalances\r\n  //bytes32[] public projectId;\r\n  EnumerableSet.Bytes32Set private projectId;\r\n  mapping(bytes32 => uint256) public totalProjectErc20Issued;\r\n  mapping(bytes32 => uint256) public remainingProjectErc20Balances;\r\n  mapping(bytes32 => EnumerableSet.AddressSet) projectMobilizers;\r\n  mapping(bytes32 => EnumerableSet.AddressSet) projectVendors;\r\n\r\n  mapping(address => uint256) public erc20IssuedBy;\r\n\r\n  struct claim {\r\n    uint256 amount;\r\n    bytes32 otpHash;\r\n    bool isReleased;\r\n    uint256 date;\r\n  }\r\n  /// @dev vendorAddress => phone => claim\r\n  mapping(address => mapping(bytes32 => claim)) public recentERC20Claims;\r\n\r\n  //***** Constructor *********//\r\n  constructor(\r\n    RahatERC20 _erc20,\r\n    RahatRegistry _registry,\r\n    RahatTriggerResponse _triggerResponse,\r\n    address _admin\r\n  ) {\r\n    _setupRole(DEFAULT_ADMIN_ROLE, _admin);\r\n    owner[_admin] = true;\r\n    _setRoleAdmin(SERVER_ROLE, DEFAULT_ADMIN_ROLE);\r\n    _setRoleAdmin(VENDOR_ROLE, DEFAULT_ADMIN_ROLE);\r\n    _setRoleAdmin(MANAGER_ROLE, DEFAULT_ADMIN_ROLE);\r\n    _setRoleAdmin(MOBILIZER_ROLE, DEFAULT_ADMIN_ROLE);\r\n    erc20 = _erc20;\r\n    registry = _registry;\r\n    triggerResponse = _triggerResponse;\r\n  }\r\n\r\n  function supportsInterface(bytes4 interfaceId)\r\n    public\r\n    view\r\n    virtual\r\n    override(AccessControl)\r\n    returns (bool)\r\n  {\r\n    return super.supportsInterface(interfaceId);\r\n  }\r\n\r\n  //***** Modifiers *********//\r\n  modifier OnlyServer() {\r\n    require(\r\n      hasRole(SERVER_ROLE, msg.sender),\r\n      \"RAHAT: Sender must be an authorized server\"\r\n    );\r\n    _;\r\n  }\r\n  modifier OnlyAdmin {\r\n    require(\r\n      hasRole(DEFAULT_ADMIN_ROLE, msg.sender),\r\n      \"RAHAT: Sender must be an admin.\"\r\n    );\r\n    _;\r\n  }\r\n  modifier IsBeneficiary(uint256 _phone) {\r\n    bytes32 _benId = findHash(_phone);\r\n    require(\r\n      erc20Balance[_phone] != 0,\r\n      \"RAHAT: No any token was issued to this number\"\r\n    );\r\n    _;\r\n  }\r\n  modifier OnlyVendor {\r\n    require(\r\n      hasRole(VENDOR_ROLE, msg.sender),\r\n      \"RAHAT: Sender Must be a registered vendor.\"\r\n    );\r\n    _;\r\n  }\r\n  modifier OnlyAdminOrMobilizer {\r\n    require(\r\n      (hasRole(DEFAULT_ADMIN_ROLE, msg.sender) ||\r\n        hasRole(MOBILIZER_ROLE, msg.sender)),\r\n      \"RAHAT: Sender Must be a registered Admin Or Mobilizer.\"\r\n    );\r\n    _;\r\n  }\r\n\r\n  //***** Methods *********//\r\n  //Access Control Management\r\n  /// @notice add admin of the this contract\r\n  /// @param _account address of the new admin\r\n  function addAdmin(address _account) external OnlyAdmin {\r\n    grantRole(DEFAULT_ADMIN_ROLE, _account);\r\n    owner[_account] = true;\r\n  }\r\n\r\n  function isAdmin(address _account) external view returns(bool){\r\n    return hasRole(DEFAULT_ADMIN_ROLE, _account);\r\n  }\r\n\r\n  /// @notice add server account for this contract\r\n  /// @param _account address of the new server account\r\n  function addServer(address _account) external OnlyAdmin {\r\n    grantRole(SERVER_ROLE, _account);\r\n  }\r\n\r\n  /// @notice add vendors\r\n  /// @param _account address of the new vendor\r\n  function addVendor(address payable _account) external OnlyAdmin returns (address) {\r\n    RahatWallet vWallet;\r\n    bytes32 idHash = findHash(_account);\r\n    address vWalletAddress = registry.id2Address(idHash);\r\n    if(vWalletAddress!=address(0)){\r\n      vWallet = RahatWallet(vWalletAddress);\r\n    }\r\n    else {\r\n      vWallet = new RahatWallet(address(this));\r\n      registry.addId2AddressMap(findHash(_account), address(vWallet));\r\n    } \r\n    vWallet.addOwner(_account);\r\n    grantRole(VENDOR_ROLE, _account);\r\n    if(_account.balance < 0.1 ether){\r\n      (bool success,) = _account.call{value: 0.2 ether}(\"\");\r\n      require(success, \"Rahat needs more ether.\");\r\n    }\r\n    return address(vWallet);\r\n  }\r\n\r\n  function isVendor(address _account) public view returns(bool){\r\n    return hasRole(VENDOR_ROLE, _account);\r\n  }\r\n\r\n  /// @notice add vendors\r\n  /// @param _account address of the new vendor\r\n  /// @param _projectId projectId\r\n  function addMobilizer(address _account, string memory _projectId)\r\n    external\r\n    OnlyAdmin\r\n  {\r\n    bytes32 _id = findHash(_projectId);\r\n    grantRole(MOBILIZER_ROLE, _account);\r\n    projectMobilizers[_id].add(_account);\r\n  }\r\n\r\n  /// @notice set IsBanked Beneficiary\r\n  /// @param _phone beneficiary phone number\r\n  /// @param _isBanked true/false\r\n  function setAsBankedBeneficiary(uint256 _phone, bool _isBanked)\r\n    external\r\n    OnlyAdmin\r\n  {\r\n    isBanked[_phone] = _isBanked;\r\n  }\r\n\r\n  // function suspendMobilizer() public {}\r\n\r\n  // function suspendVendor() public {}\r\n\r\n  //Beneficiary Management\r\n  /// @notice suspend the benficiary by deducting all the balance beneficiary owns\r\n  /// @param _phone phone number of the Beneficiary\r\n  /// @param _projectId projectId beneficiary is involved in\r\n  function suspendBeneficiary(uint256 _phone, bytes32 _projectId)\r\n    public\r\n    OnlyAdmin\r\n    IsBeneficiary(_phone)\r\n  {\r\n    //  bytes32 _benId = findHash(_phone);\r\n\r\n    uint256 _balance = erc20Balance[_phone];\r\n    remainingProjectErc20Balances[_projectId] += _balance;\r\n    erc20Balance[_phone] = 0;\r\n    erc20Issued[_phone] = erc20Issued[_phone] - _balance;\r\n  }\r\n\r\n  /// @notice adds the token from beneficiary\r\n  function adjustTokenAdd(uint256 _phone, uint256 _amount) private {\r\n    // bytes32 _benId = findHash(_phone);\r\n    erc20Balance[_phone] = erc20Balance[_phone] + _amount;\r\n    erc20Issued[_phone] = erc20Issued[_phone] + _amount;\r\n    //emit BalanceAdjusted(_phone, _amount, _reason);\r\n  }\r\n\r\n  /// @notice deducts the token from beneficiary\r\n  function adjustTokenDeduct(uint256 _phone, uint256 _amount)\r\n    private\r\n    IsBeneficiary(_phone)\r\n  {\r\n    //bytes32 _benId = findHash(_phone);\r\n    erc20Balance[_phone] = erc20Balance[_phone] - _amount;\r\n    //emit BalanceAdjusted(_phone, _amount, _reason);\r\n  }\r\n\r\n  /// @notice update a project balance.\r\n  /// @notice called by rahatdmin contract\r\n  /// @param _projectId Id of the project to assign budget\r\n  /// @param _projectCapital amount of budget to be added to project\r\n  function updateProjectBudget(bytes32 _projectId, uint256 _projectCapital)\r\n    external\r\n  {\r\n    remainingProjectErc20Balances[_projectId] += _projectCapital;\r\n    totalProjectErc20Issued[_projectId] += _projectCapital;\r\n  }\r\n\r\n  /// @notice get the current balance of project\r\n  function getProjectBalance(bytes32 _projectId)\r\n    external\r\n    view\r\n    returns (uint256 _balance)\r\n  {\r\n    return remainingProjectErc20Balances[_projectId];\r\n  }\r\n\r\n  function verifyVendor(bytes32 _hash, bytes memory _signature)\r\n    internal\r\n    view\r\n    returns (address)\r\n  {\r\n    address _signer = _hash.recover(_signature);\r\n    require(hasRole(VENDOR_ROLE, _signer), \"Signer should be Mobilizer\");\r\n    return _signer;\r\n  }\r\n\r\n  function verifyMobilizer(bytes32 _hash, bytes memory _signature)\r\n    internal\r\n    view\r\n    returns (address)\r\n  {\r\n    address _signer = _hash.recover(_signature);\r\n    require(hasRole(MOBILIZER_ROLE, _signer), \"Signer should be Mobilizer\");\r\n    return _signer;\r\n  }\r\n\r\n  /// @notice Issue tokens to beneficiary\r\n  /// @param _projectId Id of the project beneficiary is involved in\r\n  /// @param _phone phone number of the beneficiary\r\n  /// @param _amount Amount of token to be assigned to beneficiary\r\n  function issueERC20ToBeneficiary(\r\n    string memory _projectId,\r\n    uint256 _phone,\r\n    uint256 _amount\r\n  ) public OnlyAdmin {\r\n    bytes32 _id = findHash(_projectId);\r\n\r\n    //check beneficiary in registry;\r\n    require(registry.exists(findHash(_phone)), \"Beneficiary not registered.\");\r\n    erc20IssuedBy[msg.sender] += _amount;\r\n    require(\r\n      remainingProjectErc20Balances[_id] >= _amount,\r\n      \"RAHAT: Amount is greater than remaining Project Budget\"\r\n    );\r\n    remainingProjectErc20Balances[_id] -= _amount;\r\n    adjustTokenAdd(_phone, _amount);\r\n\r\n    emit IssuedERC20(_id, _phone, _amount);\r\n  }\r\n\r\n  /// @notice request a token to beneficiary by vendor\r\n  /// @param _phone Phone number of beneficiary to whom token is requested\r\n  /// @param _tokens Number of tokens to request\r\n  function createERC20Claim(uint256 _phone, uint256 _tokens)\r\n    public\r\n    IsBeneficiary(_phone)\r\n    OnlyVendor\r\n  {\r\n    require(\r\n      triggerResponse.isLive(),\r\n      \"This response has not been activated yet, please contact admin.\"\r\n    );\r\n    require(!isBanked[_phone], \"Cannot claim from banked beneficiary\");\r\n    \r\n    _verifyVendorCashBalance(msg.sender, _tokens);\r\n\r\n    bytes32 _benId = findHash(_phone);\r\n    require(\r\n      erc20Balance[_phone] >= _tokens,\r\n      \"RAHAT: Amount requested is greater than beneficiary balance.\"\r\n    );\r\n\r\n    claim storage ac = recentERC20Claims[msg.sender][_benId];\r\n    ac.isReleased = false;\r\n    ac.amount = _tokens;\r\n    ac.date = block.timestamp;\r\n    emit ClaimedERC20(tx.origin, _phone, _tokens);\r\n  }\r\n\r\n  /// @notice Approve the requested claim from serverside and set the otp hash\r\n  /// @param _vendor Address of the vendor who requested the token from beneficiary\r\n  /// @param _phone Phone number of the beneficiary, to whom token request was sent\r\n  /// @param _otpHash Hash of OTP sent to beneficiary by server\r\n  /// @param _timeToLive Validity of OTP in seconds\r\n  function approveERC20Claim(\r\n    address _vendor,\r\n    uint256 _phone,\r\n    bytes32 _otpHash,\r\n    uint256 _timeToLive\r\n  ) public IsBeneficiary(_phone) OnlyServer {\r\n    bytes32 _benId = findHash(_phone);\r\n    claim storage ac = recentERC20Claims[_vendor][_benId];\r\n    require(ac.date != 0, \"RAHAT: Claim has not been created yet\");\r\n    require(\r\n      _timeToLive <= 86400,\r\n      \"RAHAT:Time To Live should be less than 24 hours\"\r\n    );\r\n    require(\r\n      block.timestamp <= ac.date + 86400,\r\n      \"RAHAT: Claim is older than 24 hours\"\r\n    );\r\n    require(!ac.isReleased, \"RAHAT: Claim has already been released.\");\r\n    ac.otpHash = _otpHash;\r\n    ac.isReleased = true;\r\n    ac.date = block.timestamp + _timeToLive;\r\n    emit ClaimApproved(_vendor, _phone, ac.amount);\r\n  }\r\n\r\n  /// @notice Retrieve tokens that was requested to beneficiary by entering OTP\r\n  /// @param _phone Phone Number of the beneficiary, to whom token request was sent\r\n  /// @param _otp OTP sent by the server\r\n  function getERC20FromClaim(uint256 _phone, string memory _otp)\r\n    public\r\n    IsBeneficiary(_phone)\r\n    OnlyVendor\r\n  {\r\n    bytes32 _benId = findHash(_phone);\r\n    claim storage ac = recentERC20Claims[msg.sender][_benId];\r\n    require(ac.isReleased, \"RAHAT: Claim has not been released.\");\r\n    require(ac.date >= block.timestamp, \"RAHAT: Claim has already expired.\");\r\n    bytes32 otpHash = findHash(_otp);\r\n    require(\r\n      recentERC20Claims[msg.sender][_benId].otpHash == otpHash,\r\n      \"RAHAT: OTP did not match.\"\r\n    );\r\n    adjustTokenDeduct(_phone, ac.amount);\r\n    uint256 amt = ac.amount;\r\n    ac.isReleased = false;\r\n    ac.amount = 0;\r\n    ac.date = 0;\r\n    erc20.transfer(msg.sender, amt);\r\n    _transferCashFromVendor(msg.sender, _phone, amt);\r\n    emit ClaimAcquiredERC20(msg.sender, _phone, amt);\r\n  }\r\n\r\n  /// @notice Admin function to transfer beneficiary token to vendor\r\n  /// @param _phone Phone number of beneficiary to whom token is requested\r\n  /// @param _vendorAddress vendor's address\r\n  /// @param _amount Number of tokens to request\r\n  function transferTokenToVendorByAdmin(uint256 _phone, address _vendorAddress, uint256 _amount) \r\n    public IsBeneficiary(_phone) OnlyAdmin {\r\n      require(isVendor(_vendorAddress), \"Transfer to must be vendor address\");\r\n      adjustTokenDeduct(_phone, _amount);\r\n      _transferCashFromVendor(_vendorAddress, _phone, _amount);\r\n      erc20.transfer(_vendorAddress, _amount);\r\n      emit ClaimAcquiredERC20(_vendorAddress, _phone, _amount);\r\n  }\r\n  \r\n  function transferCashToVendor(address _vendorAddress, uint _amount) public OnlyAdmin {\r\n    require(registry.exists(findHash(_vendorAddress)), \"vendor wallet not registered.\");\r\n    cashToken.approve(registry.id2Address(findHash(_vendorAddress)), _amount);\r\n  }\r\n\r\n  function _transferCashFromVendor(address _vendorAddress, uint256 _phone, uint _amount) private {\r\n    RahatWallet vendorWallet = RahatWallet(registry.id2Address(findHash(_vendorAddress)));\r\n    vendorWallet.transferToken(address(cashToken), registry.id2Address(findHash(_phone)), _amount);\r\n  }\r\n\r\n  function _verifyVendorCashBalance(address _vendorAddress, uint256 _amount) private view {\r\n    uint balance = cashToken.balanceOf(registry.id2Address(findHash(_vendorAddress)));\r\n    require(balance >= _amount, \"Vendor does not have enough cash balance.\");\r\n  } \r\n\r\n  function claimTokenForProject(address _token, address _from, bytes32 _projectId, uint256 _amount) public OnlyOwner {\r\n    if(address(cashToken) == address(0)) cashToken = RahatERC20(_token);\r\n    claimToken(_token, _from, _amount);\r\n    remainingProjectErc20Balances[_projectId] += _amount;\r\n    totalProjectErc20Issued[_projectId] += _amount;\r\n  }\r\n\r\n  function vendorBalance(address _vendorAddress) public view returns (address walletAddress, uint cashAllowance, uint cashBalance, uint tokenBalance) {\r\n    walletAddress = registry.id2Address(findHash(_vendorAddress));\r\n    cashAllowance = cashToken.allowance(address(this), walletAddress);\r\n    cashBalance = cashToken.balanceOf(walletAddress);\r\n    tokenBalance = erc20.balanceOf(_vendorAddress);\r\n  } \r\n\r\n  function beneficiaryBalance(uint _phone) public view returns (address walletAddress, uint cashBalance, uint tokenBalance) {\r\n    walletAddress = registry.id2Address(findHash(_phone));\r\n    cashBalance = cashToken.balanceOf(walletAddress);\r\n    tokenBalance = erc20Balance[_phone];\r\n  } \r\n\r\n  /// @notice generates the hash of the given string\r\n  /// @param _data String of which hash is to be generated\r\n  function findHash(string memory _data) public pure returns (bytes32) {\r\n    return keccak256(abi.encodePacked(_data));\r\n  }\r\n\r\n  /// @notice generates the hash of the given string\r\n  function findHash(uint256 _data) public pure returns (bytes32) {\r\n    return keccak256(abi.encodePacked(_data.toString()));\r\n  }\r\n\r\n  function findHash(address _data) public pure returns (bytes32) {\r\n    return keccak256(abi.encodePacked(_data));\r\n  }\r\n\r\n  /// @notice Generates the sum of all the integers in array\r\n  /// @param _array Array of uint\r\n  function getArraySum(uint256[] memory _array)\r\n    public\r\n    pure\r\n    returns (uint256 sum)\r\n  {\r\n    sum = 0;\r\n    for (uint256 i = 0; i < _array.length; i++) {\r\n      sum += _array[i];\r\n    }\r\n    return sum;\r\n  }\r\n\r\n  receive() external payable {\r\n      emit Received(msg.sender, msg.value);\r\n  }\r\n\r\n  function withdraw(address payable _to) public payable OnlyAdmin {\r\n        (bool sent,) = _to.call{value:address(this).balance}(\"\");\r\n        require(sent, \"Failed to send Ether\");\r\n    }\r\n}\r\n",
  "sourcePath": "S:\\Projects\\rahat\\unicef-np\\rahat-contracts\\src\\contracts\\Rahat.sol",
  "compiler": {
    "name": "solc",
    "version": "0.8.16+commit.07a7930e.Emscripten.clang"
  },
  "schemaVersion": "3.4.10",
  "updatedAt": "2022-12-01T08:31:23.003Z",
  "devdoc": {
    "kind": "dev",
    "methods": {
      "addAdmin(address)": {
        "params": {
          "_account": "address of the new admin"
        }
      },
      "addMobilizer(address,string)": {
        "params": {
          "_account": "address of the new vendor",
          "_projectId": "projectId"
        }
      },
      "addOwner(address)": {
        "params": {
          "_account": "address of new owner"
        }
      },
      "addServer(address)": {
        "params": {
          "_account": "address of the new server account"
        }
      },
      "addVendor(address)": {
        "params": {
          "_account": "address of the new vendor"
        }
      },
      "approveERC20Claim(address,uint256,bytes32,uint256)": {
        "params": {
          "_otpHash": "Hash of OTP sent to beneficiary by server",
          "_phone": "Phone number of the beneficiary, to whom token request was sent",
          "_timeToLive": "Validity of OTP in seconds",
          "_vendor": "Address of the vendor who requested the token from beneficiary"
        }
      },
      "createERC20Claim(uint256,uint256)": {
        "params": {
          "_phone": "Phone number of beneficiary to whom token is requested",
          "_tokens": "Number of tokens to request"
        }
      },
      "findHash(string)": {
        "params": {
          "_data": "String of which hash is to be generated"
        }
      },
      "getArraySum(uint256[])": {
        "params": {
          "_array": "Array of uint"
        }
      },
      "getERC20FromClaim(uint256,string)": {
        "params": {
          "_otp": "OTP sent by the server",
          "_phone": "Phone Number of the beneficiary, to whom token request was sent"
        }
      },
      "getRoleAdmin(bytes32)": {
        "details": "Returns the admin role that controls `role`. See {grantRole} and {revokeRole}. To change a role's admin, use {_setRoleAdmin}."
      },
      "grantRole(bytes32,address)": {
        "details": "Grants `role` to `account`. If `account` had not been already granted `role`, emits a {RoleGranted} event. Requirements: - the caller must have ``role``'s admin role."
      },
      "hasRole(bytes32,address)": {
        "details": "Returns `true` if `account` has been granted `role`."
      },
      "issueERC20ToBeneficiary(string,uint256,uint256)": {
        "params": {
          "_amount": "Amount of token to be assigned to beneficiary",
          "_phone": "phone number of the beneficiary",
          "_projectId": "Id of the project beneficiary is involved in"
        }
      },
      "multicall(bytes[])": {
        "details": "Receives and executes a batch of function calls on this contract."
      },
      "removeOwner(address)": {
        "params": {
          "_account": "address of existing owner"
        }
      },
      "renounceRole(bytes32,address)": {
        "details": "Revokes `role` from the calling account. Roles are often managed via {grantRole} and {revokeRole}: this function's purpose is to provide a mechanism for accounts to lose their privileges if they are compromised (such as when a trusted device is misplaced). If the calling account had been revoked `role`, emits a {RoleRevoked} event. Requirements: - the caller must be `account`."
      },
      "revokeRole(bytes32,address)": {
        "details": "Revokes `role` from `account`. If `account` had been granted `role`, emits a {RoleRevoked} event. Requirements: - the caller must have ``role``'s admin role."
      },
      "setAsBankedBeneficiary(uint256,bool)": {
        "params": {
          "_isBanked": "true/false",
          "_phone": "beneficiary phone number"
        }
      },
      "supportsInterface(bytes4)": {
        "details": "See {IERC165-supportsInterface}."
      },
      "suspendBeneficiary(uint256,bytes32)": {
        "params": {
          "_phone": "phone number of the Beneficiary",
          "_projectId": "projectId beneficiary is involved in"
        }
      },
      "transferTokenToVendorByAdmin(uint256,address,uint256)": {
        "params": {
          "_amount": "Number of tokens to request",
          "_phone": "Phone number of beneficiary to whom token is requested",
          "_vendorAddress": "vendor's address"
        }
      },
      "updateProjectBudget(bytes32,uint256)": {
        "params": {
          "_projectCapital": "amount of budget to be added to project",
          "_projectId": "Id of the project to assign budget"
        }
      }
    },
    "stateVariables": {
      "recentERC20Claims": {
        "details": "vendorAddress => phone => claim"
      }
    },
    "version": 1
  },
  "userdoc": {
    "kind": "user",
    "methods": {
      "addAdmin(address)": {
        "notice": "add admin of the this contract"
      },
      "addMobilizer(address,string)": {
        "notice": "add vendors"
      },
      "addOwner(address)": {
        "notice": "Add an account to the owner role"
      },
      "addServer(address)": {
        "notice": "add server account for this contract"
      },
      "addVendor(address)": {
        "notice": "add vendors"
      },
      "approveERC20Claim(address,uint256,bytes32,uint256)": {
        "notice": "Approve the requested claim from serverside and set the otp hash"
      },
      "createERC20Claim(uint256,uint256)": {
        "notice": "request a token to beneficiary by vendor"
      },
      "erc20Balance(uint256)": {
        "notice": "track balances of each beneficiary phone"
      },
      "erc20Issued(uint256)": {
        "notice": "track total issued tokens of each benefiicary phone"
      },
      "findHash(string)": {
        "notice": "generates the hash of the given string"
      },
      "findHash(uint256)": {
        "notice": "generates the hash of the given string"
      },
      "getArraySum(uint256[])": {
        "notice": "Generates the sum of all the integers in array"
      },
      "getERC20FromClaim(uint256,string)": {
        "notice": "Retrieve tokens that was requested to beneficiary by entering OTP"
      },
      "getProjectBalance(bytes32)": {
        "notice": "get the current balance of project"
      },
      "issueERC20ToBeneficiary(string,uint256,uint256)": {
        "notice": "Issue tokens to beneficiary"
      },
      "removeOwner(address)": {
        "notice": "Remove an account from the owner role"
      },
      "setAsBankedBeneficiary(uint256,bool)": {
        "notice": "set IsBanked Beneficiary"
      },
      "suspendBeneficiary(uint256,bytes32)": {
        "notice": "suspend the benficiary by deducting all the balance beneficiary owns"
      },
      "transferTokenToVendorByAdmin(uint256,address,uint256)": {
        "notice": "Admin function to transfer beneficiary token to vendor"
      },
      "updateProjectBudget(bytes32,uint256)": {
        "notice": "update a project balance.called by rahatdmin contract"
      }
    },
    "version": 1
  }
}