{
  "contractName": "RahatWallet",
  "abi": [
    {
      "inputs": [
        {
          "internalType": "address",
          "name": "_admin",
          "type": "address"
        }
      ],
      "stateMutability": "nonpayable",
      "type": "constructor"
    },
    {
      "inputs": [
        {
          "internalType": "address",
          "name": "_account",
          "type": "address"
        }
      ],
      "name": "addOwner",
      "outputs": [
        {
          "internalType": "bool",
          "name": "",
          "type": "bool"
        }
      ],
      "stateMutability": "nonpayable",
      "type": "function"
    },
    {
      "inputs": [
        {
          "internalType": "address",
          "name": "_token",
          "type": "address"
        },
        {
          "internalType": "address",
          "name": "_spender",
          "type": "address"
        },
        {
          "internalType": "uint256",
          "name": "_amount",
          "type": "uint256"
        }
      ],
      "name": "approveToken",
      "outputs": [],
      "stateMutability": "nonpayable",
      "type": "function"
    },
    {
      "inputs": [
        {
          "internalType": "address",
          "name": "_token",
          "type": "address"
        },
        {
          "internalType": "address",
          "name": "_from",
          "type": "address"
        },
        {
          "internalType": "uint256",
          "name": "_amount",
          "type": "uint256"
        }
      ],
      "name": "claimToken",
      "outputs": [],
      "stateMutability": "nonpayable",
      "type": "function"
    },
    {
      "inputs": [
        {
          "internalType": "address",
          "name": "_token",
          "type": "address"
        },
        {
          "internalType": "address",
          "name": "_from",
          "type": "address"
        }
      ],
      "name": "getAllowanceAndBalance",
      "outputs": [
        {
          "internalType": "uint256",
          "name": "allowance",
          "type": "uint256"
        },
        {
          "internalType": "uint256",
          "name": "balance",
          "type": "uint256"
        }
      ],
      "stateMutability": "view",
      "type": "function"
    },
    {
      "inputs": [],
      "name": "listAdmins",
      "outputs": [
        {
          "internalType": "address[]",
          "name": "",
          "type": "address[]"
        }
      ],
      "stateMutability": "view",
      "type": "function"
    },
    {
      "inputs": [
        {
          "internalType": "bytes[]",
          "name": "data",
          "type": "bytes[]"
        }
      ],
      "name": "multicall",
      "outputs": [
        {
          "internalType": "bytes[]",
          "name": "results",
          "type": "bytes[]"
        }
      ],
      "stateMutability": "nonpayable",
      "type": "function"
    },
    {
      "inputs": [
        {
          "internalType": "address",
          "name": "",
          "type": "address"
        }
      ],
      "name": "owner",
      "outputs": [
        {
          "internalType": "bool",
          "name": "",
          "type": "bool"
        }
      ],
      "stateMutability": "view",
      "type": "function"
    },
    {
      "inputs": [
        {
          "internalType": "address",
          "name": "_account",
          "type": "address"
        }
      ],
      "name": "removeOwner",
      "outputs": [
        {
          "internalType": "bool",
          "name": "",
          "type": "bool"
        }
      ],
      "stateMutability": "nonpayable",
      "type": "function"
    },
    {
      "inputs": [
        {
          "internalType": "address",
          "name": "_token",
          "type": "address"
        },
        {
          "internalType": "address",
          "name": "_from",
          "type": "address"
        },
        {
          "internalType": "address",
          "name": "_to",
          "type": "address"
        },
        {
          "internalType": "uint256",
          "name": "_amount",
          "type": "uint256"
        }
      ],
      "name": "transferFromToken",
      "outputs": [],
      "stateMutability": "nonpayable",
      "type": "function"
    },
    {
      "inputs": [
        {
          "internalType": "address",
          "name": "_token",
          "type": "address"
        },
        {
          "internalType": "address",
          "name": "_to",
          "type": "address"
        },
        {
          "internalType": "uint256",
          "name": "_amount",
          "type": "uint256"
        }
      ],
      "name": "transferToken",
      "outputs": [],
      "stateMutability": "nonpayable",
      "type": "function"
    }
  ],
  "bytecode": "0x608060405234801561001057600080fd5b50604051610e77380380610e7783398101604081905261002f91610056565b6001600160a01b03166000908152600260205260409020805460ff19166001179055610086565b60006020828403121561006857600080fd5b81516001600160a01b038116811461007f57600080fd5b9392505050565b610de2806100956000396000f3fe608060405234801561001057600080fd5b506004361061008e5760003560e01c8063125bfb6614610093578063173825d9146100a85780634937b174146100d0578063666e1b39146100f85780637065cb481461011b578063a591afbe1461012e578063ac9650d814610143578063da3e339714610163578063f5537ede14610176578063fb3c0d7014610189575b600080fd5b6100a66100a1366004610985565b61019c565b005b6100bb6100b63660046109c1565b61024d565b60405190151581526020015b60405180910390f35b6100e36100de3660046109dc565b6102b1565b604080519283526020830191909152016100c7565b6100bb6101063660046109c1565b60026020526000908152604090205460ff1681565b6100bb6101293660046109c1565b61039a565b6101366103f6565b6040516100c79190610a06565b610156610151366004610a53565b610407565b6040516100c79190610b18565b6100a6610171366004610985565b6104fd565b6100a6610184366004610985565b61055a565b6100a6610197366004610b7a565b6105b7565b3360009081526002602052604090205460ff166101d45760405162461bcd60e51b81526004016101cb90610bc5565b60405180910390fd5b6040516323b872dd60e01b81526001600160a01b038416906323b872dd9061020490859030908690600401610c0c565b6020604051808303816000875af1158015610223573d6000803e3d6000fd5b505050506040513d601f19601f820116820180604052508101906102479190610c30565b50505050565b3360009081526002602052604081205460ff1661027c5760405162461bcd60e51b81526004016101cb90610bc5565b6001600160a01b0382166000908152600260205260408120805460ff191690556102a69083610660565b50600190505b919050565b604051636eb1769f60e11b81526001600160a01b038281166004830152306024830152600091829185169063dd62ed3e90604401602060405180830381865afa158015610302573d6000803e3d6000fd5b505050506040513d601f19601f820116820180604052508101906103269190610c52565b6040516370a0823160e01b81523060048201529092506001600160a01b038516906370a0823190602401602060405180830381865afa15801561036d573d6000803e3d6000fd5b505050506040513d601f19601f820116820180604052508101906103919190610c52565b90509250929050565b3360009081526002602052604081205460ff166103c95760405162461bcd60e51b81526004016101cb90610bc5565b6001600160a01b0382166000908152600260205260408120805460ff191660011790556102a6908361067c565b60606104026000610691565b905090565b60608167ffffffffffffffff81111561042257610422610c6b565b60405190808252806020026020018201604052801561045557816020015b60608152602001906001900390816104405790505b50905060005b828110156104f5576104c53085858481811061047957610479610c81565b905060200281019061048b9190610c97565b8080601f01602080910402602001604051908101604052809392919081815260200183838082843760009201919091525061069e92505050565b8282815181106104d7576104d7610c81565b602002602001018190525080806104ed90610cfb565b91505061045b565b505b92915050565b3360009081526002602052604090205460ff1661052c5760405162461bcd60e51b81526004016101cb90610bc5565b60405163095ea7b360e01b81526001600160a01b0384169063095ea7b3906102049085908590600401610d14565b3360009081526002602052604090205460ff166105895760405162461bcd60e51b81526004016101cb90610bc5565b60405163a9059cbb60e01b81526001600160a01b0384169063a9059cbb906102049085908590600401610d14565b3360009081526002602052604090205460ff166105e65760405162461bcd60e51b81526004016101cb90610bc5565b6040516323b872dd60e01b81526001600160a01b038516906323b872dd9061061690869086908690600401610c0c565b6020604051808303816000875af1158015610635573d6000803e3d6000fd5b505050506040513d601f19601f820116820180604052508101906106599190610c30565b5050505050565b6000610675836001600160a01b0384166106c3565b9392505050565b6000610675836001600160a01b0384166107b6565b6060600061067583610805565b60606106758383604051806060016040528060278152602001610d8660279139610861565b600081815260018301602052604081205480156107ac5760006106e7600183610d2d565b85549091506000906106fb90600190610d2d565b905081811461076057600086600001828154811061071b5761071b610c81565b906000526020600020015490508087600001848154811061073e5761073e610c81565b6000918252602080832090910192909255918252600188019052604090208390555b855486908061077157610771610d40565b6001900381819060005260206000200160009055905585600101600086815260200190815260200160002060009055600193505050506104f7565b60009150506104f7565b60008181526001830160205260408120546107fd575081546001818101845560008481526020808220909301849055845484825282860190935260409020919091556104f7565b5060006104f7565b60608160000180548060200260200160405190810160405280929190818152602001828054801561085557602002820191906000526020600020905b815481526020019060010190808311610841575b50505050509050919050565b6060833b6108c05760405162461bcd60e51b815260206004820152602660248201527f416464726573733a2064656c65676174652063616c6c20746f206e6f6e2d636f6044820152651b9d1c9858dd60d21b60648201526084016101cb565b600080856001600160a01b0316856040516108db9190610d56565b600060405180830381855af49150503d8060008114610916576040519150601f19603f3d011682016040523d82523d6000602084013e61091b565b606091505b509150915061092b828286610935565b9695505050505050565b60608315610944575081610675565b8251156109545782518084602001fd5b8160405162461bcd60e51b81526004016101cb9190610d72565b80356001600160a01b03811681146102ac57600080fd5b60008060006060848603121561099a57600080fd5b6109a38461096e565b92506109b16020850161096e565b9150604084013590509250925092565b6000602082840312156109d357600080fd5b6106758261096e565b600080604083850312156109ef57600080fd5b6109f88361096e565b91506103916020840161096e565b6020808252825182820181905260009190848201906040850190845b81811015610a475783516001600160a01b031683529284019291840191600101610a22565b50909695505050505050565b60008060208385031215610a6657600080fd5b823567ffffffffffffffff80821115610a7e57600080fd5b818501915085601f830112610a9257600080fd5b813581811115610aa157600080fd5b8660208260051b8501011115610ab657600080fd5b60209290920196919550909350505050565b60005b83811015610ae3578181015183820152602001610acb565b50506000910152565b60008151808452610b04816020860160208601610ac8565b601f01601f19169290920160200192915050565b6000602080830181845280855180835260408601915060408160051b870101925083870160005b82811015610b6d57603f19888603018452610b5b858351610aec565b94509285019290850190600101610b3f565b5092979650505050505050565b60008060008060808587031215610b9057600080fd5b610b998561096e565b9350610ba76020860161096e565b9250610bb56040860161096e565b9396929550929360600135925050565b60208082526027908201527f4f6e6c79206f776e65722063616e20657865637574652074686973207472616e60408201526639b0b1ba34b7b760c91b606082015260800190565b6001600160a01b039384168152919092166020820152604081019190915260600190565b600060208284031215610c4257600080fd5b8151801515811461067557600080fd5b600060208284031215610c6457600080fd5b5051919050565b634e487b7160e01b600052604160045260246000fd5b634e487b7160e01b600052603260045260246000fd5b6000808335601e19843603018112610cae57600080fd5b83018035915067ffffffffffffffff821115610cc957600080fd5b602001915036819003821315610cde57600080fd5b9250929050565b634e487b7160e01b600052601160045260246000fd5b600060018201610d0d57610d0d610ce5565b5060010190565b6001600160a01b03929092168252602082015260400190565b818103818111156104f7576104f7610ce5565b634e487b7160e01b600052603160045260246000fd5b60008251610d68818460208701610ac8565b9190910192915050565b6020815260006106756020830184610aec56fe416464726573733a206c6f772d6c6576656c2064656c65676174652063616c6c206661696c6564a26469706673582212207dbbe24f763d11398b882f2b39051d99ae0dcd6f4c79a1c0213341d98ff8ff3764736f6c63430008100033",
  "immutableReferences": {},
  "source": "//SPDX-License-Identifier: LGPL-3.0\r\n\r\npragma solidity ^0.8.16;\r\n\r\nimport \"../libraries/AbstractERC20Func.sol\";\r\n\r\n/// @title Donor contract to create tokens\r\n/// @author Rumsan Associates\r\n/// @notice You can use this contract to manage Rahat tokens and projects\r\n/// @dev All function calls are only executed by contract owner\r\n\r\ncontract RahatWallet is AbstractERC20Func {\r\n  constructor(\r\n    address _admin\r\n  ) {\r\n    owner[_admin] = true;\r\n  }\r\n}\r\n",
  "sourcePath": "S:\\Projects\\rahat\\unicef-np\\rahat-contracts\\src\\contracts\\RahatWallet.sol",
  "compiler": {
    "name": "solc",
    "version": "0.8.16+commit.07a7930e.Emscripten.clang"
  },
  "schemaVersion": "3.4.10",
  "updatedAt": "2022-12-04T18:00:15.404Z",
  "devdoc": {
    "author": "Rumsan Associates",
    "details": "All function calls are only executed by contract owner",
    "kind": "dev",
    "methods": {
      "addOwner(address)": {
        "params": {
          "_account": "address of new owner"
        }
      },
      "multicall(bytes[])": {
        "details": "Receives and executes a batch of function calls on this contract."
      },
      "removeOwner(address)": {
        "params": {
          "_account": "address of existing owner"
        }
      }
    },
    "title": "Donor contract to create tokens",
    "version": 1
  },
  "userdoc": {
    "kind": "user",
    "methods": {
      "addOwner(address)": {
        "notice": "Add an account to the owner role"
      },
      "removeOwner(address)": {
        "notice": "Remove an account from the owner role"
      }
    },
    "notice": "You can use this contract to manage Rahat tokens and projects",
    "version": 1
  }
}