{
  "contractName": "Rahat",
  "abi": [
    {
      "inputs": [
        {
          "internalType": "contract RahatERC20",
          "name": "_erc20",
          "type": "address"
        },
        {
          "internalType": "contract RahatRegistry",
          "name": "_registry",
          "type": "address"
        },
        {
          "internalType": "contract RahatTriggerResponse",
          "name": "_triggerResponse",
          "type": "address"
        },
        {
          "internalType": "address",
          "name": "_admin",
          "type": "address"
        }
      ],
      "stateMutability": "nonpayable",
      "type": "constructor"
    },
    {
      "anonymous": false,
      "inputs": [
        {
          "indexed": true,
          "internalType": "address",
          "name": "vendor",
          "type": "address"
        },
        {
          "indexed": true,
          "internalType": "uint256",
          "name": "beneficiary",
          "type": "uint256"
        },
        {
          "indexed": false,
          "internalType": "uint256",
          "name": "amount",
          "type": "uint256"
        }
      ],
      "name": "ClaimAcquiredERC20",
      "type": "event"
    },
    {
      "anonymous": false,
      "inputs": [
        {
          "indexed": true,
          "internalType": "address",
          "name": "vendor",
          "type": "address"
        },
        {
          "indexed": true,
          "internalType": "uint256",
          "name": "phone",
          "type": "uint256"
        },
        {
          "indexed": false,
          "internalType": "uint256",
          "name": "amount",
          "type": "uint256"
        }
      ],
      "name": "ClaimApproved",
      "type": "event"
    },
    {
      "anonymous": false,
      "inputs": [
        {
          "indexed": true,
          "internalType": "address",
          "name": "vendor",
          "type": "address"
        },
        {
          "indexed": true,
          "internalType": "uint256",
          "name": "beneficiary",
          "type": "uint256"
        },
        {
          "indexed": false,
          "internalType": "uint256",
          "name": "amount",
          "type": "uint256"
        }
      ],
      "name": "ClaimedERC20",
      "type": "event"
    },
    {
      "anonymous": false,
      "inputs": [
        {
          "indexed": false,
          "internalType": "bytes",
          "name": "signature",
          "type": "bytes"
        },
        {
          "indexed": false,
          "internalType": "bytes32",
          "name": "digest",
          "type": "bytes32"
        },
        {
          "indexed": false,
          "internalType": "address",
          "name": "expectedSigner",
          "type": "address"
        },
        {
          "indexed": false,
          "internalType": "address",
          "name": "recoveredSigner",
          "type": "address"
        }
      ],
      "name": "InvalidSignature",
      "type": "event"
    },
    {
      "anonymous": false,
      "inputs": [
        {
          "indexed": true,
          "internalType": "bytes32",
          "name": "projectId",
          "type": "bytes32"
        },
        {
          "indexed": true,
          "internalType": "uint256",
          "name": "phone",
          "type": "uint256"
        },
        {
          "indexed": false,
          "internalType": "uint256",
          "name": "amount",
          "type": "uint256"
        }
      ],
      "name": "IssuedERC20",
      "type": "event"
    },
    {
      "anonymous": false,
      "inputs": [
        {
          "indexed": false,
          "internalType": "address",
          "name": "",
          "type": "address"
        },
        {
          "indexed": false,
          "internalType": "uint256",
          "name": "",
          "type": "uint256"
        }
      ],
      "name": "Received",
      "type": "event"
    },
    {
      "anonymous": false,
      "inputs": [
        {
          "indexed": true,
          "internalType": "bytes32",
          "name": "role",
          "type": "bytes32"
        },
        {
          "indexed": true,
          "internalType": "bytes32",
          "name": "previousAdminRole",
          "type": "bytes32"
        },
        {
          "indexed": true,
          "internalType": "bytes32",
          "name": "newAdminRole",
          "type": "bytes32"
        }
      ],
      "name": "RoleAdminChanged",
      "type": "event"
    },
    {
      "anonymous": false,
      "inputs": [
        {
          "indexed": true,
          "internalType": "bytes32",
          "name": "role",
          "type": "bytes32"
        },
        {
          "indexed": true,
          "internalType": "address",
          "name": "account",
          "type": "address"
        },
        {
          "indexed": true,
          "internalType": "address",
          "name": "sender",
          "type": "address"
        }
      ],
      "name": "RoleGranted",
      "type": "event"
    },
    {
      "anonymous": false,
      "inputs": [
        {
          "indexed": true,
          "internalType": "bytes32",
          "name": "role",
          "type": "bytes32"
        },
        {
          "indexed": true,
          "internalType": "address",
          "name": "account",
          "type": "address"
        },
        {
          "indexed": true,
          "internalType": "address",
          "name": "sender",
          "type": "address"
        }
      ],
      "name": "RoleRevoked",
      "type": "event"
    },
    {
      "inputs": [],
      "name": "CREATE_CLAIM",
      "outputs": [
        {
          "internalType": "bytes32",
          "name": "",
          "type": "bytes32"
        }
      ],
      "stateMutability": "view",
      "type": "function"
    },
    {
      "inputs": [],
      "name": "DEFAULT_ADMIN_ROLE",
      "outputs": [
        {
          "internalType": "bytes32",
          "name": "",
          "type": "bytes32"
        }
      ],
      "stateMutability": "view",
      "type": "function"
    },
    {
      "inputs": [],
      "name": "GET_TOKENS_FROM_CLAIM",
      "outputs": [
        {
          "internalType": "bytes32",
          "name": "",
          "type": "bytes32"
        }
      ],
      "stateMutability": "view",
      "type": "function"
    },
    {
      "inputs": [],
      "name": "ISSUE_TOKEN",
      "outputs": [
        {
          "internalType": "bytes32",
          "name": "",
          "type": "bytes32"
        }
      ],
      "stateMutability": "view",
      "type": "function"
    },
    {
      "inputs": [],
      "name": "MANAGER_ROLE",
      "outputs": [
        {
          "internalType": "bytes32",
          "name": "",
          "type": "bytes32"
        }
      ],
      "stateMutability": "view",
      "type": "function"
    },
    {
      "inputs": [],
      "name": "MOBILIZER_ROLE",
      "outputs": [
        {
          "internalType": "bytes32",
          "name": "",
          "type": "bytes32"
        }
      ],
      "stateMutability": "view",
      "type": "function"
    },
    {
      "inputs": [],
      "name": "SERVER_ROLE",
      "outputs": [
        {
          "internalType": "bytes32",
          "name": "",
          "type": "bytes32"
        }
      ],
      "stateMutability": "view",
      "type": "function"
    },
    {
      "inputs": [],
      "name": "VENDOR_ROLE",
      "outputs": [
        {
          "internalType": "bytes32",
          "name": "",
          "type": "bytes32"
        }
      ],
      "stateMutability": "view",
      "type": "function"
    },
    {
      "inputs": [
        {
          "internalType": "address",
          "name": "_account",
          "type": "address"
        }
      ],
      "name": "addOwner",
      "outputs": [
        {
          "internalType": "bool",
          "name": "",
          "type": "bool"
        }
      ],
      "stateMutability": "nonpayable",
      "type": "function"
    },
    {
      "inputs": [
        {
          "internalType": "address",
          "name": "_token",
          "type": "address"
        },
        {
          "internalType": "address",
          "name": "_spender",
          "type": "address"
        },
        {
          "internalType": "uint256",
          "name": "_amount",
          "type": "uint256"
        }
      ],
      "name": "approveToken",
      "outputs": [],
      "stateMutability": "nonpayable",
      "type": "function"
    },
    {
      "inputs": [],
      "name": "cashToken",
      "outputs": [
        {
          "internalType": "contract RahatERC20",
          "name": "",
          "type": "address"
        }
      ],
      "stateMutability": "view",
      "type": "function"
    },
    {
      "inputs": [
        {
          "internalType": "address",
          "name": "_token",
          "type": "address"
        },
        {
          "internalType": "address",
          "name": "_from",
          "type": "address"
        },
        {
          "internalType": "uint256",
          "name": "_amount",
          "type": "uint256"
        }
      ],
      "name": "claimToken",
      "outputs": [],
      "stateMutability": "nonpayable",
      "type": "function"
    },
    {
      "inputs": [],
      "name": "erc20",
      "outputs": [
        {
          "internalType": "contract RahatERC20",
          "name": "",
          "type": "address"
        }
      ],
      "stateMutability": "view",
      "type": "function"
    },
    {
      "inputs": [
        {
          "internalType": "uint256",
          "name": "",
          "type": "uint256"
        }
      ],
      "name": "erc20Balance",
      "outputs": [
        {
          "internalType": "uint256",
          "name": "",
          "type": "uint256"
        }
      ],
      "stateMutability": "view",
      "type": "function"
    },
    {
      "inputs": [
        {
          "internalType": "uint256",
          "name": "",
          "type": "uint256"
        }
      ],
      "name": "erc20Issued",
      "outputs": [
        {
          "internalType": "uint256",
          "name": "",
          "type": "uint256"
        }
      ],
      "stateMutability": "view",
      "type": "function"
    },
    {
      "inputs": [
        {
          "internalType": "address",
          "name": "",
          "type": "address"
        }
      ],
      "name": "erc20IssuedBy",
      "outputs": [
        {
          "internalType": "uint256",
          "name": "",
          "type": "uint256"
        }
      ],
      "stateMutability": "view",
      "type": "function"
    },
    {
      "inputs": [
        {
          "internalType": "address",
          "name": "_token",
          "type": "address"
        },
        {
          "internalType": "address",
          "name": "_from",
          "type": "address"
        }
      ],
      "name": "getAllowanceAndBalance",
      "outputs": [
        {
          "internalType": "uint256",
          "name": "allowance",
          "type": "uint256"
        },
        {
          "internalType": "uint256",
          "name": "balance",
          "type": "uint256"
        }
      ],
      "stateMutability": "view",
      "type": "function"
    },
    {
      "inputs": [
        {
          "internalType": "bytes32",
          "name": "role",
          "type": "bytes32"
        }
      ],
      "name": "getRoleAdmin",
      "outputs": [
        {
          "internalType": "bytes32",
          "name": "",
          "type": "bytes32"
        }
      ],
      "stateMutability": "view",
      "type": "function"
    },
    {
      "inputs": [
        {
          "internalType": "bytes32",
          "name": "role",
          "type": "bytes32"
        },
        {
          "internalType": "address",
          "name": "account",
          "type": "address"
        }
      ],
      "name": "grantRole",
      "outputs": [],
      "stateMutability": "nonpayable",
      "type": "function"
    },
    {
      "inputs": [
        {
          "internalType": "bytes32",
          "name": "role",
          "type": "bytes32"
        },
        {
          "internalType": "address",
          "name": "account",
          "type": "address"
        }
      ],
      "name": "hasRole",
      "outputs": [
        {
          "internalType": "bool",
          "name": "",
          "type": "bool"
        }
      ],
      "stateMutability": "view",
      "type": "function"
    },
    {
      "inputs": [
        {
          "internalType": "uint256",
          "name": "",
          "type": "uint256"
        }
      ],
      "name": "isBanked",
      "outputs": [
        {
          "internalType": "bool",
          "name": "",
          "type": "bool"
        }
      ],
      "stateMutability": "view",
      "type": "function"
    },
    {
      "inputs": [],
      "name": "listAdmins",
      "outputs": [
        {
          "internalType": "address[]",
          "name": "",
          "type": "address[]"
        }
      ],
      "stateMutability": "view",
      "type": "function"
    },
    {
      "inputs": [
        {
          "internalType": "bytes[]",
          "name": "data",
          "type": "bytes[]"
        }
      ],
      "name": "multicall",
      "outputs": [
        {
          "internalType": "bytes[]",
          "name": "results",
          "type": "bytes[]"
        }
      ],
      "stateMutability": "nonpayable",
      "type": "function"
    },
    {
      "inputs": [
        {
          "internalType": "address",
          "name": "",
          "type": "address"
        }
      ],
      "name": "nonces",
      "outputs": [
        {
          "internalType": "uint256",
          "name": "",
          "type": "uint256"
        }
      ],
      "stateMutability": "view",
      "type": "function"
    },
    {
      "inputs": [
        {
          "internalType": "address",
          "name": "",
          "type": "address"
        }
      ],
      "name": "owner",
      "outputs": [
        {
          "internalType": "bool",
          "name": "",
          "type": "bool"
        }
      ],
      "stateMutability": "view",
      "type": "function"
    },
    {
      "inputs": [
        {
          "internalType": "address",
          "name": "",
          "type": "address"
        },
        {
          "internalType": "bytes32",
          "name": "",
          "type": "bytes32"
        }
      ],
      "name": "recentERC20Claims",
      "outputs": [
        {
          "internalType": "uint256",
          "name": "amount",
          "type": "uint256"
        },
        {
          "internalType": "bytes32",
          "name": "otpHash",
          "type": "bytes32"
        },
        {
          "internalType": "bool",
          "name": "isReleased",
          "type": "bool"
        },
        {
          "internalType": "uint256",
          "name": "date",
          "type": "uint256"
        }
      ],
      "stateMutability": "view",
      "type": "function"
    },
    {
      "inputs": [],
      "name": "registry",
      "outputs": [
        {
          "internalType": "contract RahatRegistry",
          "name": "",
          "type": "address"
        }
      ],
      "stateMutability": "view",
      "type": "function"
    },
    {
      "inputs": [
        {
          "internalType": "bytes32",
          "name": "",
          "type": "bytes32"
        }
      ],
      "name": "remainingProjectErc20Balances",
      "outputs": [
        {
          "internalType": "uint256",
          "name": "",
          "type": "uint256"
        }
      ],
      "stateMutability": "view",
      "type": "function"
    },
    {
      "inputs": [
        {
          "internalType": "address",
          "name": "_account",
          "type": "address"
        }
      ],
      "name": "removeOwner",
      "outputs": [
        {
          "internalType": "bool",
          "name": "",
          "type": "bool"
        }
      ],
      "stateMutability": "nonpayable",
      "type": "function"
    },
    {
      "inputs": [
        {
          "internalType": "bytes32",
          "name": "role",
          "type": "bytes32"
        },
        {
          "internalType": "address",
          "name": "account",
          "type": "address"
        }
      ],
      "name": "renounceRole",
      "outputs": [],
      "stateMutability": "nonpayable",
      "type": "function"
    },
    {
      "inputs": [
        {
          "internalType": "bytes32",
          "name": "role",
          "type": "bytes32"
        },
        {
          "internalType": "address",
          "name": "account",
          "type": "address"
        }
      ],
      "name": "revokeRole",
      "outputs": [],
      "stateMutability": "nonpayable",
      "type": "function"
    },
    {
      "inputs": [
        {
          "internalType": "bytes32",
          "name": "",
          "type": "bytes32"
        }
      ],
      "name": "totalProjectErc20Issued",
      "outputs": [
        {
          "internalType": "uint256",
          "name": "",
          "type": "uint256"
        }
      ],
      "stateMutability": "view",
      "type": "function"
    },
    {
      "inputs": [
        {
          "internalType": "address",
          "name": "_token",
          "type": "address"
        },
        {
          "internalType": "address",
          "name": "_from",
          "type": "address"
        },
        {
          "internalType": "address",
          "name": "_to",
          "type": "address"
        },
        {
          "internalType": "uint256",
          "name": "_amount",
          "type": "uint256"
        }
      ],
      "name": "transferFromToken",
      "outputs": [],
      "stateMutability": "nonpayable",
      "type": "function"
    },
    {
      "inputs": [
        {
          "internalType": "address",
          "name": "_token",
          "type": "address"
        },
        {
          "internalType": "address",
          "name": "_to",
          "type": "address"
        },
        {
          "internalType": "uint256",
          "name": "_amount",
          "type": "uint256"
        }
      ],
      "name": "transferToken",
      "outputs": [],
      "stateMutability": "nonpayable",
      "type": "function"
    },
    {
      "inputs": [],
      "name": "triggerResponse",
      "outputs": [
        {
          "internalType": "contract RahatTriggerResponse",
          "name": "",
          "type": "address"
        }
      ],
      "stateMutability": "view",
      "type": "function"
    },
    {
      "stateMutability": "payable",
      "type": "receive"
    },
    {
      "inputs": [
        {
          "internalType": "bytes4",
          "name": "interfaceId",
          "type": "bytes4"
        }
      ],
      "name": "supportsInterface",
      "outputs": [
        {
          "internalType": "bool",
          "name": "",
          "type": "bool"
        }
      ],
      "stateMutability": "view",
      "type": "function"
    },
    {
      "inputs": [
        {
          "internalType": "address",
          "name": "_account",
          "type": "address"
        }
      ],
      "name": "addAdmin",
      "outputs": [],
      "stateMutability": "nonpayable",
      "type": "function"
    },
    {
      "inputs": [
        {
          "internalType": "address",
          "name": "_account",
          "type": "address"
        }
      ],
      "name": "isAdmin",
      "outputs": [
        {
          "internalType": "bool",
          "name": "",
          "type": "bool"
        }
      ],
      "stateMutability": "view",
      "type": "function"
    },
    {
      "inputs": [
        {
          "internalType": "address",
          "name": "_account",
          "type": "address"
        }
      ],
      "name": "addServer",
      "outputs": [],
      "stateMutability": "nonpayable",
      "type": "function"
    },
    {
      "inputs": [
        {
          "internalType": "address payable",
          "name": "_account",
          "type": "address"
        }
      ],
      "name": "addVendor",
      "outputs": [
        {
          "internalType": "address",
          "name": "",
          "type": "address"
        }
      ],
      "stateMutability": "nonpayable",
      "type": "function"
    },
    {
      "inputs": [
        {
          "internalType": "address",
          "name": "_account",
          "type": "address"
        }
      ],
      "name": "isVendor",
      "outputs": [
        {
          "internalType": "bool",
          "name": "",
          "type": "bool"
        }
      ],
      "stateMutability": "view",
      "type": "function"
    },
    {
      "inputs": [],
      "name": "listVendors",
      "outputs": [
        {
          "internalType": "address[]",
          "name": "",
          "type": "address[]"
        }
      ],
      "stateMutability": "view",
      "type": "function"
    },
    {
      "inputs": [
        {
          "internalType": "address",
          "name": "_account",
          "type": "address"
        },
        {
          "internalType": "string",
          "name": "_projectId",
          "type": "string"
        }
      ],
      "name": "addMobilizer",
      "outputs": [],
      "stateMutability": "nonpayable",
      "type": "function"
    },
    {
      "inputs": [
        {
          "internalType": "uint256",
          "name": "_phone",
          "type": "uint256"
        },
        {
          "internalType": "bool",
          "name": "_isBanked",
          "type": "bool"
        }
      ],
      "name": "setAsBankedBeneficiary",
      "outputs": [],
      "stateMutability": "nonpayable",
      "type": "function"
    },
    {
      "inputs": [
        {
          "internalType": "uint256",
          "name": "_phone",
          "type": "uint256"
        },
        {
          "internalType": "bytes32",
          "name": "_projectId",
          "type": "bytes32"
        }
      ],
      "name": "suspendBeneficiary",
      "outputs": [],
      "stateMutability": "nonpayable",
      "type": "function"
    },
    {
      "inputs": [
        {
          "internalType": "bytes32",
          "name": "_projectId",
          "type": "bytes32"
        },
        {
          "internalType": "uint256",
          "name": "_projectCapital",
          "type": "uint256"
        }
      ],
      "name": "updateProjectBudget",
      "outputs": [],
      "stateMutability": "nonpayable",
      "type": "function"
    },
    {
      "inputs": [
        {
          "internalType": "bytes32",
          "name": "_projectId",
          "type": "bytes32"
        }
      ],
      "name": "getProjectBalance",
      "outputs": [
        {
          "internalType": "uint256",
          "name": "_balance",
          "type": "uint256"
        }
      ],
      "stateMutability": "view",
      "type": "function"
    },
    {
      "inputs": [
        {
          "internalType": "string",
          "name": "_projectId",
          "type": "string"
        },
        {
          "internalType": "uint256",
          "name": "_phone",
          "type": "uint256"
        },
        {
          "internalType": "uint256",
          "name": "_amount",
          "type": "uint256"
        }
      ],
      "name": "issueERC20ToBeneficiary",
      "outputs": [],
      "stateMutability": "nonpayable",
      "type": "function"
    },
    {
      "inputs": [
        {
          "internalType": "uint256",
          "name": "_phone",
          "type": "uint256"
        },
        {
          "internalType": "uint256",
          "name": "_tokens",
          "type": "uint256"
        }
      ],
      "name": "createERC20Claim",
      "outputs": [],
      "stateMutability": "nonpayable",
      "type": "function"
    },
    {
      "inputs": [
        {
          "internalType": "address",
          "name": "_vendor",
          "type": "address"
        },
        {
          "internalType": "uint256",
          "name": "_phone",
          "type": "uint256"
        },
        {
          "internalType": "bytes32",
          "name": "_otpHash",
          "type": "bytes32"
        },
        {
          "internalType": "uint256",
          "name": "_timeToLive",
          "type": "uint256"
        }
      ],
      "name": "approveERC20Claim",
      "outputs": [],
      "stateMutability": "nonpayable",
      "type": "function"
    },
    {
      "inputs": [
        {
          "internalType": "uint256",
          "name": "_phone",
          "type": "uint256"
        },
        {
          "internalType": "string",
          "name": "_otp",
          "type": "string"
        }
      ],
      "name": "getERC20FromClaim",
      "outputs": [],
      "stateMutability": "nonpayable",
      "type": "function"
    },
    {
      "inputs": [
        {
          "internalType": "uint256",
          "name": "_phone",
          "type": "uint256"
        },
        {
          "internalType": "address",
          "name": "_vendorAddress",
          "type": "address"
        },
        {
          "internalType": "uint256",
          "name": "_amount",
          "type": "uint256"
        }
      ],
      "name": "transferTokenToVendorByAdmin",
      "outputs": [],
      "stateMutability": "nonpayable",
      "type": "function"
    },
    {
      "inputs": [
        {
          "internalType": "address",
          "name": "_vendorAddress",
          "type": "address"
        },
        {
          "internalType": "uint256",
          "name": "_amount",
          "type": "uint256"
        }
      ],
      "name": "transferCashToVendor",
      "outputs": [],
      "stateMutability": "nonpayable",
      "type": "function"
    },
    {
      "inputs": [
        {
          "internalType": "address",
          "name": "_vendorAddress",
          "type": "address"
        },
        {
          "internalType": "uint256",
          "name": "_amount",
          "type": "uint256"
        }
      ],
      "name": "acceptCashForVendor",
      "outputs": [],
      "stateMutability": "nonpayable",
      "type": "function"
    },
    {
      "inputs": [
        {
          "internalType": "address",
          "name": "_token",
          "type": "address"
        },
        {
          "internalType": "address",
          "name": "_from",
          "type": "address"
        },
        {
          "internalType": "bytes32",
          "name": "_projectId",
          "type": "bytes32"
        },
        {
          "internalType": "uint256",
          "name": "_amount",
          "type": "uint256"
        }
      ],
      "name": "claimTokenForProject",
      "outputs": [],
      "stateMutability": "nonpayable",
      "type": "function"
    },
    {
      "inputs": [
        {
          "internalType": "bytes32",
          "name": "_projectId",
          "type": "bytes32"
        },
        {
          "internalType": "address",
          "name": "_allowanceFrom",
          "type": "address"
        }
      ],
      "name": "projectBalance",
      "outputs": [
        {
          "internalType": "uint256",
          "name": "totalBudget",
          "type": "uint256"
        },
        {
          "internalType": "uint256",
          "name": "cashAllowance",
          "type": "uint256"
        },
        {
          "internalType": "uint256",
          "name": "cashBalance",
          "type": "uint256"
        },
        {
          "internalType": "uint256",
          "name": "tokenBalance",
          "type": "uint256"
        }
      ],
      "stateMutability": "view",
      "type": "function"
    },
    {
      "inputs": [
        {
          "internalType": "address",
          "name": "_vendorAddress",
          "type": "address"
        }
      ],
      "name": "vendorBalance",
      "outputs": [
        {
          "internalType": "address",
          "name": "walletAddress",
          "type": "address"
        },
        {
          "internalType": "uint256",
          "name": "cashAllowance",
          "type": "uint256"
        },
        {
          "internalType": "uint256",
          "name": "cashBalance",
          "type": "uint256"
        },
        {
          "internalType": "uint256",
          "name": "tokenBalance",
          "type": "uint256"
        },
        {
          "internalType": "bool",
          "name": "hasVendorRole",
          "type": "bool"
        }
      ],
      "stateMutability": "view",
      "type": "function"
    },
    {
      "inputs": [
        {
          "internalType": "uint256",
          "name": "_phone",
          "type": "uint256"
        }
      ],
      "name": "beneficiaryBalance",
      "outputs": [
        {
          "internalType": "address",
          "name": "walletAddress",
          "type": "address"
        },
        {
          "internalType": "bool",
          "name": "hasBankAccount",
          "type": "bool"
        },
        {
          "internalType": "uint256",
          "name": "cashBalance",
          "type": "uint256"
        },
        {
          "internalType": "uint256",
          "name": "tokenBalance",
          "type": "uint256"
        },
        {
          "internalType": "uint256",
          "name": "totalTokenIssued",
          "type": "uint256"
        }
      ],
      "stateMutability": "view",
      "type": "function"
    },
    {
      "inputs": [
        {
          "internalType": "uint256",
          "name": "_data",
          "type": "uint256"
        }
      ],
      "name": "findHash",
      "outputs": [
        {
          "internalType": "bytes32",
          "name": "",
          "type": "bytes32"
        }
      ],
      "stateMutability": "pure",
      "type": "function"
    },
    {
      "inputs": [
        {
          "internalType": "string",
          "name": "_data",
          "type": "string"
        }
      ],
      "name": "findHash",
      "outputs": [
        {
          "internalType": "bytes32",
          "name": "",
          "type": "bytes32"
        }
      ],
      "stateMutability": "pure",
      "type": "function"
    },
    {
      "inputs": [
        {
          "internalType": "address",
          "name": "_data",
          "type": "address"
        }
      ],
      "name": "findHash",
      "outputs": [
        {
          "internalType": "bytes32",
          "name": "",
          "type": "bytes32"
        }
      ],
      "stateMutability": "pure",
      "type": "function"
    },
    {
      "inputs": [
        {
          "internalType": "uint256[]",
          "name": "_array",
          "type": "uint256[]"
        }
      ],
      "name": "getArraySum",
      "outputs": [
        {
          "internalType": "uint256",
          "name": "sum",
          "type": "uint256"
        }
      ],
      "stateMutability": "pure",
      "type": "function"
    },
    {
      "inputs": [
        {
          "internalType": "address payable",
          "name": "_to",
          "type": "address"
        }
      ],
      "name": "withdraw",
      "outputs": [],
      "stateMutability": "payable",
      "type": "function"
    }
  ],
  "bytecode": "0x60806040523480156200001157600080fd5b50604051620059d3380380620059d3833981016040819052620000349162000270565b620000416000826200015c565b6001600160a01b0381166000908152600360205260408120805460ff1916600117905562000091907fcaa7f6290f33308266ee2988386694ac9bc3612b5df272e3502129925a64f997906200016c565b620000be7f0aaf57387812c7f832412470a57567b5648a930069be49aa9c98d04f88520d3460006200016c565b620000eb7faf290d8680820aad922855f39b306097b20e28774d6c1ad35a20325630c3a02c60006200016c565b620001187fbe9e90431f28bd12a87a51b26b014cab620a8a4819bf73d87369ccbe6800a76c60006200016c565b50600580546001600160a01b039485166001600160a01b031991821617909155600780549385169382169390931790925560088054919093169116179055620002d8565b620001688282620001b7565b5050565b600082815260208190526040808220600101805490849055905190918391839186917fbd79b86ffe0ab8e8776151514217cd7cacd52c909f66475c3af44e129f0b00ff9190a4505050565b6000828152602081815260408083206001600160a01b038516845290915290205460ff1662000168576000828152602081815260408083206001600160a01b03851684529091529020805460ff19166001179055620002133390565b6001600160a01b0316816001600160a01b0316837f2f8788117e7eff1d82e926ec794901d17c78024a50270940304540a733656f0d60405160405180910390a45050565b6001600160a01b03811681146200026d57600080fd5b50565b600080600080608085870312156200028757600080fd5b8451620002948162000257565b6020860151909450620002a78162000257565b6040860151909350620002ba8162000257565b6060860151909250620002cd8162000257565b939692955090935050565b6156eb80620002e86000396000f3fe608060405260043610620003725760003560e01c80636e90549611620001d7578063a217fddf1162000101578063d547741f116200009c578063d547741f1462000d48578063da3e33971462000d6d578063e18007621462000d92578063eaad46f51462000dea578063ec87621c1462000e0f578063ee54d54f1462000e45578063f5537ede1462000e6a578063fb3c0d701462000e8f57600080fd5b8063a217fddf1462000bca578063a591afbe1462000be1578063a6d63e591462000bf9578063a72246871462000c1e578063ac9650d81462000c40578063c0d955d61462000c74578063cf784eda1462000c99578063d1e671671462000cca57600080fd5b8063882575671162000172578063882575671462000a745780638bbab5c71462000a995780638d846f2c1462000acf57806391d148541462000b00578063920fd1781462000b25578063926a694d1462000b4a57806394343cd21462000b6f5780639ea693501462000ba557600080fd5b80636e905496146200093a57806370480275146200096b5780637065cb48146200099057806370c7510714620009b5578063785e9e8614620009da5780637b10399914620009fc5780637ecebe001462000a1e57806386a9bc0b1462000a4f57600080fd5b806330772c1011620002b9578063494101ff1162000254578063494101ff14620007ef5780634c91b44e146200081457806351cff8d9146200084a578063546fcaa414620008615780635cbd99d414620008865780635d75554214620008ab57806364a2f7d914620008d2578063666e1b39146200090657600080fd5b806330772c1014620006645780633098b74b14620006be578063351c3d0b14620006e357806336568abe146200071457806337d027b814620007395780633fc16810146200076a57806345e0f753146200078f5780634937b17414620007b457600080fd5b806301ffc9a714620003ba578063055ee07014620003f4578063101b84801462000434578063125bfb66146200047a578063173825d914620004a157806318cf283414620004c6578063237c9db314620004eb5780632384e105146200051c578063248a9ca3146200055257806324d7806c146200058657806327fa7a2014620005ab57806329312a9c14620005d05780632aef0c3014620005f55780632d41d559146200061a5780632f2ff15d146200063f57600080fd5b36620003b5577f88a5966d370b9919b20f3e2c13ff65706f196a4e32cc2c12bf57088f885258743334604051620003ab92919062003d09565b60405180910390a1005b600080fd5b348015620003c757600080fd5b50620003df620003d936600462003d22565b62000eb4565b60405190151581526020015b60405180910390f35b3480156200040157600080fd5b50620004256200041336600462003d4e565b60096020526000908152604090205481565b604051908152602001620003eb565b3480156200044157600080fd5b50620004596200045336600462003d7e565b62000ec7565b604080519485526020850193909352918301526060820152608001620003eb565b3480156200048757600080fd5b506200049f6200049936600462003db1565b62001007565b005b348015620004ae57600080fd5b50620003df620004c036600462003df7565b620010c0565b348015620004d357600080fd5b50620004256000805160206200566f83398151915281565b348015620004f857600080fd5b50620004256200050a36600462003df7565b60136020526000908152604090205481565b3480156200052957600080fd5b50620004257fcfa8166f1bb1b8818c3767a9ffd776afbbe3409a468070bb860831e01b56549981565b3480156200055f57600080fd5b50620004256200057136600462003d4e565b60009081526020819052604090206001015490565b3480156200059357600080fd5b50620003df620005a536600462003df7565b62001128565b348015620005b857600080fd5b506200049f620005ca36600462003ed6565b62001136565b348015620005dd57600080fd5b506200049f620005ef36600462003f20565b62001409565b3480156200060257600080fd5b506200049f6200061436600462003f4f565b620015ca565b3480156200062757600080fd5b506200049f6200063936600462003f72565b620016ac565b3480156200064c57600080fd5b506200049f6200065e36600462003d7e565b620019ac565b3480156200067157600080fd5b50620006896200068336600462003df7565b620019d6565b604080516001600160a01b03909616865260208601949094529284019190915260608301521515608082015260a001620003eb565b348015620006cb57600080fd5b5062000425620006dd36600462003fb0565b62001c02565b348015620006f057600080fd5b50620004256200070236600462003d4e565b600a6020526000908152604090205481565b3480156200072157600080fd5b506200049f6200073336600462003d7e565b62001c57565b3480156200074657600080fd5b506008546200075b906001600160a01b031681565b604051620003eb919062004060565b3480156200077757600080fd5b506200049f6200078936600462004083565b62001cd9565b3480156200079c57600080fd5b506200075b620007ae36600462003df7565b62001d25565b348015620007c157600080fd5b50620007d9620007d3366004620040ab565b6200202c565b60408051928352602083019190915201620003eb565b348015620007fc57600080fd5b50620004256200080e36600462003d4e565b62002121565b3480156200082157600080fd5b50620004257fbe9e90431f28bd12a87a51b26b014cab620a8a4819bf73d87369ccbe6800a76c81565b6200049f6200085b36600462003df7565b6200215d565b3480156200086e57600080fd5b506200049f62000880366004620040de565b62002227565b3480156200089357600080fd5b506200049f620008a536600462003df7565b620023d7565b348015620008b857600080fd5b50620008c362002421565b604051620003eb919062004108565b348015620008df57600080fd5b50620003df620008f136600462003d4e565b600b6020526000908152604090205460ff1681565b3480156200091357600080fd5b50620003df6200092536600462003df7565b60036020526000908152604090205460ff1681565b3480156200094757600080fd5b50620004256200095936600462003d4e565b600e6020526000908152604090205481565b3480156200097857600080fd5b506200049f6200098a36600462003df7565b62002434565b3480156200099d57600080fd5b50620003df620009af36600462003df7565b62002491565b348015620009c257600080fd5b5062000425620009d436600462004157565b620024f5565b348015620009e757600080fd5b506005546200075b906001600160a01b031681565b34801562000a0957600080fd5b506007546200075b906001600160a01b031681565b34801562000a2b57600080fd5b506200042562000a3d36600462003df7565b60046020526000908152604090205481565b34801562000a5c57600080fd5b506200049f62000a6e36600462003f20565b6200250a565b34801562000a8157600080fd5b506200049f62000a9336600462003f4f565b620026c8565b34801562000aa657600080fd5b50620004257f043620c1e1c33ecf60d9dadc62571b96554338b68ef3636e715e52a286bea92e81565b34801562000adc57600080fd5b506200042562000aee36600462003d4e565b600f6020526000908152604090205481565b34801562000b0d57600080fd5b50620003df62000b1f36600462003d7e565b62002716565b34801562000b3257600080fd5b506200042562000b4436600462003df7565b6200273f565b34801562000b5757600080fd5b50620004256000805160206200564f83398151915281565b34801562000b7c57600080fd5b50620004257f8ff5d84bbad5f252f2ee1916646e221e55645205d2f803ebe6a7d6ba8fa4185d81565b34801562000bb257600080fd5b506200049f62000bc436600462003f4f565b62002762565b34801562000bd757600080fd5b5062000425600081565b34801562000bee57600080fd5b50620008c362002a45565b34801562000c0657600080fd5b506200049f62000c183660046200418f565b62002a53565b34801562000c2b57600080fd5b506006546200075b906001600160a01b031681565b34801562000c4d57600080fd5b5062000c6562000c5f366004620041da565b62002b0f565b604051620003eb9190620042a7565b34801562000c8157600080fd5b506200049f62000c933660046200430d565b62002c16565b34801562000ca657600080fd5b506200042562000cb836600462003d4e565b6000908152600f602052604090205490565b34801562000cd757600080fd5b5062000d2162000ce936600462003f20565b601460209081526000928352604080842090915290825290208054600182015460028301546003909301549192909160ff9091169084565b604080519485526020850193909352901515918301919091526060820152608001620003eb565b34801562000d5557600080fd5b506200049f62000d6736600462003d7e565b62002e0a565b34801562000d7a57600080fd5b506200049f62000d8c36600462003db1565b62002e34565b34801562000d9f57600080fd5b5062000db762000db136600462003d4e565b62002e96565b604080516001600160a01b0390961686529315156020860152928401919091526060830152608082015260a001620003eb565b34801562000df757600080fd5b506200049f62000e093660046200435e565b62002ff2565b34801562000e1c57600080fd5b50620004257faf290d8680820aad922855f39b306097b20e28774d6c1ad35a20325630c3a02c81565b34801562000e5257600080fd5b50620003df62000e6436600462003df7565b62003073565b34801562000e7757600080fd5b506200049f62000e8936600462003db1565b62003090565b34801562000e9c57600080fd5b506200049f62000eae3660046200439b565b620030f2565b600062000ec182620031a3565b92915050565b6006546000908190819081906001600160a01b031662000eef57600092506000915062000fe1565b600654604051636eb1769f60e11b81526001600160a01b039091169063dd62ed3e9062000f239088903090600401620043f3565b602060405180830381865afa15801562000f41573d6000803e3d6000fd5b505050506040513d601f19601f8201168201806040525081019062000f6791906200440d565b6006546040516370a0823160e01b81529194506001600160a01b0316906370a082319062000f9a90309060040162004060565b602060405180830381865afa15801562000fb8573d6000803e3d6000fd5b505050506040513d601f19601f8201168201806040525081019062000fde91906200440d565b91505b506000948552600f6020908152604080872054600e909252909520549591949093509150565b3360009081526003602052604090205460ff16620010425760405162461bcd60e51b8152600401620010399062004427565b60405180910390fd5b6040516323b872dd60e01b81526001600160a01b038416906323b872dd9062001074908590309086906004016200446e565b6020604051808303816000875af115801562001094573d6000803e3d6000fd5b505050506040513d601f19601f82011682018060405250810190620010ba919062004492565b50505050565b3360009081526003602052604081205460ff16620010f25760405162461bcd60e51b8152600401620010399062004427565b6001600160a01b0382166000908152600360205260409020805460ff191690556200111f600183620031da565b50600192915050565b600062000ec1818362002716565b816000620011448262002121565b6000838152600a602052604081205491925003620011765760405162461bcd60e51b81526004016200103990620044b2565b620011916000805160206200564f8339815191523362002716565b620011b05760405162461bcd60e51b81526004016200103990620044ff565b6000620011bd8562002121565b336000908152601460209081526040808320848452909152902060028101549192509060ff166200123d5760405162461bcd60e51b815260206004820152602360248201527f52414841543a20436c61696d20686173206e6f74206265656e2072656c65617360448201526232b21760e91b606482015260840162001039565b42816003015410156200129d5760405162461bcd60e51b815260206004820152602160248201527f52414841543a20436c61696d2068617320616c726561647920657870697265646044820152601760f91b606482015260840162001039565b6000620012aa86620024f5565b3360009081526014602090815260408083208784529091529020600101549091508114620013175760405162461bcd60e51b81526020600482015260196024820152782920a420aa1d1027aa28103234b2103737ba1036b0ba31b41760391b604482015260640162001039565b62001327878360000154620031f8565b815460028301805460ff191690556000808455600384015560055460405163a9059cbb60e01b81526001600160a01b039091169063a9059cbb9062001373903390859060040162003d09565b6020604051808303816000875af115801562001393573d6000803e3d6000fd5b505050506040513d601f19601f82011682018060405250810190620013b9919062004492565b50620013c73389836200326c565b604051818152889033907fe4de809bf00bba73c562150b76ba81e5af05183458342bfdb09a7c9e303813e5906020015b60405180910390a35050505050505050565b6200141660003362002716565b620014355760405162461bcd60e51b8152600401620010399062004549565b6007546001600160a01b03166338a699a462001451846200273f565b6040518263ffffffff1660e01b81526004016200147091815260200190565b602060405180830381865afa1580156200148e573d6000803e3d6000fd5b505050506040513d601f19601f82011682018060405250810190620014b4919062004492565b620014d35760405162461bcd60e51b8152600401620010399062004580565b6006546007546001600160a01b039182169163095ea7b3911663bde87f2e620014fc866200273f565b6040518263ffffffff1660e01b81526004016200151b91815260200190565b602060405180830381865afa15801562001539573d6000803e3d6000fd5b505050506040513d601f19601f820116820180604052508101906200155f9190620045b7565b836040518363ffffffff1660e01b81526004016200157f92919062003d09565b6020604051808303816000875af11580156200159f573d6000803e3d6000fd5b505050506040513d601f19601f82011682018060405250810190620015c5919062004492565b505050565b620015d760003362002716565b620015f65760405162461bcd60e51b8152600401620010399062004549565b816000620016048262002121565b6000838152600a602052604081205491925003620016365760405162461bcd60e51b81526004016200103990620044b2565b6000848152600a6020908152604080832054868452600f909252822080549192839262001665908490620045ed565b90915550506000858152600a6020908152604080832083905560099091529020546200169390829062004603565b6000958652600960205260409095209490945550505050565b826000620016ba8262002121565b6000838152600a602052604081205491925003620016ec5760405162461bcd60e51b81526004016200103990620044b2565b620017076000805160206200566f8339815191523362002716565b620017685760405162461bcd60e51b815260206004820152602a60248201527f52414841543a2053656e646572206d75737420626520616e20617574686f72696044820152693d32b21039b2b93b32b960b11b606482015260840162001039565b6000620017758662002121565b6001600160a01b038816600090815260146020908152604080832084845290915281206003810154929350919003620017ff5760405162461bcd60e51b815260206004820152602560248201527f52414841543a20436c61696d20686173206e6f74206265656e2063726561746560448201526419081e595d60da1b606482015260840162001039565b620151808511156200186c5760405162461bcd60e51b815260206004820152602f60248201527f52414841543a54696d6520546f204c6976652073686f756c64206265206c657360448201526e73207468616e20323420686f75727360881b606482015260840162001039565b6003810154620018809062015180620045ed565b421115620018dd5760405162461bcd60e51b815260206004820152602360248201527f52414841543a20436c61696d206973206f6c646572207468616e20323420686f60448201526275727360e81b606482015260840162001039565b600281015460ff1615620019445760405162461bcd60e51b815260206004820152602760248201527f52414841543a20436c61696d2068617320616c7265616479206265656e2072656044820152663632b0b9b2b21760c91b606482015260840162001039565b600180820187905560028201805460ff19169091179055620019678542620045ed565b6003820155805460405190815287906001600160a01b038a16907f05ca75b0d90f1dd046ad3b8c1ec4a461042c3d33518b9b67d9feafc7d8d3c6cf90602001620013f7565b600082815260208190526040902060010154620019ca8133620033db565b620015c583836200344a565b60075460009081908190819081906001600160a01b031663bde87f2e620019fd886200273f565b6040518263ffffffff1660e01b815260040162001a1c91815260200190565b602060405180830381865afa15801562001a3a573d6000803e3d6000fd5b505050506040513d601f19601f8201168201806040525081019062001a609190620045b7565b6006549095506001600160a01b031662001a8257600093506000925062001b74565b600654604051636eb1769f60e11b81526001600160a01b039091169063dd62ed3e9062001ab69030908990600401620043f3565b602060405180830381865afa15801562001ad4573d6000803e3d6000fd5b505050506040513d601f19601f8201168201806040525081019062001afa91906200440d565b6006546040516370a0823160e01b81529195506001600160a01b0316906370a082319062001b2d90889060040162004060565b602060405180830381865afa15801562001b4b573d6000803e3d6000fd5b505050506040513d601f19601f8201168201806040525081019062001b7191906200440d565b92505b6005546040516370a0823160e01b81526001600160a01b03909116906370a082319062001ba690899060040162004060565b602060405180830381865afa15801562001bc4573d6000803e3d6000fd5b505050506040513d601f19601f8201168201806040525081019062001bea91906200440d565b915062001bf78662003073565b905091939590929450565b6000805b825181101562001c515782818151811062001c255762001c2562004619565b60200260200101518262001c3a9190620045ed565b91508062001c48816200462f565b91505062001c06565b50919050565b6001600160a01b038116331462001cc95760405162461bcd60e51b815260206004820152602f60248201527f416363657373436f6e74726f6c3a2063616e206f6e6c792072656e6f756e636560448201526e103937b632b9903337b91039b2b63360891b606482015260840162001039565b62001cd58282620034d2565b5050565b62001ce660003362002716565b62001d055760405162461bcd60e51b8152600401620010399062004549565b6000918252600b6020526040909120805460ff1916911515919091179055565b600062001d33813362002716565b62001d525760405162461bcd60e51b8152600401620010399062004549565b60008062001d60846200273f565b600754604051635ef43f9760e11b8152600481018390529192506000916001600160a01b039091169063bde87f2e90602401602060405180830381865afa15801562001db0573d6000803e3d6000fd5b505050506040513d601f19601f8201168201806040525081019062001dd69190620045b7565b90506001600160a01b0381161562001df15780925062001ebf565b3060405162001e009062003cfb565b62001e0c919062004060565b604051809103906000f08015801562001e29573d6000803e3d6000fd5b506007549093506001600160a01b031663b3fd13a962001e49876200273f565b6040516001600160e01b031960e084901b16815260048101919091526001600160a01b03861660248201526044016020604051808303816000875af115801562001e97573d6000803e3d6000fd5b505050506040513d601f19601f8201168201806040525081019062001ebd919062004492565b505b604051630e0cb96960e31b81526001600160a01b03841690637065cb489062001eed90889060040162004060565b6020604051808303816000875af115801562001f0d573d6000803e3d6000fd5b505050506040513d601f19601f8201168201806040525081019062001f33919062004492565b5062001f4f6000805160206200564f83398151915286620019ac565b62001f5c6011866200353a565b5067016345785d8a0000856001600160a01b031631101562002023576000856001600160a01b03166702c68af0bb14000060405160006040518083038185875af1925050503d806000811462001fcf576040519150601f19603f3d011682016040523d82523d6000602084013e62001fd4565b606091505b5050905080620020215760405162461bcd60e51b81526020600482015260176024820152762930b430ba103732b2b2399036b7b9329032ba3432b91760491b604482015260640162001039565b505b50909392505050565b600080836001600160a01b031663dd62ed3e84306040518363ffffffff1660e01b81526004016200205f929190620043f3565b602060405180830381865afa1580156200207d573d6000803e3d6000fd5b505050506040513d601f19601f82011682018060405250810190620020a391906200440d565b6040516370a0823160e01b81529092506001600160a01b038516906370a0823190620020d490309060040162004060565b602060405180830381865afa158015620020f2573d6000803e3d6000fd5b505050506040513d601f19601f820116820180604052508101906200211891906200440d565b90509250929050565b60006200212e8262003551565b6040516020016200214091906200464b565b604051602081830303815290604052805190602001209050919050565b6200216a60003362002716565b620021895760405162461bcd60e51b8152600401620010399062004549565b6000816001600160a01b03164760405160006040518083038185875af1925050503d8060008114620021d8576040519150601f19603f3d011682016040523d82523d6000602084013e620021dd565b606091505b505090508062001cd55760405162461bcd60e51b81526020600482015260146024820152732330b4b632b2103a379039b2b7321022ba3432b960611b604482015260640162001039565b826000620022358262002121565b6000838152600a602052604081205491925003620022675760405162461bcd60e51b81526004016200103990620044b2565b6200227460003362002716565b620022935760405162461bcd60e51b8152600401620010399062004549565b6200229e8462003073565b620022f75760405162461bcd60e51b815260206004820152602260248201527f5472616e7366657220746f206d7573742062652076656e646f72206164647265604482015261737360f01b606482015260840162001039565b620023038584620031f8565b620023108486856200326c565b60055460405163a9059cbb60e01b81526001600160a01b039091169063a9059cbb9062002344908790879060040162003d09565b6020604051808303816000875af115801562002364573d6000803e3d6000fd5b505050506040513d601f19601f820116820180604052508101906200238a919062004492565b5084846001600160a01b03167fe4de809bf00bba73c562150b76ba81e5af05183458342bfdb09a7c9e303813e585604051620023c891815260200190565b60405180910390a35050505050565b620023e460003362002716565b620024035760405162461bcd60e51b8152600401620010399062004549565b6200241e6000805160206200566f83398151915282620019ac565b50565b60606200242f601162003671565b905090565b6200244160003362002716565b620024605760405162461bcd60e51b8152600401620010399062004549565b6200246d600082620019ac565b6001600160a01b03166000908152600360205260409020805460ff19166001179055565b3360009081526003602052604081205460ff16620024c35760405162461bcd60e51b8152600401620010399062004427565b6001600160a01b0382166000908152600360205260409020805460ff191660019081179091556200111f90836200353a565b6000816040516020016200214091906200464b565b6200251760003362002716565b620025365760405162461bcd60e51b8152600401620010399062004549565b6007546001600160a01b03166338a699a462002552846200273f565b6040518263ffffffff1660e01b81526004016200257191815260200190565b602060405180830381865afa1580156200258f573d6000803e3d6000fd5b505050506040513d601f19601f82011682018060405250810190620025b5919062004492565b620025d45760405162461bcd60e51b8152600401620010399062004580565b6007546000906001600160a01b031663bde87f2e620025f3856200273f565b6040518263ffffffff1660e01b81526004016200261291815260200190565b602060405180830381865afa15801562002630573d6000803e3d6000fd5b505050506040513d601f19601f82011682018060405250810190620026569190620045b7565b60065460405163092dfdb360e11b81529192506001600160a01b038084169263125bfb66926200268f921690309087906004016200446e565b600060405180830381600087803b158015620026aa57600080fd5b505af1158015620026bf573d6000803e3d6000fd5b50505050505050565b6000828152600f602052604081208054839290620026e8908490620045ed565b90915550506000828152600e6020526040812080548392906200270d908490620045ed565b90915550505050565b6000918252602082815260408084206001600160a01b0393909316845291905290205460ff1690565b6040516001600160601b0319606083901b16602082015260009060340162002140565b816000620027708262002121565b6000838152600a602052604081205491925003620027a25760405162461bcd60e51b81526004016200103990620044b2565b620027bd6000805160206200564f8339815191523362002716565b620027dc5760405162461bcd60e51b81526004016200103990620044ff565b600860009054906101000a90046001600160a01b03166001600160a01b031663b8f7a6656040518163ffffffff1660e01b8152600401602060405180830381865afa15801562002830573d6000803e3d6000fd5b505050506040513d601f19601f8201168201806040525081019062002856919062004492565b620028ca5760405162461bcd60e51b815260206004820152603f60248201527f5468697320726573706f6e736520686173206e6f74206265656e20616374697660448201527f61746564207965742c20706c6561736520636f6e746163742061646d696e2e00606482015260840162001039565b6000848152600b602052604090205460ff1615620029375760405162461bcd60e51b8152602060048201526024808201527f43616e6e6f7420636c61696d2066726f6d2062616e6b65642062656e656669636044820152636961727960e01b606482015260840162001039565b62002943338462003680565b6000620029508562002121565b6000868152600a6020526040902054909150841115620029d95760405162461bcd60e51b815260206004820152603c60248201527f52414841543a20416d6f756e742072657175657374656420697320677265617460448201527f6572207468616e2062656e65666963696172792062616c616e63652e00000000606482015260840162001039565b33600090815260146020908152604080832084845282529182902060028101805460ff191690558681554260038201559151868152879132917f79ef0b2282f5e45718748b37d5a89727c1544ad2f78b126efa97c32ac1f1d232910160405180910390a3505050505050565b60606200242f600162003671565b3360009081526003602052604090205460ff1662002a855760405162461bcd60e51b8152600401620010399062004427565b6006546001600160a01b031662002ab257600680546001600160a01b0319166001600160a01b0386161790555b62002abf84848362001007565b6000828152600f60205260408120805483929062002adf908490620045ed565b90915550506000828152600e60205260408120805483929062002b04908490620045ed565b909155505050505050565b6060816001600160401b0381111562002b2c5762002b2c62003e17565b60405190808252806020026020018201604052801562002b6157816020015b606081526020019060019003908162002b4b5790505b50905060005b8281101562002c0f5762002bd93085858481811062002b8a5762002b8a62004619565b905060200281019062002b9e919062004669565b8080601f016020809104026020016040519081016040528093929190818152602001838380828437600092019190915250620037d792505050565b82828151811062002bee5762002bee62004619565b6020026020010181905250808062002c06906200462f565b91505062002b67565b5092915050565b62002c2360003362002716565b62002c425760405162461bcd60e51b8152600401620010399062004549565b600062002c4f84620024f5565b6007549091506001600160a01b03166338a699a462002c6e8562002121565b6040518263ffffffff1660e01b815260040162002c8d91815260200190565b602060405180830381865afa15801562002cab573d6000803e3d6000fd5b505050506040513d601f19601f8201168201806040525081019062002cd1919062004492565b62002d1d5760405162461bcd60e51b815260206004820152601b60248201527a2132b732b334b1b4b0b93c903737ba103932b3b4b9ba32b932b21760291b604482015260640162001039565b6000818152600f602052604090205482111562002d9c5760405162461bcd60e51b815260206004820152603660248201527f52414841543a20416d6f756e742069732067726561746572207468616e2072656044820152751b585a5b9a5b99c8141c9bda9958dd08109d5919d95d60521b606482015260840162001039565b62002da88383620037ff565b6000818152600f60205260408120805484929062002dc890849062004603565b9091555050604051828152839082907f707197b34e0edb88707154f8a8ea9f3c8d891eb60a28dac25cc79bf23c3aa5c19060200160405180910390a350505050565b60008281526020819052604090206001015462002e288133620033db565b620015c58383620034d2565b3360009081526003602052604090205460ff1662002e665760405162461bcd60e51b8152600401620010399062004427565b60405163095ea7b360e01b81526001600160a01b0384169063095ea7b39062001074908590859060040162003d09565b60075460009081908190819081906001600160a01b031663bde87f2e62002ebd8862002121565b6040518263ffffffff1660e01b815260040162002edc91815260200190565b602060405180830381865afa15801562002efa573d6000803e3d6000fd5b505050506040513d601f19601f8201168201806040525081019062002f209190620045b7565b6000878152600b602052604090205460065491965060ff1694506001600160a01b031662002f52576000925062002fcb565b6006546040516370a0823160e01b81526001600160a01b03909116906370a082319062002f8490889060040162004060565b602060405180830381865afa15801562002fa2573d6000803e3d6000fd5b505050506040513d601f19601f8201168201806040525081019062002fc891906200440d565b92505b50506000938452600a60209081526040808620546009909252909420549294919390929091565b62002fff60003362002716565b6200301e5760405162461bcd60e51b8152600401620010399062004549565b60006200302b82620024f5565b9050620030597fbe9e90431f28bd12a87a51b26b014cab620a8a4819bf73d87369ccbe6800a76c84620019ac565b6000818152601060205260409020620010ba90846200353a565b600062000ec16000805160206200564f8339815191528362002716565b3360009081526003602052604090205460ff16620030c25760405162461bcd60e51b8152600401620010399062004427565b60405163a9059cbb60e01b81526001600160a01b0384169063a9059cbb9062001074908590859060040162003d09565b3360009081526003602052604090205460ff16620031245760405162461bcd60e51b8152600401620010399062004427565b6040516323b872dd60e01b81526001600160a01b038516906323b872dd9062003156908690869086906004016200446e565b6020604051808303816000875af115801562003176573d6000803e3d6000fd5b505050506040513d601f19601f820116820180604052508101906200319c919062004492565b5050505050565b60006001600160e01b03198216637965db0b60e01b148062000ec157506301ffc9a760e01b6001600160e01b031983161462000ec1565b6000620031f1836001600160a01b03841662003874565b9392505050565b816000620032068262002121565b6000838152600a602052604081205491925003620032385760405162461bcd60e51b81526004016200103990620044b2565b6000848152600a60205260409020546200325490849062004603565b6000948552600a602052604090942093909355505050565b6007546000906001600160a01b031663bde87f2e6200328b866200273f565b6040518263ffffffff1660e01b8152600401620032aa91815260200190565b602060405180830381865afa158015620032c8573d6000803e3d6000fd5b505050506040513d601f19601f82011682018060405250810190620032ee9190620045b7565b6006546007549192506001600160a01b038084169263f5537ede928216911663bde87f2e6200331d8862002121565b6040518263ffffffff1660e01b81526004016200333c91815260200190565b602060405180830381865afa1580156200335a573d6000803e3d6000fd5b505050506040513d601f19601f82011682018060405250810190620033809190620045b7565b856040518463ffffffff1660e01b8152600401620033a1939291906200446e565b600060405180830381600087803b158015620033bc57600080fd5b505af1158015620033d1573d6000803e3d6000fd5b5050505050505050565b620033e7828262002716565b62001cd55762003402816001600160a01b0316601462003978565b6200340f83602062003978565b60405160200162003422929190620046b9565b60408051601f198184030181529082905262461bcd60e51b825262001039916004016200472c565b62003456828262002716565b62001cd5576000828152602081815260408083206001600160a01b03851684529091529020805460ff191660011790556200348e3390565b6001600160a01b0316816001600160a01b0316837f2f8788117e7eff1d82e926ec794901d17c78024a50270940304540a733656f0d60405160405180910390a45050565b620034de828262002716565b1562001cd5576000828152602081815260408083206001600160a01b0385168085529252808320805460ff1916905551339285917ff6391f5c32d9c69d2a47ea670b442974b53935d1edc7fd64eb21e047a839171b9190a45050565b6000620031f1836001600160a01b03841662003b31565b606081600003620035795750506040805180820190915260018152600360fc1b602082015290565b8160005b8115620035a9578062003590816200462f565b9150620035a19050600a8362004757565b91506200357d565b6000816001600160401b03811115620035c657620035c662003e17565b6040519080825280601f01601f191660200182016040528015620035f1576020820181803683370190505b5090505b841562003669576200360960018362004603565b915062003618600a866200476e565b62003625906030620045ed565b60f81b8183815181106200363d576200363d62004619565b60200101906001600160f81b031916908160001a90535062003661600a8662004757565b9450620035f5565b949350505050565b60606000620031f18362003b83565b6006546007546000916001600160a01b03908116916370a08231911663bde87f2e620036ac876200273f565b6040518263ffffffff1660e01b8152600401620036cb91815260200190565b602060405180830381865afa158015620036e9573d6000803e3d6000fd5b505050506040513d601f19601f820116820180604052508101906200370f9190620045b7565b6040518263ffffffff1660e01b81526004016200372d919062004060565b602060405180830381865afa1580156200374b573d6000803e3d6000fd5b505050506040513d601f19601f820116820180604052508101906200377191906200440d565b905081811015620015c55760405162461bcd60e51b815260206004820152602960248201527f56656e646f7220646f6573206e6f74206861766520656e6f7567682063617368604482015268103130b630b731b29760b91b606482015260840162001039565b6060620031f183836040518060600160405280602781526020016200568f6027913962003be1565b6000828152600a60205260409020546200381b908290620045ed565b6000838152600a602090815260408083209390935560099052205462003843908290620045ed565b6000838152600960209081526040808320939093553382526013905290812080548392906200270d908490620045ed565b600081815260018301602052604081205480156200396d5760006200389b60018362004603565b8554909150600090620038b19060019062004603565b90508181146200391d576000866000018281548110620038d557620038d562004619565b9060005260206000200154905080876000018481548110620038fb57620038fb62004619565b6000918252602080832090910192909255918252600188019052604090208390555b855486908062003931576200393162004785565b60019003818190600052602060002001600090559055856001016000868152602001908152602001600020600090556001935050505062000ec1565b600091505062000ec1565b60606000620039898360026200479b565b62003996906002620045ed565b6001600160401b03811115620039b057620039b062003e17565b6040519080825280601f01601f191660200182016040528015620039db576020820181803683370190505b509050600360fc1b81600081518110620039f957620039f962004619565b60200101906001600160f81b031916908160001a905350600f60fb1b8160018151811062003a2b5762003a2b62004619565b60200101906001600160f81b031916908160001a905350600062003a518460026200479b565b62003a5e906001620045ed565b90505b600181111562003ae0576f181899199a1a9b1b9c1cb0b131b232b360811b85600f166010811062003a965762003a9662004619565b1a60f81b82828151811062003aaf5762003aaf62004619565b60200101906001600160f81b031916908160001a90535060049490941c9362003ad881620047bd565b905062003a61565b508315620031f15760405162461bcd60e51b815260206004820181905260248201527f537472696e67733a20686578206c656e67746820696e73756666696369656e74604482015260640162001039565b600081815260018301602052604081205462003b7a5750815460018181018455600084815260208082209093018490558454848252828601909352604090209190915562000ec1565b50600062000ec1565b60608160000180548060200260200160405190810160405280929190818152602001828054801562003bd557602002820191906000526020600020905b81548152602001906001019080831162003bc0575b50505050509050919050565b6060833b62003c425760405162461bcd60e51b815260206004820152602660248201527f416464726573733a2064656c65676174652063616c6c20746f206e6f6e2d636f6044820152651b9d1c9858dd60d21b606482015260840162001039565b600080856001600160a01b03168560405162003c5f91906200464b565b600060405180830381855af49150503d806000811462003c9c576040519150601f19603f3d011682016040523d82523d6000602084013e62003ca1565b606091505b509150915062003cb382828662003cbd565b9695505050505050565b6060831562003cce575081620031f1565b82511562003cdf5782518084602001fd5b8160405162461bcd60e51b81526004016200103991906200472c565b610e7780620047d883390190565b6001600160a01b03929092168252602082015260400190565b60006020828403121562003d3557600080fd5b81356001600160e01b031981168114620031f157600080fd5b60006020828403121562003d6157600080fd5b5035919050565b6001600160a01b03811681146200241e57600080fd5b6000806040838503121562003d9257600080fd5b82359150602083013562003da68162003d68565b809150509250929050565b60008060006060848603121562003dc757600080fd5b833562003dd48162003d68565b9250602084013562003de68162003d68565b929592945050506040919091013590565b60006020828403121562003e0a57600080fd5b8135620031f18162003d68565b634e487b7160e01b600052604160045260246000fd5b604051601f8201601f191681016001600160401b038111828210171562003e585762003e5862003e17565b604052919050565b600082601f83011262003e7257600080fd5b81356001600160401b0381111562003e8e5762003e8e62003e17565b62003ea3601f8201601f191660200162003e2d565b81815284602083860101111562003eb957600080fd5b816020850160208301376000918101602001919091529392505050565b6000806040838503121562003eea57600080fd5b8235915060208301356001600160401b0381111562003f0857600080fd5b62003f168582860162003e60565b9150509250929050565b6000806040838503121562003f3457600080fd5b823562003f418162003d68565b946020939093013593505050565b6000806040838503121562003f6357600080fd5b50508035926020909101359150565b6000806000806080858703121562003f8957600080fd5b843562003f968162003d68565b966020860135965060408601359560600135945092505050565b6000602080838503121562003fc457600080fd5b82356001600160401b038082111562003fdc57600080fd5b818501915085601f83011262003ff157600080fd5b81358181111562004006576200400662003e17565b8060051b91506200401984830162003e2d565b81815291830184019184810190888411156200403457600080fd5b938501935b83851015620040545784358252938501939085019062004039565b98975050505050505050565b6001600160a01b0391909116815260200190565b80151581146200241e57600080fd5b600080604083850312156200409757600080fd5b82359150602083013562003da68162004074565b60008060408385031215620040bf57600080fd5b8235620040cc8162003d68565b9150602083013562003da68162003d68565b600080600060608486031215620040f457600080fd5b83359250602084013562003de68162003d68565b6020808252825182820181905260009190848201906040850190845b818110156200414b5783516001600160a01b03168352928401929184019160010162004124565b50909695505050505050565b6000602082840312156200416a57600080fd5b81356001600160401b038111156200418157600080fd5b620036698482850162003e60565b60008060008060808587031215620041a657600080fd5b8435620041b38162003d68565b93506020850135620041c58162003d68565b93969395505050506040820135916060013590565b60008060208385031215620041ee57600080fd5b82356001600160401b03808211156200420657600080fd5b818501915085601f8301126200421b57600080fd5b8135818111156200422b57600080fd5b8660208260051b85010111156200424157600080fd5b60209290920196919550909350505050565b60005b838110156200427057818101518382015260200162004256565b50506000910152565b600081518084526200429381602086016020860162004253565b601f01601f19169290920160200192915050565b6000602080830181845280855180835260408601915060408160051b870101925083870160005b828110156200430057603f19888603018452620042ed85835162004279565b94509285019290850190600101620042ce565b5092979650505050505050565b6000806000606084860312156200432357600080fd5b83356001600160401b038111156200433a57600080fd5b620043488682870162003e60565b9660208601359650604090950135949350505050565b600080604083850312156200437257600080fd5b82356200437f8162003d68565b915060208301356001600160401b0381111562003f0857600080fd5b60008060008060808587031215620043b257600080fd5b8435620043bf8162003d68565b93506020850135620043d18162003d68565b92506040850135620043e38162003d68565b9396929550929360600135925050565b6001600160a01b0392831681529116602082015260400190565b6000602082840312156200442057600080fd5b5051919050565b60208082526027908201527f4f6e6c79206f776e65722063616e20657865637574652074686973207472616e60408201526639b0b1ba34b7b760c91b606082015260800190565b6001600160a01b039384168152919092166020820152604081019190915260600190565b600060208284031215620044a557600080fd5b8151620031f18162004074565b6020808252602d908201527f52414841543a204e6f20616e7920746f6b656e2077617320697373756564207460408201526c37903a3434b990373ab6b132b960991b606082015260800190565b6020808252602a908201527f52414841543a2053656e646572204d757374206265206120726567697374657260408201526932b2103b32b73237b91760b11b606082015260800190565b6020808252601f908201527f52414841543a2053656e646572206d75737420626520616e2061646d696e2e00604082015260600190565b6020808252601d908201527f76656e646f722077616c6c6574206e6f7420726567697374657265642e000000604082015260600190565b600060208284031215620045ca57600080fd5b8151620031f18162003d68565b634e487b7160e01b600052601160045260246000fd5b8082018082111562000ec15762000ec1620045d7565b8181038181111562000ec15762000ec1620045d7565b634e487b7160e01b600052603260045260246000fd5b600060018201620046445762004644620045d7565b5060010190565b600082516200465f81846020870162004253565b9190910192915050565b6000808335601e198436030181126200468157600080fd5b8301803591506001600160401b038211156200469c57600080fd5b602001915036819003821315620046b257600080fd5b9250929050565b76020b1b1b2b9b9a1b7b73a3937b61d1030b1b1b7bab73a1604d1b815260008351620046ed81601785016020880162004253565b7001034b99036b4b9b9b4b733903937b6329607d1b60179184019182015283516200472081602884016020880162004253565b01602801949350505050565b602081526000620031f1602083018462004279565b634e487b7160e01b600052601260045260246000fd5b60008262004769576200476962004741565b500490565b60008262004780576200478062004741565b500690565b634e487b7160e01b600052603160045260246000fd5b6000816000190483118215151615620047b857620047b8620045d7565b500290565b600081620047cf57620047cf620045d7565b50600019019056fe608060405234801561001057600080fd5b50604051610e77380380610e7783398101604081905261002f91610056565b6001600160a01b03166000908152600260205260409020805460ff19166001179055610086565b60006020828403121561006857600080fd5b81516001600160a01b038116811461007f57600080fd5b9392505050565b610de2806100956000396000f3fe608060405234801561001057600080fd5b506004361061008e5760003560e01c8063125bfb6614610093578063173825d9146100a85780634937b174146100d0578063666e1b39146100f85780637065cb481461011b578063a591afbe1461012e578063ac9650d814610143578063da3e339714610163578063f5537ede14610176578063fb3c0d7014610189575b600080fd5b6100a66100a1366004610985565b61019c565b005b6100bb6100b63660046109c1565b61024d565b60405190151581526020015b60405180910390f35b6100e36100de3660046109dc565b6102b1565b604080519283526020830191909152016100c7565b6100bb6101063660046109c1565b60026020526000908152604090205460ff1681565b6100bb6101293660046109c1565b61039a565b6101366103f6565b6040516100c79190610a06565b610156610151366004610a53565b610407565b6040516100c79190610b18565b6100a6610171366004610985565b6104fd565b6100a6610184366004610985565b61055a565b6100a6610197366004610b7a565b6105b7565b3360009081526002602052604090205460ff166101d45760405162461bcd60e51b81526004016101cb90610bc5565b60405180910390fd5b6040516323b872dd60e01b81526001600160a01b038416906323b872dd9061020490859030908690600401610c0c565b6020604051808303816000875af1158015610223573d6000803e3d6000fd5b505050506040513d601f19601f820116820180604052508101906102479190610c30565b50505050565b3360009081526002602052604081205460ff1661027c5760405162461bcd60e51b81526004016101cb90610bc5565b6001600160a01b0382166000908152600260205260408120805460ff191690556102a69083610660565b50600190505b919050565b604051636eb1769f60e11b81526001600160a01b038281166004830152306024830152600091829185169063dd62ed3e90604401602060405180830381865afa158015610302573d6000803e3d6000fd5b505050506040513d601f19601f820116820180604052508101906103269190610c52565b6040516370a0823160e01b81523060048201529092506001600160a01b038516906370a0823190602401602060405180830381865afa15801561036d573d6000803e3d6000fd5b505050506040513d601f19601f820116820180604052508101906103919190610c52565b90509250929050565b3360009081526002602052604081205460ff166103c95760405162461bcd60e51b81526004016101cb90610bc5565b6001600160a01b0382166000908152600260205260408120805460ff191660011790556102a6908361067c565b60606104026000610691565b905090565b60608167ffffffffffffffff81111561042257610422610c6b565b60405190808252806020026020018201604052801561045557816020015b60608152602001906001900390816104405790505b50905060005b828110156104f5576104c53085858481811061047957610479610c81565b905060200281019061048b9190610c97565b8080601f01602080910402602001604051908101604052809392919081815260200183838082843760009201919091525061069e92505050565b8282815181106104d7576104d7610c81565b602002602001018190525080806104ed90610cfb565b91505061045b565b505b92915050565b3360009081526002602052604090205460ff1661052c5760405162461bcd60e51b81526004016101cb90610bc5565b60405163095ea7b360e01b81526001600160a01b0384169063095ea7b3906102049085908590600401610d14565b3360009081526002602052604090205460ff166105895760405162461bcd60e51b81526004016101cb90610bc5565b60405163a9059cbb60e01b81526001600160a01b0384169063a9059cbb906102049085908590600401610d14565b3360009081526002602052604090205460ff166105e65760405162461bcd60e51b81526004016101cb90610bc5565b6040516323b872dd60e01b81526001600160a01b038516906323b872dd9061061690869086908690600401610c0c565b6020604051808303816000875af1158015610635573d6000803e3d6000fd5b505050506040513d601f19601f820116820180604052508101906106599190610c30565b5050505050565b6000610675836001600160a01b0384166106c3565b9392505050565b6000610675836001600160a01b0384166107b6565b6060600061067583610805565b60606106758383604051806060016040528060278152602001610d8660279139610861565b600081815260018301602052604081205480156107ac5760006106e7600183610d2d565b85549091506000906106fb90600190610d2d565b905081811461076057600086600001828154811061071b5761071b610c81565b906000526020600020015490508087600001848154811061073e5761073e610c81565b6000918252602080832090910192909255918252600188019052604090208390555b855486908061077157610771610d40565b6001900381819060005260206000200160009055905585600101600086815260200190815260200160002060009055600193505050506104f7565b60009150506104f7565b60008181526001830160205260408120546107fd575081546001818101845560008481526020808220909301849055845484825282860190935260409020919091556104f7565b5060006104f7565b60608160000180548060200260200160405190810160405280929190818152602001828054801561085557602002820191906000526020600020905b815481526020019060010190808311610841575b50505050509050919050565b6060833b6108c05760405162461bcd60e51b815260206004820152602660248201527f416464726573733a2064656c65676174652063616c6c20746f206e6f6e2d636f6044820152651b9d1c9858dd60d21b60648201526084016101cb565b600080856001600160a01b0316856040516108db9190610d56565b600060405180830381855af49150503d8060008114610916576040519150601f19603f3d011682016040523d82523d6000602084013e61091b565b606091505b509150915061092b828286610935565b9695505050505050565b60608315610944575081610675565b8251156109545782518084602001fd5b8160405162461bcd60e51b81526004016101cb9190610d72565b80356001600160a01b03811681146102ac57600080fd5b60008060006060848603121561099a57600080fd5b6109a38461096e565b92506109b16020850161096e565b9150604084013590509250925092565b6000602082840312156109d357600080fd5b6106758261096e565b600080604083850312156109ef57600080fd5b6109f88361096e565b91506103916020840161096e565b6020808252825182820181905260009190848201906040850190845b81811015610a475783516001600160a01b031683529284019291840191600101610a22565b50909695505050505050565b60008060208385031215610a6657600080fd5b823567ffffffffffffffff80821115610a7e57600080fd5b818501915085601f830112610a9257600080fd5b813581811115610aa157600080fd5b8660208260051b8501011115610ab657600080fd5b60209290920196919550909350505050565b60005b83811015610ae3578181015183820152602001610acb565b50506000910152565b60008151808452610b04816020860160208601610ac8565b601f01601f19169290920160200192915050565b6000602080830181845280855180835260408601915060408160051b870101925083870160005b82811015610b6d57603f19888603018452610b5b858351610aec565b94509285019290850190600101610b3f565b5092979650505050505050565b60008060008060808587031215610b9057600080fd5b610b998561096e565b9350610ba76020860161096e565b9250610bb56040860161096e565b9396929550929360600135925050565b60208082526027908201527f4f6e6c79206f776e65722063616e20657865637574652074686973207472616e60408201526639b0b1ba34b7b760c91b606082015260800190565b6001600160a01b039384168152919092166020820152604081019190915260600190565b600060208284031215610c4257600080fd5b8151801515811461067557600080fd5b600060208284031215610c6457600080fd5b5051919050565b634e487b7160e01b600052604160045260246000fd5b634e487b7160e01b600052603260045260246000fd5b6000808335601e19843603018112610cae57600080fd5b83018035915067ffffffffffffffff821115610cc957600080fd5b602001915036819003821315610cde57600080fd5b9250929050565b634e487b7160e01b600052601160045260246000fd5b600060018201610d0d57610d0d610ce5565b5060010190565b6001600160a01b03929092168252602082015260400190565b818103818111156104f7576104f7610ce5565b634e487b7160e01b600052603160045260246000fd5b60008251610d68818460208701610ac8565b9190910192915050565b6020815260006106756020830184610aec56fe416464726573733a206c6f772d6c6576656c2064656c65676174652063616c6c206661696c6564a26469706673582212207dbbe24f763d11398b882f2b39051d99ae0dcd6f4c79a1c0213341d98ff8ff3764736f6c634300081000330aaf57387812c7f832412470a57567b5648a930069be49aa9c98d04f88520d34caa7f6290f33308266ee2988386694ac9bc3612b5df272e3502129925a64f997416464726573733a206c6f772d6c6576656c2064656c65676174652063616c6c206661696c6564a2646970667358221220d6cda5e47c4972e48d034b1ad75d2616f9c546a1c4b4ab6c4ca2ef7c80e96ab764736f6c63430008100033",
  "immutableReferences": {},
  "source": "//SPDX-License-Identifier: LGPL-3.0\r\n//TODO add balance of beneficiary per project\r\n//TODO suspend mobilizer and vendor\r\n//TODO test tokenissue by mobilizer\r\n//TODO test otp set by server account and otp submission by vendor account\r\n//TODO revole roles\r\n\r\npragma solidity ^0.8.16;\r\nimport \"./RahatERC20.sol\";\r\nimport \"./RahatRegistry.sol\";\r\nimport \"./RahatWallet.sol\";\r\nimport \"./RahatTriggerResponse.sol\";\r\nimport \"../libraries/AbstractERC20Func.sol\";\r\n\r\nimport \"@openzeppelin/contracts/access/AccessControl.sol\";\r\nimport \"@openzeppelin/contracts/utils/structs/EnumerableSet.sol\";\r\nimport \"@openzeppelin/contracts/utils/cryptography/ECDSA.sol\";\r\n\r\ncontract Rahat is AccessControl, AbstractERC20Func {\r\n    using Strings for uint256;\r\n    using EnumerableSet for EnumerableSet.Bytes32Set;\r\n    using EnumerableSet for EnumerableSet.AddressSet;\r\n    using EnumerableSet for EnumerableSet.UintSet;\r\n    using ECDSA for bytes32;\r\n\r\n    //***** Events *********//\r\n    event ClaimedERC20(\r\n        address indexed vendor,\r\n        uint256 indexed beneficiary,\r\n        uint256 amount\r\n    );\r\n    event ClaimApproved(\r\n        address indexed vendor,\r\n        uint256 indexed phone,\r\n        uint256 amount\r\n    );\r\n    event IssuedERC20(\r\n        bytes32 indexed projectId,\r\n        uint256 indexed phone,\r\n        uint256 amount\r\n    );\r\n    event ClaimAcquiredERC20(\r\n        address indexed vendor,\r\n        uint256 indexed beneficiary,\r\n        uint256 amount\r\n    );\r\n    event InvalidSignature(\r\n        bytes signature,\r\n        bytes32 digest,\r\n        address expectedSigner,\r\n        address recoveredSigner\r\n    );\r\n    event Received(address, uint);\r\n\r\n    //event BalanceAdjusted(uint256 indexed phone, uint256 amount, string reason);\r\n\r\n    //***** Constant Variables (Roles) *********//\r\n    bytes32 public constant SERVER_ROLE = keccak256(\"SERVER\");\r\n    bytes32 public constant VENDOR_ROLE = keccak256(\"VENDOR\");\r\n    bytes32 public constant MANAGER_ROLE = keccak256(\"MANAGER\");\r\n    bytes32 public constant MOBILIZER_ROLE = keccak256(\"MOBILIZER\");\r\n    bytes32 public constant ISSUE_TOKEN = keccak256(\"issueToken\");\r\n    bytes32 public constant CREATE_CLAIM = keccak256(\"createClaim\");\r\n    bytes32 public constant GET_TOKENS_FROM_CLAIM =\r\n        keccak256(\"getTokensFromClaim\");\r\n\r\n    mapping(address => uint256) public nonces; //delegated users nonces\r\n\r\n    //***** Variables (State) *********//\r\n    //AidToken public tokenContract;\r\n    RahatERC20 public erc20;\r\n    RahatERC20 public cashToken;\r\n    RahatRegistry public registry;\r\n    RahatTriggerResponse public triggerResponse;\r\n\r\n    ///@notice track total issued tokens of each benefiicary phone\r\n    mapping(uint256 => uint256) public erc20Issued; //phone=>balance\r\n\r\n    /// @notice track balances of each beneficiary phone\r\n    mapping(uint256 => uint256) public erc20Balance; //phone=>balance\r\n\r\n    mapping(uint256 => bool) public isBanked;\r\n\r\n    /// @notice track projectBalances\r\n    //bytes32[] public projectId;\r\n    EnumerableSet.Bytes32Set private projectId;\r\n    mapping(bytes32 => uint256) public totalProjectErc20Issued;\r\n    mapping(bytes32 => uint256) public remainingProjectErc20Balances;\r\n    mapping(bytes32 => EnumerableSet.AddressSet) projectMobilizers;\r\n    EnumerableSet.AddressSet private projectVendors;\r\n\r\n    mapping(address => uint256) public erc20IssuedBy;\r\n\r\n    struct claim {\r\n        uint256 amount;\r\n        bytes32 otpHash;\r\n        bool isReleased;\r\n        uint256 date;\r\n    }\r\n    /// @dev vendorAddress => phone => claim\r\n    mapping(address => mapping(bytes32 => claim)) public recentERC20Claims;\r\n\r\n    //***** Constructor *********//\r\n    constructor(\r\n        RahatERC20 _erc20,\r\n        RahatRegistry _registry,\r\n        RahatTriggerResponse _triggerResponse,\r\n        address _admin\r\n    ) {\r\n        _setupRole(DEFAULT_ADMIN_ROLE, _admin);\r\n        owner[_admin] = true;\r\n        _setRoleAdmin(SERVER_ROLE, DEFAULT_ADMIN_ROLE);\r\n        _setRoleAdmin(VENDOR_ROLE, DEFAULT_ADMIN_ROLE);\r\n        _setRoleAdmin(MANAGER_ROLE, DEFAULT_ADMIN_ROLE);\r\n        _setRoleAdmin(MOBILIZER_ROLE, DEFAULT_ADMIN_ROLE);\r\n        erc20 = _erc20;\r\n        registry = _registry;\r\n        triggerResponse = _triggerResponse;\r\n    }\r\n\r\n    function supportsInterface(\r\n        bytes4 interfaceId\r\n    ) public view virtual override(AccessControl) returns (bool) {\r\n        return super.supportsInterface(interfaceId);\r\n    }\r\n\r\n    //***** Modifiers *********//\r\n    modifier OnlyServer() {\r\n        require(\r\n            hasRole(SERVER_ROLE, msg.sender),\r\n            \"RAHAT: Sender must be an authorized server\"\r\n        );\r\n        _;\r\n    }\r\n    modifier OnlyAdmin() {\r\n        require(\r\n            hasRole(DEFAULT_ADMIN_ROLE, msg.sender),\r\n            \"RAHAT: Sender must be an admin.\"\r\n        );\r\n        _;\r\n    }\r\n    modifier IsBeneficiary(uint256 _phone) {\r\n        bytes32 _benId = findHash(_phone);\r\n        require(\r\n            erc20Balance[_phone] != 0,\r\n            \"RAHAT: No any token was issued to this number\"\r\n        );\r\n        _;\r\n    }\r\n    modifier OnlyVendor() {\r\n        require(\r\n            hasRole(VENDOR_ROLE, msg.sender),\r\n            \"RAHAT: Sender Must be a registered vendor.\"\r\n        );\r\n        _;\r\n    }\r\n    modifier OnlyAdminOrMobilizer() {\r\n        require(\r\n            (hasRole(DEFAULT_ADMIN_ROLE, msg.sender) ||\r\n                hasRole(MOBILIZER_ROLE, msg.sender)),\r\n            \"RAHAT: Sender Must be a registered Admin Or Mobilizer.\"\r\n        );\r\n        _;\r\n    }\r\n\r\n    //***** Methods *********//\r\n    //Access Control Management\r\n    /// @notice add admin of the this contract\r\n    /// @param _account address of the new admin\r\n    function addAdmin(address _account) external OnlyAdmin {\r\n        grantRole(DEFAULT_ADMIN_ROLE, _account);\r\n        owner[_account] = true;\r\n    }\r\n\r\n    function isAdmin(address _account) external view returns (bool) {\r\n        return hasRole(DEFAULT_ADMIN_ROLE, _account);\r\n    }\r\n\r\n    /// @notice add server account for this contract\r\n    /// @param _account address of the new server account\r\n    function addServer(address _account) external OnlyAdmin {\r\n        grantRole(SERVER_ROLE, _account);\r\n    }\r\n\r\n    /// @notice add vendors\r\n    /// @param _account address of the new vendor\r\n    function addVendor(\r\n        address payable _account\r\n    ) external OnlyAdmin returns (address) {\r\n        RahatWallet vWallet;\r\n        bytes32 idHash = findHash(_account);\r\n        address vWalletAddress = registry.id2Address(idHash);\r\n        if (vWalletAddress != address(0)) {\r\n            vWallet = RahatWallet(vWalletAddress);\r\n        } else {\r\n            vWallet = new RahatWallet(address(this));\r\n            registry.addId2AddressMap(findHash(_account), address(vWallet));\r\n        }\r\n        vWallet.addOwner(_account);\r\n        grantRole(VENDOR_ROLE, _account);\r\n        projectVendors.add(_account);\r\n        if (_account.balance < 0.1 ether) {\r\n            (bool success, ) = _account.call{value: 0.2 ether}(\"\");\r\n            require(success, \"Rahat needs more ether.\");\r\n        }\r\n        return address(vWallet);\r\n    }\r\n\r\n    function isVendor(address _account) public view returns (bool) {\r\n        return hasRole(VENDOR_ROLE, _account);\r\n    }\r\n\r\n    function listVendors() public view returns (address[] memory) {\r\n        return projectVendors.values();\r\n    }\r\n\r\n    /// @notice add vendors\r\n    /// @param _account address of the new vendor\r\n    /// @param _projectId projectId\r\n    function addMobilizer(\r\n        address _account,\r\n        string memory _projectId\r\n    ) external OnlyAdmin {\r\n        bytes32 _id = findHash(_projectId);\r\n        grantRole(MOBILIZER_ROLE, _account);\r\n        projectMobilizers[_id].add(_account);\r\n    }\r\n\r\n    /// @notice set IsBanked Beneficiary\r\n    /// @param _phone beneficiary phone number\r\n    /// @param _isBanked true/false\r\n    function setAsBankedBeneficiary(\r\n        uint256 _phone,\r\n        bool _isBanked\r\n    ) external OnlyAdmin {\r\n        isBanked[_phone] = _isBanked;\r\n    }\r\n\r\n    // function suspendMobilizer() public {}\r\n\r\n    // function suspendVendor() public {}\r\n\r\n    //Beneficiary Management\r\n    /// @notice suspend the benficiary by deducting all the balance beneficiary owns\r\n    /// @param _phone phone number of the Beneficiary\r\n    /// @param _projectId projectId beneficiary is involved in\r\n    function suspendBeneficiary(\r\n        uint256 _phone,\r\n        bytes32 _projectId\r\n    ) public OnlyAdmin IsBeneficiary(_phone) {\r\n        //  bytes32 _benId = findHash(_phone);\r\n\r\n        uint256 _balance = erc20Balance[_phone];\r\n        remainingProjectErc20Balances[_projectId] += _balance;\r\n        erc20Balance[_phone] = 0;\r\n        erc20Issued[_phone] = erc20Issued[_phone] - _balance;\r\n    }\r\n\r\n    /// @notice adds the token from beneficiary\r\n    function adjustTokenAdd(uint256 _phone, uint256 _amount) private {\r\n        // bytes32 _benId = findHash(_phone);\r\n        erc20Balance[_phone] = erc20Balance[_phone] + _amount;\r\n        erc20Issued[_phone] = erc20Issued[_phone] + _amount;\r\n        erc20IssuedBy[msg.sender] += _amount;\r\n        //emit BalanceAdjusted(_phone, _amount, _reason);\r\n    }\r\n\r\n    /// @notice deducts the token from beneficiary\r\n    function adjustTokenDeduct(\r\n        uint256 _phone,\r\n        uint256 _amount\r\n    ) private IsBeneficiary(_phone) {\r\n        //bytes32 _benId = findHash(_phone);\r\n        erc20Balance[_phone] = erc20Balance[_phone] - _amount;\r\n        //emit BalanceAdjusted(_phone, _amount, _reason);\r\n    }\r\n\r\n    /// @notice update a project balance.\r\n    /// @notice called by rahatdmin contract\r\n    /// @param _projectId Id of the project to assign budget\r\n    /// @param _projectCapital amount of budget to be added to project\r\n    function updateProjectBudget(\r\n        bytes32 _projectId,\r\n        uint256 _projectCapital\r\n    ) external {\r\n        remainingProjectErc20Balances[_projectId] += _projectCapital;\r\n        totalProjectErc20Issued[_projectId] += _projectCapital;\r\n    }\r\n\r\n    /// @notice get the current balance of project\r\n    function getProjectBalance(\r\n        bytes32 _projectId\r\n    ) external view returns (uint256 _balance) {\r\n        return remainingProjectErc20Balances[_projectId];\r\n    }\r\n\r\n    function verifyVendor(\r\n        bytes32 _hash,\r\n        bytes memory _signature\r\n    ) internal view returns (address) {\r\n        address _signer = _hash.recover(_signature);\r\n        require(hasRole(VENDOR_ROLE, _signer), \"Signer should be Mobilizer\");\r\n        return _signer;\r\n    }\r\n\r\n    function verifyMobilizer(\r\n        bytes32 _hash,\r\n        bytes memory _signature\r\n    ) internal view returns (address) {\r\n        address _signer = _hash.recover(_signature);\r\n        require(hasRole(MOBILIZER_ROLE, _signer), \"Signer should be Mobilizer\");\r\n        return _signer;\r\n    }\r\n\r\n    /// @notice Issue tokens to beneficiary\r\n    /// @param _projectId Id of the project beneficiary is involved in\r\n    /// @param _phone phone number of the beneficiary\r\n    /// @param _amount Amount of token to be assigned to beneficiary\r\n    function issueERC20ToBeneficiary(\r\n        string memory _projectId,\r\n        uint256 _phone,\r\n        uint256 _amount\r\n    ) public OnlyAdmin {\r\n        bytes32 _id = findHash(_projectId);\r\n\r\n        //check beneficiary in registry;\r\n        require(\r\n            registry.exists(findHash(_phone)),\r\n            \"Beneficiary not registered.\"\r\n        );\r\n        require(\r\n            remainingProjectErc20Balances[_id] >= _amount,\r\n            \"RAHAT: Amount is greater than remaining Project Budget\"\r\n        );\r\n        adjustTokenAdd(_phone, _amount);\r\n        remainingProjectErc20Balances[_id] -= _amount;\r\n\r\n        emit IssuedERC20(_id, _phone, _amount);\r\n    }\r\n\r\n    /// @notice request a token to beneficiary by vendor\r\n    /// @param _phone Phone number of beneficiary to whom token is requested\r\n    /// @param _tokens Number of tokens to request\r\n    function createERC20Claim(\r\n        uint256 _phone,\r\n        uint256 _tokens\r\n    ) public IsBeneficiary(_phone) OnlyVendor {\r\n        require(\r\n            triggerResponse.isLive(),\r\n            \"This response has not been activated yet, please contact admin.\"\r\n        );\r\n        require(!isBanked[_phone], \"Cannot claim from banked beneficiary\");\r\n\r\n        _verifyVendorCashBalance(msg.sender, _tokens);\r\n\r\n        bytes32 _benId = findHash(_phone);\r\n        require(\r\n            erc20Balance[_phone] >= _tokens,\r\n            \"RAHAT: Amount requested is greater than beneficiary balance.\"\r\n        );\r\n\r\n        claim storage ac = recentERC20Claims[msg.sender][_benId];\r\n        ac.isReleased = false;\r\n        ac.amount = _tokens;\r\n        ac.date = block.timestamp;\r\n        emit ClaimedERC20(tx.origin, _phone, _tokens);\r\n    }\r\n\r\n    /// @notice Approve the requested claim from serverside and set the otp hash\r\n    /// @param _vendor Address of the vendor who requested the token from beneficiary\r\n    /// @param _phone Phone number of the beneficiary, to whom token request was sent\r\n    /// @param _otpHash Hash of OTP sent to beneficiary by server\r\n    /// @param _timeToLive Validity of OTP in seconds\r\n    function approveERC20Claim(\r\n        address _vendor,\r\n        uint256 _phone,\r\n        bytes32 _otpHash,\r\n        uint256 _timeToLive\r\n    ) public IsBeneficiary(_phone) OnlyServer {\r\n        bytes32 _benId = findHash(_phone);\r\n        claim storage ac = recentERC20Claims[_vendor][_benId];\r\n        require(ac.date != 0, \"RAHAT: Claim has not been created yet\");\r\n        require(\r\n            _timeToLive <= 86400,\r\n            \"RAHAT:Time To Live should be less than 24 hours\"\r\n        );\r\n        require(\r\n            block.timestamp <= ac.date + 86400,\r\n            \"RAHAT: Claim is older than 24 hours\"\r\n        );\r\n        require(!ac.isReleased, \"RAHAT: Claim has already been released.\");\r\n        ac.otpHash = _otpHash;\r\n        ac.isReleased = true;\r\n        ac.date = block.timestamp + _timeToLive;\r\n        emit ClaimApproved(_vendor, _phone, ac.amount);\r\n    }\r\n\r\n    /// @notice Retrieve tokens that was requested to beneficiary by entering OTP\r\n    /// @param _phone Phone Number of the beneficiary, to whom token request was sent\r\n    /// @param _otp OTP sent by the server\r\n    function getERC20FromClaim(\r\n        uint256 _phone,\r\n        string memory _otp\r\n    ) public IsBeneficiary(_phone) OnlyVendor {\r\n        bytes32 _benId = findHash(_phone);\r\n        claim storage ac = recentERC20Claims[msg.sender][_benId];\r\n        require(ac.isReleased, \"RAHAT: Claim has not been released.\");\r\n        require(\r\n            ac.date >= block.timestamp,\r\n            \"RAHAT: Claim has already expired.\"\r\n        );\r\n        bytes32 otpHash = findHash(_otp);\r\n        require(\r\n            recentERC20Claims[msg.sender][_benId].otpHash == otpHash,\r\n            \"RAHAT: OTP did not match.\"\r\n        );\r\n        adjustTokenDeduct(_phone, ac.amount);\r\n        uint256 amt = ac.amount;\r\n        ac.isReleased = false;\r\n        ac.amount = 0;\r\n        ac.date = 0;\r\n        erc20.transfer(msg.sender, amt);\r\n        _transferCashFromVendor(msg.sender, _phone, amt);\r\n        emit ClaimAcquiredERC20(msg.sender, _phone, amt);\r\n    }\r\n\r\n    /// @notice Admin function to transfer beneficiary token to vendor\r\n    /// @param _phone Phone number of beneficiary to whom token is requested\r\n    /// @param _vendorAddress vendor's address\r\n    /// @param _amount Number of tokens to request\r\n    function transferTokenToVendorByAdmin(\r\n        uint256 _phone,\r\n        address _vendorAddress,\r\n        uint256 _amount\r\n    ) public IsBeneficiary(_phone) OnlyAdmin {\r\n        require(isVendor(_vendorAddress), \"Transfer to must be vendor address\");\r\n        adjustTokenDeduct(_phone, _amount);\r\n        _transferCashFromVendor(_vendorAddress, _phone, _amount);\r\n        erc20.transfer(_vendorAddress, _amount);\r\n        emit ClaimAcquiredERC20(_vendorAddress, _phone, _amount);\r\n    }\r\n\r\n    function transferCashToVendor(\r\n        address _vendorAddress,\r\n        uint _amount\r\n    ) public OnlyAdmin {\r\n        require(\r\n            registry.exists(findHash(_vendorAddress)),\r\n            \"vendor wallet not registered.\"\r\n        );\r\n        cashToken.approve(\r\n            registry.id2Address(findHash(_vendorAddress)),\r\n            _amount\r\n        );\r\n    }\r\n\r\n    function acceptCashForVendor(\r\n        address _vendorAddress,\r\n        uint _amount\r\n    ) public OnlyAdmin {\r\n        require(\r\n            registry.exists(findHash(_vendorAddress)),\r\n            \"vendor wallet not registered.\"\r\n        );\r\n        RahatWallet vendorWallet = RahatWallet(\r\n            registry.id2Address(findHash(_vendorAddress))\r\n        );\r\n        vendorWallet.claimToken(address(cashToken), address(this), _amount);\r\n    }\r\n\r\n    function _transferCashFromVendor(\r\n        address _vendorAddress,\r\n        uint256 _phone,\r\n        uint _amount\r\n    ) private {\r\n        RahatWallet vendorWallet = RahatWallet(\r\n            registry.id2Address(findHash(_vendorAddress))\r\n        );\r\n        vendorWallet.transferToken(\r\n            address(cashToken),\r\n            registry.id2Address(findHash(_phone)),\r\n            _amount\r\n        );\r\n    }\r\n\r\n    function _verifyVendorCashBalance(\r\n        address _vendorAddress,\r\n        uint256 _amount\r\n    ) private view {\r\n        uint balance = cashToken.balanceOf(\r\n            registry.id2Address(findHash(_vendorAddress))\r\n        );\r\n        require(\r\n            balance >= _amount,\r\n            \"Vendor does not have enough cash balance.\"\r\n        );\r\n    }\r\n\r\n    function claimTokenForProject(\r\n        address _token,\r\n        address _from,\r\n        bytes32 _projectId,\r\n        uint256 _amount\r\n    ) public OnlyOwner {\r\n        if (address(cashToken) == address(0)) cashToken = RahatERC20(_token);\r\n        claimToken(_token, _from, _amount);\r\n        remainingProjectErc20Balances[_projectId] += _amount;\r\n        totalProjectErc20Issued[_projectId] += _amount;\r\n    }\r\n\r\n    function projectBalance(\r\n        bytes32 _projectId,\r\n        address _allowanceFrom\r\n    )\r\n        public\r\n        view\r\n        returns (\r\n            uint totalBudget,\r\n            uint cashAllowance,\r\n            uint cashBalance,\r\n            uint tokenBalance\r\n        )\r\n    {\r\n        if (address(cashToken) == address(0)) {\r\n            cashAllowance = 0;\r\n            cashBalance = 0;\r\n        } else {\r\n            cashAllowance = cashToken.allowance(\r\n                address(_allowanceFrom),\r\n                address(this)\r\n            );\r\n            cashBalance = cashToken.balanceOf(address(this));\r\n        }\r\n        tokenBalance = remainingProjectErc20Balances[_projectId];\r\n        totalBudget = totalProjectErc20Issued[_projectId];\r\n    }\r\n\r\n    function vendorBalance(\r\n        address _vendorAddress\r\n    )\r\n        public\r\n        view\r\n        returns (\r\n            address walletAddress,\r\n            uint cashAllowance,\r\n            uint cashBalance,\r\n            uint tokenBalance,\r\n            bool hasVendorRole\r\n        )\r\n    {\r\n        walletAddress = registry.id2Address(findHash(_vendorAddress));\r\n        if (address(cashToken) == address(0)) {\r\n            cashAllowance = 0;\r\n            cashBalance = 0;\r\n        } else {\r\n            cashAllowance = cashToken.allowance(address(this), walletAddress);\r\n            cashBalance = cashToken.balanceOf(walletAddress);\r\n        }\r\n        tokenBalance = erc20.balanceOf(_vendorAddress);\r\n        hasVendorRole = isVendor(_vendorAddress);\r\n    }\r\n\r\n    function beneficiaryBalance(\r\n        uint _phone\r\n    )\r\n        public\r\n        view\r\n        returns (address walletAddress, bool hasBankAccount, uint cashBalance, uint tokenBalance, uint totalTokenIssued)\r\n    {\r\n        walletAddress = registry.id2Address(findHash(_phone));\r\n        hasBankAccount = isBanked[_phone];\r\n        if (address(cashToken) == address(0)) {\r\n            cashBalance = 0;\r\n        } else {\r\n            cashBalance = cashToken.balanceOf(walletAddress);\r\n        }\r\n        tokenBalance = erc20Balance[_phone];\r\n        totalTokenIssued = erc20Issued[_phone];\r\n    }\r\n\r\n    /// @notice generates the hash of the given string\r\n    /// @param _data String of which hash is to be generated\r\n    function findHash(string memory _data) public pure returns (bytes32) {\r\n        return keccak256(abi.encodePacked(_data));\r\n    }\r\n\r\n    /// @notice generates the hash of the given string\r\n    function findHash(uint256 _data) public pure returns (bytes32) {\r\n        return keccak256(abi.encodePacked(_data.toString()));\r\n    }\r\n\r\n    function findHash(address _data) public pure returns (bytes32) {\r\n        return keccak256(abi.encodePacked(_data));\r\n    }\r\n\r\n    /// @notice Generates the sum of all the integers in array\r\n    /// @param _array Array of uint\r\n    function getArraySum(\r\n        uint256[] memory _array\r\n    ) public pure returns (uint256 sum) {\r\n        sum = 0;\r\n        for (uint256 i = 0; i < _array.length; i++) {\r\n            sum += _array[i];\r\n        }\r\n        return sum;\r\n    }\r\n\r\n    receive() external payable {\r\n        emit Received(msg.sender, msg.value);\r\n    }\r\n\r\n    function withdraw(address payable _to) public payable OnlyAdmin {\r\n        (bool sent, ) = _to.call{value: address(this).balance}(\"\");\r\n        require(sent, \"Failed to send Ether\");\r\n    }\r\n}\r\n",
  "sourcePath": "S:\\Projects\\rahat\\unicef-np\\rahat-contracts\\src\\contracts\\Rahat.sol",
  "compiler": {
    "name": "solc",
    "version": "0.8.16+commit.07a7930e.Emscripten.clang"
  },
  "schemaVersion": "3.4.10",
  "updatedAt": "2022-12-04T18:00:15.168Z",
  "devdoc": {
    "kind": "dev",
    "methods": {
      "addAdmin(address)": {
        "params": {
          "_account": "address of the new admin"
        }
      },
      "addMobilizer(address,string)": {
        "params": {
          "_account": "address of the new vendor",
          "_projectId": "projectId"
        }
      },
      "addOwner(address)": {
        "params": {
          "_account": "address of new owner"
        }
      },
      "addServer(address)": {
        "params": {
          "_account": "address of the new server account"
        }
      },
      "addVendor(address)": {
        "params": {
          "_account": "address of the new vendor"
        }
      },
      "approveERC20Claim(address,uint256,bytes32,uint256)": {
        "params": {
          "_otpHash": "Hash of OTP sent to beneficiary by server",
          "_phone": "Phone number of the beneficiary, to whom token request was sent",
          "_timeToLive": "Validity of OTP in seconds",
          "_vendor": "Address of the vendor who requested the token from beneficiary"
        }
      },
      "createERC20Claim(uint256,uint256)": {
        "params": {
          "_phone": "Phone number of beneficiary to whom token is requested",
          "_tokens": "Number of tokens to request"
        }
      },
      "findHash(string)": {
        "params": {
          "_data": "String of which hash is to be generated"
        }
      },
      "getArraySum(uint256[])": {
        "params": {
          "_array": "Array of uint"
        }
      },
      "getERC20FromClaim(uint256,string)": {
        "params": {
          "_otp": "OTP sent by the server",
          "_phone": "Phone Number of the beneficiary, to whom token request was sent"
        }
      },
      "getRoleAdmin(bytes32)": {
        "details": "Returns the admin role that controls `role`. See {grantRole} and {revokeRole}. To change a role's admin, use {_setRoleAdmin}."
      },
      "grantRole(bytes32,address)": {
        "details": "Grants `role` to `account`. If `account` had not been already granted `role`, emits a {RoleGranted} event. Requirements: - the caller must have ``role``'s admin role."
      },
      "hasRole(bytes32,address)": {
        "details": "Returns `true` if `account` has been granted `role`."
      },
      "issueERC20ToBeneficiary(string,uint256,uint256)": {
        "params": {
          "_amount": "Amount of token to be assigned to beneficiary",
          "_phone": "phone number of the beneficiary",
          "_projectId": "Id of the project beneficiary is involved in"
        }
      },
      "multicall(bytes[])": {
        "details": "Receives and executes a batch of function calls on this contract."
      },
      "removeOwner(address)": {
        "params": {
          "_account": "address of existing owner"
        }
      },
      "renounceRole(bytes32,address)": {
        "details": "Revokes `role` from the calling account. Roles are often managed via {grantRole} and {revokeRole}: this function's purpose is to provide a mechanism for accounts to lose their privileges if they are compromised (such as when a trusted device is misplaced). If the calling account had been revoked `role`, emits a {RoleRevoked} event. Requirements: - the caller must be `account`."
      },
      "revokeRole(bytes32,address)": {
        "details": "Revokes `role` from `account`. If `account` had been granted `role`, emits a {RoleRevoked} event. Requirements: - the caller must have ``role``'s admin role."
      },
      "setAsBankedBeneficiary(uint256,bool)": {
        "params": {
          "_isBanked": "true/false",
          "_phone": "beneficiary phone number"
        }
      },
      "supportsInterface(bytes4)": {
        "details": "See {IERC165-supportsInterface}."
      },
      "suspendBeneficiary(uint256,bytes32)": {
        "params": {
          "_phone": "phone number of the Beneficiary",
          "_projectId": "projectId beneficiary is involved in"
        }
      },
      "transferTokenToVendorByAdmin(uint256,address,uint256)": {
        "params": {
          "_amount": "Number of tokens to request",
          "_phone": "Phone number of beneficiary to whom token is requested",
          "_vendorAddress": "vendor's address"
        }
      },
      "updateProjectBudget(bytes32,uint256)": {
        "params": {
          "_projectCapital": "amount of budget to be added to project",
          "_projectId": "Id of the project to assign budget"
        }
      }
    },
    "stateVariables": {
      "recentERC20Claims": {
        "details": "vendorAddress => phone => claim"
      }
    },
    "version": 1
  },
  "userdoc": {
    "kind": "user",
    "methods": {
      "addAdmin(address)": {
        "notice": "add admin of the this contract"
      },
      "addMobilizer(address,string)": {
        "notice": "add vendors"
      },
      "addOwner(address)": {
        "notice": "Add an account to the owner role"
      },
      "addServer(address)": {
        "notice": "add server account for this contract"
      },
      "addVendor(address)": {
        "notice": "add vendors"
      },
      "approveERC20Claim(address,uint256,bytes32,uint256)": {
        "notice": "Approve the requested claim from serverside and set the otp hash"
      },
      "createERC20Claim(uint256,uint256)": {
        "notice": "request a token to beneficiary by vendor"
      },
      "erc20Balance(uint256)": {
        "notice": "track balances of each beneficiary phone"
      },
      "erc20Issued(uint256)": {
        "notice": "track total issued tokens of each benefiicary phone"
      },
      "findHash(string)": {
        "notice": "generates the hash of the given string"
      },
      "findHash(uint256)": {
        "notice": "generates the hash of the given string"
      },
      "getArraySum(uint256[])": {
        "notice": "Generates the sum of all the integers in array"
      },
      "getERC20FromClaim(uint256,string)": {
        "notice": "Retrieve tokens that was requested to beneficiary by entering OTP"
      },
      "getProjectBalance(bytes32)": {
        "notice": "get the current balance of project"
      },
      "issueERC20ToBeneficiary(string,uint256,uint256)": {
        "notice": "Issue tokens to beneficiary"
      },
      "removeOwner(address)": {
        "notice": "Remove an account from the owner role"
      },
      "setAsBankedBeneficiary(uint256,bool)": {
        "notice": "set IsBanked Beneficiary"
      },
      "suspendBeneficiary(uint256,bytes32)": {
        "notice": "suspend the benficiary by deducting all the balance beneficiary owns"
      },
      "transferTokenToVendorByAdmin(uint256,address,uint256)": {
        "notice": "Admin function to transfer beneficiary token to vendor"
      },
      "updateProjectBudget(bytes32,uint256)": {
        "notice": "update a project balance.called by rahatdmin contract"
      }
    },
    "version": 1
  }
}