{
  "contractName": "RahatERC20",
  "abi": [
    {
      "inputs": [
        {
          "internalType": "string",
          "name": "_name",
          "type": "string"
        },
        {
          "internalType": "string",
          "name": "_symbol",
          "type": "string"
        },
        {
          "internalType": "address",
          "name": "_admin",
          "type": "address"
        },
        {
          "internalType": "uint8",
          "name": "_decimals",
          "type": "uint8"
        }
      ],
      "stateMutability": "nonpayable",
      "type": "constructor"
    },
    {
      "anonymous": false,
      "inputs": [
        {
          "indexed": true,
          "internalType": "address",
          "name": "owner",
          "type": "address"
        },
        {
          "indexed": true,
          "internalType": "address",
          "name": "spender",
          "type": "address"
        },
        {
          "indexed": false,
          "internalType": "uint256",
          "name": "value",
          "type": "uint256"
        }
      ],
      "name": "Approval",
      "type": "event"
    },
    {
      "anonymous": false,
      "inputs": [
        {
          "indexed": false,
          "internalType": "uint256",
          "name": "id",
          "type": "uint256"
        }
      ],
      "name": "Snapshot",
      "type": "event"
    },
    {
      "anonymous": false,
      "inputs": [
        {
          "indexed": true,
          "internalType": "address",
          "name": "from",
          "type": "address"
        },
        {
          "indexed": true,
          "internalType": "address",
          "name": "to",
          "type": "address"
        },
        {
          "indexed": false,
          "internalType": "uint256",
          "name": "value",
          "type": "uint256"
        }
      ],
      "name": "Transfer",
      "type": "event"
    },
    {
      "inputs": [
        {
          "internalType": "address",
          "name": "_account",
          "type": "address"
        }
      ],
      "name": "addOwner",
      "outputs": [
        {
          "internalType": "bool",
          "name": "",
          "type": "bool"
        }
      ],
      "stateMutability": "nonpayable",
      "type": "function"
    },
    {
      "inputs": [
        {
          "internalType": "address",
          "name": "owner",
          "type": "address"
        },
        {
          "internalType": "address",
          "name": "spender",
          "type": "address"
        }
      ],
      "name": "allowance",
      "outputs": [
        {
          "internalType": "uint256",
          "name": "",
          "type": "uint256"
        }
      ],
      "stateMutability": "view",
      "type": "function"
    },
    {
      "inputs": [
        {
          "internalType": "address",
          "name": "spender",
          "type": "address"
        },
        {
          "internalType": "uint256",
          "name": "amount",
          "type": "uint256"
        }
      ],
      "name": "approve",
      "outputs": [
        {
          "internalType": "bool",
          "name": "",
          "type": "bool"
        }
      ],
      "stateMutability": "nonpayable",
      "type": "function"
    },
    {
      "inputs": [
        {
          "internalType": "address",
          "name": "account",
          "type": "address"
        }
      ],
      "name": "balanceOf",
      "outputs": [
        {
          "internalType": "uint256",
          "name": "",
          "type": "uint256"
        }
      ],
      "stateMutability": "view",
      "type": "function"
    },
    {
      "inputs": [
        {
          "internalType": "address",
          "name": "account",
          "type": "address"
        },
        {
          "internalType": "uint256",
          "name": "snapshotId",
          "type": "uint256"
        }
      ],
      "name": "balanceOfAt",
      "outputs": [
        {
          "internalType": "uint256",
          "name": "",
          "type": "uint256"
        }
      ],
      "stateMutability": "view",
      "type": "function"
    },
    {
      "inputs": [
        {
          "internalType": "uint256",
          "name": "amount",
          "type": "uint256"
        }
      ],
      "name": "burn",
      "outputs": [],
      "stateMutability": "nonpayable",
      "type": "function"
    },
    {
      "inputs": [
        {
          "internalType": "address",
          "name": "account",
          "type": "address"
        },
        {
          "internalType": "uint256",
          "name": "amount",
          "type": "uint256"
        }
      ],
      "name": "burnFrom",
      "outputs": [],
      "stateMutability": "nonpayable",
      "type": "function"
    },
    {
      "inputs": [
        {
          "internalType": "address",
          "name": "spender",
          "type": "address"
        },
        {
          "internalType": "uint256",
          "name": "subtractedValue",
          "type": "uint256"
        }
      ],
      "name": "decreaseAllowance",
      "outputs": [
        {
          "internalType": "bool",
          "name": "",
          "type": "bool"
        }
      ],
      "stateMutability": "nonpayable",
      "type": "function"
    },
    {
      "inputs": [
        {
          "internalType": "address",
          "name": "spender",
          "type": "address"
        },
        {
          "internalType": "uint256",
          "name": "addedValue",
          "type": "uint256"
        }
      ],
      "name": "increaseAllowance",
      "outputs": [
        {
          "internalType": "bool",
          "name": "",
          "type": "bool"
        }
      ],
      "stateMutability": "nonpayable",
      "type": "function"
    },
    {
      "inputs": [],
      "name": "listAdmins",
      "outputs": [
        {
          "internalType": "address[]",
          "name": "",
          "type": "address[]"
        }
      ],
      "stateMutability": "view",
      "type": "function"
    },
    {
      "inputs": [
        {
          "internalType": "bytes[]",
          "name": "data",
          "type": "bytes[]"
        }
      ],
      "name": "multicall",
      "outputs": [
        {
          "internalType": "bytes[]",
          "name": "results",
          "type": "bytes[]"
        }
      ],
      "stateMutability": "nonpayable",
      "type": "function"
    },
    {
      "inputs": [],
      "name": "name",
      "outputs": [
        {
          "internalType": "string",
          "name": "",
          "type": "string"
        }
      ],
      "stateMutability": "view",
      "type": "function"
    },
    {
      "inputs": [
        {
          "internalType": "address",
          "name": "",
          "type": "address"
        }
      ],
      "name": "owner",
      "outputs": [
        {
          "internalType": "bool",
          "name": "",
          "type": "bool"
        }
      ],
      "stateMutability": "view",
      "type": "function"
    },
    {
      "inputs": [
        {
          "internalType": "address",
          "name": "_account",
          "type": "address"
        }
      ],
      "name": "removeOwner",
      "outputs": [
        {
          "internalType": "bool",
          "name": "",
          "type": "bool"
        }
      ],
      "stateMutability": "nonpayable",
      "type": "function"
    },
    {
      "inputs": [],
      "name": "symbol",
      "outputs": [
        {
          "internalType": "string",
          "name": "",
          "type": "string"
        }
      ],
      "stateMutability": "view",
      "type": "function"
    },
    {
      "inputs": [],
      "name": "totalSupply",
      "outputs": [
        {
          "internalType": "uint256",
          "name": "",
          "type": "uint256"
        }
      ],
      "stateMutability": "view",
      "type": "function"
    },
    {
      "inputs": [
        {
          "internalType": "uint256",
          "name": "snapshotId",
          "type": "uint256"
        }
      ],
      "name": "totalSupplyAt",
      "outputs": [
        {
          "internalType": "uint256",
          "name": "",
          "type": "uint256"
        }
      ],
      "stateMutability": "view",
      "type": "function"
    },
    {
      "inputs": [
        {
          "internalType": "address",
          "name": "recipient",
          "type": "address"
        },
        {
          "internalType": "uint256",
          "name": "amount",
          "type": "uint256"
        }
      ],
      "name": "transfer",
      "outputs": [
        {
          "internalType": "bool",
          "name": "",
          "type": "bool"
        }
      ],
      "stateMutability": "nonpayable",
      "type": "function"
    },
    {
      "inputs": [
        {
          "internalType": "address",
          "name": "sender",
          "type": "address"
        },
        {
          "internalType": "address",
          "name": "recipient",
          "type": "address"
        },
        {
          "internalType": "uint256",
          "name": "amount",
          "type": "uint256"
        }
      ],
      "name": "transferFrom",
      "outputs": [
        {
          "internalType": "bool",
          "name": "",
          "type": "bool"
        }
      ],
      "stateMutability": "nonpayable",
      "type": "function"
    },
    {
      "inputs": [],
      "name": "decimals",
      "outputs": [
        {
          "internalType": "uint8",
          "name": "",
          "type": "uint8"
        }
      ],
      "stateMutability": "view",
      "type": "function"
    },
    {
      "inputs": [
        {
          "internalType": "address",
          "name": "_address",
          "type": "address"
        },
        {
          "internalType": "uint256",
          "name": "_amount",
          "type": "uint256"
        }
      ],
      "name": "mint",
      "outputs": [
        {
          "internalType": "uint256",
          "name": "",
          "type": "uint256"
        }
      ],
      "stateMutability": "nonpayable",
      "type": "function"
    }
  ],
  "bytecode": "0x60806040523480156200001157600080fd5b5060405162001b7838038062001b7883398101604081905262000034916200015e565b8383600662000044838262000293565b50600762000053828262000293565b5050506001600160a01b039190911660009081526002602052604090208054600160ff1991821617909155600c805490911660ff909216919091179055506200035f9050565b634e487b7160e01b600052604160045260246000fd5b600082601f830112620000c157600080fd5b81516001600160401b0380821115620000de57620000de62000099565b604051601f8301601f19908116603f0116810190828211818310171562000109576200010962000099565b816040528381526020925086838588010111156200012657600080fd5b600091505b838210156200014a57858201830151818301840152908201906200012b565b600093810190920192909252949350505050565b600080600080608085870312156200017557600080fd5b84516001600160401b03808211156200018d57600080fd5b6200019b88838901620000af565b95506020870151915080821115620001b257600080fd5b50620001c187828801620000af565b604087015190945090506001600160a01b0381168114620001e157600080fd5b606086015190925060ff81168114620001f957600080fd5b939692955090935050565b600181811c908216806200021957607f821691505b6020821081036200023a57634e487b7160e01b600052602260045260246000fd5b50919050565b601f8211156200028e57600081815260208120601f850160051c81016020861015620002695750805b601f850160051c820191505b818110156200028a5782815560010162000275565b5050505b505050565b81516001600160401b03811115620002af57620002af62000099565b620002c781620002c0845462000204565b8462000240565b602080601f831160018114620002ff5760008415620002e65750858301515b600019600386901b1c1916600185901b1785556200028a565b600085815260208120601f198616915b8281101562000330578886015182559484019460019091019084016200030f565b50858210156200034f5787850151600019600388901b60f8161c191681555b5050505050600190811b01905550565b611809806200036f6000396000f3fe608060405234801561001057600080fd5b50600436106101175760003560e01c8063666e1b39116100a8578063666e1b39146101f85780637065cb481461021b57806370a082311461022e57806379cc67901461024157806395d89b4114610254578063981b24d01461025c578063a457c2d71461026f578063a591afbe14610282578063a9059cbb14610297578063ac9650d8146102aa578063dd62ed3e146102ca57600080fd5b806306fdde031461011c578063095ea7b31461013a578063173825d91461015d57806318160ddd1461017057806323b872dd14610182578063313ce5671461019557806339509351146101aa57806340c10f19146101bd57806342966c68146101d05780634ee2cd7e146101e5575b600080fd5b610124610303565b60405161013191906113da565b60405180910390f35b61014d610148366004611404565b610395565b6040519015158152602001610131565b61014d61016b36600461142e565b6103ac565b6005545b604051908152602001610131565b61014d610190366004611449565b610419565b600c5460405160ff9091168152602001610131565b61014d6101b8366004611404565b6104c5565b6101746101cb366004611404565b610501565b6101e36101de366004611485565b610540565b005b6101746101f3366004611404565b61054d565b61014d61020636600461142e565b60026020526000908152604090205460ff1681565b61014d61022936600461142e565b610596565b61017461023c36600461142e565b6105f2565b6101e361024f366004611404565b61060d565b610124610693565b61017461026a366004611485565b6106a2565b61014d61027d366004611404565b6106cd565b61028a610766565b604051610131919061149e565b61014d6102a5366004611404565b610777565b6102bd6102b83660046114eb565b610784565b6040516101319190611560565b6101746102d83660046115c2565b6001600160a01b03918216600090815260046020908152604080832093909416825291909152205490565b606060068054610312906115f5565b80601f016020809104026020016040519081016040528092919081815260200182805461033e906115f5565b801561038b5780601f106103605761010080835404028352916020019161038b565b820191906000526020600020905b81548152906001019060200180831161036e57829003601f168201915b5050505050905090565b60006103a2338484610879565b5060015b92915050565b3360009081526002602052604081205460ff166103e45760405162461bcd60e51b81526004016103db90611629565b60405180910390fd5b6001600160a01b0382166000908152600260205260408120805460ff1916905561040e908361099d565b50600190505b919050565b60006104268484846109b2565b6001600160a01b0384166000908152600460209081526040808320338452909152902054828110156104ab5760405162461bcd60e51b815260206004820152602860248201527f45524332303a207472616e7366657220616d6f756e74206578636565647320616044820152676c6c6f77616e636560c01b60648201526084016103db565b6104b88533858403610879565b60019150505b9392505050565b3360008181526004602090815260408083206001600160a01b038716845290915281205490916103a29185906104fc908690611686565b610879565b3360009081526002602052604081205460ff166105305760405162461bcd60e51b81526004016103db90611629565b61053a8383610b7a565b50919050565b61054a3382610c53565b50565b6001600160a01b038216600090815260086020526040812081908190610574908590610d9b565b915091508161058b57610586856105f2565b61058d565b805b95945050505050565b3360009081526002602052604081205460ff166105c55760405162461bcd60e51b81526004016103db90611629565b6001600160a01b0382166000908152600260205260408120805460ff1916600117905561040e9083610e91565b6001600160a01b031660009081526003602052604090205490565b600061061983336102d8565b9050818110156106775760405162461bcd60e51b8152602060048201526024808201527f45524332303a206275726e20616d6f756e74206578636565647320616c6c6f77604482015263616e636560e01b60648201526084016103db565b6106848333848403610879565b61068e8383610c53565b505050565b606060078054610312906115f5565b60008060006106b2846009610d9b565b91509150816106c3576005546106c5565b805b949350505050565b3360009081526004602090815260408083206001600160a01b03861684529091528120548281101561074f5760405162461bcd60e51b815260206004820152602560248201527f45524332303a2064656372656173656420616c6c6f77616e63652062656c6f77604482015264207a65726f60d81b60648201526084016103db565b61075c3385858403610879565b5060019392505050565b60606107726000610ea6565b905090565b60006103a23384846109b2565b60608167ffffffffffffffff81111561079f5761079f611699565b6040519080825280602002602001820160405280156107d257816020015b60608152602001906001900390816107bd5790505b50905060005b8281101561087257610842308585848181106107f6576107f66116af565b905060200281019061080891906116c5565b8080601f016020809104026020016040519081016040528093929190818152602001838380828437600092019190915250610eb392505050565b828281518110610854576108546116af565b6020026020010181905250808061086a9061170c565b9150506107d8565b5092915050565b6001600160a01b0383166108db5760405162461bcd60e51b8152602060048201526024808201527f45524332303a20617070726f76652066726f6d20746865207a65726f206164646044820152637265737360e01b60648201526084016103db565b6001600160a01b03821661093c5760405162461bcd60e51b815260206004820152602260248201527f45524332303a20617070726f766520746f20746865207a65726f206164647265604482015261737360f01b60648201526084016103db565b6001600160a01b0383811660008181526004602090815260408083209487168084529482529182902085905590518481527f8c5be1e5ebec7d5bd14f71427d1e84f3dd0314c0f7b2291e5b200ac8c7c3b925910160405180910390a3505050565b60006104be836001600160a01b038416610ed8565b6001600160a01b038316610a165760405162461bcd60e51b815260206004820152602560248201527f45524332303a207472616e736665722066726f6d20746865207a65726f206164604482015264647265737360d81b60648201526084016103db565b6001600160a01b038216610a785760405162461bcd60e51b815260206004820152602360248201527f45524332303a207472616e7366657220746f20746865207a65726f206164647260448201526265737360e81b60648201526084016103db565b610a83838383610fcb565b6001600160a01b03831660009081526003602052604090205481811015610afb5760405162461bcd60e51b815260206004820152602660248201527f45524332303a207472616e7366657220616d6f756e7420657863656564732062604482015265616c616e636560d01b60648201526084016103db565b6001600160a01b03808516600090815260036020526040808220858503905591851681529081208054849290610b32908490611686565b92505081905550826001600160a01b0316846001600160a01b03166000805160206117b483398151915284604051610b6c91815260200190565b60405180910390a350505050565b6001600160a01b038216610bd05760405162461bcd60e51b815260206004820152601f60248201527f45524332303a206d696e7420746f20746865207a65726f20616464726573730060448201526064016103db565b610bdc60008383610fcb565b8060056000828254610bee9190611686565b90915550506001600160a01b03821660009081526003602052604081208054839290610c1b908490611686565b90915550506040518181526001600160a01b038316906000906000805160206117b48339815191529060200160405180910390a35050565b6001600160a01b038216610cb35760405162461bcd60e51b815260206004820152602160248201527f45524332303a206275726e2066726f6d20746865207a65726f206164647265736044820152607360f81b60648201526084016103db565b610cbf82600083610fcb565b6001600160a01b03821660009081526003602052604090205481811015610d335760405162461bcd60e51b815260206004820152602260248201527f45524332303a206275726e20616d6f756e7420657863656564732062616c616e604482015261636560f01b60648201526084016103db565b6001600160a01b0383166000908152600360205260408120838303905560058054849290610d62908490611725565b90915550506040518281526000906001600160a01b038516906000805160206117b48339815191529060200160405180910390a3505050565b60008060008411610de75760405162461bcd60e51b815260206004820152601660248201527504552433230536e617073686f743a20696420697320360541b60448201526064016103db565b610def610fd6565b841115610e3e5760405162461bcd60e51b815260206004820152601d60248201527f4552433230536e617073686f743a206e6f6e6578697374656e7420696400000060448201526064016103db565b6000610e4a8486610fe1565b84549091508103610e62576000809250925050610e8a565b6001846001018281548110610e7957610e796116af565b906000526020600020015492509250505b9250929050565b60006104be836001600160a01b0384166110a6565b606060006104be836110f5565b60606104be838360405180606001604052806027815260200161178d60279139611151565b60008181526001830160205260408120548015610fc1576000610efc600183611725565b8554909150600090610f1090600190611725565b9050818114610f75576000866000018281548110610f3057610f306116af565b9060005260206000200154905080876000018481548110610f5357610f536116af565b6000918252602080832090910192909255918252600188019052604090208390555b8554869080610f8657610f86611738565b6001900381819060005260206000200160009055905585600101600086815260200190815260200160002060009055600193505050506103a6565b60009150506103a6565b61068e838383611225565b6000610772600b5490565b81546000908103610ff4575060006103a6565b82546000905b8082101561105057600061100e838361126d565b905084868281548110611023576110236116af565b9060005260206000200154111561103c5780915061104a565b611047816001611686565b92505b50610ffa565b60008211801561108557508385611068600185611725565b81548110611078576110786116af565b9060005260206000200154145b1561109e57611095600183611725565b925050506103a6565b5090506103a6565b60008181526001830160205260408120546110ed575081546001818101845560008481526020808220909301849055845484825282860190935260409020919091556103a6565b5060006103a6565b60608160000180548060200260200160405190810160405280929190818152602001828054801561114557602002820191906000526020600020905b815481526020019060010190808311611131575b50505050509050919050565b6060833b6111b05760405162461bcd60e51b815260206004820152602660248201527f416464726573733a2064656c65676174652063616c6c20746f206e6f6e2d636f6044820152651b9d1c9858dd60d21b60648201526084016103db565b600080856001600160a01b0316856040516111cb919061174e565b600060405180830381855af49150503d8060008114611206576040519150601f19603f3d011682016040523d82523d6000602084013e61120b565b606091505b509150915061121b828286611288565b9695505050505050565b6001600160a01b0383166112445761123c826112c1565b61068e6112eb565b6001600160a01b03821661125b5761123c836112c1565b611264836112c1565b61068e826112c1565b600061127c600284841861176a565b6104be90848416611686565b606083156112975750816104be565b8251156112a75782518084602001fd5b8160405162461bcd60e51b81526004016103db91906113da565b6001600160a01b038116600090815260086020526040902061054a906112e6836105f2565b6112fb565b6112f960096112e660055490565b565b6000611305610fd6565b90508061131184611345565b101561068e578254600180820185556000858152602080822090930193909355938401805494850181558252902090910155565b8054600090810361135857506000919050565b8154829061136890600190611725565b81548110611378576113786116af565b90600052602060002001549050919050565b60005b838110156113a557818101518382015260200161138d565b50506000910152565b600081518084526113c681602086016020860161138a565b601f01601f19169290920160200192915050565b6020815260006104be60208301846113ae565b80356001600160a01b038116811461041457600080fd5b6000806040838503121561141757600080fd5b611420836113ed565b946020939093013593505050565b60006020828403121561144057600080fd5b6104be826113ed565b60008060006060848603121561145e57600080fd5b611467846113ed565b9250611475602085016113ed565b9150604084013590509250925092565b60006020828403121561149757600080fd5b5035919050565b6020808252825182820181905260009190848201906040850190845b818110156114df5783516001600160a01b0316835292840192918401916001016114ba565b50909695505050505050565b600080602083850312156114fe57600080fd5b823567ffffffffffffffff8082111561151657600080fd5b818501915085601f83011261152a57600080fd5b81358181111561153957600080fd5b8660208260051b850101111561154e57600080fd5b60209290920196919550909350505050565b6000602080830181845280855180835260408601915060408160051b870101925083870160005b828110156115b557603f198886030184526115a38583516113ae565b94509285019290850190600101611587565b5092979650505050505050565b600080604083850312156115d557600080fd5b6115de836113ed565b91506115ec602084016113ed565b90509250929050565b600181811c9082168061160957607f821691505b60208210810361053a57634e487b7160e01b600052602260045260246000fd5b60208082526027908201527f4f6e6c79206f776e65722063616e20657865637574652074686973207472616e60408201526639b0b1ba34b7b760c91b606082015260800190565b634e487b7160e01b600052601160045260246000fd5b808201808211156103a6576103a6611670565b634e487b7160e01b600052604160045260246000fd5b634e487b7160e01b600052603260045260246000fd5b6000808335601e198436030181126116dc57600080fd5b83018035915067ffffffffffffffff8211156116f757600080fd5b602001915036819003821315610e8a57600080fd5b60006001820161171e5761171e611670565b5060010190565b818103818111156103a6576103a6611670565b634e487b7160e01b600052603160045260246000fd5b6000825161176081846020870161138a565b9190910192915050565b60008261178757634e487b7160e01b600052601260045260246000fd5b50049056fe416464726573733a206c6f772d6c6576656c2064656c65676174652063616c6c206661696c6564ddf252ad1be2c89b69c2b068fc378daa952ba7f163c4a11628f55a4df523b3efa2646970667358221220636b93805fda291dfb09a784e986918ba3b49f7fbb0d3d5900a24ef71558635964736f6c63430008100033",
  "immutableReferences": {},
  "source": "//SPDX-License-Identifier: LGPL-3.0\r\npragma solidity ^0.8.16;\r\n\r\n//ERC20 Tokens\r\nimport \"@openzeppelin/contracts/token/ERC20/extensions/ERC20Snapshot.sol\";\r\nimport \"@openzeppelin/contracts/token/ERC20/extensions/ERC20Burnable.sol\";\r\n\r\nimport \"../interfaces/IRahatERC20.sol\";\r\nimport \"../libraries/AbstractOwner.sol\";\r\n\r\ncontract RahatERC20 is AbstractOwner, ERC20, ERC20Snapshot, ERC20Burnable, IRahatERC20 {\r\n  uint8 private decimalPoints;\r\n  constructor(\r\n    string memory _name,\r\n    string memory _symbol,\r\n    address _admin,\r\n    uint8 _decimals\r\n  ) ERC20(_name, _symbol) {\r\n    owner[_admin] = true;\r\n    decimalPoints = _decimals;\r\n  }\r\n\r\n  ///@dev returns the decimals of the tokens\r\n  function decimals() public view override returns(uint8){\r\n    return decimalPoints;\r\n  }\r\n\r\n  ///@dev Mint x amount of ERC20 token to given address\r\n  ///@param _address Address to which ERC20 token will be minted\r\n  ///@param _amount Amount of token to be minted\r\n  function mint(address _address, uint256 _amount)\r\n    public\r\n    OnlyOwner\r\n    returns (uint256)\r\n  {\r\n    _mint(_address, _amount);\r\n    return _amount;\r\n  }\r\n\r\n  function _beforeTokenTransfer(\r\n    address from,\r\n    address to,\r\n    uint256 amount\r\n  ) internal override(ERC20, ERC20Snapshot) {\r\n    super._beforeTokenTransfer(from, to, amount);\r\n  }\r\n}\r\n",
  "sourcePath": "S:\\Projects\\rahat\\unicef-np\\rahat-contracts\\src\\contracts\\RahatERC20.sol",
  "compiler": {
    "name": "solc",
    "version": "0.8.16+commit.07a7930e.Emscripten.clang"
  },
  "schemaVersion": "3.4.10",
  "updatedAt": "2022-12-02T08:26:28.954Z",
  "devdoc": {
    "kind": "dev",
    "methods": {
      "addOwner(address)": {
        "params": {
          "_account": "address of new owner"
        }
      },
      "allowance(address,address)": {
        "details": "See {IERC20-allowance}."
      },
      "approve(address,uint256)": {
        "details": "See {IERC20-approve}. Requirements: - `spender` cannot be the zero address."
      },
      "balanceOf(address)": {
        "details": "See {IERC20-balanceOf}."
      },
      "balanceOfAt(address,uint256)": {
        "details": "Retrieves the balance of `account` at the time `snapshotId` was created."
      },
      "burn(uint256)": {
        "details": "Destroys `amount` tokens from the caller. See {ERC20-_burn}."
      },
      "burnFrom(address,uint256)": {
        "details": "Destroys `amount` tokens from `account`, deducting from the caller's allowance. See {ERC20-_burn} and {ERC20-allowance}. Requirements: - the caller must have allowance for ``accounts``'s tokens of at least `amount`."
      },
      "decimals()": {
        "details": "returns the decimals of the tokens"
      },
      "decreaseAllowance(address,uint256)": {
        "details": "Atomically decreases the allowance granted to `spender` by the caller. This is an alternative to {approve} that can be used as a mitigation for problems described in {IERC20-approve}. Emits an {Approval} event indicating the updated allowance. Requirements: - `spender` cannot be the zero address. - `spender` must have allowance for the caller of at least `subtractedValue`."
      },
      "increaseAllowance(address,uint256)": {
        "details": "Atomically increases the allowance granted to `spender` by the caller. This is an alternative to {approve} that can be used as a mitigation for problems described in {IERC20-approve}. Emits an {Approval} event indicating the updated allowance. Requirements: - `spender` cannot be the zero address."
      },
      "mint(address,uint256)": {
        "details": "Mint x amount of ERC20 token to given address",
        "params": {
          "_address": "Address to which ERC20 token will be minted",
          "_amount": "Amount of token to be minted"
        }
      },
      "multicall(bytes[])": {
        "details": "Receives and executes a batch of function calls on this contract."
      },
      "name()": {
        "details": "Returns the name of the token."
      },
      "removeOwner(address)": {
        "params": {
          "_account": "address of existing owner"
        }
      },
      "symbol()": {
        "details": "Returns the symbol of the token, usually a shorter version of the name."
      },
      "totalSupply()": {
        "details": "See {IERC20-totalSupply}."
      },
      "totalSupplyAt(uint256)": {
        "details": "Retrieves the total supply at the time `snapshotId` was created."
      },
      "transfer(address,uint256)": {
        "details": "See {IERC20-transfer}. Requirements: - `recipient` cannot be the zero address. - the caller must have a balance of at least `amount`."
      },
      "transferFrom(address,address,uint256)": {
        "details": "See {IERC20-transferFrom}. Emits an {Approval} event indicating the updated allowance. This is not required by the EIP. See the note at the beginning of {ERC20}. Requirements: - `sender` and `recipient` cannot be the zero address. - `sender` must have a balance of at least `amount`. - the caller must have allowance for ``sender``'s tokens of at least `amount`."
      }
    },
    "version": 1
  },
  "userdoc": {
    "kind": "user",
    "methods": {
      "addOwner(address)": {
        "notice": "Add an account to the owner role"
      },
      "removeOwner(address)": {
        "notice": "Remove an account from the owner role"
      }
    },
    "version": 1
  }
}